:10092C001218007FC87E007D007C00121514120F77
:10093C00947F011219ED900122E475F0011201EE81
:10094C00FED3E5F09458EE94024009E4900122F0B5
:10095C00A3F0801E900126E0700E12006E12007A39
:10096C001219171217BE80EC1212ADE4900126F08A
:10097C0080C47F04121389900122E475F0011201E6
:10098C00EEFED3E5F094D0EE94074009E4900122FA
:10099C00F0A3F08018900126E0700B12006E12008C
:1009AC007A12191780EFE4900126F080CA121B18F6
:1009BC00E4FF121389E4900125F0900122E475F014
:1009CC0001120204FED3E5F094C8EE94004061E4F9
:1009DC00900122F0A3F0121BBC9000F1EFF0F47028
:1009EC002F121B02EF64017014900125E004F0D368
:1009FC00940F7480948040387410F08033900124EC
:100A0C00E0702D04F0FF121BB6E4900125F080205D
:100A1C00E4900124F09000F1E0D39404748094806D
:100A2C00E49001254005F07F018002F0FF121BB617
:100A3C00900126E0701712006E12007A121BD4126D
:100A4C0004FA1217BE121917121BD180E31212AD41
:100A5C00120EF21215701211C4120A70E4900126D3
:040A6C00F00209C6C5
:10180000E4F5B1F5B2F5B3F5B4F5ACF5ADC285C20A
:1018100094D292C29112004E121B08121B28121170
:101820004E121A151200261219471218B4121B6F05
:0E183000121AD443B21843B408D283D2AF22A6
:041BC2004101430A90
:10004E005389F0438901438E0890014474C1F0A393
:0D005E007480F0758CC1F58AD2A9D28C2275
:03000B0002199D3A
:06199D00C0E0C083C0821F
:1019A300900144E0F58CA3E0F58A900143E014F044
:0B19B3007009740AF090012674FFF028
:0719BE00D082D083D0E0329B
:101B0800C2AC7F007EC27D017C0012187BD2AC2261
:101B1800C2AC7F807E257D007C0012187BD2AC226F
:0300230002172F92
:10172F00C0E0C0F0C083C082C0D075D000C000C080
:10173F0001C002C003C004C005C006C00730990530
:10174F001215CBC2993098051210BFC298D007D08E
:10175F0006D005D004D003D002D001D000D0D0D015
:08176F0082D083D0F0D0E032FB
:0F1B28007F807E257D007C0012131B439C0122D1
:03007B00021777F2
:10177700C0E0C0F0C083C082C0D075D000C000C038
:1017870001C002C003C004C005C006C00730F9028B
:10179700C2F930F807C2F8AF9A1219C5D007D006B8
:1017A700D005D004D003D002D001D000D0D0D08251
:0717B700D083D0F0D0E03236
:08000300C2F98F9A30F9FD22C9
:10114E00A2AF9200C2AF75C7AA75C75543910143AE
:10115E00C60875C7AA75C7555391FEA20092AF4334
:10116E00B210538EBFA2AF920075C7AA75C7557540
:10117E00910153B7F843B70375C7AA75C755E4F580
:10118E0091A20092AFA2AF920075C7AA75C755750E
:10119E00910143B71053D8DF75C7AA75C755F5919E
:1011AE00A20092AF75D104F5D9F5D575DD01539B2B
:0611BE00F7C2DEC2DF22D1
:03006B0002000E82
:10000E00C0E0C083C082C2DD90014874FFF0D08290
:05001E00D083D0E032A8
:0E1B5500E4F5D575DD01439B08D2DED2DF2218
:081B8200539BF7C2DFC2DD2214
:101A5E00120174FF7E00D394FFEE940340047E03C4
:101A6E007FFFEF4E7003FE7F018FDDEEF5D5D2DEE8
:011A7E002245
:101A7F00AFDDEF6480700DAFD5EF70089000C874C4
:101A8F0002F0800905DDAFDDEF700205D5D2DE2251
:0C006E00900148E06005E4F0120E4B2207
:101A150043F40853F37F53F3DF53F3F753F3FB43D7
:101A2500F31053F3FE53F3FD539BBFD29553F3BF0E
:061A3500E4900106F0221E
:0C1B63008FF5E5F4548060FA53F47F2203
:0E1B3700E4F5F5E5F4548060FAAFF553F47F61
:011B4500227D
:03004B00021A9FF7
:101A9F00C0E0C083C082E5F430E70990010E74FF07
:0B1AAF00F053F47FD082D083D0E032EF
:1013F300900100120335D295900100E0FCA3E0FDBB
:10140300A3E0FEA3E0FF781012030F90010AEFF0B0
:10141300900100E0FCA3E0FDA3E0FEA3E0FF780859
:1014230012030F900109EFF0900100A3A3A3E09032
:101433000108F0C29543F3407F03121B6390010A36
:10144300E0FF121B63900109E0FF121B6390010888
:05145300E0FF021B6335
:0E1B4600E4F5F5E5F4548060FAAFF553F47F52
:011B5400226E
:061BAA00D29553F3BF22A7
:01007A002263
:10002600E4FFEFC3942074809480500F749A2FF5E8
:1000360082E43400F583E4F00F80E7E4900099F061
:04004600900098F09E
:01004A002293
:1019C500900098E004541FFEA3E06E601A90009802
:1019D500E0FE04F0749A2EF582E43400F583EFF00E
:0819E500900098E0541FF0226D
:1018E700900098E0FFA3E0B507037F0022900099DE
:1018F700E0FF04F0749A2FF582E43400F583E012D8
:1019070001BA900099E0541FF0121973EF04FF22F7
:10197300900098E0FEA3E0FDB506037F0022EDD3BF
:101983009E400A900098E02420C39DFF2290009976
:0A199300E0FF900098E0C39FFF22E0
:011BD40022EE
:101AE600EF64017004D2948002C2949000C3EFF0B8
:011AF60022CD
:061BB0009000C3E0FF22DB
:1018B400E49000CAF09000CAE0FFC39408748094D6
:1018C40080501474CB2FF582E43400F583E4F09057
:1018D40000CAE004F080DEE49000C9F0A3F07F02C7
:0318E400021AE6FF
:011BD50022ED
:011BD60022EC
:050372009000F7EFF020
:100377007E00D394007480948050030204F4EF94B9
:100387000E7480948040030204F49000FC12034131
:10039700000000009000FCE0F8A3E0F9A3E0FAA356
:1003A700E0FB9000F7E0FFEB4FFFEAFEE9FDE8FC1A
:1003B7009000FC1203359000FCE0FCA3E0FDA3E0F5
:1003C700FEA3E0FF78041203229000FC120335908D
:1003D70000FCE0FCA3E0FDA3E0FEA3E0FF1213F3A3
:1003E700121B469000F8EFF0121B469000F9EFF051
:1003F700121B469000FAEFF0121B469000FBEFF03D
:10040700121BAA9000FC120341000000009000FCA0
:10041700E0F8A3E0F9A3E0FAA3E0FB9000FBE0FF1C
:10042700EB4FFFEAFEE9FDE8FCA31203359000FC61
:10043700E0FCA3E0FDA3E0FEA3E0FF78081203229F
:100447009000FC1203359000FCE0F8A3E0F9A3E06C
:10045700FAA3E0FB9000FAE0FFEB4FFFEAFEE9FDAD
:10046700E8FC9000FC1203359000FCE0FCA3E0FDE3
:10047700A3E0FEA3E0FF78081203229000FC12031A
:10048700359000FCE0F8A3E0F9A3E0FAA3E0FB90C5
:1004970000F9E0FFEB4FFFEAFEE9FDE8FC9000FC06
:1004A7001203359000FCE0FCA3E0FDA3E0FEA3E00F
:1004B700FF78081203229000FC1203359000FCE03D
:1004C700F8A3E0F9A3E0FAA3E0FB9000F8E0FFEB64
:1004D7004FFFEAFEE9FDE8FC9000FC1203359000AF
:1004E700FCE0FCA3E0FDA3E0FEA3E0FF22E4FFFEA7
:0204F700FDFC0A
:0104F90022E0
:1019ED009000CAE004540FFE9000C9E06E6018A389
:1019FD00E0FE04F074CB2EF582E43400F583EFF0B5
:081A0D009000CAE0540FF02222
:0507DB009000F2EFF0B8
:1007E0007F01121AE6121B829000F2E0FF120372E0
:1007F0009000BA1203359000BAE0FCA3E0FDA3E03C
:10080000FEA3E0242AFFE43EFEE43DFDE43CFC12AE
:1008100013F3121B469000F3EFF0121B469000F406
:10082000EFF0121B469000F5EFF0121B469000F619
:10083000EFF09000C4120341000000009000C4E0FB
:10084000F8A3E0F9A3E0FAA3E0FB9000F6E0FFEBE9
:100850004FFFEAFEE9FDE8FC9000C412033590006A
:10086000C4E0FCA3E0FDA3E0FEA3E0FF78081203D0
:10087000229000C41203359000C4E0F8A3E0F9A36D
:10088000E0FAA3E0FB9000F5E0FFEB4FFFEAFEE9A2
:10089000FDE8FC9000C41203359000C4E0FCA3E026
:1008A000FDA3E0FEA3E0FF78081203229000C4122B
:1008B00003359000C4E0F8A3E0F9A3E0FAA3E0FB5D
:1008C0009000F4E0FFEB4FFFEAFEE9FDE8FC90004A
:1008D000C41203359000C4E0FCA3E0FDA3E0FEA336
:1008E000E0FF78081203229000C41203359000C480
:1008F000E0F8A3E0F9A3E0FAA3E0FB9000F3E0FF47
:10090000EB4FFFEAFEE9FDE8FC9000C4120335E47A
:100910009000F3F0A37402F09000BF1203410000B6
:0B0920000000121B559000C87401F08D
:01092B0022A9
:100E4B009000C8E024FE601314606C147003020E53
:100E5B00E324036003020EF1021A7F9000C4E0FC4E
:100E6B00A3E0FDA3E0FEA3E0FF9000BFE0F8A3E04A
:100E7B00F9A3E0FAA3E0FBC31202FE70079000C8CF
:100E8B007403F022121BD6121B469000F2EFF09067
:100E9B0000BFE0FCA3E0FDA3E0FEA3E02401FFE420
:100EAB003EFEE43DFDE43CFC9000BF1203357B01AC
:100EBB007A0079F2021A5EAFDDEF6401700DAFD5E7
:100ECB00EF70089000C87404F0800A15DDAFDDEFF9
:100EDB00F4700215D5D2DE227F02121AE6121BD550
:060EEB00121BAA121B827B
:010EF10022DE
:101917009000C9E0FFA3E06F6025121BB0EF6402DF
:10192700701D9000C9E0FF04F074CB2FF582E434FA
:1019370000F583E0FF1207DB9000C9E0540FF022A7
:100CEF00FB330000000000000002030200000300BD
:100CFF000000640100000000000000000000000080
:100D0F0000000000000000000000000000000000D4
:100D1F00000063FB3300000000000000020302002C
:100D2F0000010000000000000000000000000000B3
:100D3F0000000000000000000000000000000000A4
:100D4F00000000000063FB0F000000000000000225
:100D5F0001020000F1FB0F00000000000000020282
:100D6F00020000F0FB0F0000000000000002040270
:100D7F000000EEFB13000000000000000905090051
:100D8F000080250000360D550D640D730CEF0D829C
:061BB600900007EFF02291
:0B1AF7009000067401F0E4900002F083
:061B0200900007E0FF2245
:101947009000537401F0A37400F0A37410F090009A
:10195700507401F0A37400F0A37430F0E490000C0D
:0C196700F0C293900006F07F01021BB656
:10103000E4FE900D23E493FDEEC39D5015EE900D5C
:101040002293FD74572EF582E43400F583EDF00E03
:1010500080E09000657401F0900069EFF0E4FFFE1D
:10106000900D23E49314FDEEC39D501074572EF59C
:1010700082E43400F583E02FFF0E80E4EFF4FF0FED
:1010800074572EF582E43400F583EFF09000097474
:1010900001F0A37400F0A37457F09000977401F06E
:1010A000E490000FF0900009E0FBA3E0FAA3E0F960
:0E10B00090000FE0F58275830012018DF59916
:0110BE00220F
:051BC7007F64021030F4
:051BCC007F0302103050
:051389009000F2EFF0FE
:10138E0078F37C007D017BFF7A0D79957E007F0AD4
:10139E0012014E9000F2E0FFD394047480948050BA
:1013AE0043EF25E024F3F582E43400F583E0FEA359
:1013BE00E0AA06F990000974FFF0A3EAF0A3E9F0A1
:1013CE009000977401F0E490000FF0900009E0FB9C
:1013DE00A3E0FAA3E0F990000FE0F5827583001206
:0413EE00018DF599DF
:0113F20022D8
:10157000900056E06054900000E0B4010AA3E0B48B
:1015800090057F02121389900000E0B4010AA3E0E5
:10159000B4A905E4FF121389900000E475F001126C
:1015A00001EEFED3E5F094C2EE9401401DE49000FC
:1015B00000F0A3F0900005E0600BE4900056F0C24C
:0A15C000937F0480027F031219EDEF
:0115CA0022FE
:1004FA0090000CE020E70302066A547FF090005057
:10050A00E0FBA3E0FAA3E0F990000112018DFFE4F9
:10051A00FEFDEDC39F5018900050E0FBA3E0FAA344
:10052A00E0F98D8275830012018D2EFE0D80E3EEB7
:10053A00600302066A900050E0FBA3E0FAA3E0F928
:10054A0090000912018D24F7700302061E24F77029
:10055A00030206392410600302066A90000A120197
:10056A008D6406600302066A900056E06003020684
:10057A006A90000E12018D24FE601D146029146019
:10058A006A2403600302066A121AF7EF6401600321
:10059A0002066A7F0602061B121AF7EF640160035D
:1005AA0002066A7F05806A9000067401F0121B0237
:1005BA00EF6401600302066A900002E014601314FB
:1005CA00601414601114601A146017240560030281
:1005DA00066A7F0780027F091219ED900002E00483
:1005EA00F0227F0B1219ED7F0B8026900006740112
:1005FA00F0121B02EF64017067900002E0D39402CC
:10060A007480948040097F0B1219ED7F0B80027F62
:10061A00080219ED900050E0FBA3E0FAA3E0F9907C
:10062A00000A12018D6401703790000804F02290CC
:10063A000050E0FBA3E0FAA3E0F990000A12018D52
:10064A006404701C90000B12018D640270129000F9
:10065A000D12018D700A90000E12018D900005F0A6
:01066A00226D
:1015CB00900097E06401705090000FE004F064010C
:1015DB00701B900009E0FBA3E0FAA3E0F990000F69
:1015EB00E0F58275830012018D900003F0900003EB
:1015FB00E014FF90000FE0FED39F4007900097741C
:10160B0080F022900009E0FBA3E0FAA3E0F98E82C0
:08161B0075830012018DF599A1
:0116230022A4
:1010BF00AF99EF64FB700490000DF090000DE0FE0F
:1010CF0064017005900004EFF0900053E0FBA3E083
:1010DF00FAA3E0F98E82758300EF1201CC90000D18
:1010EF00E004F0E0FF900004E06F705290000CE01D
:1010FF0030E02154FEF09000537401F0A37400F01F
:10110F00A37410F09000507401F0A37400F0A37456
:10111F0030F0802390000CE04401F09000537401F4
:10112F00F0A37400F0A37430F09000507401F0A39A
:0E113F007400F0A37410F090000CE04480F0F7
:01114D00227F
:0A1B6F00D297900115E04401F02226
:1012AD0030972790010FE0FFD39405748094804010
:1012BD000FEF94DD7480948050069001147401F04A
:1012CD00E4900110F090010FF022900110E01460F5
:1012DD001704703990010FE004F0D39405748094D5
:1012ED0080402AA37401F02290010FE004F0E0FF8A
:1012FD007E0064DC70069001147402F0D3EF94DC70
:0D130D00EE64809480400690010F74E1F0C2
:01131A0022B0
:1017BE00900114E0603B64017017A3E064017003B4
:1017CE007480F0900115E070087481F07F01121999
:1017DE00ED900114E064027013A3E06401700D90AB
:1017EE00005674FFF0D2937F021219EDE4900114AB
:0217FE00F022D7
:1011C400900115E030E709547FF09001117401F0AB
:1011D400900111E0605F24FE601C14601C146033F5
:1011E4002403704C900115E090011130E004740266
:1011F400F0227403F022021ABA90011374AAF012B6
:1012040018B47F0A1219ED7F011213899001117429
:1012140004F022900112E0FF04F0D3EF94FB7480F9
:1012240094804011E4F0C283C292C293C2948001BC
:05123400E4900111F03F
:011239002292
:091B7900475056544700FF1B7948
:101AD400E49000F0F09000EFF09000EDF09000EC56
:021AE400F022EE
:10066B007B017A0079F21218E7EF70030207DA9038
:10067B0000DBE014602814700302071E14700302E1
:10068B000740240360030207DA9000F2E064246061
:10069B00030207DA9000DBE004F0E4A3F022900001
:1006AB00F2E0FF9000DCE0FE04F074DE2EF582E455
:1006BB003400F583EFF09000DCE064056003020783
:1006CB00DAA3F09000DCE0FFA3E0FEC39F50349070
:1006DB001B7FE493FB740193FA740293F98E82757A
:1006EB00830012018DFF74DE2EF582E43400F58356
:1006FB00E06F6007E49000DBF080089000DDE00421
:10070B00F080C09000DDE0640560030207DA900022
:10071B00DC80189000F2E0B42C069000DCE004F0D2
:10072B009000DCE0640760030207DAF0A3F09000AE
:10073B00DBE004F0229000F2E0FF642C6005EF6434
:10074B002E70729000DCE0FF605F9000EE7424F07E
:10075B00EF640370229000DFE075F00AA4FF9000B5
:10076B00DEE075F064A42FFF9000E0E02F9000F026
:10077B00F09000EF74FFF09000DCE0FB6402701669
:10078B009000DEE075F00AA4FEA3E02E9000F0F0DE
:10079B009000EF74FFF0EB6401700E9000DEE090C0
:1007AB0000F0F09000EF74FFF0E49000DCF0A3F0A9
:1007BB009000DBF0229000F2E024D0FF9000DCE010
:0F07CB00FE04F074DE2EF582E43400F583EFF0C7
:0107DA0022FC
:061BBC009000EDE0FF22A5
:101A3B009000ECE06402701A900115E030E0139016
:101A4B0000E8E004F0D39464748094804004E4F0E4
:021A5B00B29245
:011A5D002266
:100EF2009000EFE06012E4F09000E9F0A3F09000BF
:100F0200F0E09000EDF080249000E9E475F0011229
:100F120001EEFED3E5F094A0EE9400400F9000E9BC
:100F2200E4F0A374AAF09000ED74FFF09000EBE0FF
:100F320004F0D394A0748094804054E4F0A3E0645D
:100F420001700D9000EEE0B42404E4F08041802FA3
:100F52009000ECE0640270109000EEE0B424028095
:100F62000EE49000EEF080279000EEE0B42410E44E
:100F7200F09000EC04F07F0C1219EDD2928010E494
:100F82009000EEF09000EC7402F07F0D1219ED0269
:020F92001A3B08
:031BD10002066B9E
:10183E001234000054686973206669726D776172A4
:10184E0065207772697465206279204A75737469B0
:10185E006E5A686F75203C6A757374696E2E7A685D
:0D186E006F7533304071712E636F6D3E0059
:100B5B0090011812034100000000E4900146F0A33D
:100B6B00F0900116F0A3F090183EE493FE740193FD
:100B7B00FFC3900117E09FEE6480F8900116E064CC
:100B8B008098504D900118E0F8A3E0F9A3E0FAA388
:100B9B00E0FB900116E0FEA3E0FF900146E0FCA312
:100BAB00E02FF582EC3EF583E493FFE4FCFDFEEBD6
:100BBB002FFFEE3AFEED39FDEC38FC9001181203D5
:100BCB0035900117E004F0709E900116E004F08060
:100BDB0096900118E0FCA3E0FDA3E0FEA3E0FFC0AC
:100BEB0006C007901840E493FE740193FBAA06EA33
:100BFB003395E0F9F8D007D006C3EF9BFFEE9AFED2
:100C0B00ED99FDEC98FC900118120335901840E417
:100C1B0093FE740193FFEE3395E0FDFC900118E019
:100C2B00F8A3E0F9A3E0FAA3E0FBC31202E8600229
:020C3B0080FE39
:010C3D002294
:100F94007F007E037D007C001213F3E49000F2F0E6
:100FA4009000F2E0C39439748094805016121B466A
:100FB4009000F2E090184293B507089000F2E00424
:100FC400F080DD9000F2E0C3943974809480500284
:100FD40080FE7F807E037D007C001213F3E490008A
:100FE400F2F09000F2E0C3941474809480500B12D9
:100FF4001B469000F2E004F080E8121B46EF644FB9
:10100400600280FEE49000F2F09000F2E0C39407E6
:1010140074809480500B121B469000F2E004F08020
:0B102400E8121B46EF6454600280FEDF
:01102F00229E
:100A700090011CE475F0011201EEFED3E5F094C480
:100A8000EE9409402DE490011CF0A3F0900113E0D6
:100A900064AA700590000804F0900008E06008E483
:100AA000F0900121F0800B9001217401F0E490019D
:100AB00020F0900121E07003020B5A900120E0B475
:100AC00007004003020B5A900ACEF8282873020A46
:100AD000E3020AF1020B08020B0C020B23020B3299
:100AE000020B4FC283E490011EF0A3F0121B08809A
:100AF0005990011EE475F0011201EEFED3E5F09469
:100B000064EE940040548042D283801C90011EE425
:100B100075F0011201EEFED3E5F094F4EE9401407D
:100B20003980277F04121389E490011EF0A3F0A3FB
:100B3000802590011EE475F0011201EEFED3E5F070
:100B40009478EE94054013121B189001208008E45D
:0A0B5000FF121389900120E004F069
:010B5A002278
:10162400900127120335538EF7438901D28CE4FFCE
:10163400FEFDFC900127E0F8A3E0F9A3E0FAA3E0A3
:10164400FBC31202FE602F758A7E758CFF308DFD00
:10165400C28D900127E0FCA3E0FDA3E0FEA3E024FB
:10166400FFFFEE34FFFEED34FFFDEC34FFFC900190
:091674002712033580B8C28C2254
:10167D0090012B120335538EF7438901D28CE4FF71
:10168D00FEFDFC90012BE0F8A3E0F9A3E0FAA3E046
:10169D00FBC31202FE602F758ACA758CFA308DFD60
:1016AD00C28D90012BE0FCA3E0FDA3E0FEA3E0249E
:1016BD00FFFFEE34FFFEED34FFFDEC34FFFC900137
:0916CD002B12033580B8C28C22F7
:1016D60090012F120335538EEF438910D28EE4FF0B
:1016E600FEFDFC90012FE0F8A3E0F9A3E0FAA3E0E9
:1016F600FBC31202FE602F758BEA758DCB308FFD12
:10170600C28F90012FE0FCA3E0FDA3E0FEA3E0243E
:10171600FFFFEE34FFFEED34FFFDEC34FFFC9001DD
:091726002F12033580B8C28E2297
:101514009000F212033553C9BF53C9DF43C910D237
:10152400CAE4FFFEFDFC9000F2E0F8A3E0F9A3E0BA
:10153400FAA3E0FBC31202FE602F75CC3075CDF820
:1015440030CFFDC2CF9000F2E0FCA3E0FDA3E0FEAB
:10155400A3E024FFFFEE34FFFEED34FFFDEC34FF87
:0C156400FC9000F212033580B8C2CA22CD
:1014580090013312033575C40743C408E4FFFEFD49
:10146800FC900133E0F8A3E0F9A3E0FAA3E0FBC3A2
:101478001202FE603575C52C75C6CFE5C4541064DC
:101488001070F853C4EF900133E0FCA3E0FDA3E033
:10149800FEA3E024FFFFEE34FFFEED34FFFDEC3445
:0E14A800FFFC90013312033580B253C4F722CB
:1014B60090013712033575C40743C408E4FFFEFDE7
:1014C600FC900137E0F8A3E0F9A3E0FAA3E0FBC340
:1014D6001202FE603575C5D875C6FFE5C4541064A2
:1014E6001070F853C4EF900137E0FCA3E0FDA3E0D1
:1014F600FEA3E024FFFFEE34FFFEED34FFFDEC34E7
:0E150600FFFC90013712033580B253C4F72268
:10187B0053B1BF53B2BF53B17F53B27F759850432F
:10188B008920438780438E1053C4DFAB07AA06A978
:10189B0005A8047F407E427D0F7C00120256EF04A8
:0918AB00F404F58DD28ED29922CD
:10123A0090013B12033553B1BF53B2BF53B17F5331
:10124A00B27F75985043878053C4F843C4209001F5
:10125A003BE0F8A3E0F9A3E0FAA3E0FB7F407E427B
:10126A007D0F7C00120256C374FF9FFF74FF9EFE1F
:10127A00E49DFDE49CFC780812030F8FC690013BA5
:10128A00E0F8A3E0F9A3E0FAA3E0FB7F407E427D09
:10129A000F7C00120256C374FF9FFF8FC543C40818
:0312AA00D29922B4
:071B8A003098FDAF99C298ED
:011B91002231
:081B9200C2998F993099FD22E0
:10131B009000F212033553B1FB53B2FB53B3BF53DF
:10132B00B4BF75F85075C40853C4DF9000F2E0F8F1
:10133B00A3E0F9A3E0FAA3E0FB7F407E427D0F7CA4
:10134B0000120256C374FF9FFF74FF9EFEE49DFDC7
:10135B00E49CFC780812030F8FC69000F2E0F8A310
:10136B00E0F9A3E0FAA3E0FB7F407E427D0F7C0017
:0E137B00120256C374FF9FFF8FC543C40822A1
:071B9A0030F8FDAF9AC2F81C
:011BA1002221
:081BA200C2F98F9A30F9FD220F
:101ABA0075C7AA75C755A2AF9200C2AF75C7AA75F6
:0A1ACA00C755439F80A20092AF228F
:100C3E00A2AF9200C2AF75C7AA75C755439F01A256
:100C4E000092AF75A630E4F5A775AF04A2AF92007F
:100C5E00C2AF75C7AA75C75543A401A20092AF9043
:100C6E000141E5AEF075A631E4F5A7A2AF9200C240
:100C7E00AF75C7AA75C75543A401A20092AFA3E5ED
:100C8E00AEF0A2AF9200C2AF75C7AA75C755539FFB
:100C9E00FEA20092AF900141E025E0FFE433FEA3F7
:100CAE00E054017C002FFFEC3E90013FF0A3EFF0EB
:100CBE00E024F1F090013FE034FFF0E0FEA3E0FF0E
:100CCE005401FD900142F0EEC313EF13900141F079
:100CDE0075C7AA75C755F58475C7AA75C7558D858D
:010CEE0022E3
:03000000020D9F4F
:100D9F0075C7AA75C75575FD5A75C7AA75C7557515
:100DAF00FDA5787FE4F6D8FD9000007FFF7E03E479
:0C0DBF00F0A3DFFCDEFA758120020E06B6
:100DCB0002092CE493A3F8E493A34003F68001F209
:100DDB0008DFF48029E493A3F85407240CC8C33329
:100DEB00C4540F4420C8834004F456800146F6DFF8
:100DFB00E4800B0102040810204080901BC2E47EAB
:100E0B00019360BCA3FF543F30E509541FFEE493EC
:100E1B00A360010ECF54C025E060A840B8E493A3B3
:100E2B00FAE493A3F8E493A3C8C582C8CAC583CADE
:100E3B00F0A3C8C582C8CAC583CADFE9DEE780BE96
:011BC600001E
:10007E00E709F608DFFA8046E709F208DFFA803E64
:10008E0088828C83E709F0A3DFFA8032E309F60851
:10009E00DFFA8078E309F208DFFA807088828C83B9
:1000AE00E309F0A3DFFA806489828A83E0A3F6086D
:1000BE00DFFA805889828A83E0A3F208DFFA804C47
:1000CE0080D280FA80C680D4806980F2803380101E
:1000DE0080A680EA809A80A880DA80E280CA803387
:1000EE0089828A83ECFAE493A3C8C582C8CCC583FF
:1000FE00CCF0A3C8C582C8CCC583CCDFE9DEE780CF
:10010E000D89828A83E493A3F608DFF9ECFAA9F04D
:10011E00EDFB2289828A83ECFAE0A3C8C582C8CCA3
:10012E00C583CCF0A3C8C582C8CCC583CCDFEADEBC
:10013E00E880DB89828A83E493A3F208DFF980CC1E
:10014E0088F0EF60010E4E60C388F0ED2402B40417
:10015E000050B9F582EB2402B4040050AF232345BE
:06016E0082239000CE7315
:10017400BB010689828A83E0225002E722BBFE0289
:09018400E32289828A83E49322BC
:10018D00BB010CE58229F582E5833AF583E0225027
:10019D0006E92582F8E622BBFE06E92582F8E22271
:0D01AD00E58229F582E5833AF583E493228B
:1001BA00BB010689828A83F0225002F722BBFE0124
:0201CA00F3221E
:1001CC00F8BB010DE58229F582E5833AF583E8F069
:1001DC00225006E92582C8F622BBFE05E92582C815
:0201EC00F222FD
:1001EE00C5F0F8A3E028F0C5F0F8E582158270029C
:0601FE001583E038F02239
:10020400A3F8E0C5F025F0F0E582158270021583AD
:06021400E0C838F0E8220A
:10021A0075F008758200EF2FFFEE33FECD33CDCC9B
:10022A0033CCC58233C5829BED9AEC99E58298401E
:10023A000CF582EE9BFEED9AFDEC99FC0FD5F0D6FB
:10024A00E4CEFBE4CDFAE4CCF9A88222B800C1B925
:10025A000059BA002DEC8BF084CFCECDFCE5F0CB63
:10026A00F97818EF2FFFEE33FEED33FDEC33FCEB9C
:10027A0033FB10D703994004EB99FB0FD8E5E4F957
:10028A00FA227818EF2FFFEE33FEED33FDEC33FC44
:10029A00C933C910D7059BE99A4007EC9BFCE99A38
:1002AA00F90FD8E0E4C9FAE4CCFB2275F010EF2F7D
:1002BA00FFEE33FEED33FDCC33CCC833C810D7077D
:1002CA009BEC9AE899400AED9BFDEC9AFCE899F8B8
:0E02DA000FD5F0DAE4CDFBE4CCFAE4C8F9224B
:1002E800EB9FF5F0EA9E42F0E99D42F0EC6480C88D
:0602F80064809845F0222D
:1002FE00EB9FF5F0EA9E42F0E99D42F0E89C45F056
:01030E0022CC
:10030F00E8600FECC313FCED13FDEE13FEEF13FFCC
:03031F00D8F122F0
:10032200E8600FEFC333FFEE33FEED33FDEC33FC39
:03033200D8F122DD
:0C033500ECF0A3EDF0A3EEF0A3EFF0223B
:10034100A8828583F0D083D08212035812035812F9
:100351000358120358E473E493A3C583C5F0C5831E
:10036100C8C582C8F0A3C583C5F0C583C8C582C806
:010371002269
:00000001FF
