:10096F001217D97FC87E007D007C0012153B120F35
:10097F00C47F01121A02900121E475F0011201EEF9
:10098F00FED3E5F09458EE94024009E4900121F073
:10099F00A3F0801E900125E0700E12006E12007AF7
:1009AF0012192C12185480EC121267E4900125F0E2
:1009BF0080C47F041213B0900121E475F00112017D
:1009CF00EEFED3E5F09464EE94004009E49001212B
:1009DF00F0A3F08018900125E0700B12006E12004A
:1009EF007A12192C80EFE4900125F080CA121B585F
:1009FF00E4FF1213B0E4900124F0900121E475F0AC
:100A0F0001120204FED3E5F094C8EE94004062E4B4
:100A1F00900121F0A3F0121BCD9000F1EFF0F470D4
:100A2F0030121B17EF64017015900124E004F0D30E
:100A3F00940F7480948040397410F0E4802F9001EB
:100A4F0023E0702D04F0FF121BC7E4900124F08007
:100A5F0020E4900123F09000F1E0D394047480948B
:100A6F0080E49001244005F07F018002F0FF121B0B
:100A7F00C7900125E0701712006E12007A121BE565
:100A8F0012037212185412192C121BE280E3121265
:100A9F0067120F221216FB121343120B97E49001E9
:050AAF0025F0020A0918
:1017D900E4F5B1F5B2F5B3F5B4F5ACF5ADC285C232
:1017E90094D292C29112004E121B4A121B1D121161
:1017F9007E121A2A12002612195C1218C9121B80AD
:0E180900121AE943B21843B408D283D2AF22B8
:041BD3004101420A80
:10004E005389F0438901438E0890014374C1F0A394
:0D005E007480F0758CC1F58AD2A9D28C2275
:03000B000219B225
:0619B200C0E0C083C0820A
:1019B800900143E0F58CA3E0F58A900142E014F031
:0B19C8007009740AF090012574FFF014
:0719D300D082D083D0E03286
:0E1B4A007F007EC27D017C00121890D2AC227A
:0E1B58007F807E257D007C00121890D2AC228A
:0300230002174A77
:10174A00C0E0C0F0C083C082C0D075D000C000C065
:10175A0001C002C003C004C005C006C00730990515
:10176A00121597C2993098051210EFC298D007D077
:10177A0006D005D004D003D002D001D000D0D0D0FA
:08178A0082D083D0F0D0E032E0
:0F1B1D007F807E257D007C001212D5439C012223
:03007B00021792D7
:10179200C0E0C0F0C083C082C0D075D000C000C01D
:1017A20001C002C003C004C005C006C00730F90270
:1017B200C2F930F807C2F8AF9A1219DAD007D00688
:1017C200D005D004D003D002D001D000D0D0D08236
:0717D200D083D0F0D0E0321B
:08000300C2F98F9A30F9FD22C9
:10117E00A2AF9200C2AF75C7AA75C755439101437E
:10118E00C60875C7AA75C7555391FEA20092AF4304
:10119E00B210538EBFA2AF920075C7AA75C7557510
:1011AE00910153B7F843B70375C7AA75C755E4F550
:1011BE0091A20092AFA2AF920075C7AA75C75575DE
:1011CE00910143B71053D8DF75C7AA75C755F5916E
:1011DE00A20092AF75D104F5D9F5D575DD01539BFB
:0611EE00F7C2DEC2DF22A1
:03006B0002000E82
:10000E00C0E0C083C082C2DD90014774FFF0D08291
:05001E00D083D0E032A8
:0E1B6600E4F5D575DD01439B08D2DED2DF2207
:081B9300539BF7C2DFC2DD2203
:101A7300120174FF7E00D394FFEE940340047E03AF
:101A83007FFFEF4E7003FE7F018FDDEEF5D5D2DED3
:011A93002230
:101A9400AFDDEF6480700DAFD5EF70089000C874AF
:101AA40002F0800905DDAFDDEF700205D5D2DE223C
:0C006E00900147E06005E4F0120E7B22D8
:101A2A0043F40853F37F53F3DF53F3F753F3FB43C2
:101A3A00F31053F3FE53F3FD539BBFD29553F3BFF9
:061A4A00E4900106F02209
:0C1B74008FF5E5F4548060FA53F47F22F2
:0E1B2C00E4F5F5E5F4548060FAAFF553F47F6C
:011B3A002288
:03004B00021AB4E2
:101AB400C0E0C083C082E5F430E70990010E74FFF2
:0B1AC400F053F47FD082D083D0E032DA
:10141A00900100120335D295900100E0FCA3E0FD93
:10142A00A3E0FEA3E0FF781012030F90010AEFF089
:10143A00900100E0FCA3E0FDA3E0FEA3E0FF780832
:10144A0012030F900109EFF0900100A3A3A3E0900B
:10145A000108F0C29543F3407F03121B7490010AFE
:10146A00E0FF121B74900109E0FF121B749001083F
:05147A00E0FF021B74FD
:0E1B3B00E4F5F5E5F4548060FAAFF553F47F5D
:011B49002279
:061BBB00D29553F3BF2296
:01007A002263
:10002600E4FFEFC3942074809480500F749A2FF5E8
:1000360082E43400F583E4F00F80E7E4900099F061
:04004600900098F09E
:01004A002293
:1019DA00900098E004541FFEA3E06E601A900098ED
:1019EA00E0FE04F0749A2EF582E43400F583EFF0F9
:0819FA00900098E0541FF02258
:1018FC00900098E0FFA3E0B507037F0022900099C9
:10190C00E0FF04F0749A2FF582E43400F583E012C2
:10191C0001BA900099E0541FF0121988EF04FF22CD
:10198800900098E0FEA3E0FDB506037F0022EDD3AA
:101998009E400A900098E02420C39DFF2290009961
:0A19A800E0FF900098E0C39FFF22CB
:011BE50022DD
:101AFB00EF64017004D2948002C2949000C3EFF0A3
:011B0B0022B7
:061BC1009000C3E0FF22CA
:1018C900E49000CAF09000CAE0FFC39408748094C1
:1018D90080501474CB2FF582E43400F583E4F09042
:1018E90000CAE004F080DEE49000C9F0A3F07F02B2
:0318F900021AFBD5
:011BE60022DC
:011BE70022DB
:050526009000F7EFF06A
:10052B007E00D394007480948050030206A8EF944D
:10053B000E7480948040030206A89000FC120341C5
:10054B00000000009000FCE0F8A3E0F9A3E0FAA3A0
:10055B00E0FB9000F7E0FFEB4FFFEAFEE9FDE8FC64
:10056B009000FC1203359000FCE0FCA3E0FDA3E03F
:10057B00FEA3E0FF78041203229000FC12033590D7
:10058B0000FCE0FCA3E0FDA3E0FEA3E0FF12141AC5
:10059B00121B3B9000F8EFF0121B3B9000F9EFF0B1
:1005AB00121B3B9000FAEFF0121B3B9000FBEFF09D
:1005BB00121BBB9000FC120341000000009000FCDA
:1005CB00E0F8A3E0F9A3E0FAA3E0FB9000FBE0FF67
:1005DB00EB4FFFEAFEE9FDE8FCA31203359000FCAC
:1005EB00E0FCA3E0FDA3E0FEA3E0FF7808120322EA
:1005FB009000FC1203359000FCE0F8A3E0F9A3E0B7
:10060B00FAA3E0FB9000FAE0FFEB4FFFEAFEE9FDF7
:10061B00E8FC9000FC1203359000FCE0FCA3E0FD2D
:10062B00A3E0FEA3E0FF78081203229000FC120364
:10063B00359000FCE0F8A3E0F9A3E0FAA3E0FB900F
:10064B0000F9E0FFEB4FFFEAFEE9FDE8FC9000FC50
:10065B001203359000FCE0FCA3E0FDA3E0FEA3E059
:10066B00FF78081203229000FC1203359000FCE087
:10067B00F8A3E0F9A3E0FAA3E0FB9000F8E0FFEBAE
:10068B004FFFEAFEE9FDE8FC9000FC1203359000F9
:10069B00FCE0FCA3E0FDA3E0FEA3E0FF22E4FFFEF1
:0206AB00FDFC54
:0106AD00222A
:101A02009000CAE004540FFE9000C9E06E6018A373
:101A1200E0FE04F074CB2EF582E43400F583EFF09F
:081A22009000CAE0540FF0220D
:05081E009000F2EFF074
:100823007F01121AFB121B939000F2E0FF120526C0
:100833009000BA1203359000BAE0FCA3E0FDA3E0F8
:10084300FEA3E0242AFFE43EFEE43DFDE43CFC126B
:10085300141A121B3B9000F3EFF0121B3B9000F4B1
:10086300EFF0121B3B9000F5EFF0121B3B9000F6EC
:10087300EFF09000C4120341000000009000C4E0B8
:10088300F8A3E0F9A3E0FAA3E0FB9000F6E0FFEBA6
:100893004FFFEAFEE9FDE8FC9000C4120335900027
:1008A300C4E0FCA3E0FDA3E0FEA3E0FF780812038D
:1008B300229000C41203359000C4E0F8A3E0F9A32A
:1008C300E0FAA3E0FB9000F5E0FFEB4FFFEAFEE95F
:1008D300FDE8FC9000C41203359000C4E0FCA3E0E3
:1008E300FDA3E0FEA3E0FF78081203229000C412E8
:1008F30003359000C4E0F8A3E0F9A3E0FAA3E0FB1A
:100903009000F4E0FFEB4FFFEAFEE9FDE8FC900006
:10091300C41203359000C4E0FCA3E0FDA3E0FEA3F2
:10092300E0FF78081203229000C41203359000C43C
:10093300E0F8A3E0F9A3E0FAA3E0FB9000F3E0FF03
:10094300EB4FFFEAFEE9FDE8FC9000C4120335E437
:100953009000F3F0A37402F09000BF120341000073
:0B0963000000121B669000C87401F039
:01096E002266
:100E7B009000C8E024FE601314606C147003020F22
:100E8B001324036003020F21021A949000C4E0FCA8
:100E9B00A3E0FDA3E0FEA3E0FF9000BFE0F8A3E01A
:100EAB00F9A3E0FAA3E0FBC31202FE70079000C89F
:100EBB007403F022121BE7121B3B9000F2EFF09031
:100ECB0000BFE0FCA3E0FDA3E0FEA3E02401FFE4F0
:100EDB003EFEE43DFDE43CFC9000BF1203357B017C
:100EEB007A0079F2021A73AFDDEF6401700DAFD5A2
:100EFB00EF70089000C87404F0800A15DDAFDDEFC9
:100F0B00F4700215D5D2DE227F02121AFB121BE6F9
:060F1B00121BBB121B9328
:010F210022AD
:10192C009000C9E0FFA3E06F6025121BC1EF6402B9
:10193C00701D9000C9E0FF04F074CB2FF582E434E5
:10194C0000F583E0FF12081E9000C9E0540FF0224E
:100D1F00FB3300000000000000020302000003008C
:100D2F00000064010000000000000000000000004F
:100D3F0000000000000000000000000000000000A4
:100D4F00000063FB330000000000000002030200FC
:100D5F000001000000000000000000000000000083
:100D6F000000000000000000000000000000000074
:100D7F00000000000063FB0F0000000000000002F5
:100D8F0001020000F1FB0F00000000000000020252
:100D9F00020000F0FB0F0000000000000002040240
:100DAF000000EEFB13000000000000000905090021
:100DBF000080250000360D850D940DA30D1F0DB27B
:061BC700900007EFF02280
:0B1B0C009000067401F0E4900002F06D
:061B1700900007E0FF2230
:10195C009000537401F0A37400F0A37410F0900085
:10196C00507401F0A37400F0A37430F0E490000CF8
:0C197C00F0C293900006F07F01021BC730
:10106000E4FE900D53E493FDEEC39D5015EE900DFC
:101070005293FD74572EF582E43400F583EDF00EA3
:1010800080E09000657401F0900069EFF0E4FFFEED
:10109000900D53E49314FDEEC39D501074572EF53C
:1010A00082E43400F583E02FFF0E80E4EFF4FF0FBD
:1010B00074572EF582E43400F583EFF09000097444
:1010C00001F0A37400F0A37457F09000977401F03E
:1010D000E490000FF0900009E0FBA3E0FAA3E0F930
:0E10E00090000FE0F58275830012018DF599E6
:0110EE0022DF
:051BD8007F64021060B3
:051BDD007F030210600F
:0513B0009000F2EFF0D7
:1013B50078F37C007D017BFF7A0D79C57E007F0A7D
:1013C50012014E9000F2E0FFD39404748094805093
:1013D50043EF25E024F3F582E43400F583E0FEA332
:1013E500E0AA06F990000974FFF0A3EAF0A3E9F07A
:1013F5009000977401F0E490000FF0900009E0FB75
:10140500A3E0FAA3E0F990000FE0F58275830012DE
:04141500018DF599B7
:0114190022B0
:1016FB00900056E06048900000E0B4010AA3E0B40B
:10170B0090057F021213B0900000E475F0011201F6
:10171B00EEFED3E5F094C2EE94014022E4FF1213E7
:10172B00B0E4900000F0A3F0900005E0600BE490B3
:0E173B000056F0C2937F0480027F03121A0250
:01174900227D
:1003720090000CE020E703020525547FF090005026
:10038200E0FBA3E0FAA3E0F990000112018DFFE483
:10039200FEFDEDC39F5018900050E0FBA3E0FAA3CE
:1003A200E0F98D8275830012018D2EFE0D80E3EE41
:1003B2006003020525900050E0FBA3E0FAA3E0F9F8
:1003C20090000912018D24F770030204D924F770FA
:1003D200030204F42410600302052590000A1201AE
:1003E2008D64066003020525900056E06003020555
:1003F2002590000E12018D24FE602014602D1470D1
:100402000302048F24036003020525121B0CEF6410
:100412000160030205257F060204D6121B0CEF645D
:100422000160030205257F050204D69000067401CF
:10043200F0121B17EF64016003020525900002E031
:1004420014601314601414601114601A14601724D9
:100452000560030205257F0780027F09121A0290B8
:100462000002E004F0227F0B121A027F0B121A0222
:100472007F0B121A027F0B121A027F0B121A027FD3
:100482000B121A027F0B121A027F0B804790000692
:100492007401F0121B17EF6401600302052590003E
:1004A20002E0D394027480948040277F0B121A02D8
:1004B2007F0B121A027F0B121A027F0B121A027F93
:1004C2000B121A027F0B121A027F0B121A027F0BF7
:1004D20080027F08021A02900050E0FBA3E0FAA318
:1004E200E0F990000A12018D64017037900008044F
:1004F200F022900050E0FBA3E0FAA3E0F990000A9A
:1005020012018D6404701C90000B12018D64027044
:100512001290000D12018D700A90000E12018D9042
:030522000005F0E1
:0105250022B3
:10159700900097E06401705090000FE004F0640140
:1015A700701B900009E0FBA3E0FAA3E0F990000F9D
:1015B700E0F58275830012018D900003F09000031F
:1015C700E014FF90000FE0FED39F40079000977450
:1015D70080F022900009E0FBA3E0FAA3E0F98E82F5
:0815E70075830012018DF599D6
:0115EF0022D9
:1010EF00AF99EF64FB700490000DF090000DE0FEDF
:1010FF0064017005900004EFF0900053E0FBA3E053
:10110F00FAA3E0F98E82758300EF1201CC90000DE7
:10111F00E004F0E0FF900004E06F705290000CE0EC
:10112F0030E02154FEF09000537401F0A37400F0EE
:10113F00A37410F09000507401F0A37400F0A37426
:10114F0030F0802390000CE04401F09000537401C4
:10115F00F0A37400F0A37430F09000507401F0A36A
:0E116F007400F0A37410F090000CE04480F0C7
:01117D00224F
:0A1B8000D297900114E04401F02216
:1012670030972790010FE0FFD39405748094804056
:101277000FEF94DD7480948050069001137401F091
:10128700E4900110F090010FF022900110E014603B
:101297001704703990010FE004F0D394057480941B
:1012A70080402AA37401F02290010FE004F0E0FFD0
:1012B7007E0064DC70069001137402F0D3EF94DCB7
:0D12C700EE64809480400690010F74E1F009
:0112D40022F7
:10185400900113E0603564017017A3E06401700324
:101864007480F0900114E070087481F07F01121A02
:1018740002900113E06402700D90005674FFF0D2E0
:0C188400937F02121A02E4900113F0227C
:10134300900114E030E709547FF09001117401F02B
:10135300900111E0605624FE601C14601C14602A86
:1013630024037043900114E090011130E0047402EF
:10137300F0227403F022021ACF7F0A121A027F01AD
:101383001213B09001117404F022900112E0FF04D3
:10139300F0D3EF94FB748094804011E4F0C283C2D5
:0C13A30092C293C2948001E4900111F00A
:0113AF00221B
:091B8A00475056544700FF1B8A26
:101AE900E49000F0F09000EFF09000EDF09000EC41
:021AF900F022D9
:1006AE007B017A0079F21218FCEF700302081D909C
:1006BE0000DBE0146028147003020761147003025B
:1006CE0007832403600302081D9000F2E064246097
:1006DE000302081D9000DBE004F0E4A3F02290007A
:1006EE00F2E0FF9000DCE0FE04F074DE2EF582E412
:1006FE003400F583EFF09000DCE06405600302083F
:10070E001DA3F09000DCE0FFA3E0FEC39F503490E9
:10071E001B90E493FB740193FA740293F98E827525
:10072E00830012018DFF74DE2EF582E43400F58312
:10073E00E06F6007E49000DBF080089000DDE004DD
:10074E00F080C09000DDE06405600302081D90009B
:10075E00DC80189000F2E0B42C069000DCE004F08F
:10076E009000DCE06407600302081DF0A3F0900027
:10077E00DBE004F0229000F2E0FF642C6005EF64F1
:10078E002E70729000DCE0FF605F9000EE7424F03B
:10079E00EF640370229000DFE075F00AA4FF900072
:1007AE00DEE075F064A42FFF9000E0E02F9000F0E3
:1007BE00F09000EF74FFF09000DCE0FB6402701626
:1007CE009000DEE075F00AA4FEA3E02E9000F0F09B
:1007DE009000EF74FFF0EB6401700E9000DEE0907D
:1007EE0000F0F09000EF74FFF0E49000DCF0A3F066
:1007FE009000DBF0229000F2E024D0FF9000DCE0CD
:0F080E00FE04F074DE2EF582E43400F583EFF083
:01081D0022B8
:061BCD009000EDE0FF2294
:101A50009000ECE06402701A900114E030E0139002
:101A600000E8E004F0D39464748094804004E4F0CF
:021A7000B29230
:011A72002251
:100F22009000EFE06012E4F09000E9F0A3F090008E
:100F3200F0E09000EDF080249000E9E475F00112F9
:100F420001EEFED3E5F094A0EE9400400F9000E98C
:100F5200E4F0A374AAF09000ED74FFF09000EBE0CF
:100F620004F0D394A0748094804054E4F0A3E0642D
:100F720001700D9000EEE0B42404E4F08041802F73
:100F82009000ECE0640270109000EEE0B424028065
:100F92000EE49000EEF080279000EEE0B42410E41E
:100FA200F09000EC04F07F0C121A02D2928010E44E
:100FB2009000EEF09000EC7402F07F0D121A020223
:020FC2001A50C3
:031BE2000206AE4A
:101817001234000054686973206669726D776172CB
:1018270065207772697465206279204A75737469D7
:101837006E5A686F75203C6A757374696E2E7A6884
:0D1847006F7533304071712E636F6D3E0080
:100AB40090011712034100000000E4900145F0A3E7
:100AC400F0900115F0A3F0901817E493FE740193CD
:100AD400FFC3900116E09FEE6480F8900115E06476
:100AE4008098504D900117E0F8A3E0F9A3E0FAA331
:100AF400E0FB900115E0FEA3E0FF900145E0FCA3BC
:100B0400E02FF582EC3EF583E493FFE4FCFDFEEB7D
:100B14002FFFEE3AFEED39FDEC38FC90011712037D
:100B240035900116E004F0709E900115E004F08009
:100B340096900117E0FCA3E0FDA3E0FEA3E0FFC054
:100B440006C007901819E493FE740193FBAA06EA01
:100B54003395E0F9F8D007D006C3EF9BFFEE9AFE79
:100B6400ED99FDEC98FC900117120335901819E4E7
:100B740093FE740193FFEE3395E0FDFC900117E0C2
:100B8400F8A3E0F9A3E0FAA3E0FBC31202E86002D1
:020B940080FEE1
:010B9600223C
:100FC4007F007E037D007C0012141AE49000F2F08E
:100FD4009000F2E0C39439748094805016121B3B45
:100FE4009000F2E090181B93B507089000F2E0041B
:100FF400F080DD9000F2E0C3943974809480500254
:1010040080FE7F807E037D007C0012141AE4900031
:10101400F2F09000F2E0C3941474809480500B12A8
:101024001B3B9000F2E004F080E8121B3BEF644F9E
:10103400600280FEE49000F2F09000F2E0C39407B6
:1010440074809480500B121B3B9000F2E004F080FB
:0B105400E8121B3BEF6454600280FEBA
:01105F00226E
:100B970090011BE475F0011201EEFED3E5F094E835
:100BA700EE94034020E490011BF0A3F0900008E0CE
:100BB7006008E4F0900120F0800B9001207401F0B0
:100BC700E490011FF0900120E07003020C6D90018A
:100BD7001FE0B407004003020C6D900BE8F82828CB
:100BE70073020BFD020C01020C18020C1C020C33E1
:100BF700020C48020C62C283803D90011DE475F02F
:100C0700011201EEFED3E5F09464EE9400405780A4
:100C170045D283802290011DE475F0011201EEFE9A
:100C2700D3E5F09458EE9402403C802A121B4A7F89
:100C3700041213B0121B58E490011DF0A3F0A38017
:100C47002290011DE475F0011201EEFED3E5F09448
:100C570032EE9400401090011F8008E4FF1213B099
:060C670090011FE004F003
:010C6D002264
:1015F000900126120335538EF7438901D28CE4FF04
:10160000FEFDFC900126E0F8A3E0F9A3E0FAA3E0D8
:10161000FBC31202FE602F758A7E758CFF308DFD34
:10162000C28D900126E0FCA3E0FDA3E0FEA3E02430
:10163000FFFFEE34FFFEED34FFFDEC34FFFC9001C4
:091640002612033580B8C28C2289
:1016490090012A120335538EF7438901D28CE4FFA6
:10165900FEFDFC90012AE0F8A3E0F9A3E0FAA3E07B
:10166900FBC31202FE602F758ACA758CFA308DFD94
:10167900C28D90012AE0FCA3E0FDA3E0FEA3E024D3
:10168900FFFFEE34FFFEED34FFFDEC34FFFC90016B
:091699002A12033580B8C28C222C
:1016A20090012E120335538EEF438910D28EE4FF40
:1016B200FEFDFC90012EE0F8A3E0F9A3E0FAA3E01E
:1016C200FBC31202FE602F758BEA758DCB308FFD46
:1016D200C28F90012EE0FCA3E0FDA3E0FEA3E02474
:1016E200FFFFEE34FFFEED34FFFDEC34FFFC900112
:0916F2002E12033580B8C28E22CD
:10153B009000F212033553C9BF53C9DF43C910D210
:10154B00CAE4FFFEFDFC9000F2E0F8A3E0F9A3E093
:10155B00FAA3E0FBC31202FE602F75CC3075CDF8F9
:10156B0030CFFDC2CF9000F2E0FCA3E0FDA3E0FE84
:10157B00A3E024FFFFEE34FFFEED34FFFDEC34FF60
:0C158B00FC9000F212033580B8C2CA22A6
:10147F0090013212033575C40743C408E4FFFEFD23
:10148F00FC900132E0F8A3E0F9A3E0FAA3E0FBC37C
:10149F001202FE603575C52C75C6CFE5C4541064B5
:1014AF001070F853C4EF900132E0FCA3E0FDA3E00D
:1014BF00FEA3E024FFFFEE34FFFEED34FFFDEC341E
:0E14CF00FFFC90013212033580B253C4F722A5
:1014DD0090013612033575C40743C408E4FFFEFDC1
:1014ED00FC900136E0F8A3E0F9A3E0FAA3E0FBC31A
:1014FD001202FE603575C5D875C6FFE5C45410647B
:10150D001070F853C4EF900136E0FCA3E0FDA3E0AA
:10151D00FEA3E024FFFFEE34FFFEED34FFFDEC34BF
:0E152D00FFFC90013612033580B253C4F72242
:1018900053B1BF53B2BF53B17F53B27F759850431A
:1018A0008920438780438E1053C4DFAB07AA06A963
:1018B00005A8047F407E427D0F7C00120256EF0493
:0918C000F404F58DD28ED29922B8
:1011F40090013A12033553B1BF53B2BF53B17F5379
:10120400B27F75985043878053C4F843C42090013B
:101214003AE0F8A3E0F9A3E0FAA3E0FB7F407E42C2
:101224007D0F7C00120256C374FF9FFF74FF9EFE65
:10123400E49DFDE49CFC780812030F8FC690013AEC
:10124400E0F8A3E0F9A3E0FAA3E0FB7F407E427D4F
:101254000F7C00120256C374FF9FFF8FC543C4085E
:03126400D29922FA
:071B9B003098FDAF99C298DC
:011BA2002220
:081BA300C2998F993099FD22CF
:1012D5009000F212033553B1FB53B2FB53B3BF5326
:1012E500B4BF75F85075C40853C4DF9000F2E0F838
:1012F500A3E0F9A3E0FAA3E0FB7F407E427D0F7CEB
:1013050000120256C374FF9FFF74FF9EFEE49DFD0D
:10131500E49CFC780812030F8FC69000F2E0F8A356
:10132500E0F9A3E0FAA3E0FB7F407E427D0F7C005D
:0E133500120256C374FF9FFF8FC543C40822E7
:071BAB0030F8FDAF9AC2F80B
:011BB2002210
:081BB300C2F98F9A30F9FD22FE
:101ACF0075C7AA75C755A2AF9200C2AF75C7AA75E1
:0A1ADF00C755439F80A20092AF227A
:100C6E00A2AF9200C2AF75C7AA75C755439F01A226
:100C7E000092AF75A630E4F5A775AF04A2AF92004F
:100C8E00C2AF75C7AA75C75543A401A20092AF9013
:100C9E000140E5AEF075A631E4F5A7A2AF9200C211
:100CAE00AF75C7AA75C75543A401A20092AFA3E5BD
:100CBE00AEF0A2AF9200C2AF75C7AA75C755539FCB
:100CCE00FEA20092AF900140E025E0FFE433FEA3C8
:100CDE00E054017C002FFFEC3E90013EF0A3EFF0BC
:100CEE00E024F1F090013EE034FFF0E0FEA3E0FFDF
:100CFE005401FD900141F0EEC313EF13900140F04B
:100D0E0075C7AA75C755F58475C7AA75C7558D855C
:010D1E0022B2
:03000000020DCF1F
:100DCF0075C7AA75C75575FD5A75C7AA75C75575E5
:100DDF00FDA5787FE4F6D8FD9000007FFF7E03E449
:0C0DEF00F0A3DFFCDEFA758120020E3656
:100DFB0002096FE493A3F8E493A34003F68001F296
:100E0B0008DFF48029E493A3F85407240CC8C333F8
:100E1B00C4540F4420C8834004F456800146F6DFC7
:100E2B00E4800B0102040810204080901BD3E47E69
:100E3B00019360BCA3FF543F30E509541FFEE493BC
:100E4B00A360010ECF54C025E060A840B8E493A383
:100E5B00FAE493A3F8E493A3C8C582C8CAC583CAAE
:100E6B00F0A3C8C582C8CAC583CADFE9DEE780BE66
:011BD700000D
:10007E00E709F608DFFA8046E709F208DFFA803E64
:10008E0088828C83E709F0A3DFFA8032E309F60851
:10009E00DFFA8078E309F208DFFA807088828C83B9
:1000AE00E309F0A3DFFA806489828A83E0A3F6086D
:1000BE00DFFA805889828A83E0A3F208DFFA804C47
:1000CE0080D280FA80C680D4806980F2803380101E
:1000DE0080A680EA809A80A880DA80E280CA803387
:1000EE0089828A83ECFAE493A3C8C582C8CCC583FF
:1000FE00CCF0A3C8C582C8CCC583CCDFE9DEE780CF
:10010E000D89828A83E493A3F608DFF9ECFAA9F04D
:10011E00EDFB2289828A83ECFAE0A3C8C582C8CCA3
:10012E00C583CCF0A3C8C582C8CCC583CCDFEADEBC
:10013E00E880DB89828A83E493A3F208DFF980CC1E
:10014E0088F0EF60010E4E60C388F0ED2402B40417
:10015E000050B9F582EB2402B4040050AF232345BE
:06016E0082239000CE7315
:10017400BB010689828A83E0225002E722BBFE0289
:09018400E32289828A83E49322BC
:10018D00BB010CE58229F582E5833AF583E0225027
:10019D0006E92582F8E622BBFE06E92582F8E22271
:0D01AD00E58229F582E5833AF583E493228B
:1001BA00BB010689828A83F0225002F722BBFE0124
:0201CA00F3221E
:1001CC00F8BB010DE58229F582E5833AF583E8F069
:1001DC00225006E92582C8F622BBFE05E92582C815
:0201EC00F222FD
:1001EE00C5F0F8A3E028F0C5F0F8E582158270029C
:0601FE001583E038F02239
:10020400A3F8E0C5F025F0F0E582158270021583AD
:06021400E0C838F0E8220A
:10021A0075F008758200EF2FFFEE33FECD33CDCC9B
:10022A0033CCC58233C5829BED9AEC99E58298401E
:10023A000CF582EE9BFEED9AFDEC99FC0FD5F0D6FB
:10024A00E4CEFBE4CDFAE4CCF9A88222B800C1B925
:10025A000059BA002DEC8BF084CFCECDFCE5F0CB63
:10026A00F97818EF2FFFEE33FEED33FDEC33FCEB9C
:10027A0033FB10D703994004EB99FB0FD8E5E4F957
:10028A00FA227818EF2FFFEE33FEED33FDEC33FC44
:10029A00C933C910D7059BE99A4007EC9BFCE99A38
:1002AA00F90FD8E0E4C9FAE4CCFB2275F010EF2F7D
:1002BA00FFEE33FEED33FDCC33CCC833C810D7077D
:1002CA009BEC9AE899400AED9BFDEC9AFCE899F8B8
:0E02DA000FD5F0DAE4CDFBE4CCFAE4C8F9224B
:1002E800EB9FF5F0EA9E42F0E99D42F0EC6480C88D
:0602F80064809845F0222D
:1002FE00EB9FF5F0EA9E42F0E99D42F0E89C45F056
:01030E0022CC
:10030F00E8600FECC313FCED13FDEE13FEEF13FFCC
:03031F00D8F122F0
:10032200E8600FEFC333FFEE33FEED33FDEC33FC39
:03033200D8F122DD
:0C033500ECF0A3EDF0A3EEF0A3EFF0223B
:10034100A8828583F0D083D08212035812035812F9
:100351000358120358E473E493A3C583C5F0C5831E
:10036100C8C582C8F0A3C583C5F0C583C8C582C806
:010371002269
:00000001FF
