:1007980012132E7FE87E037D007C00120FB67F01C6
:1007A80012064C9000FAE475F0011201EEFED3E552
:1007B800F09458EE94024009E49000FAF0A3F08017
:1007C800159000FDE0700812006E12007A80F2E4C5
:1007D8009000FDF080CDE4FF120DC69000FAE4759C
:1007E800F001120204FED3E5F094C8EE94004040F4
:1007F800E49000FAF0A3F01215449000B4EFF0F47E
:10080800700280299000B4E0D394047480948040EE
:100818000AE49000FCF012154F80159000FCE004EB
:10082800F0D3940F7480948040067410F01215541D
:10083800120C7D12128A12124B120E959000FDE0D6
:10084800701712006E12007A1215621208691212DD
:100858000512156412155F80E3E49000FDF00207AD
:01086800E3AC
:10132E00E4F5B1F5B2F5B3F5B4F5ACF5AD12004E8A
:10133E001214CD1214A0120B9312140112002612C5
:0E134E0014271215631215031214E9D2AF22F0
:04154A004101160A3B
:10004E005389F0438901438E0890011774C1F0A3C0
:0D005E007480F0758CC1F58AD2A9D28C2275
:03000B000213B12C
:0613B100C0E0C083C08211
:1013B700900117E0F58CA3E0F58A900116E014F090
:0B13C7007009740AF09000FD74FFF044
:0713D200D082D083D0E0328D
:0E14CD007F007EC27D017C001212C5D2AC22CF
:0300230002117651
:10117600C0E0C0F0C083C082C0D075D000C000C03F
:1011860001C002C003C004C005C006C007309905EF
:10119600121012C299309805120B04C298D007D0CB
:1011A60006D005D004D003D002D001D000D0D0D0D4
:0811B60082D083D0F0D0E032BA
:0F14A0007F807E257D007C00120CEB439C012297
:03007B000211BEB1
:1011BE00C0E0C0F0C083C082C0D075D000C000C0F7
:1011CE0001C002C003C004C005C006C00730F9024A
:1011DE00C2F930F807C2F8AF9A1213D9D007D00669
:1011EE00D005D004D003D002D001D000D0D0D08210
:0711FE00D083D0F0D0E032F5
:08000300C2F98F9A30F9FD22C9
:100B9300A2AF9200C2AF75C7AA75C755439101436F
:100BA300C60875C7AA75C7555391FEA20092AF43F5
:100BB300B210538EBFA2AF920075C7AA75C7557501
:100BC300910153B7F843B70375C7AA75C755E4F541
:100BD30091A20092AFA2AF920075C7AA75C75575CF
:100BE300910143B71053D8DF75C7AA75C755F5915F
:100BF300A20092AF75D104F5D975D50175DDFF5308
:070C03009BF7C2DEC2DF22F5
:03006B0002000E82
:10000E00C0E0C083C082C2DD90011974FFF0D082BF
:05001E00D083D0E032A8
:0E14DB00E4F5D575DD01439B08D2DED2DF2299
:08151600539BF7C2DFC2DD2286
:10135C00120174FF7E007802C333CE33CED8F9FF6E
:10136C00D394FFEE940340047E037FFFEF4E700393
:0A137C00FE7F018FDDEEF5D5D2DE15
:011386002244
:10144B00AFDDEF700FAFD5EF640270089000E8745A
:10145B0002F0800905DDAFDDEF700205D5D2DE228B
:0C006E00900119E06005E4F0120D592229
:1014010043F40853F37F53F3DF53F3F753F3FB43F1
:10141100F31053F3FE53F3FD539BBFD29553F3BF28
:06142100E49000EBF02254
:0C14F7008FF5E5F4548060FA53F47F2276
:0E14AF00E4F5F5E5F4548060FAAFF553F47FF0
:0114BD00220C
:03004B0002146B31
:10146B00C0E0C083C082E5F430E7099000F374FF5D
:0B147B00F053F47FD082D083D0E03229
:100E30009000C512031FD2959000C5E0FCA3E0FD11
:100E4000A3E0FEA3E0FF78101202F99000EFEFF0AC
:100E50009000C5E0FCA3E0FDA3E0FEA3E0FF78085E
:100E60001202F99000EEEFF09000C5A3A3A3E0906A
:100E700000EDF0C29543F3407F031214F79000EFAA
:100E8000E0FF1214F79000EEE0FF1214F79000ED6F
:050E9000E0FF0214F771
:0E14BE00E4F5F5E5F4548060FAAFF553F47FE1
:0114CC0022FD
:06153E00D29553F3BF2219
:01007A002263
:10002600E4FFEFC3942074809480500F74942FF5EE
:1000360082E43400F583E4F00F80E7E4900093F067
:04004600900092F0A4
:01004A002293
:1013D900900092E004541FFEA3E06E601A90009200
:1013E900E0FE04F074942EF582E43400F583EFF006
:0813F900900092E0541FF02265
:1012FE00900092E0FFA3E0B507037F0022900093D9
:10130E00E0FF04F074942FF582E43400F583E012CC
:10131E0001BA900093E0541FF0121387EF04FF22DE
:10138700900092E0FEA3E0FDB506037F0022EDD3B7
:101397009E400A900092E02420C39DFF2290009374
:0A13A700E0FF900092E0C39FFF22D8
:011562002266
:011563002265
:03155900C2832228
:03155C00D2832215
:05035C009000BCEFF071
:100361007E00D394007480948050030204DEEF94E5
:100371000B7480948040030204DE9000C112032BB1
:10038100000000009000C1E0F8A3E0F9A3E0FAA3A7
:10039100E0FB9000BCE0FFEB4FFFEAFEE9FDE8FC6B
:1003A1009000C112031F9000C1E0FCA3E0FDA3E097
:1003B100FEA3E0FF780412030C9000C112031F900A
:1003C10000C1E0FCA3E0FDA3E0FEA3E0FF120E30BC
:1003D1001214BE9000BDEFF01214BE9000BEEFF0FB
:1003E1001214BE9000BFEFF01214BE9000C0EFF0E7
:1003F10012153E9000C112032B000000009000C1B5
:10040100E0F8A3E0F9A3E0FAA3E0FB9000C0E0FF6D
:10041100EB4FFFEAFEE9FDE8FCA312031F9000C1C8
:10042100E0FCA3E0FDA3E0FEA3E0FF780812030CCB
:100431009000C112031F9000C1E0F8A3E0F9A3E00E
:10044100FAA3E0FB9000BFE0FFEB4FFFEAFEE9FDFE
:10045100E8FC9000C112031F9000C1E0FCA3E0FD85
:10046100A3E0FEA3E0FF780812030C9000C1120381
:100471001F9000C1E0F8A3E0F9A3E0FAA3E0FB902C
:1004810000BEE0FFEB4FFFEAFEE9FDE8FC9000C192
:1004910012031F9000C1E0FCA3E0FDA3E0FEA3E076
:1004A100FF780812030C9000C112031F9000C1E0F5
:1004B100F8A3E0F9A3E0FAA3E0FB9000BDE0FFEBB5
:1004C1004FFFEAFEE9FDE8FC9000C112031F900016
:1004D100C1E0FCA3E0FDA3E0FEA3E0FF22E4FFFEF8
:0204E100FDFC20
:0104E30022F6
:05064C009000B7EFF083
:100651001215169000B7E0FF12035C9000DB120345
:100661001F9000DBE0FCA3E0FDA3E0FEA3E0242A51
:10067100FFE43EFEE43DFDE43CFC120E301214BEEC
:100681009000B8EFF01214BE9000B9EFF01214BE52
:100691009000BAEFF01214BE9000BBEFF09000E4AE
:1006A10012032B000000009000E4E0F8A3E0F9A39E
:1006B100E0FAA3E0FB9000BBE0FFEB4FFFEAFEE9AD
:1006C100FDE8FC9000E412031F9000E4E0FCA3E0CD
:1006D100FDA3E0FEA3E0FF780812030C9000E412F2
:1006E100031F9000E4E0F8A3E0F9A3E0FAA3E0FB24
:1006F1009000BAE0FFEB4FFFEAFEE9FDE8FC900055
:10070100E412031F9000E4E0FCA3E0FDA3E0FEA3DC
:10071100E0FF780812030C9000E412031F9000E43C
:10072100E0F8A3E0F9A3E0FAA3E0FB9000B9E0FF51
:10073100EB4FFFEAFEE9FDE8FC9000E412031F9095
:1007410000E4E0FCA3E0FDA3E0FEA3E0FF780812D3
:10075100030C9000E412031F9000E4E0F8A3E0F919
:10076100A3E0FAA3E0FB9000B8E0FFEB4FFFEAFE45
:10077100E9FDE8FC9000E412031FE49000B8F0A347
:100781007402F09000E012032B000000001214DB51
:060791009000E87402F084
:01079700223F
:100D59009000E8E024FE600604706102144B9000E4
:100D6900E4E0FCA3E0FDA3E0FEA3E0FF9000E0E0E7
:100D7900F8A3E0F9A3E0FAA3E0FBC31202E87009C3
:100D890012155912153E02151612155C1214BE9051
:100D990000B5EFF09000E0E0FCA3E0FDA3E0FEA3C6
:100DA900E02401FFE43EFEE43DFDE43CFC9000E06C
:0C0DB90012031F7B017A0079B512135C55
:010DC500220B
:011564002264
:1009DA00FB330000000000000002030200000300D5
:1009EA000000640100000000000000000000000098
:1009FA0000000000000000000000000000000000ED
:100A0A00000063FB33000000000000000203020044
:100A1A0000010000000000000000000000000000CB
:100A2A0000000000000000000000000000000000BC
:100A3A00000000000063FB0F00000000000000023D
:100A4A0001020000F1FB0F0000000000000002029A
:100A5A00020000F0FB0F0000000000000002040288
:0B0A6A000000EE0A400A4F0A5E09DAA5
:1014270090004D7401F0A37400F0A3740AF09000CB
:101437004A7401F0A37400F0A3742AF0E490000644
:04144700F0C293223A
:100A7500E4FE900A0EE493FDEEC39D5015EE900A38
:100A85000D93FD74512EF582E43400F583EDF00EDF
:100A950080E090005F7401F0900063EFF0E4FFFEEA
:100AA500900A0EE49314FDEEC39D501074512EF57B
:100AB50082E43400F583E02FFF0E80E4EFF4FF0FAE
:100AC50074512EF582E43400F583EFF09000037441
:100AD50001F0A37400F0A37451F09000917401F03B
:100AE500E4900009F0900003E0FBA3E0FAA3E0F92D
:0E0AF500900009E0F58275830012018DF599DD
:010B030022CF
:05154F007F64020A7533
:051554007F03020A758F
:050DC6009000B7EFF002
:100DCB0078B87C007D017BFF7A0A796D7E007F0805
:100DDB0012014E9000B7E0FFD394037480948050BF
:100DEB0043EF25E024B8F582E43400F583E0FEA35D
:100DFB00E0AA06F990000374FFF0A3EAF0A3E9F070
:100E0B009000917401F0E4900009F0900003E0FB76
:100E1B00A3E0FAA3E0F9900009E0F58275830012D4
:040E2B00018DF599A7
:010E2F0022A0
:10124B00900050E060389000B5E475F0011201EEAB
:10125B00FED3E5F094C2EE94014023E49000B5F088
:10126B00A3F0900002E0600CE4900050F0C2937F7A
:0E127B000402064C7F0312064C7F02120DC6C1
:011289002242
:10086900900006E020E70302092D547FF090004A2A
:10087900E0FBA3E0FAA3E0F990000112018DFFE487
:10088900FEFDEDC39F501890004AE0FBA3E0FAA3D8
:10089900E0F98D8275830012018D2EFE0D80E3EE45
:1008A900600302092D90004AE0FBA3E0FAA3E0F9F6
:1008B90090000912018D24EE6039241070669000B1
:1008C9000A12018D6406705C900050E07056900029
:1008D9000E12018D24FE600E14600F1460102403A3
:1008E90070427F06800A7F0580067F0780027F08A5
:1008F90002064C90004AE0FBA3E0FAA3E0F990005D
:100909000A12018D6404701C90000B12018D64029F
:10091900701290000D12018D700A90000E12018D57
:04092900900002F048
:01092D0022A7
:10101200900091E064017050900009E004F06401D6
:10102200701B900003E0FBA3E0FAA3E0F990000933
:10103200E0F58275830012018D900000F0900000AF
:10104200E014FF900009E0FED39F400790009174E6
:1010520080F022900003E0FBA3E0FAA3E0F98E8285
:0810620075830012018DF59960
:01106A002263
:100B0400AF99EF64FB7004900007F0900007E0FEDB
:100B140064017005900001EFF090004DE0FBA3E04C
:100B2400FAA3E0F98E82758300EF1201CC900007DE
:100B3400E004F0E0FF900001E06F7052900006E0E6
:100B440030E02154FEF090004D7401F0A37400F0E5
:100B5400A3740AF090004A7401F0A37400F0A37423
:100B64002AF08023900006E04401F090004D7401C7
:100B7400F0A37400F0A3742AF090004A7401F0A367
:0E0B84007400F0A3740AF0900006E04480F0C4
:010B92002240
:0A150300D2979000F9E04401F022B5
:100C7D003097279000F4E0FFD39402748094804065
:100C8D000FEF94DD7480948050069000F87401F09D
:100C9D00E49000F5F09000F4F0229000F5E014607F
:100CAD00170470399000F4E004F0D394027480942A
:100CBD0080402AA37401F0229000F4E004F0E0FFDC
:100CCD007E0064DC70069000F87402F0D3EF94DCC3
:0D0CDD00EE6480948040069000F474E1F015
:010CEA0022E7
:101205009000F8E0603F6401701CA3E06401700881
:101215007480F07F0A12064C9000F9E07008748122
:10122500F07F0112064C9000F8E064027012900005
:101235005074FFF0D2937F02120DC67F0212064C46
:06124500E49000F8F02225
:100E95009000F9E030E709547FF09000F67401F016
:100EA5009000F6E0604E24FE601C14601C14602A5D
:100EB5002403703B9000F9E09000F630E0047402E2
:100EC500F0227403F0220214867F0A12064C7F0179
:100ED500120DC69000F67404F0229000F7E0FF04AE
:100EE500F0D3EF94FB748094804009C2838000E4C2
:040EF5009000F6F083
:010EF90022D6
:09150D00475056544700FF150D2C
:0E14E900E49000DAF09000D9F09000D8F022E4
:1004E4007B017A0079B51212FEEF700302064B907D
:1004F40000C9E01460281470030205971470030205
:1005040005B92403600302064B9000B5E06424603F
:100514000302064B9000C9E004F0E4A3F02290002B
:10052400B5E0FF9000CAE0FE04F074CC2EF582E43E
:100534003400F583EFF09000CAE06405600302061E
:100544004BA3F09000CAE0FFA3E0FEC39F50349099
:100554001513E493FB740193FA740293F98E827574
:10056400830012018DFF74CC2EF582E43400F583F0
:10057400E06F6007E49000C9F080089000CBE004CD
:10058400F080C09000CBE06405600302064B90004D
:10059400CA80189000B5E0B42C069000CAE004F0BC
:1005A4009000CAE06407600302064BF0A3F09000D9
:1005B400C9E004F0229000B5E0FF642C6005EF640C
:1005C4002E706A9000CAE06058640370229000CDD7
:1005D400E075F00AA4FF9000CCE075F064A42FFF4E
:1005E4009000CEE02F9000DAF09000D974FFF090E4
:1005F40000CAE0FB640270169000CCE075F00AA417
:10060400FEA3E02E9000DAF09000D974FFF0EB64C2
:1006140001700E9000CCE09000DAF09000D974FFE5
:10062400F0E49000CAF0A3F09000C9F0229000B565
:10063400E024D0FF9000CAE0FE04F074CC2EF582D2
:07064400E43400F583EFF040
:01064B00228C
:061544009000D8E0FF2238
:10128A009000D9E06011E4F09000D6F0A3F090004D
:10129A00DAE09000D8F0229000D6E475F00112014D
:1012AA00EEFED3E5F094B8EE940B400E9000D6749F
:0A12BA000BF0A374C2F0A374FFF060
:0112C4002207
:03155F000204E49F
:10106B009000FE12031F538EF7438901D28CE4FFCD
:10107B00FEFDFC9000FEE0F8A3E0F9A3E0FAA3E08C
:10108B00FBC31202E8602F758A7E758CFF308DFDD5
:10109B00C28D9000FEE0FCA3E0FDA3E0FEA3E024E4
:1010AB00FFFFEE34FFFEED34FFFDEC34FFFC900050
:0910BB00FE12031F80B8C28C2252
:1010C40090010212031F538EF7438901D28CE4FF6F
:1010D400FEFDFC900102E0F8A3E0F9A3E0FAA3E02E
:1010E400FBC31202E8602F758ACA758CFA308DFD35
:1010F400C28D900102E0FCA3E0FDA3E0FEA3E02486
:10110400FFFFEE34FFFEED34FFFDEC34FFFC9001F5
:091114000212031F80B8C28C22F4
:10111D0090010612031F538EEF438910D28EE4FF08
:10112D00FEFDFC900106E0F8A3E0F9A3E0FAA3E0D0
:10113D00FBC31202E8602F758BEA758DCB308FFDE6
:10114D00C28F900106E0FCA3E0FDA3E0FEA3E02426
:10115D00FFFFEE34FFFEED34FFFDEC34FFFC90019C
:09116D000612031F80B8C28E2295
:100FB6009000B512031F53C9BF53C9DF43C910D2EE
:100FC600CAE4FFFEFDFC9000B5E0F8A3E0F9A3E05B
:100FD600FAA3E0FBC31202E8602F75CC3075CDF89A
:100FE60030CFFDC2CF9000B5E0FCA3E0FDA3E0FE4C
:100FF600A3E024FFFFEE34FFFEED34FFFDEC34FFEB
:0C100600FC9000B512031F80B8C2CA2283
:100EFA0090010A12031F75C40743C408E4FFFEFDEC
:100F0A00FC90010AE0F8A3E0F9A3E0FAA3E0FBC32E
:100F1A001202E8603575C52C75C6CFE5C454106455
:100F2A001070F853C4EF90010AE0FCA3E0FDA3E0BF
:100F3A00FEA3E024FFFFEE34FFFEED34FFFDEC34A8
:0E0F4A00FFFC90010A12031F80B253C4F7226D
:100F580090010E12031F75C40743C408E4FFFEFD89
:100F6800FC90010EE0F8A3E0F9A3E0FAA3E0FBC3CC
:100F78001202E8603575C5D875C6FFE5C45410641B
:100F88001070F853C4EF90010EE0FCA3E0FDA3E05D
:100F9800FEA3E024FFFFEE34FFFEED34FFFDEC344A
:0E0FA800FFFC90010E12031F80B253C4F7220B
:1012C50053B1BF53B2BF53B17F53B27F75985043EB
:1012D5008920438780438E1053C4DFAB07AA06A934
:1012E50005A8047F407E427D0F7C00120256EF0464
:0912F500F404F58DD28ED2992289
:100C0A0090011212031F53B1BF53B2BF53B17F53A6
:100C1A00B27F75985043878053C4F843C42090012B
:100C2A0012E0F8A3E0F9A3E0FAA3E0FB7F407E42DA
:100C3A007D0F7C00120256C374FF9FFF74FF9EFE55
:100C4A00E49DFDE49CFC78081202F98FC69001121B
:100C5A00E0F8A3E0F9A3E0FAA3E0FB7F407E427D3F
:100C6A000F7C00120256C374FF9FFF8FC543C4084E
:030C7A00D29922EA
:07151E003098FDAF99C2985F
:0115250022A3
:08152600C2998F993099FD2252
:100CEB009000B512031F53B1FB53B2FB53B3BF5369
:100CFB00B4BF75F85075C40853C4DF9000B5E0F865
:100D0B00A3E0F9A3E0FAA3E0FB7F407E427D0F7CDA
:100D1B0000120256C374FF9FFF74FF9EFEE49DFDFD
:100D2B00E49CFC78081202F98FC69000B5E0F8A39A
:100D3B00E0F9A3E0FAA3E0FB7F407E427D0F7C004D
:0E0D4B00120256C374FF9FFF8FC543C40822D7
:07152E0030F8FDAF9AC2F88E
:011535002293
:08153600C2F98F9A30F9FD2281
:1014860075C7AA75C755A2AF9200C2AF75C7AA7530
:0A149600C755439F80A20092AF22C9
:0300000002092EC4
:10092E0075C7AA75C75575FD5A75C7AA75C755758A
:10093E00FDA5787FE4F6D8FD9000007FFF7E03E4EE
:0C094E00F0A3DFFCDEFA758120020995A1
:10095A00020798E493A3F8E493A34003F68001F214
:10096A0008DFF48029E493A3F85407240CC8C3339E
:10097A00C4540F4420C8834004F456800146F6DF6D
:10098A00E4800B010204081020408090154AE47E9E
:10099A00019360BCA3FF543F30E509541FFEE49362
:1009AA00A360010ECF54C025E060A840B8E493A329
:1009BA00FAE493A3F8E493A3C8C582C8CAC583CA54
:1009CA00F0A3C8C582C8CAC583CADFE9DEE780BE0C
:01154E00009C
:10007E00E709F608DFFA8046E709F208DFFA803E64
:10008E0088828C83E709F0A3DFFA8032E309F60851
:10009E00DFFA8078E309F208DFFA807088828C83B9
:1000AE00E309F0A3DFFA806489828A83E0A3F6086D
:1000BE00DFFA805889828A83E0A3F208DFFA804C47
:1000CE0080D280FA80C680D4806980F2803380101E
:1000DE0080A680EA809A80A880DA80E280CA803387
:1000EE0089828A83ECFAE493A3C8C582C8CCC583FF
:1000FE00CCF0A3C8C582C8CCC583CCDFE9DEE780CF
:10010E000D89828A83E493A3F608DFF9ECFAA9F04D
:10011E00EDFB2289828A83ECFAE0A3C8C582C8CCA3
:10012E00C583CCF0A3C8C582C8CCC583CCDFEADEBC
:10013E00E880DB89828A83E493A3F208DFF980CC1E
:10014E0088F0EF60010E4E60C388F0ED2402B40417
:10015E000050B9F582EB2402B4040050AF232345BE
:06016E0082239000CE7315
:10017400BB010689828A83E0225002E722BBFE0289
:09018400E32289828A83E49322BC
:10018D00BB010CE58229F582E5833AF583E0225027
:10019D0006E92582F8E622BBFE06E92582F8E22271
:0D01AD00E58229F582E5833AF583E493228B
:1001BA00BB010689828A83F0225002F722BBFE0124
:0201CA00F3221E
:1001CC00F8BB010DE58229F582E5833AF583E8F069
:1001DC00225006E92582C8F622BBFE05E92582C815
:0201EC00F222FD
:1001EE00C5F0F8A3E028F0C5F0F8E582158270029C
:0601FE001583E038F02239
:10020400A3F8E0C5F025F0F0E582158270021583AD
:06021400E0C838F0E8220A
:10021A0075F008758200EF2FFFEE33FECD33CDCC9B
:10022A0033CCC58233C5829BED9AEC99E58298401E
:10023A000CF582EE9BFEED9AFDEC99FC0FD5F0D6FB
:10024A00E4CEFBE4CDFAE4CCF9A88222B800C1B925
:10025A000059BA002DEC8BF084CFCECDFCE5F0CB63
:10026A00F97818EF2FFFEE33FEED33FDEC33FCEB9C
:10027A0033FB10D703994004EB99FB0FD8E5E4F957
:10028A00FA227818EF2FFFEE33FEED33FDEC33FC44
:10029A00C933C910D7059BE99A4007EC9BFCE99A38
:1002AA00F90FD8E0E4C9FAE4CCFB2275F010EF2F7D
:1002BA00FFEE33FEED33FDCC33CCC833C810D7077D
:1002CA009BEC9AE899400AED9BFDEC9AFCE899F8B8
:0E02DA000FD5F0DAE4CDFBE4CCFAE4C8F9224B
:1002E800EB9FF5F0EA9E42F0E99D42F0E89C45F06C
:0102F80022E3
:1002F900E8600FECC313FCED13FDEE13FEEF13FFE3
:03030900D8F12206
:10030C00E8600FEFC333FFEE33FEED33FDEC33FC4F
:03031C00D8F122F3
:0C031F00ECF0A3EDF0A3EEF0A3EFF02251
:10032B00A8828583F0D083D082120342120342123B
:10033B000342120342E473E493A3C583C5F0C58360
:10034B00C8C582C8F0A3C583C5F0C583C8C582C81C
:01035B00227F
:00000001FF
