:10096F001217D87FC87E007D007C0012153A120F37
:10097F00C37F01121A01900121E475F0011201EEFB
:10098F00FED3E5F09458EE94024009E4900121F073
:10099F00A3F0801E900125E0700E12006E12007AF7
:1009AF0012192B12185380EC121266E4900125F0E5
:1009BF0080C47F041213AF900121E475F00112017E
:1009CF00EEFED3E5F09464EE94004009E49001212B
:1009DF00F0A3F08018900125E0700B12006E12004A
:1009EF007A12192B80EFE4900125F080CA121B5761
:1009FF00E4FF1213AFE4900124F0900121E475F0AD
:100A0F0001120204FED3E5F094C8EE94004061E4B5
:100A1F00900121F0A3F0121BCC9000F1EFF0F470D5
:100A2F002F121B16EF64017014900124E004F0D311
:100A3F00940F7480948040387410F08033900123A9
:100A4F00E0702D04F0FF121BC6E4900124F080200B
:100A5F00E4900123F09000F1E0D39404748094802B
:100A6F00E49001244005F07F018002F0FF121BC6C5
:100A7F00900125E0701712006E12007A121BE4121B
:100A8F00037212185312192B121BE180E312126614
:100A9F00120F211216FA121342120B96E49001252F
:040AAF00F0020A093E
:1017D800E4F5B1F5B2F5B3F5B4F5ACF5ADC285C233
:1017E80094D292C29112004E121B49121B1C121164
:1017F8007D121A2912002612195B1218C8121B7FB3
:0E180800121AE843B21843B408D283D2AF22BA
:041BD2004101420A81
:10004E005389F0438901438E0890014374C1F0A394
:0D005E007480F0758CC1F58AD2A9D28C2275
:03000B000219B126
:0619B100C0E0C083C0820B
:1019B700900143E0F58CA3E0F58A900142E014F032
:0B19C7007009740AF090012574FFF015
:0719D200D082D083D0E03287
:0E1B49007F007EC27D017C0012188FD2AC227C
:0E1B57007F807E257D007C0012188FD2AC228C
:0300230002174978
:10174900C0E0C0F0C083C082C0D075D000C000C066
:1017590001C002C003C004C005C006C00730990516
:10176900121596C2993098051210EEC298D007D07A
:1017790006D005D004D003D002D001D000D0D0D0FB
:0817890082D083D0F0D0E032E1
:0F1B1C007F807E257D007C001212D4439C012225
:03007B00021791D8
:10179100C0E0C0F0C083C082C0D075D000C000C01E
:1017A10001C002C003C004C005C006C00730F90271
:1017B100C2F930F807C2F8AF9A1219D9D007D0068A
:1017C100D005D004D003D002D001D000D0D0D08237
:0717D100D083D0F0D0E0321C
:08000300C2F98F9A30F9FD22C9
:10117D00A2AF9200C2AF75C7AA75C755439101437F
:10118D00C60875C7AA75C7555391FEA20092AF4305
:10119D00B210538EBFA2AF920075C7AA75C7557511
:1011AD00910153B7F843B70375C7AA75C755E4F551
:1011BD0091A20092AFA2AF920075C7AA75C75575DF
:1011CD00910143B71053D8DF75C7AA75C755F5916F
:1011DD00A20092AF75D104F5D9F5D575DD01539BFC
:0611ED00F7C2DEC2DF22A2
:03006B0002000E82
:10000E00C0E0C083C082C2DD90014774FFF0D08291
:05001E00D083D0E032A8
:0E1B6500E4F5D575DD01439B08D2DED2DF2208
:081B9200539BF7C2DFC2DD2204
:101A7200120174FF7E00D394FFEE940340047E03B0
:101A82007FFFEF4E7003FE7F018FDDEEF5D5D2DED4
:011A92002231
:101A9300AFDDEF6480700DAFD5EF70089000C874B0
:101AA30002F0800905DDAFDDEF700205D5D2DE223D
:0C006E00900147E06005E4F0120E7A22D9
:101A290043F40853F37F53F3DF53F3F753F3FB43C3
:101A3900F31053F3FE53F3FD539BBFD29553F3BFFA
:061A4900E4900106F0220A
:0C1B73008FF5E5F4548060FA53F47F22F3
:0E1B2B00E4F5F5E5F4548060FAAFF553F47F6D
:011B39002289
:03004B00021AB3E3
:101AB300C0E0C083C082E5F430E70990010E74FFF3
:0B1AC300F053F47FD082D083D0E032DB
:10141900900100120335D295900100E0FCA3E0FD94
:10142900A3E0FEA3E0FF781012030F90010AEFF08A
:10143900900100E0FCA3E0FDA3E0FEA3E0FF780833
:1014490012030F900109EFF0900100A3A3A3E0900C
:101459000108F0C29543F3407F03121B7390010A00
:10146900E0FF121B73900109E0FF121B7390010842
:05147900E0FF021B73FF
:0E1B3A00E4F5F5E5F4548060FAAFF553F47F5E
:011B4800227A
:061BBA00D29553F3BF2297
:01007A002263
:10002600E4FFEFC3942074809480500F749A2FF5E8
:1000360082E43400F583E4F00F80E7E4900099F061
:04004600900098F09E
:01004A002293
:1019D900900098E004541FFEA3E06E601A900098EE
:1019E900E0FE04F0749A2EF582E43400F583EFF0FA
:0819F900900098E0541FF02259
:1018FB00900098E0FFA3E0B507037F0022900099CA
:10190B00E0FF04F0749A2FF582E43400F583E012C3
:10191B0001BA900099E0541FF0121987EF04FF22CF
:10198700900098E0FEA3E0FDB506037F0022EDD3AB
:101997009E400A900098E02420C39DFF2290009962
:0A19A700E0FF900098E0C39FFF22CC
:011BE40022DE
:101AFA00EF64017004D2948002C2949000C3EFF0A4
:011B0A0022B8
:061BC0009000C3E0FF22CB
:1018C800E49000CAF09000CAE0FFC39408748094C2
:1018D80080501474CB2FF582E43400F583E4F09043
:1018E80000CAE004F080DEE49000C9F0A3F07F02B3
:0318F800021AFAD7
:011BE50022DD
:011BE60022DC
:050526009000F7EFF06A
:10052B007E00D394007480948050030206A8EF944D
:10053B000E7480948040030206A89000FC120341C5
:10054B00000000009000FCE0F8A3E0F9A3E0FAA3A0
:10055B00E0FB9000F7E0FFEB4FFFEAFEE9FDE8FC64
:10056B009000FC1203359000FCE0FCA3E0FDA3E03F
:10057B00FEA3E0FF78041203229000FC12033590D7
:10058B0000FCE0FCA3E0FDA3E0FEA3E0FF121419C6
:10059B00121B3A9000F8EFF0121B3A9000F9EFF0B3
:1005AB00121B3A9000FAEFF0121B3A9000FBEFF09F
:1005BB00121BBA9000FC120341000000009000FCDB
:1005CB00E0F8A3E0F9A3E0FAA3E0FB9000FBE0FF67
:1005DB00EB4FFFEAFEE9FDE8FCA31203359000FCAC
:1005EB00E0FCA3E0FDA3E0FEA3E0FF7808120322EA
:1005FB009000FC1203359000FCE0F8A3E0F9A3E0B7
:10060B00FAA3E0FB9000FAE0FFEB4FFFEAFEE9FDF7
:10061B00E8FC9000FC1203359000FCE0FCA3E0FD2D
:10062B00A3E0FEA3E0FF78081203229000FC120364
:10063B00359000FCE0F8A3E0F9A3E0FAA3E0FB900F
:10064B0000F9E0FFEB4FFFEAFEE9FDE8FC9000FC50
:10065B001203359000FCE0FCA3E0FDA3E0FEA3E059
:10066B00FF78081203229000FC1203359000FCE087
:10067B00F8A3E0F9A3E0FAA3E0FB9000F8E0FFEBAE
:10068B004FFFEAFEE9FDE8FC9000FC1203359000F9
:10069B00FCE0FCA3E0FDA3E0FEA3E0FF22E4FFFEF1
:0206AB00FDFC54
:0106AD00222A
:101A01009000CAE004540FFE9000C9E06E6018A374
:101A1100E0FE04F074CB2EF582E43400F583EFF0A0
:081A21009000CAE0540FF0220E
:05081E009000F2EFF074
:100823007F01121AFA121B929000F2E0FF120526C2
:100833009000BA1203359000BAE0FCA3E0FDA3E0F8
:10084300FEA3E0242AFFE43EFEE43DFDE43CFC126B
:100853001419121B3A9000F3EFF0121B3A9000F4B4
:10086300EFF0121B3A9000F5EFF0121B3A9000F6EE
:10087300EFF09000C4120341000000009000C4E0B8
:10088300F8A3E0F9A3E0FAA3E0FB9000F6E0FFEBA6
:100893004FFFEAFEE9FDE8FC9000C4120335900027
:1008A300C4E0FCA3E0FDA3E0FEA3E0FF780812038D
:1008B300229000C41203359000C4E0F8A3E0F9A32A
:1008C300E0FAA3E0FB9000F5E0FFEB4FFFEAFEE95F
:1008D300FDE8FC9000C41203359000C4E0FCA3E0E3
:1008E300FDA3E0FEA3E0FF78081203229000C412E8
:1008F30003359000C4E0F8A3E0F9A3E0FAA3E0FB1A
:100903009000F4E0FFEB4FFFEAFEE9FDE8FC900006
:10091300C41203359000C4E0FCA3E0FDA3E0FEA3F2
:10092300E0FF78081203229000C41203359000C43C
:10093300E0F8A3E0F9A3E0FAA3E0FB9000F3E0FF03
:10094300EB4FFFEAFEE9FDE8FC9000C4120335E437
:100953009000F3F0A37402F09000BF120341000073
:0B0963000000121B659000C87401F03A
:01096E002266
:100E7A009000C8E024FE601314606C147003020F23
:100E8A001224036003020F20021A939000C4E0FCAC
:100E9A00A3E0FDA3E0FEA3E0FF9000BFE0F8A3E01B
:100EAA00F9A3E0FAA3E0FBC31202FE70079000C8A0
:100EBA007403F022121BE6121B3A9000F2EFF09034
:100ECA0000BFE0FCA3E0FDA3E0FEA3E02401FFE4F1
:100EDA003EFEE43DFDE43CFC9000BF1203357B017D
:100EEA007A0079F2021A72AFDDEF6401700DAFD5A4
:100EFA00EF70089000C87404F0800A15DDAFDDEFCA
:100F0A00F4700215D5D2DE227F02121AFA121BE5FC
:060F1A00121BBA121B922B
:010F200022AE
:10192B009000C9E0FFA3E06F6025121BC0EF6402BB
:10193B00701D9000C9E0FF04F074CB2FF582E434E6
:10194B0000F583E0FF12081E9000C9E0540FF0224F
:100D1E00FB3300000000000000020302000003008D
:100D2E000000640100000000000000000000000050
:100D3E0000000000000000000000000000000000A5
:100D4E00000063FB330000000000000002030200FD
:100D5E000001000000000000000000000000000084
:100D6E000000000000000000000000000000000075
:100D7E00000000000063FB0F0000000000000002F6
:100D8E0001020000F1FB0F00000000000000020253
:100D9E00020000F0FB0F0000000000000002040241
:100DAE000000EEFB13000000000000000905090022
:100DBE000080250000360D840D930DA20D1E0DB181
:061BC600900007EFF02281
:0B1B0B009000067401F0E4900002F06E
:061B1600900007E0FF2231
:10195B009000537401F0A37400F0A37410F0900086
:10196B00507401F0A37400F0A37430F0E490000CF9
:0C197B00F0C293900006F07F01021BC632
:10105F00E4FE900D52E493FDEEC39D5015EE900DFE
:10106F005193FD74572EF582E43400F583EDF00EA5
:10107F0080E09000657401F0900069EFF0E4FFFEEE
:10108F00900D52E49314FDEEC39D501074572EF53E
:10109F0082E43400F583E02FFF0E80E4EFF4FF0FBE
:1010AF0074572EF582E43400F583EFF09000097445
:1010BF0001F0A37400F0A37457F09000977401F03F
:1010CF00E490000FF0900009E0FBA3E0FAA3E0F931
:0E10DF0090000FE0F58275830012018DF599E7
:0110ED0022E0
:051BD7007F6402105FB5
:051BDC007F0302105F11
:0513AF009000F2EFF0D8
:1013B40078F37C007D017BFF7A0D79C47E007F0A7F
:1013C40012014E9000F2E0FFD39404748094805094
:1013D40043EF25E024F3F582E43400F583E0FEA333
:1013E400E0AA06F990000974FFF0A3EAF0A3E9F07B
:1013F4009000977401F0E490000FF0900009E0FB76
:10140400A3E0FAA3E0F990000FE0F58275830012DF
:04141400018DF599B8
:0114180022B1
:1016FA00900056E06048900000E0B4010AA3E0B40C
:10170A0090057F021213AF900000E475F0011201F8
:10171A00EEFED3E5F094C2EE94014022E4FF1213E8
:10172A00AFE4900000F0A3F0900005E0600BE490B5
:0E173A000056F0C2937F0480027F03121A0152
:01174800227E
:1003720090000CE020E703020525547FF090005026
:10038200E0FBA3E0FAA3E0F990000112018DFFE483
:10039200FEFDEDC39F5018900050E0FBA3E0FAA3CE
:1003A200E0F98D8275830012018D2EFE0D80E3EE41
:1003B2006003020525900050E0FBA3E0FAA3E0F9F8
:1003C20090000912018D24F770030204D924F770FA
:1003D200030204F42410600302052590000A1201AE
:1003E2008D64066003020525900056E06003020555
:1003F2002590000E12018D24FE602014602D1470D1
:100402000302048F24036003020525121B0BEF6411
:100412000160030205257F060204D6121B0BEF645E
:100422000160030205257F050204D69000067401CF
:10043200F0121B16EF64016003020525900002E032
:1004420014601314601414601114601A14601724D9
:100452000560030205257F0780027F09121A0190B9
:100462000002E004F0227F0B121A017F0B121A0124
:100472007F0B121A017F0B121A017F0B121A017FD6
:100482000B121A017F0B121A017F0B804790000694
:100492007401F0121B16EF6401600302052590003F
:1004A20002E0D394027480948040277F0B121A01D9
:1004B2007F0B121A017F0B121A017F0B121A017F96
:1004C2000B121A017F0B121A017F0B121A017F0BFA
:1004D20080027F08021A01900050E0FBA3E0FAA319
:1004E200E0F990000A12018D64017037900008044F
:1004F200F022900050E0FBA3E0FAA3E0F990000A9A
:1005020012018D6404701C90000B12018D64027044
:100512001290000D12018D700A90000E12018D9042
:030522000005F0E1
:0105250022B3
:10159600900097E06401705090000FE004F0640141
:1015A600701B900009E0FBA3E0FAA3E0F990000F9E
:1015B600E0F58275830012018D900003F090000320
:1015C600E014FF90000FE0FED39F40079000977451
:1015D60080F022900009E0FBA3E0FAA3E0F98E82F6
:0815E60075830012018DF599D7
:0115EE0022DA
:1010EE00AF99EF64FB700490000DF090000DE0FEE0
:1010FE0064017005900004EFF0900053E0FBA3E054
:10110E00FAA3E0F98E82758300EF1201CC90000DE8
:10111E00E004F0E0FF900004E06F705290000CE0ED
:10112E0030E02154FEF09000537401F0A37400F0EF
:10113E00A37410F09000507401F0A37400F0A37427
:10114E0030F0802390000CE04401F09000537401C5
:10115E00F0A37400F0A37430F09000507401F0A36B
:0E116E007400F0A37410F090000CE04480F0C8
:01117C002250
:0A1B7F00D297900114E04401F02217
:1012660030972790010FE0FFD39405748094804057
:101276000FEF94DD7480948050069001137401F092
:10128600E4900110F090010FF022900110E014603C
:101296001704703990010FE004F0D394057480941C
:1012A60080402AA37401F02290010FE004F0E0FFD1
:1012B6007E0064DC70069001137402F0D3EF94DCB8
:0D12C600EE64809480400690010F74E1F00A
:0112D30022F8
:10185300900113E0603564017017A3E06401700325
:101863007480F0900114E070087481F07F01121A03
:1018730001900113E06402700D90005674FFF0D2E2
:0C188300937F02121A01E4900113F0227E
:10134200900114E030E709547FF09001117401F02C
:10135200900111E0605624FE601C14601C14602A87
:1013620024037043900114E090011130E0047402F0
:10137200F0227403F022021ACE7F0A121A017F01B0
:101382001213AF9001117404F022900112E0FF04D5
:10139200F0D3EF94FB748094804011E4F0C283C2D6
:0C13A20092C293C2948001E4900111F00B
:0113AE00221C
:091B8900475056544700FF1B8928
:101AE800E49000F0F09000EFF09000EDF09000EC42
:021AF800F022DA
:1006AE007B017A0079F21218FBEF700302081D909D
:1006BE0000DBE0146028147003020761147003025B
:1006CE0007832403600302081D9000F2E064246097
:1006DE000302081D9000DBE004F0E4A3F02290007A
:1006EE00F2E0FF9000DCE0FE04F074DE2EF582E412
:1006FE003400F583EFF09000DCE06405600302083F
:10070E001DA3F09000DCE0FFA3E0FEC39F503490E9
:10071E001B8FE493FB740193FA740293F98E827526
:10072E00830012018DFF74DE2EF582E43400F58312
:10073E00E06F6007E49000DBF080089000DDE004DD
:10074E00F080C09000DDE06405600302081D90009B
:10075E00DC80189000F2E0B42C069000DCE004F08F
:10076E009000DCE06407600302081DF0A3F0900027
:10077E00DBE004F0229000F2E0FF642C6005EF64F1
:10078E002E70729000DCE0FF605F9000EE7424F03B
:10079E00EF640370229000DFE075F00AA4FF900072
:1007AE00DEE075F064A42FFF9000E0E02F9000F0E3
:1007BE00F09000EF74FFF09000DCE0FB6402701626
:1007CE009000DEE075F00AA4FEA3E02E9000F0F09B
:1007DE009000EF74FFF0EB6401700E9000DEE0907D
:1007EE0000F0F09000EF74FFF0E49000DCF0A3F066
:1007FE009000DBF0229000F2E024D0FF9000DCE0CD
:0F080E00FE04F074DE2EF582E43400F583EFF083
:01081D0022B8
:061BCC009000EDE0FF2295
:101A4F009000ECE06402701A900114E030E0139003
:101A5F0000E8E004F0D39464748094804004E4F0D0
:021A6F00B29231
:011A71002252
:100F21009000EFE06012E4F09000E9F0A3F090008F
:100F3100F0E09000EDF080249000E9E475F00112FA
:100F410001EEFED3E5F094A0EE9400400F9000E98D
:100F5100E4F0A374AAF09000ED74FFF09000EBE0D0
:100F610004F0D394A0748094804054E4F0A3E0642E
:100F710001700D9000EEE0B42404E4F08041802F74
:100F81009000ECE0640270109000EEE0B424028066
:100F91000EE49000EEF080279000EEE0B42410E41F
:100FA100F09000EC04F07F0C121A01D2928010E450
:100FB1009000EEF09000EC7402F07F0D121A010225
:020FC1001A4FC5
:031BE1000206AE4B
:101816001234000054686973206669726D776172CC
:1018260065207772697465206279204A75737469D8
:101836006E5A686F75203C6A757374696E2E7A6885
:0D1846006F7533304071712E636F6D3E0081
:100AB30090011712034100000000E4900145F0A3E8
:100AC300F0900115F0A3F0901816E493FE740193CF
:100AD300FFC3900116E09FEE6480F8900115E06477
:100AE3008098504D900117E0F8A3E0F9A3E0FAA332
:100AF300E0FB900115E0FEA3E0FF900145E0FCA3BD
:100B0300E02FF582EC3EF583E493FFE4FCFDFEEB7E
:100B13002FFFEE3AFEED39FDEC38FC90011712037E
:100B230035900116E004F0709E900115E004F0800A
:100B330096900117E0FCA3E0FDA3E0FEA3E0FFC055
:100B430006C007901818E493FE740193FBAA06EA03
:100B53003395E0F9F8D007D006C3EF9BFFEE9AFE7A
:100B6300ED99FDEC98FC900117120335901818E4E9
:100B730093FE740193FFEE3395E0FDFC900117E0C3
:100B8300F8A3E0F9A3E0FAA3E0FBC31202E86002D2
:020B930080FEE2
:010B9500223D
:100FC3007F007E037D007C00121419E49000F2F090
:100FD3009000F2E0C39439748094805016121B3A47
:100FE3009000F2E090181A93B507089000F2E0041D
:100FF300F080DD9000F2E0C3943974809480500255
:1010030080FE7F807E037D007C00121419E4900033
:10101300F2F09000F2E0C3941474809480500B12A9
:101023001B3A9000F2E004F080E8121B3AEF644FA1
:10103300600280FEE49000F2F09000F2E0C39407B7
:1010430074809480500B121B3A9000F2E004F080FD
:0B105300E8121B3AEF6454600280FEBC
:01105E00226F
:100B960090011BE475F0011201EEFED3E5F094E836
:100BA600EE94034020E490011BF0A3F0900008E0CF
:100BB6006008E4F0900120F0800B9001207401F0B1
:100BC600E490011FF0900120E07003020C6C90018C
:100BD6001FE0B407004003020C6C900BE7F82828CE
:100BE60073020BFC020C00020C17020C1B020C32E7
:100BF600020C47020C61C283803D90011DE475F032
:100C0600011201EEFED3E5F09464EE9400405780A5
:100C160045D283802290011DE475F0011201EEFE9B
:100C2600D3E5F09458EE9402403C802A121B497F8B
:100C3600041213AF121B57E490011DF0A3F0A3801A
:100C46002290011DE475F0011201EEFED3E5F09449
:100C560032EE9400401090011F8008E4FF1213AF9B
:060C660090011FE004F004
:010C6C002265
:1015EF00900126120335538EF7438901D28CE4FF05
:1015FF00FEFDFC900126E0F8A3E0F9A3E0FAA3E0DA
:10160F00FBC31202FE602F758A7E758CFF308DFD35
:10161F00C28D900126E0FCA3E0FDA3E0FEA3E02431
:10162F00FFFFEE34FFFEED34FFFDEC34FFFC9001C5
:09163F002612033580B8C28C228A
:1016480090012A120335538EF7438901D28CE4FFA7
:10165800FEFDFC90012AE0F8A3E0F9A3E0FAA3E07C
:10166800FBC31202FE602F758ACA758CFA308DFD95
:10167800C28D90012AE0FCA3E0FDA3E0FEA3E024D4
:10168800FFFFEE34FFFEED34FFFDEC34FFFC90016C
:091698002A12033580B8C28C222D
:1016A10090012E120335538EEF438910D28EE4FF41
:1016B100FEFDFC90012EE0F8A3E0F9A3E0FAA3E01F
:1016C100FBC31202FE602F758BEA758DCB308FFD47
:1016D100C28F90012EE0FCA3E0FDA3E0FEA3E02475
:1016E100FFFFEE34FFFEED34FFFDEC34FFFC900113
:0916F1002E12033580B8C28E22CE
:10153A009000F212033553C9BF53C9DF43C910D211
:10154A00CAE4FFFEFDFC9000F2E0F8A3E0F9A3E094
:10155A00FAA3E0FBC31202FE602F75CC3075CDF8FA
:10156A0030CFFDC2CF9000F2E0FCA3E0FDA3E0FE85
:10157A00A3E024FFFFEE34FFFEED34FFFDEC34FF61
:0C158A00FC9000F212033580B8C2CA22A7
:10147E0090013212033575C40743C408E4FFFEFD24
:10148E00FC900132E0F8A3E0F9A3E0FAA3E0FBC37D
:10149E001202FE603575C52C75C6CFE5C4541064B6
:1014AE001070F853C4EF900132E0FCA3E0FDA3E00E
:1014BE00FEA3E024FFFFEE34FFFEED34FFFDEC341F
:0E14CE00FFFC90013212033580B253C4F722A6
:1014DC0090013612033575C40743C408E4FFFEFDC2
:1014EC00FC900136E0F8A3E0F9A3E0FAA3E0FBC31B
:1014FC001202FE603575C5D875C6FFE5C45410647C
:10150C001070F853C4EF900136E0FCA3E0FDA3E0AB
:10151C00FEA3E024FFFFEE34FFFEED34FFFDEC34C0
:0E152C00FFFC90013612033580B253C4F72243
:10188F0053B1BF53B2BF53B17F53B27F759850431B
:10189F008920438780438E1053C4DFAB07AA06A964
:1018AF0005A8047F407E427D0F7C00120256EF0494
:0918BF00F404F58DD28ED29922B9
:1011F30090013A12033553B1BF53B2BF53B17F537A
:10120300B27F75985043878053C4F843C42090013C
:101213003AE0F8A3E0F9A3E0FAA3E0FB7F407E42C3
:101223007D0F7C00120256C374FF9FFF74FF9EFE66
:10123300E49DFDE49CFC780812030F8FC690013AED
:10124300E0F8A3E0F9A3E0FAA3E0FB7F407E427D50
:101253000F7C00120256C374FF9FFF8FC543C4085F
:03126300D29922FB
:071B9A003098FDAF99C298DD
:011BA1002221
:081BA200C2998F993099FD22D0
:1012D4009000F212033553B1FB53B2FB53B3BF5327
:1012E400B4BF75F85075C40853C4DF9000F2E0F839
:1012F400A3E0F9A3E0FAA3E0FB7F407E427D0F7CEC
:1013040000120256C374FF9FFF74FF9EFEE49DFD0E
:10131400E49CFC780812030F8FC69000F2E0F8A357
:10132400E0F9A3E0FAA3E0FB7F407E427D0F7C005E
:0E133400120256C374FF9FFF8FC543C40822E8
:071BAA0030F8FDAF9AC2F80C
:011BB1002211
:081BB200C2F98F9A30F9FD22FF
:101ACE0075C7AA75C755A2AF9200C2AF75C7AA75E2
:0A1ADE00C755439F80A20092AF227B
:100C6D00A2AF9200C2AF75C7AA75C755439F01A227
:100C7D000092AF75A630E4F5A775AF04A2AF920050
:100C8D00C2AF75C7AA75C75543A401A20092AF9014
:100C9D000140E5AEF075A631E4F5A7A2AF9200C212
:100CAD00AF75C7AA75C75543A401A20092AFA3E5BE
:100CBD00AEF0A2AF9200C2AF75C7AA75C755539FCC
:100CCD00FEA20092AF900140E025E0FFE433FEA3C9
:100CDD00E054017C002FFFEC3E90013EF0A3EFF0BD
:100CED00E024F1F090013EE034FFF0E0FEA3E0FFE0
:100CFD005401FD900141F0EEC313EF13900140F04C
:100D0D0075C7AA75C755F58475C7AA75C7558D855D
:010D1D0022B3
:03000000020DCE20
:100DCE0075C7AA75C75575FD5A75C7AA75C75575E6
:100DDE00FDA5787FE4F6D8FD9000007FFF7E03E44A
:0C0DEE00F0A3DFFCDEFA758120020E3558
:100DFA0002096FE493A3F8E493A34003F68001F297
:100E0A0008DFF48029E493A3F85407240CC8C333F9
:100E1A00C4540F4420C8834004F456800146F6DFC8
:100E2A00E4800B0102040810204080901BD2E47E6B
:100E3A00019360BCA3FF543F30E509541FFEE493BD
:100E4A00A360010ECF54C025E060A840B8E493A384
:100E5A00FAE493A3F8E493A3C8C582C8CAC583CAAF
:100E6A00F0A3C8C582C8CAC583CADFE9DEE780BE67
:011BD600000E
:10007E00E709F608DFFA8046E709F208DFFA803E64
:10008E0088828C83E709F0A3DFFA8032E309F60851
:10009E00DFFA8078E309F208DFFA807088828C83B9
:1000AE00E309F0A3DFFA806489828A83E0A3F6086D
:1000BE00DFFA805889828A83E0A3F208DFFA804C47
:1000CE0080D280FA80C680D4806980F2803380101E
:1000DE0080A680EA809A80A880DA80E280CA803387
:1000EE0089828A83ECFAE493A3C8C582C8CCC583FF
:1000FE00CCF0A3C8C582C8CCC583CCDFE9DEE780CF
:10010E000D89828A83E493A3F608DFF9ECFAA9F04D
:10011E00EDFB2289828A83ECFAE0A3C8C582C8CCA3
:10012E00C583CCF0A3C8C582C8CCC583CCDFEADEBC
:10013E00E880DB89828A83E493A3F208DFF980CC1E
:10014E0088F0EF60010E4E60C388F0ED2402B40417
:10015E000050B9F582EB2402B4040050AF232345BE
:06016E0082239000CE7315
:10017400BB010689828A83E0225002E722BBFE0289
:09018400E32289828A83E49322BC
:10018D00BB010CE58229F582E5833AF583E0225027
:10019D0006E92582F8E622BBFE06E92582F8E22271
:0D01AD00E58229F582E5833AF583E493228B
:1001BA00BB010689828A83F0225002F722BBFE0124
:0201CA00F3221E
:1001CC00F8BB010DE58229F582E5833AF583E8F069
:1001DC00225006E92582C8F622BBFE05E92582C815
:0201EC00F222FD
:1001EE00C5F0F8A3E028F0C5F0F8E582158270029C
:0601FE001583E038F02239
:10020400A3F8E0C5F025F0F0E582158270021583AD
:06021400E0C838F0E8220A
:10021A0075F008758200EF2FFFEE33FECD33CDCC9B
:10022A0033CCC58233C5829BED9AEC99E58298401E
:10023A000CF582EE9BFEED9AFDEC99FC0FD5F0D6FB
:10024A00E4CEFBE4CDFAE4CCF9A88222B800C1B925
:10025A000059BA002DEC8BF084CFCECDFCE5F0CB63
:10026A00F97818EF2FFFEE33FEED33FDEC33FCEB9C
:10027A0033FB10D703994004EB99FB0FD8E5E4F957
:10028A00FA227818EF2FFFEE33FEED33FDEC33FC44
:10029A00C933C910D7059BE99A4007EC9BFCE99A38
:1002AA00F90FD8E0E4C9FAE4CCFB2275F010EF2F7D
:1002BA00FFEE33FEED33FDCC33CCC833C810D7077D
:1002CA009BEC9AE899400AED9BFDEC9AFCE899F8B8
:0E02DA000FD5F0DAE4CDFBE4CCFAE4C8F9224B
:1002E800EB9FF5F0EA9E42F0E99D42F0EC6480C88D
:0602F80064809845F0222D
:1002FE00EB9FF5F0EA9E42F0E99D42F0E89C45F056
:01030E0022CC
:10030F00E8600FECC313FCED13FDEE13FEEF13FFCC
:03031F00D8F122F0
:10032200E8600FEFC333FFEE33FEED33FDEC33FC39
:03033200D8F122DD
:0C033500ECF0A3EDF0A3EEF0A3EFF0223B
:10034100A8828583F0D083D08212035812035812F9
:100351000358120358E473E493A3C583C5F0C5831E
:10036100C8C582C8F0A3C583C5F0C583C8C582C806
:010371002269
:00000001FF
