:1009330012186D7FC87E007D007C00121581120F96
:10094300A17F01121A61900124E475F0011201EEF6
:10095300FED3E5F09458EE94024009E4900124F0AC
:10096300A3F0801E900128E0700E12006E12007A30
:1009730012198B12182B80EC1212BAE4900128F092
:1009830080C47F04121396900124E475F0011201D0
:10099300EEFED3E5F094D0EE94074009E4900124F1
:1009A300F0A3F08018900128E0700B12006E120083
:1009B3007A12198B80EFE4900128F080CA121B8C05
:1009C300E4FF121396E4900127F0900124E475F0FC
:1009D30001120204FED3E5F094C8EE94004061E4F2
:1009E300900124F0A3F0121C309000F3EFF0F470A8
:1009F3002F121B76EF64017014900127E004F0D3EB
:100A0300940F7480948040387410F08033900126E2
:100A1300E0702D04F0FF121C2AE4900127F08020DF
:100A2300E4900126F09000F3E0D394047480948062
:100A3300E49001274005F07F018002F0FF121C2A99
:100A4300900128E0701712006E12007A121C4E12E9
:100A5300066A12182B12198B121C4B80E31212BA5E
:100A6300120EFF1215DD1211D1120A7A121465E467
:070A7300900128F00209CDFB
:10186D00E4F5B1F5B2F5B3F5B4F5ACF5ADC285C29D
:10187D0094D292C29112004E121B7C121B9C12111B
:10188D005B121A891200261219BB1218E8121BE3FB
:0E189D00121B4843B21843B408D283D2AF22C4
:041C36004101450A19
:10004E005389F0438901438E0890014674C1F0A391
:0D005E007480F0758CC1F58AD2A9D28C2275
:03000B00021A11C5
:061A1100C0E0C083C082AA
:101A1700900146E0F58CA3E0F58A900145E014F0CB
:0B1A27007009740AF090012874FFF0B1
:071A3200D082D083D0E03226
:101B7C00C2AC7F007EC27D017C00121922D2AC2245
:101B8C00C2AC7F807E257D007C00121922D2AC2253
:0300230002179C25
:10179C00C0E0C0F0C083C082C0D075D000C000C013
:1017AC0001C002C003C004C005C006C007309905C3
:1017BC00121638C2993098051210CCC298D007D0A6
:1017CC0006D005D004D003D002D001D000D0D0D0A8
:0817DC0082D083D0F0D0E0328E
:0F1B9C007F807E257D007C00121328439C012250
:03007B000217E485
:1017E400C0E0C0F0C083C082C0D075D000C000C0CB
:1017F40001C002C003C004C005C006C00730F9021E
:10180400C2F930F807C2F8AF9A121A39D007D006D5
:10181400D005D004D003D002D001D000D0D0D082E3
:07182400D083D0F0D0E032C8
:08000300C2F98F9A30F9FD22C9
:10115B00A2AF9200C2AF75C7AA75C75543910143A1
:10116B00C60875C7AA75C7555391FEA20092AF4327
:10117B00B210538EBFA2AF920075C7AA75C7557533
:10118B00910153B7F843B70375C7AA75C755E4F573
:10119B0091A20092AFA2AF920075C7AA75C7557501
:1011AB00910143B71053D8DF75C7AA75C755F59191
:1011BB00A20092AF75D104F5D9F5D575DD01539B1E
:0611CB00F7C2DEC2DF22C4
:03006B0002000E82
:10000E00C0E0C083C082C2DD90014A74FFF0D0828E
:05001E00D083D0E032A8
:0E1BC900E4F5D575DD01439B08D2DED2DF22A4
:081BF600539BF7C2DFC2DD22A0
:101AD200120174FF7E00D394FFEE940340047E0350
:101AE2007FFFEF4E7003FE7F018FDDEEF5D5D2DE74
:011AF20022D1
:101AF300AFDDEF6480700DAFD5EF70089000A77471
:101B030002F0800905DDAFDDEF700205D5D2DE22DC
:0C006E0090014AE06005E4F0120E5522FB
:101A890043F40853F37F53F3DF53F3F753F3FB4363
:101A9900F31053F3FE53F3FD539BBFD29553F3BF9A
:061AA900E4900108F022A8
:0C1BD7008FF5E5F4548060FA53F47F228F
:0E1BAB00E4F5F5E5F4548060FAAFF553F47FED
:011BB9002209
:03004B00021B1382
:101B1300C0E0C083C082E5F430E70990011074FF90
:0B1B2300F053F47FD082D083D0E0327A
:10140000900102120335D295900102E0FCA3E0FDA9
:10141000A3E0FEA3E0FF781012030F90010CEFF0A1
:10142000900102E0FCA3E0FDA3E0FEA3E0FF78084A
:1014300012030F90010BEFF0900102A3A3A3E09021
:10144000010AF0C29543F3407F03121BD790010CB1
:10145000E0FF121BD790010BE0FF121BD790010A8F
:05146000E0FF021BD7B4
:0E1BBA00E4F5F5E5F4548060FAAFF553F47FDE
:011BC80022FA
:061C1E00D29553F3BF2232
:01007A002263
:10002600E4FFEFC3942074809480500F74BD2FF5C5
:1000360082E43400F583E4F00F80E7E49000BCF03E
:040046009000BBF07B
:01004A002293
:101A39009000BBE004541FFEA3E06E601A9000BB47
:101A4900E0FE04F074BD2EF582E43400F583EFF076
:081A59009000BBE0541FF022D5
:10195B009000BBE0FFA3E0B507037F00229000BC23
:10196B00E0FF04F074BD2FF582E43400F583E01240
:10197B0001BA9000BCE0541FF01219E7EF04FF22EC
:1019E7009000BBE0FEA3E0FDB506037F0022EDD328
:1019F7009E400A9000BBE02420C39DFF229000BCBC
:0A1A0700E0FF9000BBE0C39FFF2248
:011C4E002273
:101B5A00EF64017004D2948002C2949000A2EFF064
:011B6A002258
:061C24009000A2E0FF2287
:1018E800E49000A9F09000A9E0FFC39408748094E4
:1018F80080501474AB2FF582E43400F583E4F09043
:1019080000A9E004F080DEE49000A8F0A3F07F02D4
:0A191800121B5A9000AA7409F02275
:031C4500C2832235
:031C4800D2832222
:050372009000F9EFF01E
:100377007E00D394007480948050030204F4EF94B9
:100387000E7480948040030204F49000FE1203412F
:10039700000000009000FEE0F8A3E0F9A3E0FAA354
:1003A700E0FB9000F9E0FFEB4FFFEAFEE9FDE8FC18
:1003B7009000FE1203359000FEE0FCA3E0FDA3E0F1
:1003C700FEA3E0FF78041203229000FE120335908B
:1003D70000FEE0FCA3E0FDA3E0FEA3E0FF12140093
:1003E700121BBA9000FAEFF0121BBA9000FBEFF065
:1003F700121BBA9000FCEFF0121BBA9000FDEFF051
:10040700121C1E9000FE120341000000009000FE27
:10041700E0F8A3E0F9A3E0FAA3E0FB9000FDE0FF1A
:10042700EB4FFFEAFEE9FDE8FCA31203359000FE5F
:10043700E0FCA3E0FDA3E0FEA3E0FF78081203229F
:100447009000FE1203359000FEE0F8A3E0F9A3E068
:10045700FAA3E0FB9000FCE0FFEB4FFFEAFEE9FDAB
:10046700E8FC9000FE1203359000FEE0FCA3E0FDDF
:10047700A3E0FEA3E0FF78081203229000FE120318
:10048700359000FEE0F8A3E0F9A3E0FAA3E0FB90C3
:1004970000FBE0FFEB4FFFEAFEE9FDE8FC9000FE02
:1004A7001203359000FEE0FCA3E0FDA3E0FEA3E00D
:1004B700FF78081203229000FE1203359000FEE039
:1004C700F8A3E0F9A3E0FAA3E0FB9000FAE0FFEB62
:1004D7004FFFEAFEE9FDE8FC9000FE1203359000AD
:1004E700FEE0FCA3E0FDA3E0FEA3E0FF22E4FFFEA5
:0204F700FDFC0A
:0104F90022E0
:101A61009000A9E004540FFE9000A8E06E6018A356
:101A7100E0FE04F074AB2EF582E43400F583EFF060
:081A81009000A9E0540FF022CF
:0507D5009000F4EFF0BC
:1007DA007F01121B5A121BF69000F4E0FF120372FB
:1007EA00900099120335900099E0FCA3E0FDA3E084
:1007FA00FEA3E0242AFFE43EFEE43DFDE43CFC12B5
:10080A001400121BBA9000F5EFF0121BBA9000F612
:10081A00EFF0121BBA9000F7EFF0121BBA9000F833
:10082A00EFF09000A3120341000000009000A3E043
:10083A00F8A3E0F9A3E0FAA3E0FB9000F8E0FFEBED
:10084A004FFFEAFEE9FDE8FC9000A3120335900091
:10085A00A3E0FCA3E0FDA3E0FEA3E0FF78081203F7
:10086A00229000A31203359000A3E0F8A3E0F9A3B5
:10087A00E0FAA3E0FB9000F7E0FFEB4FFFEAFEE9A6
:10088A00FDE8FC9000A31203359000A3E0FCA3E06E
:10089A00FDA3E0FEA3E0FF78081203229000A31252
:1008AA0003359000A3E0F8A3E0F9A3E0FAA3E0FB84
:1008BA009000F6E0FFEB4FFFEAFEE9FDE8FC90004E
:1008CA00A31203359000A3E0FCA3E0FDA3E0FEA37E
:1008DA00E0FF78081203229000A31203359000A3C8
:1008EA00E0F8A3E0F9A3E0FAA3E0FB9000F5E0FF4B
:1008FA00EB4FFFEAFEE9FDE8FC9000A3120335E4A2
:10090A009000F5F0A37402F090009E1203410000DB
:10091A000000121BC99000A77401F09000F4E06473
:08092A000B70059000AA04F017
:0109320022A2
:100E55009000A7E024FE601614606C147003020E67
:100E6500ED24036003020EFE121C48021AF39000E3
:100E7500A3E0FCA3E0FDA3E0FEA3E0FF90009EE05D
:100E8500F8A3E0F9A3E0FAA3E0FBC31202FE7007A2
:100E95009000A77403F022121BBA9000F4EFF090B3
:100EA500009EE0FCA3E0FDA3E0FEA3E02401FFE437
:100EB5003EFEE43DFDE43CFC90009E1203357B01C3
:100EC5007A0079F4021AD2AFDDEF6401700DAFD567
:100ED500EF70089000A77404F0800A15DDAFDDEF10
:100EE500F4700215D5D2DE227F02121B5A121C1E87
:090EF500121BF69000A7E004F0C6
:010EFE0022D1
:10198B009000A8E0FFA3E06F6025121C24EF640217
:10199B00701D9000A8E0FF04F074AB2FF582E434C7
:1019AB0000F583E0FF1207D59000A8E0540FF0225A
:101465009000AAE014B40900505590147D75F0035E
:10147500A4C58325F0C583730214980214A8021429
:10148500980214A80214980214A80214980214A829
:101495000214B8900098E014F070247407F0121C40
:1014A500458016900098E014F070147411F0121C29
:0F14B5004880069000987411F09000AAE004F0AF
:0114C4002205
:100CF900FB330000000000000002030200000300B3
:100D09000000640100000000000000000000000075
:100D190000000000000000000000000000000000CA
:100D2900000063FB33000000000000000203020022
:100D390000010000000000000000000000000000A9
:100D4900000000000000000000000000000000009A
:100D5900000000000063FB0F00000000000000021B
:100D690001020000F1FB0F00000000000000020278
:100D7900020000F0FB0F0000000000000002040266
:100D89000000EEFB13000000000000000905090047
:100D99000080250000360D5F0D6E0D7D0CF90D8C60
:061C2A00900007EFF0221C
:0B1B6B009000067401F0E4900002F00E
:061B7600900007E0FF22D1
:1019BB009000537401F0A37400F0A37410F0900026
:1019CB00507401F0A37400F0A37430F0E490000C99
:0C19DB00F0C293900006F07F01021C2A6D
:10103D00E4FE900D2DE493FDEEC39D5015EE900D45
:10104D002C93FD74572EF582E43400F583EDF00EEC
:10105D0080E09000657401F0900069EFF0E4FFFE10
:10106D00900D2DE49314FDEEC39D501074572EF585
:10107D0082E43400F583E02FFF0E80E4EFF4FF0FE0
:10108D0074572EF582E43400F583EFF09000097467
:10109D0001F0A37400F0A37457F09000977401F061
:1010AD00E490000FF0900009E0FBA3E0FAA3E0F953
:0E10BD0090000FE0F58275830012018DF59909
:0110CB002202
:051C3B007F6402103D72
:051C40007F0302103DCE
:051396009000F4EFF0EF
:10139B0078F57C007D017BFF7A0D799F7E007F0ABB
:1013AB0012014E9000F4E0FFD394047480948050AB
:1013BB0043EF25E024F5F582E43400F583E0FEA34A
:1013CB00E0AA06F990000974FFF0A3EAF0A3E9F094
:1013DB009000977401F0E490000FF0900009E0FB8F
:1013EB00A3E0FAA3E0F990000FE0F58275830012F9
:0413FB00018DF599D2
:0113FF0022CB
:1015DD00900056E06054900000E0B4010AA3E0B41E
:1015ED0090057F02121396900000E0B4010AA3E06B
:1015FD00B4A905E4FF121396900000E475F00112F2
:10160D0001EEFED3E5F094C2EE9401401DE490008E
:10161D0000F0A3F0900005E0600BE4900056F0C2DE
:0A162D00937F0480027F03121A610C
:011637002290
:10066A0090000CE020E7030207D4547FF09000507A
:10067A00E0FBA3E0FAA3E0F990000112018DFFE488
:10068A00FEFDEDC39F5018900050E0FBA3E0FAA3D3
:10069A00E0F98D8275830012018D2EFE0D80E3EE46
:1006AA0060030207D4900050E0FBA3E0FAA3E0F94C
:1006BA0090000912018D24F7700302078824F7704D
:1006CA00030207A3241060030207D490000A120150
:1006DA008D640660030207D4900056E060030207A7
:1006EA00D490000E12018D24FE602114602D146036
:1006FA0069240360030207D4121B6BEF64016003D1
:10070A000207D47F0B121A617F06806F121B6BEFF0
:10071A00640160030207D47F0580609000067401BB
:10072A00F0121B76EF640160030207D4900002E026
:10073A0014601314601414601114601A14601724DE
:10074A000560030207D47F0780027F09121A6190AD
:10075A000002E004F0227F0B80219000067401F071
:10076A00121B76EF64017062900002E0D394027467
:10077A0080948040047F0B80027F08021A619000F7
:10078A0050E0FBA3E0FAA3E0F990000A12018D649D
:10079A0001703790000804F022900050E0FBA3E0BB
:1007AA00FAA3E0F990000A12018D6404701C90000B
:1007BA000B12018D6402701290000D12018D700AE5
:0A07CA0090000E12018D900005F062
:0107D4002202
:10163800900097E06401705090000FE004F064019E
:10164800701B900009E0FBA3E0FAA3E0F990000FFB
:10165800E0F58275830012018D900003F09000037D
:10166800E014FF90000FE0FED39F400790009774AE
:1016780080F022900009E0FBA3E0FAA3E0F98E8253
:0816880075830012018DF59934
:011690002237
:1010CC00AF99EF64FB700490000DF090000DE0FE02
:1010DC0064017005900004EFF0900053E0FBA3E076
:1010EC00FAA3E0F98E82758300EF1201CC90000D0B
:1010FC00E004F0E0FF900004E06F705290000CE010
:10110C0030E02154FEF09000537401F0A37400F011
:10111C00A37410F09000507401F0A37400F0A37449
:10112C0030F0802390000CE04401F09000537401E7
:10113C00F0A37400F0A37430F09000507401F0A38D
:0E114C007400F0A37410F090000CE04480F0EA
:01115A002272
:0A1BE300D297900117E04401F022B0
:1012BA00309727900111E0FFD39405748094804001
:1012CA000FEF94DD7480948050069001167401F03B
:1012DA00E4900112F0900111F022900112E01460E2
:1012EA0017047039900111E004F0D39405748094C6
:1012FA0080402AA37401F022900111E004F0E0FF7B
:10130A007E0064DC70069001167402F0D3EF94DC60
:0D131A00EE64809480400690011174E1F0B3
:0113270022A3
:10182B00900116E0603B64017017A3E06401700344
:10183B007480F0900117E070087481F07F01121A28
:10184B0061900116E064027013A3E06401700D90C7
:10185B00005674FFF0D2937F02121A61E4900116C6
:02186B00F02269
:1011D100900117E030E709547FF09001137401F09A
:1011E100900113E0605F24FE601C14601C146033E6
:1011F1002403704C900117E090011330E004740255
:10120100F0227403F022021B2E90011574AAF01231
:1012110018E87F0A121A617F011213969001137464
:1012210004F022900114E0FF04F0D3EF94FB7480EA
:1012310094804011E4F0C283C292C293C2948001AF
:05124100E4900113F030
:011246002285
:091BED00475056544700FF1BED60
:101B4800E49000F2F09000F1F09000EFF09000EED9
:021B5800F02279
:1004FA007B017A0079F412195BEF700302066990A6
:10050A0000DDE01460281470030205AD14700302C4
:10051A0005CF240360030206699000F4E0642460B6
:10052A00030206699000DDE004F0E4A3F0229000E3
:10053A00F4E0FF9000DEE0FE04F074E02EF582E4C1
:10054A003400F583EFF09000DEE0640560030206F4
:10055A0069A3F09000DEE0FFA3E0FEC39F50349051
:10056A001BF3E493FB740193FA740293F98E827578
:10057A00830012018DFF74E02EF582E43400F583C6
:10058A00E06F6007E49000DDF080089000DFE0048F
:10059A00F080C09000DFE064056003020669900005
:1005AA00DE80189000F4E0B42C069000DEE004F03F
:1005BA009000DEE064076003020669F0A3F0900091
:1005CA00DDE004F0229000F4E0FF642C6005EF64A3
:1005DA002E70729000DEE0FF605F9000F07424F0ED
:1005EA00EF640370229000E1E075F00AA4FF900026
:1005FA00E0E075F064A42FFF9000E2E02F9000F293
:10060A00F09000F174FFF09000DEE0FB64027016D7
:10061A009000E0E075F00AA4FEA3E02E9000F2F04C
:10062A009000F174FFF0EB6401700E9000E0E0902E
:10063A0000F2F09000F174FFF0E49000DEF0A3F015
:10064A009000DDF0229000F4E024D0FF9000DEE07C
:0F065A00FE04F074E02EF582E43400F583EFF037
:01066900226E
:061C30009000EFE0FF222E
:101AAF009000EEE06402701A900117E030E013909E
:101ABF0000EAE004F0D39464748094804004E4F06E
:021ACF00B292D1
:011AD10022F2
:100EFF009000F1E06012E4F09000EBF0A3F09000AE
:100F0F00F2E09000EFF080249000EBE475F0011216
:100F1F0001EEFED3E5F094A0EE9400400F9000EBAD
:100F2F00E4F0A374AAF09000EF74FFF09000EDE0EE
:100F3F0004F0D394A0748094804054E4F0A3E06450
:100F4F0001700D9000F0E0B42404E4F08041802F94
:100F5F009000EEE0640270109000F0E0B424028084
:100F6F000EE49000F0F080279000F0E0B42410E43D
:100F7F00F09000EE04F07F0C121A61D2928010E410
:100F8F009000F0F09000EE7402F07F0D121A6102E3
:020F9F001AAF87
:031C4B000204FA96
:1018AB001234000054686973206669726D77617237
:1018BB0065207772697465206279204A7573746943
:1018CB006E5A686F75203C6A757374696E2E7A68F0
:0D18DB006F7533304071712E636F6D3E00EC
:100B650090011A12034100000000E4900148F0A32F
:100B7500F0900118F0A3F09018ABE493FE74019384
:100B8500FFC3900119E09FEE6480F8900118E064BE
:100B95008098504D90011AE0F8A3E0F9A3E0FAA37C
:100BA500E0FB900118E0FEA3E0FF900148E0FCA304
:100BB500E02FF582EC3EF583E493FFE4FCFDFEEBCC
:100BC5002FFFEE3AFEED39FDEC38FC90011A1203C9
:100BD50035900119E004F0709E900118E004F08052
:100BE5009690011AE0FCA3E0FDA3E0FEA3E0FFC0A0
:100BF50006C0079018ADE493FE740193FBAA06EABC
:100C05003395E0F9F8D007D006C3EF9BFFEE9AFEC7
:100C1500ED99FDEC98FC90011A1203359018ADE49E
:100C250093FE740193FFEE3395E0FDFC90011AE00D
:100C3500F8A3E0F9A3E0FAA3E0FBC31202E860021F
:020C450080FE2F
:010C4700228A
:100FA1007F007E037D007C00121400E49000F4F0C9
:100FB1009000F4E0C39439748094805016121BBAE7
:100FC1009000F4E09018AF93B507089000F4E004A6
:100FD100F080DD9000F4E0C3943974809480500275
:100FE10080FE7F807E037D007C00121400E490006F
:100FF100F4F09000F4E0C3941474809480500B12C8
:101001001BBA9000F4E004F080E8121BBAEF644FC1
:10101100600280FEE49000F4F09000F4E0C39407D5
:1010210074809480500B121BBA9000F4E004F0809D
:0B103100E8121BBAEF6454600280FE5E
:01103C002291
:100A7A0090011EE475F0011201EEFED3E5F094C474
:100A8A00EE9409402DE490011EF0A3F0900115E0C8
:100A9A0064AA700590000804F0900008E06008E479
:100AAA00F0900123F0800B9001237401F0E490018F
:100ABA0022F0900123E07003020B64900122E0B45B
:100ACA0007004003020B64900AD8F8282873020A28
:100ADA00ED020AFB020B12020B16020B2D020B3C53
:100AEA00020B59C283E4900120F0A3F0121B7C8010
:100AFA0059900120E475F0011201EEFED3E5F0945D
:100B0A0064EE940040548042D283801C900120E419
:100B1A0075F0011201EEFED3E5F094F4EE94014073
:100B2A003980277F04121396E4900120F0A3F0A3E2
:100B3A008025900120E475F0011201EEFED3E5F064
:100B4A009478EE94054013121B8C9001228008E4DD
:0A0B5A00FF121396900122E004F050
:010B6400226E
:10169100900129120335538EF7438901D28CE4FF5F
:1016A100FEFDFC900129E0F8A3E0F9A3E0FAA3E034
:1016B100FBC31202FE602F758A7E758CFF308DFD93
:1016C100C28D900129E0FCA3E0FDA3E0FEA3E0248C
:1016D100FFFFEE34FFFEED34FFFDEC34FFFC900123
:0916E1002912033580B8C28C22E5
:1016EA0090012D120335538EF7438901D28CE4FF02
:1016FA00FEFDFC90012DE0F8A3E0F9A3E0FAA3E0D7
:10170A00FBC31202FE602F758ACA758CFA308DFDF2
:10171A00C28D90012DE0FCA3E0FDA3E0FEA3E0242E
:10172A00FFFFEE34FFFEED34FFFDEC34FFFC9001C9
:09173A002D12033580B8C28C2287
:10174300900131120335538EEF438910D28EE4FF9B
:10175300FEFDFC900131E0F8A3E0F9A3E0FAA3E079
:10176300FBC31202FE602F758BEA758DCB308FFDA4
:10177300C28F900131E0FCA3E0FDA3E0FEA3E024CF
:10178300FFFFEE34FFFEED34FFFDEC34FFFC900170
:091793003112033580B8C28E2228
:101581009000F412033553C9BF53C9DF43C910D2C8
:10159100CAE4FFFEFDFC9000F4E0F8A3E0F9A3E04B
:1015A100FAA3E0FBC31202FE602F75CC3075CDF8B3
:1015B10030CFFDC2CF9000F4E0FCA3E0FDA3E0FE3C
:1015C100A3E024FFFFEE34FFFEED34FFFDEC34FF1A
:0C15D100FC9000F412033580B8C2CA225E
:1014C50090013512033575C40743C408E4FFFEFDDA
:1014D500FC900135E0F8A3E0F9A3E0FAA3E0FBC333
:1014E5001202FE603575C52C75C6CFE5C45410646F
:1014F5001070F853C4EF900135E0FCA3E0FDA3E0C4
:10150500FEA3E024FFFFEE34FFFEED34FFFDEC34D7
:0E151500FFFC90013512033580B253C4F7225B
:1015230090013912033575C40743C408E4FFFEFD77
:10153300FC900139E0F8A3E0F9A3E0FAA3E0FBC3D0
:101543001202FE603575C5D875C6FFE5C454106434
:101553001070F853C4EF900139E0FCA3E0FDA3E061
:10156300FEA3E024FFFFEE34FFFEED34FFFDEC3479
:0E157300FFFC90013912033580B253C4F722F9
:1019220053B1BF53B2BF53B17F53B27F7598504387
:101932008920438780438E1053C4DFAB07AA06A9D0
:1019420005A8047F407E427D0F7C00120256EF0400
:09195200F404F58DD28ED2992225
:1012470090013D12033553B1BF53B2BF53B17F5322
:10125700B27F75985043878053C4F843C4209001E8
:101267003DE0F8A3E0F9A3E0FAA3E0FB7F407E426C
:101277007D0F7C00120256C374FF9FFF74FF9EFE12
:10128700E49DFDE49CFC780812030F8FC690013D96
:10129700E0F8A3E0F9A3E0FAA3E0FB7F407E427DFC
:1012A7000F7C00120256C374FF9FFF8FC543C4080B
:0312B700D29922A7
:071BFE003098FDAF99C29879
:011C050022BC
:081C0600C2998F993099FD226B
:101328009000F412033553B1FB53B2FB53B3BF53D0
:10133800B4BF75F85075C40853C4DF9000F4E0F8E2
:10134800A3E0F9A3E0FAA3E0FB7F407E427D0F7C97
:1013580000120256C374FF9FFF74FF9EFEE49DFDBA
:10136800E49CFC780812030F8FC69000F4E0F8A301
:10137800E0F9A3E0FAA3E0FB7F407E427D0F7C000A
:0E138800120256C374FF9FFF8FC543C4082294
:071C0E0030F8FDAF9AC2F8A7
:011C150022AC
:081C1600C2F98F9A30F9FD229A
:101B2E0075C7AA75C755A2AF9200C2AF75C7AA7581
:0A1B3E00C755439F80A20092AF221A
:100C4800A2AF9200C2AF75C7AA75C755439F01A24C
:100C58000092AF75A630E4F5A775AF04A2AF920075
:100C6800C2AF75C7AA75C75543A401A20092AF9039
:100C78000143E5AEF075A631E4F5A7A2AF9200C234
:100C8800AF75C7AA75C75543A401A20092AFA3E5E3
:100C9800AEF0A2AF9200C2AF75C7AA75C755539FF1
:100CA800FEA20092AF900143E025E0FFE433FEA3EB
:100CB800E054017C002FFFEC3E900141F0A3EFF0DF
:100CC800E024F1F0900141E034FFF0E0FEA3E0FF02
:100CD8005401FD900144F0EEC313EF13900143F06B
:100CE80075C7AA75C755F58475C7AA75C7558D8583
:010CF80022D9
:03000000020DA945
:100DA90075C7AA75C75575FD5A75C7AA75C755750B
:100DB900FDA5787FE4F6D8FD9000007FFF7E03E46F
:0C0DC900F0A3DFFCDEFA758120020E10A2
:100DD500020933E493A3F8E493A34003F68001F2F8
:100DE50008DFF48029E493A3F85407240CC8C3331F
:100DF500C4540F4420C8834004F456800146F6DFEE
:100E0500E4800B0102040810204080901C36E47E2B
:100E1500019360BCA3FF543F30E509541FFEE493E2
:100E2500A360010ECF54C025E060A840B8E493A3A9
:100E3500FAE493A3F8E493A3C8C582C8CAC583CAD4
:100E4500F0A3C8C582C8CAC583CADFE9DEE780BE8C
:011C3A0000A9
:10007E00E709F608DFFA8046E709F208DFFA803E64
:10008E0088828C83E709F0A3DFFA8032E309F60851
:10009E00DFFA8078E309F208DFFA807088828C83B9
:1000AE00E309F0A3DFFA806489828A83E0A3F6086D
:1000BE00DFFA805889828A83E0A3F208DFFA804C47
:1000CE0080D280FA80C680D4806980F2803380101E
:1000DE0080A680EA809A80A880DA80E280CA803387
:1000EE0089828A83ECFAE493A3C8C582C8CCC583FF
:1000FE00CCF0A3C8C582C8CCC583CCDFE9DEE780CF
:10010E000D89828A83E493A3F608DFF9ECFAA9F04D
:10011E00EDFB2289828A83ECFAE0A3C8C582C8CCA3
:10012E00C583CCF0A3C8C582C8CCC583CCDFEADEBC
:10013E00E880DB89828A83E493A3F208DFF980CC1E
:10014E0088F0EF60010E4E60C388F0ED2402B40417
:10015E000050B9F582EB2402B4040050AF232345BE
:06016E0082239000CE7315
:10017400BB010689828A83E0225002E722BBFE0289
:09018400E32289828A83E49322BC
:10018D00BB010CE58229F582E5833AF583E0225027
:10019D0006E92582F8E622BBFE06E92582F8E22271
:0D01AD00E58229F582E5833AF583E493228B
:1001BA00BB010689828A83F0225002F722BBFE0124
:0201CA00F3221E
:1001CC00F8BB010DE58229F582E5833AF583E8F069
:1001DC00225006E92582C8F622BBFE05E92582C815
:0201EC00F222FD
:1001EE00C5F0F8A3E028F0C5F0F8E582158270029C
:0601FE001583E038F02239
:10020400A3F8E0C5F025F0F0E582158270021583AD
:06021400E0C838F0E8220A
:10021A0075F008758200EF2FFFEE33FECD33CDCC9B
:10022A0033CCC58233C5829BED9AEC99E58298401E
:10023A000CF582EE9BFEED9AFDEC99FC0FD5F0D6FB
:10024A00E4CEFBE4CDFAE4CCF9A88222B800C1B925
:10025A000059BA002DEC8BF084CFCECDFCE5F0CB63
:10026A00F97818EF2FFFEE33FEED33FDEC33FCEB9C
:10027A0033FB10D703994004EB99FB0FD8E5E4F957
:10028A00FA227818EF2FFFEE33FEED33FDEC33FC44
:10029A00C933C910D7059BE99A4007EC9BFCE99A38
:1002AA00F90FD8E0E4C9FAE4CCFB2275F010EF2F7D
:1002BA00FFEE33FEED33FDCC33CCC833C810D7077D
:1002CA009BEC9AE899400AED9BFDEC9AFCE899F8B8
:0E02DA000FD5F0DAE4CDFBE4CCFAE4C8F9224B
:1002E800EB9FF5F0EA9E42F0E99D42F0EC6480C88D
:0602F80064809845F0222D
:1002FE00EB9FF5F0EA9E42F0E99D42F0E89C45F056
:01030E0022CC
:10030F00E8600FECC313FCED13FDEE13FEEF13FFCC
:03031F00D8F122F0
:10032200E8600FEFC333FFEE33FEED33FDEC33FC39
:03033200D8F122DD
:0C033500ECF0A3EDF0A3EEF0A3EFF0223B
:10034100A8828583F0D083D08212035812035812F9
:100351000358120358E473E493A3C583C5F0C5831E
:10036100C8C582C8F0A3C583C5F0C583C8C582C806
:010371002269
:00000001FF
