:100BCF0090004E7432F0120BF2E4FF12023A9000D2
:100BDF004EE014F070037464F09000ACE060FAE43F
:030BEF00F080EBA8
:100BF200E4F5B1F5B2F5B3F5B4F5ACF5AD12004ECE
:100C0200120C6F12000E12062A120BA9120026D223
:020C1200AF220F
:040CD2004100A90A2A
:10004E005389F0438901438E089000AA74C1F0A32E
:0D005E007480F0758CC1F58AD2A9D28C2275
:03000B00020B598C
:060B5900C0E0C083C08271
:100B5F009000AAE0F58CA3E0F58A9000A9E014F0CC
:0B0B6F007009740AF09000AC74FFF0F5
:070B7A00D082D083D0E032ED
:0E0C6F007F007EC27D017C00120AC9D2AC2239
:03002300020A4589
:100A4500C0E0C0F0C083C082C0D075D000C000C077
:100A550001C002C003C004C005C006C0073099022A
:100A6500C299309805120445C298D007D006D00522
:100A7500D004D003D002D001D000D0D0D082D08312
:050A8500D0F0D0E032CA
:0F000E007F807E257D007C001205BC439C012273
:03007B00020C97DD
:0B0C970030F902C2F930F802C2F83256
:08000300C2998F993099FD228A
:10062A00A2AF9200C2AF75C7AA75C75543910143DD
:10063A00C60875C7AA75C7555391FEA20092AF5353
:10064A008EBFA2AF920075C7AA75C755759101539F
:10065A00B7F843B70375C7AA75C755E4F591A20061
:10066A0092AFA2AF920075C7AA75C755759101439B
:10067A00B71053D8DF75C7AA75C755F591A200926E
:0D068A00AF75D10375D9E8539BF7C2DF228D
:03006B00020A8AFC
:100A8A00C0E0C0F0C083C082C0D075D000C000C032
:100A9A0001C002C003C004C005C006C007C2DDB25F
:100AAA00921207C4D007D006D005D004D003D002D2
:0F0ABA00D001D000D0D0D082D083D0F0D0E032A5
:080CA200439B08D2DED2DF22E1
:080CAA00539BF7C2DFC2DD22FB
:1004D200E4900067F0A3F0900001120097FFE4900F
:1004E2000067F0EFA3F0E0F8E4F0E8900067F012A4
:1004F200007EFF900067E0F0A3E04FF0900067E01D
:10050200FEA3E07803CEC313CE13D8F9FF900067A1
:10051200EEF0A3EFF0D394E8EE9403400A90006764
:100522007403F0A374E8F0900067E07002A3E07037
:1005320007900067F0A304F0900067E0FEA3E0F5E7
:06054200DDEEF5D5D2DE6E
:010548002290
:0C006E009000ADE06005E4F01207C42231
:100BA90043F40853F37F53F3DF53F3F753F3FB4352
:100BB900F31053F3FE53F3FD539BBFD29553F3BF89
:060BC900E490007AF02226
:0C0C8B008FF5E5F4548060FA53F47F22EA
:0E0C5100E4F5F5E5F4548060FAAFF553F47F56
:010C5F002272
:03004B00020C366E
:100C3600C0E0C083C082E5F430E70990008274FF0B
:0B0C4600F053F47FD082D083D0E03266
:1006FF009000671201FDD295900067E0FCA3E0FD2A
:10070F00A3E0FEA3E0FF78101201D790007EEFF078
:10071F00900067E0FCA3E0FDA3E0FEA3E0FF7808F4
:10072F001201D790007DEFF0900067A3A3A3E09094
:10073F00007CF0C29543F3407F03120C8B90007E38
:10074F00E0FF120C8B90007DE0FF120C8B90007C71
:05075F00E0FF020C8B1D
:0E0C6000E4F5F5E5F4548060FAAFF553F47F47
:010C6E002263
:06001D00C29553F3BF225F
:10002600E4FFEFC3940874809480500F74852FF515
:1000360082E43400F583E4F00F80E7E4900084F076
:04004600900083F0B3
:01004A002293
:100B8100900083E0045407FEA3E06E601A90008396
:100B9100E0FE04F074852EF582E43400F583EFF075
:080BA100900083E05407F022EC
:100B0200900083E0FFA3E0B507037F0022900084FA
:100B1200E0FF04F074852FF582E43400F583E012DF
:0D0B220000C4900084E05407F0120B2F2255
:100B2F00900083E0FEA3E0FDB506037F0022EDD326
:100B3F009E400A900083E02408C39DFF229000840A
:0A0B4F00E0FF900083E0C39FFF2247
:0E0C7D00900067EFF07F367E877D017C0022BD
:05023A00900062EFF0EE
:10023F00120CAA900062E0FF120C7D90006B12016D
:10024F00FD90006BE0FCA3E0FDA3E0FEA3E0242AF9
:10025F00FFE43EFEE43DFDE43CFC1206FF9000741B
:10026F0012020900000000120C60900063EFF01200
:10027F000C60900064EFF0120C60900065EFF012CC
:10028F000C60900066EFF0900074120209000000FD
:10029F0000900074E0F8A3E0F9A3E0FAA3E0FB906C
:1002AF000066E0FFEB4FFFEAFEE9FDE8FC9000740B
:1002BF001201FD900074E0FCA3E0FDA3E0FEA3E0BB
:1002CF00FF78081201EA9000741201FD900074E0AB
:1002DF00F8A3E0F9A3E0FAA3E0FB900065E0FFEBE1
:1002EF004FFFEAFEE9FDE8FC9000741201FD90005B
:1002FF0074E0FCA3E0FDA3E0FEA3E0FF7808120189
:10030F00EA9000741201FD900074E0F8A3E0F9A3E5
:10031F00E0FAA3E0FB900064E0FFEB4FFFEAFEE999
:10032F00FDE8FC9000741201FD900074E0FCA3E066
:10033F00FDA3E0FEA3E0FF78081201EA900074121B
:10034F0001FD900074E0F8A3E0F9A3E0FAA3E0FB4D
:10035F00900063E0FFEB4FFFEAFEE9FDE8FC900041
:10036F00741201FD120C60900063EFF0120C60909C
:10037F000064EFF0900070120209000000027B0190
:0A038F007A0079631204D2020CA276
:1007C400900074E0FCA3E0FDA3E0FEA3E0FF900032
:1007D40070E0F8A3E0F9A3E0FAA3E0FBC31201C6BA
:1007E4007003020CAA120C6090004AEFF0120C6025
:1007F40090004BEFF0900070E0FCA3E0FDA3E0FE5E
:10080400A3E02402FFE43EFEE43DFDE43CFC900052
:0D081400701201FD7B017A00794A1204D2B6
:0108210022B4
:10076400FB3300000000000000020302000003004D
:100774000000640100000000000000000000000010
:100784000000000000000000000000000000000065
:10079400000063FB0F0000000000000002010200E3
:1007A40000F1FB0F00000000000000020202000044
:1007B400F0FB0F000000000000000202040000EE45
:100C14009000477401F0A37400F0A37404F09000F2
:100C2400447401F0A37400F0A37424F0E490000170
:020C3400F022AC
:01007A002263
:10069700900001E05480F0605EE0547FF0900044E9
:1006A700E0FBA3E0FAA3E0F9900001120097FFE452
:1006B700FEFDEDC39F5018900044E0FBA3E0FAA3B2
:1006C700E0F98D827583001200972EFE0F80E3EE0E
:1006D7007025900044E0FBA3E0FAA3E0F99000093D
:1006E70012009724FE701090000A1200976406709B
:0706F7000690000B120097B2
:0106FE0022D9
:10044500AF99EF64FB7004900002F0900002E0FEAB
:1004550064017005900000EFF0900047E0FBA3E019
:10046500FAA3E0F98E82758300EF1200D6900002A0
:10047500E004F0E0FF900000E06F7050A3E030E092
:100485002154FEF09000477401F0A37400F0A374AA
:1004950004F09000447401F0A37400F0A37424F0F8
:1004A5008023900001E04401F09000477401F0A31F
:1004B5007400F0A37424F09000447401F0A3740058
:0C04C500F0A37404F0900001E04480F00B
:0104D1002208
:10093A0090008D1201FD538EF7438901D28CE4FF9A
:10094A00FEFDFC90008DE0F8A3E0F9A3E0FAA3E035
:10095A00FBC31201C6602F758A7E758CFF308DFD30
:10096A00C28D90008DE0FCA3E0FDA3E0FEA3E0248D
:10097A00FFFFEE34FFFEED34FFFDEC34FFFC900088
:09098A008D1201FD80B8C28C221F
:100993009000911201FD538EF7438901D28CE4FF3D
:1009A300FEFDFC900091E0F8A3E0F9A3E0FAA3E0D8
:1009B300FBC31201C6602F758ACA758CFA308DFD90
:1009C300C28D900091E0FCA3E0FDA3E0FEA3E02430
:1009D300FFFFEE34FFFEED34FFFDEC34FFFC90002F
:0909E300911201FD80B8C28C22C2
:1009EC009000951201FD538EEF438910D28EE4FFD7
:1009FC00FEFDFC900095E0F8A3E0F9A3E0FAA3E07B
:100A0C00FBC31201C6602F758BEA758DCB308FFD41
:100A1C00C28F900095E0FCA3E0FDA3E0FEA3E024D0
:100A2C00FFFFEE34FFFEED34FFFDEC34FFFC9000D5
:090A3C00951201FD80B8C28E2262
:1008DE009000991201FD53C9BF53C9DF43C910D20D
:1008EE00CAE4FFFEFDFC900099E0F8A3E0F9A3E056
:1008FE00FAA3E0FBC31201C6602F75CC3075CDF89C
:10090E0030CFFDC2CF900099E0FCA3E0FDA3E0FE46
:10091E00A3E024FFFFEE34FFFEED34FFFDEC34FFC9
:0C092E00FC9000991201FD80B8C2CA22A2
:1008220090009D1201FD75C40743C408E4FFFEFD5C
:10083200FC90009DE0F8A3E0F9A3E0FAA3E0FBC37B
:100842001201C6603575C52C75C6CFE5C454106457
:100852001070F853C4EF90009DE0FCA3E0FDA3E00C
:10086200FEA3E024FFFFEE34FFFEED34FFFDEC3487
:0E087200FFFC90009D1201FD80B253C4F722DE
:100880009000A11201FD75C40743C408E4FFFEFDFA
:10089000FC9000A1E0F8A3E0F9A3E0FAA3E0FBC319
:1008A0001201C6603575C5D875C6FFE5C45410641D
:1008B0001070F853C4EF9000A1E0FCA3E0FDA3E0AA
:1008C000FEA3E024FFFFEE34FFFEED34FFFDEC3429
:0E08D000FFFC9000A11201FD80B253C4F7227C
:100AC90053B1BF53B2BF53B17F53B27F75985043EF
:100AD9008920438780438E1053C4DFAB07AA06A938
:100AE90005A8047F407E427D0F7C00120134EF048B
:090AF900F404F58DD28ED299228D
:100549009000A51201FD53B1BF53B2BF53B17F5300
:10055900B27F75985043878053C4F843C4209000F4
:10056900A5E0F8A3E0F9A3E0FAA3E0FB7F407E420F
:100579007D0F7C00120134C374FF9FFF74FF9EFE40
:10058900E49DFDE49CFC78081201D78FC69000A574
:10059900E0F8A3E0F9A3E0FAA3E0FB7F407E427D07
:1005A9000F7C00120134C374FF9FFF8FC543C40839
:0305B900D29922B2
:070CB2003098FDAF99C298D4
:010CB9002218
:080CBA00C2998F993099FD22C7
:1005BC009000621201FD53B1FB53B2FB53B3BF5316
:1005CC00B4BF75F85075C40853C4DF900062E0F8EE
:1005DC00A3E0F9A3E0FAA3E0FB7F407E427D0F7C11
:1005EC0000120134C374FF9FFF74FF9EFEE49DFD57
:1005FC00E49CFC78081201D78FC6900062E0F8A347
:10060C00E0F9A3E0FAA3E0FB7F407E427D0F7C0083
:0E061C00120134C374FF9FFF8FC543C4082230
:070CC20030F8FDAF9AC2F803
:010CC9002208
:080CCA00C2F98F9A30F9FD22F6
:030000000203995F
:1003990075C7AA75C75575FD5A75C7AA75C7557525
:1003A900FDA5787FE4F6D8FD9000007FFF7E03E489
:0C03B900F0A3DFFCDEFA758120020400D6
:1003C500020BCFE493A3F8E493A34003F68001F274
:1003D50008DFF48029E493A3F85407240CC8C33339
:1003E500C4540F4420C8834004F456800146F6DF08
:1003F500E4800B0102040810204080900CD2E47EBA
:10040500019360BCA3FF543F30E509541FFEE493FC
:10041500A360010ECF54C025E060A840B8E493A3C3
:10042500FAE493A3F8E493A3C8C582C8CAC583CAEE
:10043500F0A3C8C582C8CAC583CADFE9DEE780BEA6
:010CD600001D
:10007E00BB010689828A83E0225002E722BBFE0280
:09008E00E32289828A83E49322B3
:10009700BB010CE58229F582E5833AF583E022501E
:1000A70006E92582F8E622BBFE06E92582F8E22268
:0D00B700E58229F582E5833AF583E4932282
:1000C400BB010689828A83F0225002F722BBFE011B
:0200D400F32215
:1000D600F8BB010DE58229F582E5833AF583E8F060
:1000E600225006E92582C8F622BBFE05E92582C80C
:0200F600F222F4
:1000F80075F008758200EF2FFFEE33FECD33CDCCBF
:1001080033CCC58233C5829BED9AEC99E582984041
:100118000CF582EE9BFEED9AFDEC99FC0FD5F0D61E
:10012800E4CEFBE4CDFAE4CCF9A88222B800C1B948
:100138000059BA002DEC8BF084CFCECDFCE5F0CB86
:10014800F97818EF2FFFEE33FEED33FDEC33FCEBBF
:1001580033FB10D703994004EB99FB0FD8E5E4F97A
:10016800FA227818EF2FFFEE33FEED33FDEC33FC67
:10017800C933C910D7059BE99A4007EC9BFCE99A5B
:10018800F90FD8E0E4C9FAE4CCFB2275F010EF2FA0
:10019800FFEE33FEED33FDCC33CCC833C810D707A0
:1001A8009BEC9AE899400AED9BFDEC9AFCE899F8DB
:0E01B8000FD5F0DAE4CDFBE4CCFAE4C8F9226E
:1001C600EB9FF5F0EA9E42F0E99D42F0E89C45F08F
:0101D6002206
:1001D700E8600FECC313FCED13FDEE13FEEF13FF06
:0301E700D8F1222A
:1001EA00E8600FEFC333FFEE33FEED33FDEC33FC73
:0301FA00D8F12217
:0C01FD00ECF0A3EDF0A3EEF0A3EFF02275
:10020900A8828583F0D083D08212022012022012A4
:100219000220120220E473E493A3C583C5F0C583C9
:10022900C8C582C8F0A3C583C5F0C583C8C582C83F
:0102390022A2
:00000001FF
