:10094A001217217FE87E037D007C00121491120D9C
:10095A00497F0112190E900102E475F0011201EEAD
:10096A00FED3E5F09458EE94024009E4900102F0B7
:10097A00A3F08018900110E0700B12006E12007A3A
:10098A0012183880EFE4900110F080CA7F04121226
:10099A003B900102E475F0011201EEFED3E5F094FA
:1009AA0064EE94004009E4900102F0A3F0800A90FA
:1009BA000110E060FAE4F080D81211CF121AB3E401
:1009CA00FF12123BE4900104F0900102E475F00179
:1009DA00120204FED3E5F094C8EE9400404AE49073
:1009EA000102F0A3F0121B2E9000EFEFF0F4701D3D
:1009FA00121A72EF64017030900104E004F0D3948B
:100A0A000F7480948040217410F0E480179000EFF6
:100A1A00E0D3940474809480E49001044005F07F4C
:100A2A00018002F0FF121B28900110E070171200DB
:100A3A006E12007A121B431203721216E012183851
:100A4A0012197D80E31210F3120DE51210851212AD
:090A5A00A5E4900110F00209D39B
:10172100E4F5B1F5B2F5B3F5B4F5ACF5ADC285C2EA
:1017310094D292C29112004E121AA5121A78120F67
:101741009C1219361200261218681217D5121ADBCC
:0E175100121A5543B21843B408D283D2AF2205
:041B34004101400A21
:10004E005389F0438901438E0890014174C1F0A396
:0D005E007480F0758CC1F58AD2A9D28C2275
:03000B000218BE1A
:0618BE00C0E0C083C082FF
:1018C400900141E0F58CA3E0F58A900140E014F02A
:0B18D4007009740AF090011074FFF01E
:0718DF00D082D083D0E0327B
:0E1AA5007F007EC27D017C0012179CD2AC2215
:0E1AB3007F807E257D007C0012179CD2AC2225
:0300230002165171
:10165100C0E0C0F0C083C082C0D075D000C000C05F
:1016610001C002C003C004C005C006C0073099050F
:101671001214EDC299309805120F0DC298D007D0FF
:1016810006D005D004D003D002D001D000D0D0D0F4
:0816910082D083D0F0D0E032DA
:0F1A78007F807E257D007C00121161439C01223E
:03007B00021699D1
:10169900C0E0C0F0C083C082C0D075D000C000C017
:1016A90001C002C003C004C005C006C00730F9026A
:1016B900C2F930F807C2F8AF9A1218E6D007D00677
:1016C900D005D004D003D002D001D000D0D0D08230
:0716D900D083D0F0D0E03215
:08000300C2F98F9A30F9FD22C9
:100F9C00A2AF9200C2AF75C7AA75C7554391014362
:100FAC00C60875C7AA75C7555391FEA20092AF43E8
:100FBC00B210538EBFA2AF920075C7AA75C75575F4
:100FCC00910153B7F843B70375C7AA75C755E4F534
:100FDC0091A20092AFA2AF920075C7AA75C75575C2
:100FEC00910143B71053D8DF75C7AA75C755F59152
:100FFC00A20092AF75D104F5D9F5D575DD01539BDF
:06100C00F7C2DEC2DF2284
:03006B0002000E82
:10000E00C0E0C083C082C2DD90014874FFF0D08290
:05001E00D083D0E032A8
:0E1AC100E4F5D575DD01439B08D2DED2DF22AD
:081AEE00539BF7C2DFC2DD22A9
:10195C00120174FF7E00D394FFEE940340047E03C7
:10196C007FFFEF4E7003FE7F018FDDEEF5D5D2DEEB
:01197C002248
:101A0000AFDDEF6480700DAFD5EF70089000C77444
:101A100002F0800905DDAFDDEF700205D5D2DE22D0
:0C006E00900148E06005E4F0120CA222B2
:1019360043F40853F37F53F3DF53F3F753F3FB43B7
:10194600F31053F3FE53F3FD539BBFD29553F3BFEE
:06195600E4900113F022F1
:0C1ACF008FF5E5F4548060FA53F47F2298
:0E1A8700E4F5F5E5F4548060FAAFF553F47F12
:011A9500222E
:03004B00021A2076
:101A2000C0E0C083C082E5F430E70990011B74FF79
:0B1A3000F053F47FD082D083D0E0326E
:10130C009000FE120335D2959000FEE0FCA3E0FDA8
:10131C00A3E0FEA3E0FF781012030F900117EFF08B
:10132C009000FEE0FCA3E0FDA3E0FEA3E0FF780844
:10133C0012030F900116EFF09000FEA3A3A3E09010
:10134C000115F0C29543F3407F03121ACF90011799
:10135C00E0FF121ACF900116E0FF121ACF90011580
:05136C00E0FF021ACFB2
:0E1A9600E4F5F5E5F4548060FAAFF553F47F03
:011AA400221F
:061B1600D29553F3BF223B
:01007A002263
:10002600E4FFEFC3942074809480500F74992FF5E9
:1000360082E43400F583E4F00F80E7E4900098F062
:04004600900097F09F
:01004A002293
:1018E600900097E004541FFEA3E06E601A900097E4
:1018F600E0FE04F074992EF582E43400F583EFF0EF
:08190600900097E0541FF0224D
:10180800900097E0FFA3E0B507037F0022900098BF
:10181800E0FF04F074992FF582E43400F583E012B8
:1018280001BA900098E0541FF0121894EF04FF22B8
:10189400900097E0FEA3E0FDB506037F0022EDD3A0
:1018A4009E400A900097E02420C39DFF2290009858
:0A18B400E0FF900097E0C39FFF22C1
:011B4300227F
:061B1C009000C2EFF02270
:061B22009000C2E0FF226A
:1017D500E49000C9F09000C9E0FFC39408748094B8
:1017E50080501474CA2FF582E43400F583E4F09038
:1017F50000C9E004F080DEE49000C8F0A3F07F02A9
:03180500021B1CA7
:011B4400227E
:011B4500227D
:050501009000F5EFF091
:100506007E00D39400748094805003020683EF9497
:100516000E7480948040030206839000FA12034111
:10052600000000009000FAE0F8A3E0F9A3E0FAA3C7
:10053600E0FB9000F5E0FFEB4FFFEAFEE9FDE8FC8B
:100546009000FA1203359000FAE0FCA3E0FDA3E068
:10055600FEA3E0FF78041203229000FA12033590FE
:1005660000FAE0FCA3E0FDA3E0FEA3E0FF12130CFB
:10057600121A969000F6EFF0121A969000F7EFF026
:10058600121A969000F8EFF0121A969000F9EFF012
:10059600121B169000FA120341000000009000FAA8
:1005A600E0F8A3E0F9A3E0FAA3E0FB9000F9E0FF8E
:1005B600EB4FFFEAFEE9FDE8FCA31203359000FAD3
:1005C600E0FCA3E0FDA3E0FEA3E0FF78081203220F
:1005D6009000FA1203359000FAE0F8A3E0F9A3E0E0
:1005E600FAA3E0FB9000F8E0FFEB4FFFEAFEE9FD1F
:1005F600E8FC9000FA1203359000FAE0FCA3E0FD57
:10060600A3E0FEA3E0FF78081203229000FA12038B
:10061600359000FAE0F8A3E0F9A3E0FAA3E0FB9036
:1006260000F7E0FFEB4FFFEAFEE9FDE8FC9000FA79
:100636001203359000FAE0FCA3E0FDA3E0FEA3E080
:10064600FF78081203229000FA1203359000FAE0B0
:10065600F8A3E0F9A3E0FAA3E0FB9000F6E0FFEBD5
:100666004FFFEAFEE9FDE8FC9000FA120335900020
:10067600FAE0FCA3E0FDA3E0FEA3E0FF22E4FFFE18
:02068600FDFC79
:01068800224F
:10190E009000C9E004540FFE9000C8E06E6018A36A
:10191E00E0FE04F074CA2EF582E43400F583EFF095
:08192E009000C9E0540FF02203
:0507F9009000F0EFF09C
:1007FE007F01121B1C121AEE9000F0E0FF12050191
:10080E009000B91203359000B9E0FCA3E0FDA3E01F
:10081E00FEA3E0242AFFE43EFEE43DFDE43CFC1290
:10082E00130C121A969000F1EFF0121A969000F235
:10083E00EFF0121A969000F3EFF0121A969000F461
:10084E00EFF09000C3120341000000009000C3E0DF
:10085E00F8A3E0F9A3E0FAA3E0FB9000F4E0FFEBCD
:10086E004FFFEAFEE9FDE8FC9000C312033590004D
:10087E00C3E0FCA3E0FDA3E0FEA3E0FF78081203B3
:10088E00229000C31203359000C3E0F8A3E0F9A351
:10089E00E0FAA3E0FB9000F3E0FFEB4FFFEAFEE986
:1008AE00FDE8FC9000C31203359000C3E0FCA3E00A
:1008BE00FDA3E0FEA3E0FF78081203229000C3120E
:1008CE0003359000C3E0F8A3E0F9A3E0FAA3E0FB40
:1008DE009000F2E0FFEB4FFFEAFEE9FDE8FC90002E
:1008EE00C31203359000C3E0FCA3E0FDA3E0FEA31A
:1008FE00E0FF78081203229000C31203359000C364
:10090E00E0F8A3E0F9A3E0FAA3E0FB9000F1E0FF2A
:10091E00EB4FFFEAFEE9FDE8FC9000C3120335E45D
:10092E009000F1F0A37402F09000BE12034100009B
:0B093E000000121AC19000C77401F005
:01094900228B
:100CA2009000C7E024FE601314606C147003020D00
:100CB2003A24036003020D48021A009000C3E0FCCC
:100CC200A3E0FDA3E0FEA3E0FF9000BEE0F8A3E0F6
:100CD200F9A3E0FAA3E0FBC31202FE70079000C77B
:100CE2007403F022121B45121A969000F0EFF09056
:100CF20000BEE0FCA3E0FDA3E0FEA3E02401FFE4CC
:100D02003EFEE43DFDE43CFC9000BE1203357B0157
:100D12007A0079F002195CAFDDEF6401700DAFD596
:100D2200EF70089000C77404F0800A15DDAFDDEFA4
:100D3200F4700215D5D2DE227F02121B1C121B4454
:060D4200121B16121AEE4E
:010D48002288
:101838009000C8E0FFA3E06F6025121B22EF64024E
:10184800701D9000C8E0FF04F074CA2FF582E434DC
:1018580000F583E0FF1207F99000C8E0540FF0226A
:100B4600FB33000000000000000203020000030067
:100B5600000064010000000000000000000000002A
:100B6600000000000000000000000000000000007F
:100B7600000063FB330000000000000002030200D7
:100B8600000100000000000000000000000000005E
:100B9600000000000000000000000000000000004F
:100BA600000000000063FB0F0000000000000002D0
:100BB60001020000F1FB0F0000000000000002022D
:100BC600020000F0FB0F000000000000000204021B
:100BD6000000EEFB130000000000000009050900FC
:100BE6000080250000360BAC0BBB0BCA0B460BD99D
:061B2800900007EFF0221F
:0B1A67009000067401F0E4900002F013
:061A7200900007E0FF22D6
:101868009000527401F0A37400F0A3740FF090007C
:101878004F7401F0A37400F0A3742FF0E490000BF0
:0C188800F0C293900006F07F01021B28C4
:100E7E00E4FE900B7AE493FDEEC39D5015EE900BBD
:100E8E007993FD74562EF582E43400F583EDF00E61
:100E9E0080E09000647401F0900068EFF0E4FFFED3
:100EAE00900B7AE49314FDEEC39D501074562EF5FC
:100EBE0082E43400F583E02FFF0E80E4EFF4FF0FA1
:100ECE0074562EF582E43400F583EFF0900008742A
:100EDE0001F0A37400F0A37456F09000967401F024
:100EEE00E490000EF0900008E0FBA3E0FAA3E0F916
:0E0EFE0090000EE0F58275830012018DF599CB
:010F0C0022C2
:051B39007F64020E7E36
:051B3E007F03020E7E92
:05123B009000F0EFF04F
:1012400078F17C007D017BFF7A0B79EC7E007F0AD0
:1012500012014E9000F0E0FFD3940474809480500B
:1012600043EF25E024F1F582E43400F583E0FEA3AA
:10127000E0AA06F990000874FFF0A3EAF0A3E9F0F1
:101280009000967401F0E490000EF0900008E0FBEE
:10129000A3E0FAA3E0F990000EE0F5827583001256
:0412A000018DF5992E
:0112A4002227
:10108500900055E06038900000E475F0011201EE23
:10109500FED3E5F094C2EE94014052E4900000F0D6
:1010A500A3F0900005E0600CE4900055F0C2937F3A
:1010B5000402190E7F0312190E7F0202123B9000E3
:1010C50000E475F0011201EEFED3E5F094F4EE9420
:1010D50001401AE4900000F0A3F0900006E06003E0
:0D10E500E4F022E4900104F07F01121B28CA
:0110F20022DB
:1003720090000BE020E703020500547FF090004F4D
:10038200E0FBA3E0FAA3E0F990000112018DFFE483
:10039200FEFDEDC39F501890004FE0FBA3E0FAA3CF
:1003A200E0F98D8275830012018D2EFE0D80E3EE41
:1003B200600302050090004FE0FBA3E0FAA3E0F91E
:1003C20090000912018D24EE70030204CF24106004
:1003D2000302050090000A12018D64066003020503
:1003E20000900055E0600302050090000E12018D9E
:1003F20024FE602014602D1470030204882403601C
:1004020003020500121A67EF640160030205007F10
:10041200060204CC121A67EF640160030205007F32
:10042200050204CC9000067401F0121A72EF640106
:100432006003020500900002E014601314601414BB
:10044200601114601A146017240560030205007F0E
:100452000780027F0912190E900002E004F0227F49
:100462000B12190E7F0B12190E7F0B12190E7F0B36
:1004720012190E7F0B12190E7F0B12190E7F0B121F
:10048200190E7F0B80449000067401F0121A72EF6D
:100492006401706A900002E0D394027480948040F8
:1004A200277F0B12190E7F0B12190E7F0B12190EDA
:1004B2007F0B12190E7F0B12190E7F0B12190E7F72
:1004C2000B12190E7F0B80027F0802190E90004F4B
:1004D200E0FBA3E0FAA3E0F990000A12018D6404A4
:1004E200701C90000B12018D6402701290000D12AC
:0E04F200018D700A90000E12018D900005F031
:0105000022D8
:1014ED00900096E06401705090000EE004F06401ED
:1014FD00701B900008E0FBA3E0FAA3E0F990000E4A
:10150D00E0F58275830012018D900003F0900003C9
:10151D00E014FF90000EE0FED39F400790009674FC
:10152D0080F022900008E0FBA3E0FAA3E0F98E82A0
:08153D0075830012018DF59980
:011545002283
:100F0D00AF99EF64FB700490000CF090000CE0FEC4
:100F1D0064017005900004EFF0900052E0FBA3E037
:100F2D00FAA3E0F98E82758300EF1201CC90000CCC
:100F3D00E004F0E0FF900004E06F705290000BE0D1
:100F4D0030E02154FEF09000527401F0A37400F0D3
:100F5D00A3740FF090004F7401F0A37400F0A3740C
:100F6D002FF0802390000BE04401F09000527401AB
:100F7D00F0A37400F0A3742FF090004F7401F0A350
:0E0F8D007400F0A3740FF090000BE04480F0AD
:010F9B002233
:0A1ADB00D297900121E04401F022AF
:1010F30030972790011CE0FFD394027480948040C2
:101103000FEF94DD7480948050069001207401F0F9
:10111300E490011DF090011CF02290011DE0146089
:101123001704703990011CE004F0D3940274809486
:1011330080402AA37401F02290011CE004F0E0FF38
:101143007E0064DC70069001207402F0D3EF94DC1F
:0D115300EE64809480400690011C74E1F071
:01116000226C
:1016E000900120E0603A64017017A3E06401700388
:1016F0007480F0900121E070087481F07F0112196C
:101700000E900120E06402701290005574FFF0D238
:10171000937F0212123B7F0212190EE4900120F017
:0117200022A6
:1012A500900121E030E709547FF090011E7401F0B0
:1012B50090011EE0605024FE601C14601C14602A1E
:1012C5002403703D900121E090011E30E00474027A
:1012D500F0227403F022021A3B7F0A12190E7F01D5
:1012E50012123B90011E7404F02290011FE0FF04CE
:1012F500F0D3EF94FB74809480400BC283C292803C
:0613050000E490011EF05F
:01130B0022BF
:091AE500475056544700FF1AE572
:101A5500E49000EEF09000EDF09000EBF09000EADD
:021A6500F0226D
:100689007B017A0079F0121808EF70030207F890DD
:1006990000DAE014602814700302073C14700302A6
:1006A900075E240360030207F89000F0E064246009
:1006B900030207F89000DAE004F0E4A3F0229000C6
:1006C900F0E0FF9000DBE0FE04F074DD2EF582E43B
:1006D9003400F583EFF09000DBE064056003020766
:1006E900F8A3F09000DBE0FFA3E0FEC39F50349035
:1006F9001AEBE493FB740193FA740293F98E8275F1
:10070900830012018DFF74DD2EF582E43400F58338
:10071900E06F6007E49000DAF080089000DCE00404
:10072900F080C09000DCE0640560030207F89000E7
:10073900DB80189000F0E0B42C069000DBE004F0B8
:100749009000DBE0640760030207F8F0A3F0900073
:10075900DAE004F0229000F0E0FF642C6005EF6419
:100769002E70729000DBE0FF605F9000EC7424F063
:10077900EF640370229000DEE075F00AA4FF900098
:10078900DDE075F064A42FFF9000DFE02F9000EE0C
:10079900F09000ED74FFF09000DBE0FB640270164E
:1007A9009000DDE075F00AA4FEA3E02E9000EEF0C3
:1007B9009000ED74FFF0EB6401700E9000DDE090A5
:1007C90000EEF09000ED74FFF0E49000DBF0A3F090
:1007D9009000DAF0229000F0E024D0FF9000DBE0F6
:0F07E900FE04F074DD2EF582E43400F583EFF0AA
:0107F80022DE
:061B2E009000EBE0FF2235
:100DE5009000EDE06012E4F09000E7F0A3F09000D1
:100DF500EEE09000EBF080249000E7E475F001123E
:100E050001EEFED3E5F094A0EE9400400F9000E7CC
:100E1500E4F0A374AAF09000EB74FFF09000E9E011
:100E250004F0D394A074809480404DE4F0A3E06472
:100E350001700C9000ECE0B42403E4F022802990CA
:100E450000EAE06402700F9000ECE0B42402800D2B
:100E5500E49000ECF0229000ECE0B4240BE4F09078
:100E650000EA04F07F0C800DE49000ECF09000EABD
:080E75007402F07F0D12190E4A
:010E7D002252
:03197D00020689D6
:10175F001234000054686973206669726D77617284
:10176F0065207772697465206279204A7573746990
:10177F006E5A686F75203C6A757374696E2E7A683D
:0D178F006F7533304071712E636F6D3E0039
:100A630090012412034100000000E4900146F0A32A
:100A7300F0900122F0A3F090175FE493FE740193CA
:100A8300FFC3900123E09FEE6480F8900122E064AD
:100A93008098504D900124E0F8A3E0F9A3E0FAA375
:100AA300E0FB900122E0FEA3E0FF900146E0FCA3FF
:100AB300E02FF582EC3EF583E493FFE4FCFDFEEBCF
:100AC3002FFFEE3AFEED39FDEC38FC9001241203C2
:100AD30035900123E004F0709E900122E004F08041
:100AE30096900124E0FCA3E0FDA3E0FEA3E0FFC099
:100AF30006C007901761E493FE740193FBAA06EA0C
:100B03003395E0F9F8D007D006C3EF9BFFEE9AFECA
:100B1300ED99FDEC98FC900124120335901761E4E4
:100B230093FE740193FFEE3395E0FDFC900124E006
:100B3300F8A3E0F9A3E0FAA3E0FBC31202E8600222
:020B430080FE32
:010B4500228D
:1011CF00E5A230E70453A27F22901980E493FDF447
:1011DF0070027D14ED700280FE1D75C7AA75C7558C
:1011EF00439F0175C7AA75C75543A50175AF2275F2
:1011FF00A71975A68075AEFF75C7AA75C75543A405
:10120F000175AF217419FF8FA775A680AF058FAE3B
:10121F0075C7AA75C75543A40175C7AA75C7555396
:0B122F00A5FE75C7AA75C755539FFEAA
:01123A002291
:0B137100900143EBF0A3EAF0A3E9F0C9
:10137C0075C7AA75C755439F0175C7AA75C755434D
:10138C00A50175AF04E4F5A7FFEFC3940C7480942A
:10139C008050238FA675C7AA75C75543A401900129
:1013AC0043E0FBA3E0FAA3E0F98F82758300E5AE7E
:1013BC001201CC0F80D375C7AA75C75553A5FE75FE
:0813CC00C7AA75C755539FFE27
:0113D40022F6
:100D49007F007E037D007C0012130CE49000F0F01C
:100D59009000F0E0C39439748094805016121A966A
:100D69009000F0E090176393B507089000F0E00455
:100D7900F080DD9000F0E0C39439748094805002D3
:100D890080FE7F807E037D007C0012130CE49000BE
:100D9900F0F09000F0E0C3941474809480500B122A
:100DA9001A969000F0E004F080E8121A96EF644F6A
:100DB900600280FEE49000F0F09000F0E0C3940738
:100DC90074809480500B121A969000F0E004F08021
:0B0DD900E8121A96EF6454600280FEDE
:010DE40022EC
:10154600900128120335538EF7438901D28CE4FFAC
:10155600FEFDFC900128E0F8A3E0F9A3E0FAA3E081
:10156600FBC31202FE602F758A7E758CFF308DFDDF
:10157600C28D900128E0FCA3E0FDA3E0FEA3E024D9
:10158600FFFFEE34FFFEED34FFFDEC34FFFC90016F
:091596002812033580B8C28C2232
:10159F0090012C120335538EF7438901D28CE4FF4F
:1015AF00FEFDFC90012CE0F8A3E0F9A3E0FAA3E024
:1015BF00FBC31202FE602F758ACA758CFA308DFD3F
:1015CF00C28D90012CE0FCA3E0FDA3E0FEA3E0247C
:1015DF00FFFFEE34FFFEED34FFFDEC34FFFC900116
:0915EF002C12033580B8C28C22D5
:1015F800900130120335538EEF438910D28EE4FFE9
:10160800FEFDFC900130E0F8A3E0F9A3E0FAA3E0C6
:10161800FBC31202FE602F758BEA758DCB308FFDF0
:10162800C28F900130E0FCA3E0FDA3E0FEA3E0241C
:10163800FFFFEE34FFFEED34FFFDEC34FFFC9001BC
:091648003012033580B8C28E2275
:101491009000F012033553C9BF53C9DF43C910D2BD
:1014A100CAE4FFFEFDFC9000F0E0F8A3E0F9A3E040
:1014B100FAA3E0FBC31202FE602F75CC3075CDF8A4
:1014C10030CFFDC2CF9000F0E0FCA3E0FDA3E0FE31
:1014D100A3E024FFFFEE34FFFEED34FFFDEC34FF0B
:0C14E100FC9000F012033580B8C2CA2253
:1013D50090013412033575C40743C408E4FFFEFDCC
:1013E500FC900134E0F8A3E0F9A3E0FAA3E0FBC325
:1013F5001202FE603575C52C75C6CFE5C454106460
:101405001070F853C4EF900134E0FCA3E0FDA3E0B5
:10141500FEA3E024FFFFEE34FFFEED34FFFDEC34C8
:0E142500FFFC90013412033580B253C4F7224D
:1014330090013812033575C40743C408E4FFFEFD69
:10144300FC900138E0F8A3E0F9A3E0FAA3E0FBC3C2
:101453001202FE603575C5D875C6FFE5C454106425
:101463001070F853C4EF900138E0FCA3E0FDA3E053
:10147300FEA3E024FFFFEE34FFFEED34FFFDEC346A
:0E148300FFFC90013812033580B253C4F722EB
:10179C0053B1BF53B2BF53B17F53B27F759850430F
:1017AC008920438780438E1053C4DFAB07AA06A958
:1017BC0005A8047F407E427D0F7C00120256EF0488
:0917CC00F404F58DD28ED29922AD
:1010120090013C12033553B1BF53B2BF53B17F535A
:10102200B27F75985043878053C4F843C42090011F
:101032003CE0F8A3E0F9A3E0FAA3E0FB7F407E42A4
:101042007D0F7C00120256C374FF9FFF74FF9EFE49
:10105200E49DFDE49CFC780812030F8FC690013CCE
:10106200E0F8A3E0F9A3E0FAA3E0FB7F407E427D33
:101072000F7C00120256C374FF9FFF8FC543C40842
:03108200D29922DE
:071AF6003098FDAF99C29882
:011AFD0022C6
:081AFE00C2998F993099FD2275
:101161009000F012033553B1FB53B2FB53B3BF539D
:10117100B4BF75F85075C40853C4DF9000F0E0F8AF
:10118100A3E0F9A3E0FAA3E0FB7F407E427D0F7C60
:1011910000120256C374FF9FFF74FF9EFEE49DFD83
:1011A100E49CFC780812030F8FC69000F0E0F8A3CE
:1011B100E0F9A3E0FAA3E0FB7F407E427D0F7C00D3
:0E11C100120256C374FF9FFF8FC543C408225D
:071B060030F8FDAF9AC2F8B0
:011B0D0022B5
:081B0E00C2F98F9A30F9FD22A3
:101A3B0075C7AA75C755A2AF9200C2AF75C7AA7575
:0A1A4B00C755439F80A20092AF220E
:03000000020BF6FA
:100BF60075C7AA75C75575FD5A75C7AA75C75575C0
:100C0600FDA5787FE4F6D8FD9000007FFF7E03E423
:0C0C1600F0A3DFFCDEFA758120020C5D0B
:100C220002094AE493A3F8E493A34003F68001F295
:100C320008DFF48029E493A3F85407240CC8C333D3
:100C4200C4540F4420C8834004F456800146F6DFA2
:100C5200E4800B0102040810204080901B34E47EE3
:100C6200019360BCA3FF543F30E509541FFEE49397
:100C7200A360010ECF54C025E060A840B8E493A35E
:100C8200FAE493A3F8E493A3C8C582C8CAC583CA89
:100C9200F0A3C8C582C8CAC583CADFE9DEE780BE41
:011B380000AC
:10007E00E709F608DFFA8046E709F208DFFA803E64
:10008E0088828C83E709F0A3DFFA8032E309F60851
:10009E00DFFA8078E309F208DFFA807088828C83B9
:1000AE00E309F0A3DFFA806489828A83E0A3F6086D
:1000BE00DFFA805889828A83E0A3F208DFFA804C47
:1000CE0080D280FA80C680D4806980F2803380101E
:1000DE0080A680EA809A80A880DA80E280CA803387
:1000EE0089828A83ECFAE493A3C8C582C8CCC583FF
:1000FE00CCF0A3C8C582C8CCC583CCDFE9DEE780CF
:10010E000D89828A83E493A3F608DFF9ECFAA9F04D
:10011E00EDFB2289828A83ECFAE0A3C8C582C8CCA3
:10012E00C583CCF0A3C8C582C8CCC583CCDFEADEBC
:10013E00E880DB89828A83E493A3F208DFF980CC1E
:10014E0088F0EF60010E4E60C388F0ED2402B40417
:10015E000050B9F582EB2402B4040050AF232345BE
:06016E0082239000CE7315
:10017400BB010689828A83E0225002E722BBFE0289
:09018400E32289828A83E49322BC
:10018D00BB010CE58229F582E5833AF583E0225027
:10019D0006E92582F8E622BBFE06E92582F8E22271
:0D01AD00E58229F582E5833AF583E493228B
:1001BA00BB010689828A83F0225002F722BBFE0124
:0201CA00F3221E
:1001CC00F8BB010DE58229F582E5833AF583E8F069
:1001DC00225006E92582C8F622BBFE05E92582C815
:0201EC00F222FD
:1001EE00C5F0F8A3E028F0C5F0F8E582158270029C
:0601FE001583E038F02239
:10020400A3F8E0C5F025F0F0E582158270021583AD
:06021400E0C838F0E8220A
:10021A0075F008758200EF2FFFEE33FECD33CDCC9B
:10022A0033CCC58233C5829BED9AEC99E58298401E
:10023A000CF582EE9BFEED9AFDEC99FC0FD5F0D6FB
:10024A00E4CEFBE4CDFAE4CCF9A88222B800C1B925
:10025A000059BA002DEC8BF084CFCECDFCE5F0CB63
:10026A00F97818EF2FFFEE33FEED33FDEC33FCEB9C
:10027A0033FB10D703994004EB99FB0FD8E5E4F957
:10028A00FA227818EF2FFFEE33FEED33FDEC33FC44
:10029A00C933C910D7059BE99A4007EC9BFCE99A38
:1002AA00F90FD8E0E4C9FAE4CCFB2275F010EF2F7D
:1002BA00FFEE33FEED33FDCC33CCC833C810D7077D
:1002CA009BEC9AE899400AED9BFDEC9AFCE899F8B8
:0E02DA000FD5F0DAE4CDFBE4CCFAE4C8F9224B
:1002E800EB9FF5F0EA9E42F0E99D42F0EC6480C88D
:0602F80064809845F0222D
:1002FE00EB9FF5F0EA9E42F0E99D42F0E89C45F056
:01030E0022CC
:10030F00E8600FECC313FCED13FDEE13FEEF13FFCC
:03031F00D8F122F0
:10032200E8600FEFC333FFEE33FEED33FDEC33FC39
:03033200D8F122DD
:0C033500ECF0A3EDF0A3EEF0A3EFF0223B
:10034100A8828583F0D083D08212035812035812F9
:100351000358120358E473E493A3C583C5F0C5831E
:10036100C8C582C8F0A3C583C5F0C583C8C582C806
:010371002269
:00000001FF
