:1010D60090002A7432F01210F9E4FF1205E5900030
:1010E6002AE014F070037464F09000ECE060FAE417
:0310F600F080EB9C
:1010F900E4F5B1F5B2F5B3F5B4F5ACF5AD12004EC2
:1011090012114B12113C120C331210B0120026D2DC
:02111900AF2203
:041195004100E90A22
:10004E005389F0438901438E089000EA74C1F0A3EE
:0D005E007480F0758CC1F58AD2A9D28C2275
:03000B0002106080
:06106000C0E0C083C08265
:101066009000EAE0F58CA3E0F58A9000E9E014F040
:0B1076007009740AF09000EC74FFF0A9
:07108100D082D083D0E032E1
:0E114B007F007EC27D017C00120FD0D2AC224C
:0300230002006E6A
:0B006E00309902C299309802C298320B
:0F113C007F807E257D007C00120BC5439C012225
:03007B0002115916
:0B11590030F902C2F930F802C2F8328F
:08000300C2998F993099FD228A
:10000E000A50574D5F7374617274000A50574D5FFA
:05001E0053544F500097
:100C3300A2AF9212C2AF75C7AA75C75543910143BC
:100C4300C60875C7AA75C7555391FEA21292AF5332
:100C53008EBFA2AF921275C7AA75C755759101537E
:100C6300B7F843B70375C7AA75C755E4F591A21240
:100C730092AFA2AF921275C7AA75C755759101437A
:100C8300B73075C7AA75C755F591A21292AF75D142
:0A0C93000375D9E8539BF7C2DF2276
:03006B00020F93EE
:100F9300C0E0C0F0C083C082C0D075D000C000C024
:100FA30001C002C003C004C005C006C007C2DD12F1
:100FB3000781D007D006D005D004D003D002D001DA
:0D0FC300D000D0D0D082D083D0F0D0E0326A
:10111B007BFF7A00790E1200E9439B08D2DED2DF07
:01112B0022A1
:10112C00539BF7C2DFC2DD7BFF7A0079190200E91D
:100ADB00E4900043F0A3F01203E3FFE4900043F033
:100AEB00EFA3F0E0F8E4F0E8900043F0900001127F
:100AFB0003FCFF900043E0F0A3E04FF0900043E0D5
:100B0B00FEA3E07806CEC313CE13D8F9FF900043B3
:100B1B00EEF0A3EFF0D394E8EE9403400A90004379
:100B2B007403F0A374E8F0900043E07002A3E0704C
:100B3B0007900043F0A304F0900043E0FEA3E0F520
:060B4B00DDEEF5D5D2DE5F
:010B51002281
:1010B00043F40853F37F53F3DF53F3F753F3FB4346
:1010C000F31053F3FE53F3FD439B40D29553F3BF0C
:0610D000E49000BDF022D7
:03119A008FF522AC
:03119D00AFF52289
:03004B000208B1F7
:1008B100C0E0C0F0C083C082C0D075D000C000C00D
:0D08C10001C002C003C004C005C006C0078E
:1008CE00E5F420E70302099653F47F9000BCE0FEA6
:1008DE0020E1030209969000BEE024FE6021146020
:1008EE002E14603B14604A240460030209969000A3
:1008FE00C1E0FF12119A9000BE7402F002099690A8
:10090E0000C0E0FF12119A9000BE7403F08079903F
:10091E0000BFE0FF12119A9000BE7404F08069E4EB
:10092E00FF12119A9000BA04F09000BE7405F08088
:10093E0057EE30E00812119D121088802212119D80
:10094E009000C2E0FBA3E0FAA3E0F99000BAE0FD4C
:10095E007C00E92DF9EC3AFA90FFFFEF12043B9080
:10096E0000BBE0FF9000BAE0B50712D29553F3BF7B
:10097E009000BE74FFF09000BDE4F0800BE4FF1217
:08098E00119A9000BAE004F098
:10099600D007D006D005D004D003D002D001D000B5
:0B09A600D0D0D082D083D0F0D0E0325F
:100A5D00900043120562D2959000BCE04402F05420
:100A6D00FEF0A374FFF0900043E0FCA3E0FDA3E0D3
:100A7D00FEA3E0FF781012053C9000C1EFF090004E
:100A8D0043E0FCA3E0FDA3E0FEA3E0FF7808120520
:100A9D003C9000C0EFF0900043A3A3A3E09000BFF3
:100AAD00F0900047E09000BBF0900048E0F9A3E023
:100ABD00FAA3E09000C2C9F0A3EAF0A3E9F0C29551
:0E0ACD0043F3409000BE7401F07F0302119AC3
:100D0700900043120562D2959000BCE04402F04483
:100D170001F0A374FFF0900043E0FCA3E0FDA3E023
:100D2700FEA3E0FF781012053C9000C1EFF09000A1
:100D370043E0FCA3E0FDA3E0FEA3E0FF7808120573
:100D47003C9000C0EFF0900043A3A3A3E09000BF46
:100D5700F0900047E09000BBF0C29543F34090004D
:090D6700BE7401F07F0302119A31
:100C9D009000C51205629000BC7404F09000C5E090
:100CAD00FCA3E0FDA3E0FEA3E0FF781012053C904D
:100CBD0000C1EFF09000C5E0FCA3E0FDA3E0FEA3B2
:100CCD00E0FF780812053C9000C0EFF09000C5A33E
:100CDD00A3A3E09000BFF09000C9E09000BBF0909E
:100CED0000CAE0F9A3E0FAA3E09000C2C9F0A3EABC
:0A0CFD00F0A3E9F0C29543F3402292
:06118F009000BDE0FF220C
:10002600E4FFEFC3944074809480500F746D2FF5F5
:1000360082E43400F583E4F00F80E7E490006CF08E
:0400460090006BF0CB
:01004A002293
:1010880090006BE004543FFEA3E06E601A90006B82
:10109800E0FE04F0746D2EF582E43400F583EFF081
:0810A80090006BE0543FF022C0
:1010090090006BE0FFA3E0B507037F002290006C1E
:10101900E0FF04F0746D2FF582E43400F583E012EB
:0D102900042990006CE0543FF012103622B4
:1010360090006BE0FEA3E0FDB506037F0022EDD332
:101046009E400A90006BE02440C39DFF2290006CF6
:0A105600E0FF90006BE0C39FFF2253
:0B116400900043EFF0E4FFFEFDFC22D2
:0505E50090003EEFF064
:1005EA0012112C90003EE0FF1211649000AD12052A
:1005FA006212118FEF70FA9000ADE0FCA3E0FDA348
:10060A00E0FEA3E0242AFFE43EFEE43DFDE43CFCD8
:10061A009000477404F0A37401F0A37400F0A3746B
:10062A003FF0120A5D9000B212056E00000000123F
:10063A00118FEF70FA9000B612056E00000000905C
:10064A0000B6E0F8A3E0F9A3E0FAA3E0FB900042C9
:10065A00E0FFEB4FFFEAFEE9FDE8FC9000B6120569
:10066A00629000B6E0FCA3E0FDA3E0FEA3E0FF7801
:10067A000812054F9000B61205629000B6E0F8A382
:10068A00E0F9A3E0FAA3E0FB900041E0FFEB4FFFA3
:10069A00EAFEE9FDE8FC9000B61205629000B6E0B9
:1006AA00FCA3E0FDA3E0FEA3E0FF780812054F904B
:1006BA0000B61205629000B6E0F8A3E0F9A3E0FAEA
:1006CA00A3E0FB900040E0FFEB4FFFEAFEE9FDE804
:1006DA00FC9000B61205629000B6E0FCA3E0FDA310
:1006EA00E0FEA3E0FF780812054F9000B6120562FB
:1006FA009000B6E0F8A3E0F9A3E0FAA3E0FB9000CB
:10070A003FE0FFEB4FFFEAFEE9FDE8FC9000B6127E
:10071A0005629000ADE0FCA3E0FDA3E0FEA3E024A7
:10072A002EFFE43EFEE43DFDE43CFC9000477420CD
:10073A00F0120D0712118FEF70FA9000B2E0FCA3CD
:10074A00E0FDA3E0FEA3E02420FFE43EFEE43DFD3D
:10075A00E43CFC9000B21205627B017A00793F12F8
:10076A0010097B017A0079401210097B017A00791D
:07077A003F120ADB02111B14
:10078100121036EF700302112C7B017A00790012EE
:1007910010097B017A0079011210097B017A007935
:1007A10000120ADB121036C3EF9418748094804053
:1007B100030208B09000B2E0FCA3E0FDA3E0FEA3B9
:1007C100E0FFA3E0F8A3E0F9A3E0FAA3E0FBC31282
:1007D100052B70030208B09000B2E0F8A3E0F9A382
:1007E100E0FAA3E0FBA3E0FCA3E0FDA3E0FEA3E0AD
:1007F100C39BFFEE9AFEED99FDEC98FCE47B20FA99
:10080100F9F8D312052B9000ADE0FCA3E0FDA3E0C5
:10081100FEA3E0404E242EFFE43EFEE43DFDE43C19
:10082100FC9000B2E0F8A3E0F9A3E0FAA3E02FFF07
:10083100EA3EFEE93DFDE83CFCC0079000B2A3A3FF
:10084100A3E0FBA3A3A3A3E0C39B900047F0D007C1
:10085100120D079000B6E0FCA3E0FDA3E0FEA3E0CB
:10086100FF8046242EFFE43EFEE43DFDE43CFC9087
:1008710000B2E0F8A3E0F9A3E0FAA3E02FFFEA3E1B
:10088100FEE93DFDE83CFC9000477420F0120D07A5
:100891009000B2E0FCA3E0FDA3E0FEA3E02420FF72
:0F08A100E43EFEE43DFDE43CFC9000B212056233
:0108B0002225
:100E88009000CD120562538EF7438901D28CE4FF9E
:100E9800FEFDFC9000CDE0F8A3E0F9A3E0FAA3E0A2
:100EA800FBC312052B602F758A7E758CFF308DFD74
:100EB800C28D9000CDE0FCA3E0FDA3E0FEA3E024FA
:100EC800FFFFEE34FFFEED34FFFDEC34FFFC900035
:090ED800CD12056280B8C28C2223
:100EE1009000D1120562538EF7438901D28CE4FF41
:100EF100FEFDFC9000D1E0F8A3E0F9A3E0FAA3E045
:100F0100FBC312052B602F758ACA758CFA308DFDD3
:100F1100C28D9000D1E0FCA3E0FDA3E0FEA3E0249C
:100F2100FFFFEE34FFFEED34FFFDEC34FFFC9000DB
:090F3100D112056280B8C28C22C5
:100F3A009000D5120562538EEF438910D28EE4FFDA
:100F4A00FEFDFC9000D5E0F8A3E0F9A3E0FAA3E0E7
:100F5A00FBC312052B602F758BEA758DCB308FFD85
:100F6A00C28F9000D5E0FCA3E0FDA3E0FEA3E0243D
:100F7A00FFFFEE34FFFEED34FFFDEC34FFFC900082
:090F8A00D512056280B8C28E2266
:100E2C009000D912056253C9BF53C9DF43C910D210
:100E3C00CAE4FFFEFDFC9000D9E0F8A3E0F9A3E0C2
:100E4C00FAA3E0FBC312052B602F75CC3075CDF8DF
:100E5C0030CFFDC2CF9000D9E0FCA3E0FDA3E0FEB3
:100E6C00A3E024FFFFEE34FFFEED34FFFDEC34FF76
:0C0E7C00FC9000D912056280B8C2CA22A6
:100D70009000DD12056275C40743C408E4FFFEFD60
:100D8000FC9000DDE0F8A3E0F9A3E0FAA3E0FBC3E8
:100D900012052B603575C52C75C6CFE5C45410649B
:100DA0001070F853C4EF9000DDE0FCA3E0FDA3E079
:100DB000FEA3E024FFFFEE34FFFEED34FFFDEC3434
:0E0DC000FFFC9000DD12056280B253C4F722E2
:100DCE009000E112056275C40743C408E4FFFEFDFE
:100DDE00FC9000E1E0F8A3E0F9A3E0FAA3E0FBC386
:100DEE0012052B603575C5D875C6FFE5C454106461
:100DFE001070F853C4EF9000E1E0FCA3E0FDA3E017
:100E0E00FEA3E024FFFFEE34FFFEED34FFFDEC34D5
:0E0E1E00FFFC9000E112056280B253C4F7227F
:100FD00053B1BF53B2BF53B17F53B27F75985043E3
:100FE0008920438780438E1053C4DFAB07AA06A92C
:100FF00005A8047F407E427D0F7C00120499EF0417
:09100000F404F58DD28ED2992280
:100B52009000E512056253B1BF53B2BF53B17F5348
:100B6200B27F75985043878053C4F843C4209000E5
:100B7200E5E0F8A3E0F9A3E0FAA3E0FB7F407E42C0
:100B82007D0F7C00120499C374FF9FFF74FF9EFEC9
:100B9200E49DFDE49CFC780812053C8FC69000E5BC
:100BA200E0F8A3E0F9A3E0FAA3E0FB7F407E427DF8
:100BB2000F7C00120499C374FF9FFF8FC543C408C2
:030BC200D29922A3
:07116F003098FDAF99C29812
:011176002256
:08117700C2998F993099FD2205
:100BC50090003E12056253B1FB53B2FB53B3BF53C2
:100BD500B4BF75F85075C40853C4DF90003EE0F803
:100BE500A3E0F9A3E0FAA3E0FB7F407E427D0F7C02
:100BF50000120499C374FF9FFF74FF9EFEE49DFDE0
:100C0500E49CFC780812053C8FC690003EE0F8A3F2
:100C1500E0F9A3E0FAA3E0FB7F407E427D0F7C0074
:0E0C2500120499C374FF9FFF8FC543C40822B9
:07117F0030F8FDAF9AC2F841
:011186002246
:08118700C2F98F9A30F9FD2234
:030000000209B141
:1009B10075C7AA75C75575FD5A75C7AA75C7557507
:1009C100FDA5787FE4F6D8FD9000007FFF7E03E46B
:0C09D100F0A3DFFCDEFA758122020A1898
:1009DD000210D6E493A3F8E493A34003F68001F24A
:1009ED0008DFF48029E493A3F85407240CC8C3331B
:1009FD00C4540F4420C8834004F456800146F6DFEA
:100A0D00E4800B0102040810204080901195E47ED3
:100A1D00019360BCA3FF543F30E509541FFEE493DE
:100A2D00A360010ECF54C025E060A840B8E493A3A5
:100A3D00FAE493A3F8E493A3C8C582C8CAC583CAD0
:100A4D00F0A3C8C582C8CAC583CADFE9DEE780BE88
:011199000055
:1003E300BB010689828A83E0225002E722BBFE0218
:0903F300E32289828A83E493224B
:1003FC00BB010CE58229F582E5833AF583E02250B6
:10040C0006E92582F8E622BBFE06E92582F8E222FF
:0D041C00E58229F582E5833AF583E4932219
:10042900BB010689828A83F0225002F722BBFE01B2
:02043900F322AC
:10043B00F8BB010DE58229F582E5833AF583E8F0F7
:10044B00225006E92582C8F622BBFE05E92582C8A3
:02045B00F2228B
:10045D0075F008758200EF2FFFEE33FECD33CDCC56
:10046D0033CCC58233C5829BED9AEC99E5829840D9
:10047D000CF582EE9BFEED9AFDEC99FC0FD5F0D6B6
:10048D00E4CEFBE4CDFAE4CCF9A88222B800C1B9E0
:10049D000059BA002DEC8BF084CFCECDFCE5F0CB1E
:1004AD00F97818EF2FFFEE33FEED33FDEC33FCEB57
:1004BD0033FB10D703994004EB99FB0FD8E5E4F912
:1004CD00FA227818EF2FFFEE33FEED33FDEC33FCFF
:1004DD00C933C910D7059BE99A4007EC9BFCE99AF3
:1004ED00F90FD8E0E4C9FAE4CCFB2275F010EF2F38
:1004FD00FFEE33FEED33FDCC33CCC833C810D70738
:10050D009BEC9AE899400AED9BFDEC9AFCE899F872
:0E051D000FD5F0DAE4CDFBE4CCFAE4C8F92205
:10052B00EB9FF5F0EA9E42F0E99D42F0E89C45F026
:01053B00229D
:10053C00E8600FECC313FCED13FDEE13FEEF13FF9D
:03054C00D8F122C1
:10054F00E8600FEFC333FFEE33FEED33FDEC33FC0A
:03055F00D8F122AE
:0C056200ECF0A3EDF0A3EEF0A3EFF0220C
:10056E00A8828583F0D083D082120585120585126C
:10057E000585120585E473E493A3C583C5F0C58391
:10058E00C8C582C8F0A3C583C5F0C583C8C582C8D7
:01059E00223A
:10007E00E50D2446F582E43400F583E0050D22906B
:10008E000043301003900046E475F00112059F0204
:10009E0003E32009E97F2ED2098018EF540F249034
:1000AE00D43440D4FF300D0BEF24BFB41A005003EC
:1000BE002461FFE50E6002150E0511E511700205B3
:1000CE001030100E900043E475F00112059FEF0200
:1000DE0004290200037403D2108003E4C210F50D4C
:1000EE009000431205B6E4F50EF510F511E50E601D
:1000FE00077F201200C180F5750FFFC20AC209C228
:10010E000BC20CC20EC20FC21112008DFF700D3049
:10011E0010057F001200D2AF11AE1022B4255FC2BF
:10012E00D5C20D12008DFF24D0B40A00501A75F0FE
:10013E000A780E30D50508B6FF0106C6A426F620AD
:10014E00D5047002D20C80D924CFB41A00EF50041B
:10015E00C2E5D20D0202D3D20A80C6D20980C0D225
:10016E000B80BCD2D580BAD20E80B47F201200C1D3
:10017E00200B077401B50E0040F112007EFF120035
:10018E00C10200FBD211D20F809512007EFB12002D
:10019E007EFA12007EF94A4B700679A47A037BFF31
:1001AE00200B2EE50E602A7E008E827583001203D0
:1001BE00FC60060EEE650F70F0C2D5EBC0E0EAC033
:1001CE00E0E9C0E0EE12031AD0E0F9D0E0FAD0E098
:1001DE00FB1203E3FF60AAEBC0E0EAC0E0E9C0E077
:1001EE001200C1D0E02401F9D0E03400FAD0E0FBD7
:1001FE00E50F0460DCD50FD980877BFF7A03791673
:10020E00D20B809C791080027908C20FC21180082F
:10021E00D2D5790A8004790AC2D5E50F047002F5A9
:10022E000FE4FAFDFEFF12007EFC7B08200A13127B
:10023E00007EFD7B1030090A12007EFE12007EFF4A
:10024E007B20EC3382D592D55013C3E43009069F40
:10025E00FFE49EFEE4200A039DFDE49CFCE4CBF843
:10026E00C20AEC700CCFCECDCCE824F8F870F38037
:10027E0017C3EF33FFEE33FEED33FDEC33FCEB3300
:10028E00FB994002FB0FD8E9EB300A05F8D0E0C429
:10029E0048B20AC0E00AEC4D4E4F78207B0070C287
:1002AE00EAB50F0040BCC0E012031CD0F0D0E02035
:1002BE000A04C4C0E0C4B20AC0F01200AAD0F0D53D
:1002CE00F0EB0200FB1205BF0198530212580169B0
:1002DE004C01654202164F021E44021E49017E4326
:0802EE00022455020846020833
:1002F6004502084703C450016D2D01712E01942B50
:1003060001752301922003AD2A012D480000018CBE
:100316003F3F3F00790AA2D5200C14300E09B910D0
:10032600020404B9080104A2D5200F0250010420DA
:100336000B68920BB50E005034C0E07F20300C19CC
:100346007F30A20B720F720E500F120373C20BC2D4
:100356000FC20EC2117F30800F300E03E9C0E012CB
:1003660000C1300E03D0E0F9D0E0B50ECC300E1748
:100376007F30B9100C1200C17F58300D077F78808E
:1003860003B908031200C1300B057F2D0200C17F9F
:10039600202011F87F2B200FF322920B80CF286E9E
:1003A600756C6C2900D20A12007E300AF8C20A78EF
:1003B6000E30D50108F602012D2D50434958120082
:1003C6007E2403B405004001E49003BF931200B2FB
:0D03D600743A1200B2D20C750E040202122D
:10059F00F8E0FBA3A3E0F925F0F0E58215827002E5
:0705AF001583E0FA38F02289
:0905B600EBF0A3EAF0A3E9F02246
:1005BF00D083D082F8E4937012740193700DA3A3CB
:1005CF0093F8740193F5828883E4737402936860DF
:0605DF00EFA3A3A380DFDF
:00000001FF
