:0A0DD8000A0A25303178202C200093
:10074E009000427432F0120D9D90005A7410F0A376
:10075E007401F0A37400F0A37443F07F007E007D5B
:10076E00007C001207CF12001DEF70FA900042F0CD
:10077E00900042E0FFC394107480948050207BFF61
:10078E007A0D79D874432FF582E43400F583E09026
:10079E000059F01200E9900042E004F080D290007F
:1007AE00557401F0900042E014F0700B7FAA120D08
:1007BE00EA9000427405F09000B5E060FAE4F08033
:0107CE00E347
:100D9D00E4F5B1F5B2F5B3F5B4F5ACF5AD12004E21
:100DAD00120DBF12000E1208BE120D79120026D2BE
:020DBD00AF2263
:040E02004100B20AEF
:10004E005389F0438901438E089000B374C1F0A325
:0D005E007480F0758CC1F58AD2A9D28C2275
:03000B00020D5192
:060D5100C0E0C083C08277
:100D57009000B3E0F58CA3E0F58A9000B2E014F0C0
:0B0D67007009740AF09000B574FFF0F2
:070D7200D082D083D0E032F3
:0E0DBF007F007EC27D017C00120C92D2AC221D
:0300230002006E6A
:0B006E00309902C299309802C298320B
:0F000E007F807E257D007C00120930439C0122FB
:03007B00020DCDA6
:0B0DCD0030F902C2F930F802C2F8321F
:08000300C2F98F9A30F9FD22C9
:1008BE00A2AF9209C2AF75C7AA75C755439101433E
:1008CE00C60875C7AA75C7555391FEA20992AF53B4
:1008DE008EBFA2AF920975C7AA75C7557591015300
:1008EE00B7F843B70375C7AA75C755E4F591A209C2
:1008FE0092AFA2AF920975C7AA75C75575910143FC
:10090E00B73075C7AA75C755F591A20992AF75D1C3
:10091E000375D9E875D50175DDF4439B08D2DED297
:02092E00DF22C6
:03006B00020E077B
:030E0700C2DD3217
:100D790043F40853F37F53F3DF53F3F753F3FB4380
:100D8900F31053F3FE53F3FD439B4053F3BFE49039
:040D99000081F022C3
:030E0A008FF5223F
:030E0D00AFF5221C
:03004B000205A10A
:1005A100C0E0C0F0C083C082C0D075D000C000C020
:0D05B10001C002C003C004C005C006C007A1
:1005BE00E5F420E70302068753F47F900080E0FE07
:1005CE0064026003020687900082E024FE6021141C
:1005DE00602E14603B14604A240460030206879068
:1005EE000085E0FF120E0A9000827402F002068768
:1005FE00900084E0FF120E0A9000827403F080795E
:10060E00900083E0FF120E0A9000827404F080695D
:10061E00E4FF120E0A90007E04F09000827405F042
:10062E008057EE30E008120E0D120CCB8022120E07
:10063E000D900086E0FBA3E0FAA3E0F990007EE0C7
:10064E00FD7C00E92DF9EC3AFA90FFFFEF1203F56D
:10065E0090007FE0FF90007EE0B50712D29553F335
:10066E00BF90008274FFF0900081E4F0800BE4FFF5
:09067E00120E0A90007EE004F067
:10068700D007D006D005D004D003D002D001D000C7
:0B069700D0D0D082D083D0F0D0E03271
:1007CF00900056120509900080E04402F054FEF0AC
:1007DF00A374FFF0900056E0FCA3E0FDA3E0FEA39E
:1007EF00E0FF78101204F6900085EFF0900056E0CD
:1007FF00FCA3E0FDA3E0FEA3E0FF78081204F6904F
:10080F000084EFF0900056A3A3A3E0900083F09034
:10081F00005AE090007FF090005BE0F9A3E0FAA3AC
:10082F00E0900086C9F0A3EAF0A3E9F0C29543F384
:0C083F00409000827401F07F03020E0A5A
:100A0800900091120509900080E04402F04401F042
:100A1800A374FFF0900091E0FCA3E0FDA3E0FEA327
:100A2800E0FF78101204F6900085EFF0900091E056
:100A3800FCA3E0FDA3E0FEA3E0FF78081204F69013
:100A48000084EFF0900091A3A3A3E0900083F090BE
:100A58000095E090007FF0C29543F34090008274C7
:070A680001F07F03020E0AFA
:10099E009000891205099000807404F0900089E09F
:1009AE00FCA3E0FDA3E0FEA3E0FF78101204F69096
:1009BE000085EFF0900089E0FCA3E0FDA3E0FEA32C
:1009CE00E0FF78081204F6900084EFF0900089A3FF
:1009DE00A3A3E0900083F090008DE090007FF09054
:1009EE00008EE0F9A3E0FAA3E0900086C9F0A3EA36
:0A09FE00F0A3E9F0C29543F3402294
:06001D00900081E0FF22CB
:10002600E4FFEFC3944074809480500F74022FF560
:1000360082E43400F583E4F00F80E7E4900001F0F9
:04004600900000F036
:01004A002293
:100CCB00C2AF900000E004543FFEA3E0B50603D290
:100CDB00AF22900000E0FE04F074022EF582E434A3
:0F0CEB0000F583EFF0900000E0543FF0D2AF220D
:100CFA00900000E0FFA3E0B507037F002290000107
:100D0A00E0FF04F074022FF582E43400F583E01268
:0D0D1A0003E3900001E0543FF0120D27228A
:100D2700900000E0FEA3E0FDB506037F0022EDD3AF
:100D37009E400A900000E02440C39DFF22900001DE
:0A0D4700E0FF900000E0C39FFF22D0
:100B8700900096120509538EF7438901D28CE4FF32
:100B9700FEFDFC900096E0F8A3E0F9A3E0FAA3E0DD
:100BA700FBC31204E5602F758A7E758CFF308DFDBF
:100BB700C28D900096E0FCA3E0FDA3E0FEA3E02435
:100BC700FFFFEE34FFFEED34FFFDEC34FFFC900039
:090BD7009612050980B8C28C22B7
:100BE00090009A120509538EF7438901D28CE4FFD5
:100BF000FEFDFC90009AE0F8A3E0F9A3E0FAA3E080
:100C0000FBC31204E5602F758ACA758CFA308DFD1E
:100C1000C28D90009AE0FCA3E0FDA3E0FEA3E024D7
:100C2000FFFFEE34FFFEED34FFFDEC34FFFC9000DF
:090C30009A12050980B8C28C2259
:100C390090009E120509538EEF438910D28EE4FF6E
:100C4900FEFDFC90009EE0F8A3E0F9A3E0FAA3E022
:100C5900FBC31204E5602F758BEA758DCB308FFDD0
:100C6900C28F90009EE0FCA3E0FDA3E0FEA3E02478
:100C7900FFFFEE34FFFEED34FFFDEC34FFFC900086
:090C89009E12050980B8C28E22FA
:100B2B009000A212050953C9BF53C9DF43C910D2A4
:100B3B00CAE4FFFEFDFC9000A2E0F8A3E0F9A3E0FD
:100B4B00FAA3E0FBC31204E5602F75CC3075CDF82A
:100B5B0030CFFDC2CF9000A2E0FCA3E0FDA3E0FEEE
:100B6B00A3E024FFFFEE34FFFEED34FFFDEC34FF7A
:0C0B7B00FC9000A212050980B8C2CA223A
:100A6F009000A612050975C40743C408E4FFFEFDF4
:100A7F00FC9000A6E0F8A3E0F9A3E0FAA3E0FBC323
:100A8F001204E5603575C52C75C6CFE5C4541064E6
:100A9F001070F853C4EF9000A6E0FCA3E0FDA3E0B4
:100AAF00FEA3E024FFFFEE34FFFEED34FFFDEC3438
:0E0ABF00FFFC9000A612050980B253C4F72276
:100ACD009000AA12050975C40743C408E4FFFEFD92
:100ADD00FC9000AAE0F8A3E0F9A3E0FAA3E0FBC3C1
:100AED001204E5603575C5D875C6FFE5C4541064AC
:100AFD001070F853C4EF9000AAE0FCA3E0FDA3E052
:100B0D00FEA3E024FFFFEE34FFFEED34FFFDEC34D9
:0E0B1D00FFFC9000AA12050980B253C4F72213
:100C920053B1BF53B2BF53B17F53B27F7598504324
:100CA2008920438780438E1053C4DFAB07AA06A96D
:100CB20005A8047F407E427D0F7C00120453EF049E
:090CC200F404F58DD28ED29922C2
:10084B009000AE12050953B1BF53B2BF53B17F53E2
:10085B00B27F75985043878053C4F843C4209000EF
:10086B00AEE0F8A3E0F9A3E0FAA3E0FB7F407E4201
:10087B007D0F7C00120453C374FF9FFF74FF9EFE19
:10088B00E49DFDE49CFC78081204F68FC69000AE44
:10089B00E0F8A3E0F9A3E0FAA3E0FB7F407E427D02
:1008AB000F7C00120453C374FF9FFF8FC543C40812
:0308BB00D29922AD
:070DE2003098FDAF99C298A3
:010DE90022E7
:080DEA00C2998F993099FD2296
:1009300090005612050953B1FB53B2FB53B3BF539A
:10094000B4BF75F85075C40853C4DF900056E0F882
:10095000A3E0F9A3E0FAA3E0FB7F407E427D0F7C99
:1009600000120453C374FF9FFF74FF9EFEE49DFDBD
:10097000E49CFC78081204F68FC6900056E0F8A3B9
:10098000E0F9A3E0FAA3E0FB7F407E427D0F7C000C
:0E099000120453C374FF9FFF8FC543C4082297
:070DF20030F8FDAF9AC2F8D2
:010DF90022D7
:080DFA00C2F98F9A30F9FD22C5
:030000000206A253
:1006A20075C7AA75C75575FD5A75C7AA75C7557519
:1006B200FDA5787FE4F6D8FD9000007FFF7E03E47D
:0C06C200F0A3DFFCDEFA758121020709BD
:1006CE0002074EE493A3F8E493A34003F68001F2ED
:1006DE0008DFF48029E493A3F85407240CC8C3332D
:1006EE00C4540F4420C8834004F456800146F6DFFC
:1006FE00E4800B0102040810204080900E02E47E7C
:10070E00019360BCA3FF543F30E509541FFEE493F0
:10071E00A360010ECF54C025E060A840B8E493A3B7
:10072E00FAE493A3F8E493A3C8C582C8CAC583CAE2
:10073E00F0A3C8C582C8CAC583CADFE9DEE780BE9A
:010E060000EB
:1003E300BB010689828A83F0225002F722BBFE01F9
:0203F300F322F3
:1003F500F8BB010DE58229F582E5833AF583E8F03E
:10040500225006E92582C8F622BBFE05E92582C8E9
:02041500F222D1
:1004170075F008758200EF2FFFEE33FECD33CDCC9C
:1004270033CCC58233C5829BED9AEC99E58298401F
:100437000CF582EE9BFEED9AFDEC99FC0FD5F0D6FC
:10044700E4CEFBE4CDFAE4CCF9A88222B800C1B926
:100457000059BA002DEC8BF084CFCECDFCE5F0CB64
:10046700F97818EF2FFFEE33FEED33FDEC33FCEB9D
:1004770033FB10D703994004EB99FB0FD8E5E4F958
:10048700FA227818EF2FFFEE33FEED33FDEC33FC45
:10049700C933C910D7059BE99A4007EC9BFCE99A39
:1004A700F90FD8E0E4C9FAE4CCFB2275F010EF2F7E
:1004B700FFEE33FEED33FDCC33CCC833C810D7077E
:1004C7009BEC9AE899400AED9BFDEC9AFCE899F8B9
:0E04D7000FD5F0DAE4CDFBE4CCFAE4C8F9224C
:1004E500EB9FF5F0EA9E42F0E99D42F0E89C45F06D
:0104F50022E4
:1004F600E8600FECC313FCED13FDEE13FEEF13FFE4
:03050600D8F12207
:0C050900ECF0A3EDF0A3EEF0A3EFF02265
:10007E00E5082459F582E43400F583E00508229062
:10008E000056300703900059E475F00112055B022B
:10009E0005152000E97F2ED2008018EF540F249012
:1000AE00D43440D4FF30040BEF24BFB41A005003F5
:1000BE002461FFE50960021509050CE50C700205C7
:1000CE000B30070E900056E475F00112055BEF023F
:1000DE0003E30200037403D2078003E4C207F508AA
:1000EE00900056120572E4F509F50BF50CE5096062
:1000FE00077F201200C180F5750AFFC201C200C23F
:10010E0002C203C205C206C20812008DFF700D3076
:10011E0007057F001200D2AF0CAE0B22B4255FC2D2
:10012E00D5C20412008DFF24D0B40A00501A75F007
:10013E000A780930D50508B6FF0106C6A426F620B2
:10014E00D5047002D20380D924CFB41A00EF500424
:10015E00C2E5D2040202D3D20180C6D20080C0D240
:10016E000280BCD2D580BAD20580B47F201200C1E5
:10017E002002077401B5090040F112007EFF120043
:10018E00C10200FBD208D206809512007EFB12003F
:10019E007EFA12007EF94A4B700679A47A037BFF31
:1001AE0020022EE509602A7E008E827583001205DC
:1001BE002E60060EEE650A70F0C2D5EBC0E0EAC006
:1001CE00E0E9C0E0EE12031AD0E0F9D0E0FAD0E098
:1001DE00FB120515FF60AAEBC0E0EAC0E0E9C0E043
:1001EE001200C1D0E02401F9D0E03400FAD0E0FBD7
:1001FE00E50A0460DCD50AD980877BFF7A0379167D
:10020E00D202809C791080027908C206C20880084A
:10021E00D2D5790A8004790AC2D5E50A047002F5AE
:10022E000AE4FAFDFEFF12007EFC7B082001131289
:10023E00007EFD7B1030000A12007EFE12007EFF53
:10024E007B20EC3382D592D55013C3E43000069F49
:10025E00FFE49EFEE42001039DFDE49CFCE4CBF84C
:10026E00C201EC700CCFCECDCCE824F8F870F38040
:10027E0017C3EF33FFEE33FEED33FDEC33FCEB3300
:10028E00FB994002FB0FD8E9EB300105F8D0E0C432
:10029E0048B201C0E00AEC4D4E4F78207B0070C290
:1002AE00EAB50A0040BCC0E012031CD0F0D0E0203A
:1002BE000104C4C0E0C4B201C0F01200AAD0F0D54F
:1002CE00F0EB0200FB12057B0198530212580169F4
:1002DE004C01654202164F021E44021E49017E4326
:0802EE00022455020846020833
:1002F6004502084703C450016D2D01712E01942B50
:1003060001752301922003AD2A012D480000018CBE
:100316003F3F3F00790AA2D5200314300509B910E2
:10032600020404B9080104A2D520060250010420E3
:1003360002689202B509005034C0E07F20300319EC
:100346007F30A20272067205500F120373C202C2F8
:1003560006C205C2087F30800F300503E9C0E012EF
:1003660000C1300503D0E0F9D0E0B509CC3005175F
:100376007F30B9100C1200C17F583004077F788097
:1003860003B908031200C13002057F2D0200C17FA8
:10039600202008F87F2B2006F322920280CF286EB9
:1003A600756C6C2900D20112007E3001F8C201780A
:1003B6000930D50108F602012D2D50434958120087
:1003C6007E2403B405004001E49003BF931200B2FB
:0D03D600743A1200B2D2037509040202123B
:10051500BB010689828A83E0225002E722BBFE02E4
:09052500E32289828A83E4932217
:10052E00BB010CE58229F582E5833AF583E0225082
:10053E0006E92582F8E622BBFE06E92582F8E222CC
:0D054E00E58229F582E5833AF583E49322E6
:10055B00F8E0FBA3A3E0F925F0F0E5821582700229
:07056B001583E0FA38F022CD
:09057200EBF0A3EAF0A3E9F0228A
:10057B00D083D082F8E4937012740193700DA3A30F
:10058B0093F8740193F5828883E473740293686023
:06059B00EFA3A3A380DF23
:00000001FF
