:10094A001216177FC87E007D007C00121389120ED2
:10095A00147F0112184090011AE475F0011201EE99
:10096A00FED3E5F09458EE94024009E490011AF09F
:10097A00A3F0801E90011EE0700E12006E12007A23
:10098A0012176A12169280EC1210B7E490011EF048
:10099A0080C47F041211FE90011AE475F00112015D
:1009AA00EEFED3E5F09464EE94004009E490011A57
:1009BA00F0A3F0801890011EE0700B12006E120076
:1009CA007A12176A80EFE490011EF080CA12199613
:1009DA00E4FF1211FEE490011DF090011AE475F093
:1009EA0001120204FED3E5F094C8EE94004062E4DA
:1009FA0090011AF0A3F0121A0B9000F0EFF0F470C5
:100A0A0030121955EF6401701590011DE004F0D3FE
:100A1A00940F7480948040397410F0E4802F900110
:100A2A001CE0702D04F0FF121A05E490011DF080FD
:100A3A0020E490011CF09000F0E0D39404748094B8
:100A4A0080E490011D4005F07F018002F0FF121A38
:100A5A000590011EE0701712006E12007A121A2316
:100A6A0012037212169212176A121A2080E31210D7
:100A7A00B7120D721215D8121193E490011EF002EA
:020A8A0009E47D
:10161700E4F5B1F5B2F5B3F5B4F5ACF5ADC285C2F5
:1016270094D292C29112004E12198812195B120FAE
:10163700CE12186812002612179A1217071219BE2F
:0E16470012192743B21843B408D283D2AF223F
:041A11004101370A4E
:10004E005389F0438901438E0890013874C1F0A39F
:0D005E007480F0758CC1F58AD2A9D28C2275
:03000B000217F0E9
:0617F000C0E0C083C082CE
:1017F600900138E0F58CA3E0F58A900137E014F00B
:0B1806007009740AF090011E74FFF0DE
:07181100D082D083D0E03249
:0E1988007F007EC27D017C001216CED2AC2202
:0E1996007F807E257D007C001216CED2AC2212
:030023000215497A
:10154900C0E0C0F0C083C082C0D075D000C000C068
:1015590001C002C003C004C005C006C00730990518
:101569001213E5C299309805120F3FC298D007D0DF
:1015790006D005D004D003D002D001D000D0D0D0FD
:0815890082D083D0F0D0E032E3
:0F195B007F807E257D007C00121125439C012298
:03007B00021591DA
:10159100C0E0C0F0C083C082C0D075D000C000C020
:1015A10001C002C003C004C005C006C00730F90273
:1015B100C2F930F807C2F8AF9A121818D007D0064E
:1015C100D005D004D003D002D001D000D0D0D08239
:0715D100D083D0F0D0E0321E
:08000300C2F98F9A30F9FD22C9
:100FCE00A2AF9200C2AF75C7AA75C7554391014330
:100FDE00C60875C7AA75C7555391FEA20092AF43B6
:100FEE00B210538EBFA2AF920075C7AA75C75575C2
:100FFE00910153B7F843B70375C7AA75C755E4F502
:10100E0091A20092AFA2AF920075C7AA75C755758F
:10101E00910143B71053D8DF75C7AA75C755F5911F
:10102E00A20092AF75D104F5D9F5D575DD01539BAC
:06103E00F7C2DEC2DF2252
:03006B0002000E82
:10000E00C0E0C083C082C2DD90013C74FFF0D0829C
:05001E00D083D0E032A8
:0E19A400E4F5D575DD01439B08D2DED2DF22CB
:0819D100539BF7C2DFC2DD22C7
:1018B100120174FF7E00D394FFEE940340047E0373
:1018C1007FFFEF4E7003FE7F018FDDEEF5D5D2DE97
:0118D10022F4
:1018D200AFDDEF6480700DAFD5EF70089000C77474
:1018E20002F0800905DDAFDDEF700205D5D2DE2200
:0C006E0090013CE06005E4F0120CCB2295
:1018680043F40853F37F53F3DF53F3F753F3FB4386
:10187800F31053F3FE53F3FD539BBFD29553F3BFBD
:06188800E4900105F022CE
:0C19B2008FF5E5F4548060FA53F47F22B6
:0E196A00E4F5F5E5F4548060FAAFF553F47F30
:01197800224C
:03004B000218F2A6
:1018F200C0E0C083C082E5F430E70990010D74FFB7
:0B190200F053F47FD082D083D0E0329D
:101268009000FF120335D2959000FFE0FCA3E0FD4B
:10127800A3E0FEA3E0FF781012030F900109EFF03E
:101288009000FFE0FCA3E0FDA3E0FEA3E0FF7808E8
:1012980012030F900108EFF09000FFA3A3A3E090C2
:1012A8000107F0C29543F3407F031219B290010978
:1012B800E0FF1219B2900108E0FF1219B29001077D
:0512C800E0FF0219B275
:0E197900E4F5F5E5F4548060FAAFF553F47F21
:01198700223D
:0619F900D29553F3BF225A
:01007A002263
:10002600E4FFEFC3942074809480500F74992FF5E9
:1000360082E43400F583E4F00F80E7E4900098F062
:04004600900097F09F
:01004A002293
:10181800900097E004541FFEA3E06E601A900097B2
:10182800E0FE04F074992EF582E43400F583EFF0BD
:08183800900097E0541FF0221C
:10173A00900097E0FFA3E0B507037F00229000988E
:10174A00E0FF04F074992FF582E43400F583E01287
:10175A0001BA900098E0541FF01217C6EF04FF2256
:1017C600900097E0FEA3E0FDB506037F0022EDD36F
:1017D6009E400A900097E02420C39DFF2290009827
:0A17E600E0FF900097E0C39FFF2290
:011A230022A0
:10193900EF64017004D2948002C2949000C2EFF067
:01194900227B
:0619FF009000C2E0FF228F
:10170700E49000C9F09000C9E0FFC3940874809486
:1017170080501474CA2FF582E43400F583E4F09006
:1017270000C9E004F080DEE49000C8F0A3F07F0277
:031737000219395B
:011A2400229F
:011A2500229E
:050501009000F6EFF090
:100506007E00D39400748094805003020683EF9497
:100516000E7480948040030206839000FB12034110
:10052600000000009000FBE0F8A3E0F9A3E0FAA3C6
:10053600E0FB9000F6E0FFEB4FFFEAFEE9FDE8FC8A
:100546009000FB1203359000FBE0FCA3E0FDA3E066
:10055600FEA3E0FF78041203229000FB12033590FD
:1005660000FBE0FCA3E0FDA3E0FEA3E0FF1212689F
:100576001219799000F7EFF01219799000F8EFF060
:100586001219799000F9EFF01219799000FAEFF04C
:100596001219F99000FB120341000000009000FBC5
:1005A600E0F8A3E0F9A3E0FAA3E0FB9000FAE0FF8D
:1005B600EB4FFFEAFEE9FDE8FCA31203359000FBD2
:1005C600E0FCA3E0FDA3E0FEA3E0FF78081203220F
:1005D6009000FB1203359000FBE0F8A3E0F9A3E0DE
:1005E600FAA3E0FB9000F9E0FFEB4FFFEAFEE9FD1E
:1005F600E8FC9000FB1203359000FBE0FCA3E0FD55
:10060600A3E0FEA3E0FF78081203229000FB12038A
:10061600359000FBE0F8A3E0F9A3E0FAA3E0FB9035
:1006260000F8E0FFEB4FFFEAFEE9FDE8FC9000FB77
:100636001203359000FBE0FCA3E0FDA3E0FEA3E07F
:10064600FF78081203229000FB1203359000FBE0AE
:10065600F8A3E0F9A3E0FAA3E0FB9000F7E0FFEBD4
:100666004FFFEAFEE9FDE8FC9000FB12033590001F
:10067600FBE0FCA3E0FDA3E0FEA3E0FF22E4FFFE17
:02068600FDFC79
:01068800224F
:101840009000C9E004540FFE9000C8E06E6018A339
:10185000E0FE04F074CA2EF582E43400F583EFF064
:081860009000C9E0540FF022D2
:0507F9009000F1EFF09B
:1007FE007F011219391219D19000F1E0FF12050193
:10080E009000B91203359000B9E0FCA3E0FDA3E01F
:10081E00FEA3E0242AFFE43EFEE43DFDE43CFC1290
:10082E0012681219799000F2EFF01219799000F314
:10083E00EFF01219799000F4EFF01219799000F59B
:10084E00EFF09000C3120341000000009000C3E0DF
:10085E00F8A3E0F9A3E0FAA3E0FB9000F5E0FFEBCC
:10086E004FFFEAFEE9FDE8FC9000C312033590004D
:10087E00C3E0FCA3E0FDA3E0FEA3E0FF78081203B3
:10088E00229000C31203359000C3E0F8A3E0F9A351
:10089E00E0FAA3E0FB9000F4E0FFEB4FFFEAFEE985
:1008AE00FDE8FC9000C31203359000C3E0FCA3E00A
:1008BE00FDA3E0FEA3E0FF78081203229000C3120E
:1008CE0003359000C3E0F8A3E0F9A3E0FAA3E0FB40
:1008DE009000F3E0FFEB4FFFEAFEE9FDE8FC90002D
:1008EE00C31203359000C3E0FCA3E0FDA3E0FEA31A
:1008FE00E0FF78081203229000C31203359000C364
:10090E00E0F8A3E0F9A3E0FAA3E0FB9000F2E0FF29
:10091E00EB4FFFEAFEE9FDE8FC9000C3120335E45D
:10092E009000F2F0A37402F09000BE12034100009A
:0B093E0000001219A49000C77401F023
:01094900228B
:100CCB009000C7E024FE601314606C147003020DD7
:100CDB006324036003020D710218D29000C3E0FC81
:100CEB00A3E0FDA3E0FEA3E0FF9000BEE0F8A3E0CD
:100CFB00F9A3E0FAA3E0FBC31202FE70079000C752
:100D0B007403F022121A251219799000F1EFF0906A
:100D1B0000BEE0FCA3E0FDA3E0FEA3E02401FFE4A2
:100D2B003EFEE43DFDE43CFC9000BE1203357B012E
:100D3B007A0079F10218B1AFDDEF6401700DAFD518
:100D4B00EF70089000C77404F0800A15DDAFDDEF7B
:100D5B00F4700215D5D2DE227F02121939121A2431
:060D6B001219F91219D162
:010D7100225F
:10176A009000C8E0FFA3E06F60251219FFEF640242
:10177A00701D9000C8E0FF04F074CA2FF582E434AB
:10178A0000F583E0FF1207F99000C8E0540FF02239
:100B6F00FB3300000000000000020302000003003E
:100B7F000000640100000000000000000000000001
:100B8F000000000000000000000000000000000056
:100B9F00000063FB330000000000000002030200AE
:100BAF000001000000000000000000000000000035
:100BBF000000000000000000000000000000000026
:100BCF00000000000063FB0F0000000000000002A7
:100BDF0001020000F1FB0F00000000000000020204
:100BEF00020000F0FB0F00000000000000020402F2
:100BFF000000EEFB130000000000000009050900D3
:100C0F000080250000360BD50BE40BF30B6F0C02A5
:061A0500900007EFF02243
:0B194A009000067401F0E4900002F031
:06195500900007E0FF22F4
:10179A009000527401F0A37400F0A3740FF090004B
:1017AA004F7401F0A37400F0A3742FF0E490000BBF
:0C17BA00F0C293900006F07F01021A05B7
:100EB000E4FE900BA3E493FDEEC39D5015EE900B62
:100EC000A293FD74562EF582E43400F583EDF00E06
:100ED00080E09000647401F0900068EFF0E4FFFEA1
:100EE000900BA3E49314FDEEC39D501074562EF5A1
:100EF00082E43400F583E02FFF0E80E4EFF4FF0F6F
:100F000074562EF582E43400F583EFF090000874F7
:100F100001F0A37400F0A37456F09000967401F0F1
:100F2000E490000EF0900008E0FBA3E0FAA3E0F9E3
:0E0F300090000EE0F58275830012018DF59998
:010F3E002290
:051A16007F64020EB028
:051A1B007F03020EB084
:0511FE009000F1EFF08C
:1012030078F27C007D017BFF7A0C79157E007F0AE2
:1012130012014E9000F1E0FFD39404748094805047
:1012230043EF25E024F2F582E43400F583E0FEA3E6
:10123300E0AA06F990000874FFF0A3EAF0A3E9F02E
:101243009000967401F0E490000EF0900008E0FB2B
:10125300A3E0FAA3E0F990000EE0F5827583001293
:04126300018DF5996B
:011267002264
:1015D800900055E06038900000E475F0011201EECB
:1015E800FED3E5F094C2EE94014023E4900000F0AD
:1015F800A3F0900005E0600CE4900055F0C2937FE2
:0E160800040218407F031218407F021211FEE8
:0116160022B1
:1003720090000BE020E703020500547FF090004F4D
:10038200E0FBA3E0FAA3E0F990000112018DFFE483
:10039200FEFDEDC39F501890004FE0FBA3E0FAA3CF
:1003A200E0F98D8275830012018D2EFE0D80E3EE41
:1003B200600302050090004FE0FBA3E0FAA3E0F91E
:1003C20090000912018D24EE70030204CF24106004
:1003D2000302050090000A12018D64066003020503
:1003E20000900055E0600302050090000E12018D9E
:1003F20024FE602014602D1470030204882403601C
:100402000302050012194AEF640160030205007F2E
:10041200060204CC12194AEF640160030205007F50
:10042200050204CC9000067401F0121955EF640124
:100432006003020500900002E014601314601414BB
:10044200601114601A146017240560030205007F0E
:100452000780027F09121840900002E004F0227F18
:100462000B1218407F0B1218407F0B1218407F0BA3
:100472001218407F0B1218407F0B1218407F0B128C
:1004820018407F0B80449000067401F0121955EF5A
:100492006401706A900002E0D394027480948040F8
:1004A200277F0B1218407F0B1218407F0B12184047
:1004B2007F0B1218407F0B1218407F0B1218407FDF
:1004C2000B1218407F0B80027F0802184090004FE9
:1004D200E0FBA3E0FAA3E0F990000A12018D6404A4
:1004E200701C90000B12018D6402701290000D12AC
:0E04F200018D700A90000E12018D900005F031
:0105000022D8
:1013E500900096E06401705090000EE004F06401F6
:1013F500701B900008E0FBA3E0FAA3E0F990000E53
:10140500E0F58275830012018D900003F0900003D2
:10141500E014FF90000EE0FED39F40079000967405
:1014250080F022900008E0FBA3E0FAA3E0F98E82A9
:0814350075830012018DF59989
:01143D00228C
:100F3F00AF99EF64FB700490000CF090000CE0FE92
:100F4F0064017005900004EFF0900052E0FBA3E005
:100F5F00FAA3E0F98E82758300EF1201CC90000C9A
:100F6F00E004F0E0FF900004E06F705290000BE09F
:100F7F0030E02154FEF09000527401F0A37400F0A1
:100F8F00A3740FF090004F7401F0A37400F0A374DA
:100F9F002FF0802390000BE04401F0900052740179
:100FAF00F0A37400F0A3742FF090004F7401F0A31E
:0E0FBF007400F0A3740FF090000BE04480F07B
:010FCD002201
:0A19BE00D297900113E04401F022DB
:1010B70030972790010EE0FFD3940274809480400C
:1010C7000FEF94DD7480948050069001127401F044
:1010D700E490010FF090010EF02290010FE01460F0
:1010E7001704703990010EE004F0D39402748094D1
:1010F70080402AA37401F02290010EE004F0E0FF83
:101107007E0064DC70069001127402F0D3EF94DC69
:0D111700EE64809480400690010E74E1F0BB
:0111240022A8
:10169200900112E0603564017017A3E064017003E9
:1016A2007480F0900113E070087481F07F011218C9
:1016B20040900112E06402700D90005574FFF0D268
:0C16C200937F02121840E4900112F02205
:10119300900113E030E709547FF09001107401F0DF
:1011A300900110E0605424FE601C14601C14602A3B
:1011B30024037041900113E090011030E0047402A5
:1011C300F0227403F02202190D7F0A1218407F01E6
:1011D3001211FE9001107404F022900111E0FF043B
:1011E300F0D3EF94FB74809480400FC283C292C209
:0A11F30093C2948000E4900110F014
:0111FD0022CF
:0919C800475056544700FF19C8AE
:10192700E49000EFF09000EEF09000ECF09000EB08
:02193700F0229C
:100689007B017A0079F112173AEF70030207F890AB
:1006990000DAE014602814700302073C14700302A6
:1006A900075E240360030207F89000F1E064246008
:1006B900030207F89000DAE004F0E4A3F0229000C6
:1006C900F1E0FF9000DBE0FE04F074DD2EF582E43A
:1006D9003400F583EFF09000DBE064056003020766
:1006E900F8A3F09000DBE0FFA3E0FEC39F50349035
:1006F90019CEE493FB740193FA740293F98E82750F
:10070900830012018DFF74DD2EF582E43400F58338
:10071900E06F6007E49000DAF080089000DCE00404
:10072900F080C09000DCE0640560030207F89000E7
:10073900DB80189000F1E0B42C069000DBE004F0B7
:100749009000DBE0640760030207F8F0A3F0900073
:10075900DAE004F0229000F1E0FF642C6005EF6418
:100769002E70729000DBE0FF605F9000ED7424F062
:10077900EF640370229000DEE075F00AA4FF900098
:10078900DDE075F064A42FFF9000DFE02F9000EF0B
:10079900F09000EE74FFF09000DBE0FB640270164D
:1007A9009000DDE075F00AA4FEA3E02E9000EFF0C2
:1007B9009000EE74FFF0EB6401700E9000DDE090A4
:1007C90000EFF09000EE74FFF0E49000DBF0A3F08E
:1007D9009000DAF0229000F1E024D0FF9000DBE0F5
:0F07E900FE04F074DD2EF582E43400F583EFF0AA
:0107F80022DE
:061A0B009000ECE0FF2258
:10188E009000EBE06402701A900113E030E01390C8
:10189E0000E7E004F0D39464748094804004E4F094
:0218AE00B292F4
:0118B0002215
:100D72009000EEE06012E4F09000E8F0A3F0900042
:100D8200EFE09000ECF080249000E8E475F00112AE
:100D920001EEFED3E5F094A0EE9400400F9000E83F
:100DA200E4F0A374AAF09000EC74FFF09000EAE083
:100DB20004F0D394A0748094804054E4F0A3E064DF
:100DC20001700D9000EDE0B42404E4F08041802F26
:100DD2009000EBE0640270109000EDE0B424028019
:100DE2000EE49000EDF080279000EDE0B42410E4D2
:100DF200F09000EB04F07F0C121840D2928010E4C5
:100E02009000EDF09000EB7402F07F0D121840029A
:020E1200188E38
:031A200002068932
:101655001234000054686973206669726D7761728F
:1016650065207772697465206279204A757374699B
:101675006E5A686F75203C6A757374696E2E7A6848
:0D1685006F7533304071712E636F6D3E0044
:100A8C0090011612034100000000E490013AF0A31B
:100A9C00F0900114F0A3F0901655E493FE740193BA
:100AAC00FFC3900115E09FEE6480F8900114E064A0
:100ABC008098504D900116E0F8A3E0F9A3E0FAA35A
:100ACC00E0FB900114E0FEA3E0FF90013AE0FCA3F0
:100ADC00E02FF582EC3EF583E493FFE4FCFDFEEBA6
:100AEC002FFFEE3AFEED39FDEC38FC9001161203A7
:100AFC0035900115E004F0709E900114E004F08034
:100B0C0096900116E0FCA3E0FDA3E0FEA3E0FFC07D
:100B1C0006C007901657E493FE740193FBAA06EAED
:100B2C003395E0F9F8D007D006C3EF9BFFEE9AFEA1
:100B3C00ED99FDEC98FC900116120335901657E4D4
:100B4C0093FE740193FFEE3395E0FDFC900116E0EB
:100B5C00F8A3E0F9A3E0FAA3E0FBC31202E86002F9
:020B6C0080FE09
:010B6E002264
:100E14007F007E037D007C00121268E49000F1F0F4
:100E24009000F1E0C39439748094805016121979BB
:100E34009000F1E090165993B507089000F1E00492
:100E4400F080DD9000F1E0C3943974809480500206
:100E540080FE7F807E037D007C00121268E4900097
:100E6400F1F09000F1E0C3941474809480500B125C
:100E740019799000F1E004F080E8121979EF644FD9
:100E8400600280FEE49000F1F09000F1E0C394076A
:100E940074809480500B1219799000F1E004F08072
:0B0EA400E8121979EF6454600280FE30
:010EAF002220
:10143E0090011F120335538EF7438901D28CE4FFBE
:10144E00FEFDFC90011FE0F8A3E0F9A3E0FAA3E093
:10145E00FBC31202FE602F758A7E758CFF308DFDE8
:10146E00C28D90011FE0FCA3E0FDA3E0FEA3E024EB
:10147E00FFFFEE34FFFEED34FFFDEC34FFFC900178
:09148E001F12033580B8C28C2244
:10149700900123120335538EF7438901D28CE4FF61
:1014A700FEFDFC900123E0F8A3E0F9A3E0FAA3E036
:1014B700FBC31202FE602F758ACA758CFA308DFD48
:1014C700C28D900123E0FCA3E0FDA3E0FEA3E0248E
:1014D700FFFFEE34FFFEED34FFFDEC34FFFC90011F
:0914E7002312033580B8C28C22E7
:1014F000900127120335538EEF438910D28EE4FFFB
:10150000FEFDFC900127E0F8A3E0F9A3E0FAA3E0D8
:10151000FBC31202FE602F758BEA758DCB308FFDF9
:10152000C28F900127E0FCA3E0FDA3E0FEA3E0242E
:10153000FFFFEE34FFFEED34FFFDEC34FFFC9001C5
:091540002712033580B8C28E2287
:101389009000F112033553C9BF53C9DF43C910D2C5
:10139900CAE4FFFEFDFC9000F1E0F8A3E0F9A3E048
:1013A900FAA3E0FBC31202FE602F75CC3075CDF8AD
:1013B90030CFFDC2CF9000F1E0FCA3E0FDA3E0FE39
:1013C900A3E024FFFFEE34FFFEED34FFFDEC34FF14
:0C13D900FC9000F112033580B8C2CA225B
:1012CD0090012B12033575C40743C408E4FFFEFDDE
:1012DD00FC90012BE0F8A3E0F9A3E0FAA3E0FBC337
:1012ED001202FE603575C52C75C6CFE5C454106469
:1012FD001070F853C4EF90012BE0FCA3E0FDA3E0C8
:10130D00FEA3E024FFFFEE34FFFEED34FFFDEC34D1
:0E131D00FFFC90012B12033580B253C4F7225F
:10132B0090012F12033575C40743C408E4FFFEFD7B
:10133B00FC90012FE0F8A3E0F9A3E0FAA3E0FBC3D4
:10134B001202FE603575C5D875C6FFE5C45410642E
:10135B001070F853C4EF90012FE0FCA3E0FDA3E065
:10136B00FEA3E024FFFFEE34FFFEED34FFFDEC3473
:0E137B00FFFC90012F12033580B253C4F722FD
:1016CE0053B1BF53B2BF53B17F53B27F75985043DE
:1016DE008920438780438E1053C4DFAB07AA06A927
:1016EE0005A8047F407E427D0F7C00120256EF0457
:0916FE00F404F58DD28ED299227C
:1010440090013312033553B1BF53B2BF53B17F5331
:10105400B27F75985043878053C4F843C4209001ED
:1010640033E0F8A3E0F9A3E0FAA3E0FB7F407E427B
:101074007D0F7C00120256C374FF9FFF74FF9EFE17
:10108400E49DFDE49CFC780812030F8FC6900133A5
:10109400E0F8A3E0F9A3E0FAA3E0FB7F407E427D01
:1010A4000F7C00120256C374FF9FFF8FC543C40810
:0310B400D29922AC
:0719D9003098FDAF99C298A0
:0119E00022E4
:0819E100C2998F993099FD2293
:101125009000F112033553B1FB53B2FB53B3BF53D8
:10113500B4BF75F85075C40853C4DF9000F1E0F8EA
:10114500A3E0F9A3E0FAA3E0FB7F407E427D0F7C9C
:1011550000120256C374FF9FFF74FF9EFEE49DFDBF
:10116500E49CFC780812030F8FC69000F1E0F8A309
:10117500E0F9A3E0FAA3E0FB7F407E427D0F7C000F
:0E118500120256C374FF9FFF8FC543C4082299
:0719E90030F8FDAF9AC2F8CF
:0119F00022D4
:0819F100C2F98F9A30F9FD22C2
:10190D0075C7AA75C755A2AF9200C2AF75C7AA75A4
:0A191D00C755439F80A20092AF223D
:03000000020C1FD0
:100C1F0075C7AA75C75575FD5A75C7AA75C7557596
:100C2F00FDA5787FE4F6D8FD9000007FFF7E03E4FA
:0C0C3F00F0A3DFFCDEFA758120020C86B9
:100C4B0002094AE493A3F8E493A34003F68001F26C
:100C5B0008DFF48029E493A3F85407240CC8C333AA
:100C6B00C4540F4420C8834004F456800146F6DF79
:100C7B00E4800B0102040810204080901A11E47EDE
:100C8B00019360BCA3FF543F30E509541FFEE4936E
:100C9B00A360010ECF54C025E060A840B8E493A335
:100CAB00FAE493A3F8E493A3C8C582C8CAC583CA60
:100CBB00F0A3C8C582C8CAC583CADFE9DEE780BE18
:011A150000D0
:10007E00E709F608DFFA8046E709F208DFFA803E64
:10008E0088828C83E709F0A3DFFA8032E309F60851
:10009E00DFFA8078E309F208DFFA807088828C83B9
:1000AE00E309F0A3DFFA806489828A83E0A3F6086D
:1000BE00DFFA805889828A83E0A3F208DFFA804C47
:1000CE0080D280FA80C680D4806980F2803380101E
:1000DE0080A680EA809A80A880DA80E280CA803387
:1000EE0089828A83ECFAE493A3C8C582C8CCC583FF
:1000FE00CCF0A3C8C582C8CCC583CCDFE9DEE780CF
:10010E000D89828A83E493A3F608DFF9ECFAA9F04D
:10011E00EDFB2289828A83ECFAE0A3C8C582C8CCA3
:10012E00C583CCF0A3C8C582C8CCC583CCDFEADEBC
:10013E00E880DB89828A83E493A3F208DFF980CC1E
:10014E0088F0EF60010E4E60C388F0ED2402B40417
:10015E000050B9F582EB2402B4040050AF232345BE
:06016E0082239000CE7315
:10017400BB010689828A83E0225002E722BBFE0289
:09018400E32289828A83E49322BC
:10018D00BB010CE58229F582E5833AF583E0225027
:10019D0006E92582F8E622BBFE06E92582F8E22271
:0D01AD00E58229F582E5833AF583E493228B
:1001BA00BB010689828A83F0225002F722BBFE0124
:0201CA00F3221E
:1001CC00F8BB010DE58229F582E5833AF583E8F069
:1001DC00225006E92582C8F622BBFE05E92582C815
:0201EC00F222FD
:1001EE00C5F0F8A3E028F0C5F0F8E582158270029C
:0601FE001583E038F02239
:10020400A3F8E0C5F025F0F0E582158270021583AD
:06021400E0C838F0E8220A
:10021A0075F008758200EF2FFFEE33FECD33CDCC9B
:10022A0033CCC58233C5829BED9AEC99E58298401E
:10023A000CF582EE9BFEED9AFDEC99FC0FD5F0D6FB
:10024A00E4CEFBE4CDFAE4CCF9A88222B800C1B925
:10025A000059BA002DEC8BF084CFCECDFCE5F0CB63
:10026A00F97818EF2FFFEE33FEED33FDEC33FCEB9C
:10027A0033FB10D703994004EB99FB0FD8E5E4F957
:10028A00FA227818EF2FFFEE33FEED33FDEC33FC44
:10029A00C933C910D7059BE99A4007EC9BFCE99A38
:1002AA00F90FD8E0E4C9FAE4CCFB2275F010EF2F7D
:1002BA00FFEE33FEED33FDCC33CCC833C810D7077D
:1002CA009BEC9AE899400AED9BFDEC9AFCE899F8B8
:0E02DA000FD5F0DAE4CDFBE4CCFAE4C8F9224B
:1002E800EB9FF5F0EA9E42F0E99D42F0EC6480C88D
:0602F80064809845F0222D
:1002FE00EB9FF5F0EA9E42F0E99D42F0E89C45F056
:01030E0022CC
:10030F00E8600FECC313FCED13FDEE13FEEF13FFCC
:03031F00D8F122F0
:10032200E8600FEFC333FFEE33FEED33FDEC33FC39
:03033200D8F122DD
:0C033500ECF0A3EDF0A3EEF0A3EFF0223B
:10034100A8828583F0D083D08212035812035812F9
:100351000358120358E473E493A3C583C5F0C5831E
:10036100C8C582C8F0A3C583C5F0C583C8C582C806
:010371002269
:00000001FF
