:100FA100120FD0E4FF1203781209F29000F5E070FD
:100FB1001712006E12007A121203120887120F6EB6
:0F0FC10012120512120780E3E49000F5F080D9B8
:100FD000E4F5B1F5B2F5B3F5B4F5ACF5AD12004EEC
:100FE00012118E12116112090B1210CD120026126D
:0E0FF00010F31212041211FD121206D2AF22DB
:0411F8004100F20AB6
:10004E005389F0438901438E089000F374C1F0A3E5
:0D005E007480F0758CC1F58AD2A9D28C2275
:03000B000210558B
:06105500C0E0C083C08270
:10105B009000F3E0F58CA3E0F58A9000F2E014F039
:0B106B007009740AF09000F574FFF0AB
:07107600D082D083D0E032EC
:0E118E007F007EC27D017C00120F35D2AC22A4
:03002300020EEDDD
:100EED00C0E0C0F0C083C082C0D075D000C000C0CB
:100EFD0001C002C003C004C005C006C0073099057B
:100F0D00120D89C29930980512076FC298D007D07B
:100F1D0006D005D004D003D002D001D000D0D0D05F
:080F2D0082D083D0F0D0E03245
:0F1161007F807E257D007C00120A60439C012266
:03007B000211B6B9
:0B11B60030F902C2F930F802C2F83232
:08000300C2F98F9A30F9FD22C9
:10090B00A2AF9200C2AF75C7AA75C75543910143F9
:10091B00C60875C7AA75C7555391FEA20092AF536F
:10092B008EBFA2AF920075C7AA75C75575910153BB
:10093B00B7F843B70375C7AA75C755E4F591A2007D
:10094B0092AFA2AF920075C7AA75C75575910143B7
:10095B00B71053D8DF75C7AA75C755F591A200928A
:10096B00AF75D104F5D975D50175DDFF539BF7C272
:04097B00DEC2DF22D7
:03006B0002000E82
:10000E00C0E0C083C082C2DD9000F674FFF0D082E3
:05001E00D083D0E032A8
:0E119C00E4F5D575DD01439B08D2DED2DF22DB
:0811CA00539BF7C2DFC2DD22D6
:1005E800E49000CBF0A3F090000112018DFFE4909D
:1005F80000CBF0EFA3F0E0F8E4F0E89000CBF012C5
:100608000174FF9000CBE0FEA3E04FFF9000CBEE1B
:10061800F0FEA3EFF0EE30E7239000CBE0FEA3E07E
:10062800F4FFEEF49000CBF0A3EFF0E004F07006D6
:100638009000CBE004F09000CF74FFF09000CBE086
:10064800FEA3E07805CEC313CE13D8F9F0EE9000E0
:10065800CBF09000CFE060189000CBE0FEA3E0FF65
:10066800C3E49F9000CEF074029E9000CDF08014F9
:100678009000CCE02400FE9000CBE034029000CD46
:10068800F0A3CEF0D39000CEE094FF9000CDE0949C
:100698000340077403F0A374E8F09000CDE0700203
:1006A800A3E070089000CDF0A37419F09000CDE09D
:0A06B800FEA3E0F5DDEEF5D5D2DE7D
:0106C2002215
:10111500AFDDEF700FAFD5EF6402700890009D74DE
:1011250002F0800905DDAFDDEF700205D5D2DE22C4
:0C006E009000F6E06005E4F0120ACE22DB
:1010CD0043F40853F37F53F3DF53F3F753F3FB4329
:1010DD00F31053F3FE53F3FD539BBFD29553F3BF60
:0610ED00E49000ADF022CA
:0C11AA008FF5E5F4548060FA53F47F22C6
:0E117000E4F5F5E5F4548060FAAFF553F47F32
:01117E00224E
:03004B000211356A
:10113500C0E0C083C082E5F430E7099000B574FFD4
:0B114500F053F47FD082D083D0E03262
:100C0C009000CE12033BD2959000CEE0FCA3E0FD09
:100C1C00A3E0FEA3E0FF78101203059000B1EFF003
:100C2C009000CEE0FCA3E0FDA3E0FEA3E0FF78087B
:100C3C001203059000B0EFF09000CEA3A3A3E090B8
:100C4C0000AFF0C29543F3407F031211AA9000B19C
:100C5C00E0FF1211AA9000B0E0FF1211AA9000AFB1
:050C6C00E0FF0211AAE7
:0E117F00E4F5F5E5F4548060FAAFF553F47F23
:01118D00223F
:0611F200C29553F3BF2279
:01007A002263
:10002600E4FFEFC3940874809480500F74B82FF5E2
:1000360082E43400F583E4F00F80E7E49000B7F043
:040046009000B6F080
:01004A002293
:10107D009000B6E0045407FEA3E06E601A9000B62F
:10108D00E0FE04F074B82EF582E43400F583EFF041
:08109D009000B6E05407F022B8
:100FFE009000B6E0FFA3E0B507037F00229000B794
:10100E00E0FF04F074B82FF582E43400F583E012AB
:0D101E0001BA9000B7E05407F012102B2229
:10102B009000B6E0FEA3E0FDB506037F0022EDD3F2
:10103B009E400A9000B6E02408C39DFF229000B7A3
:0A104B00E0FF9000B6E0C39FFF2213
:0112030022C8
:1010A500000000000000000000000000000000003B
:1010B500000000000000000000000000000000002B
:0810C500000000000000000023
:0112040022C7
:10115000EF25E025E024A5F582E43410F5830203B1
:011160002B63
:050378009000C9EFF048
:10037D001211CA9000C9E0FF1211509000901203A3
:10038D003B900090E0FCA3E0FDA3E0FEA3E0242A57
:10039D00FFE43EFEE43DFDE43CFC120C0C900099A4
:1003AD001203470000000012117F9000CAEFF012F7
:1003BD00117F9000CBEFF012117F9000CCEFF01277
:1003CD00117F9000CDEFF0900099120347000000CF
:1003DD0000900099E0F8A3E0F9A3E0FAA3E0FB9008
:1003ED0000CDE0FFEB4FFFEAFEE9FDE8FC90009940
:1003FD0012033B900099E0FCA3E0FDA3E0FEA3E017
:10040D00FF780812031890009912033B900099E0B1
:10041D00F8A3E0F9A3E0FAA3E0FB9000CCE0FFEB3A
:10042D004FFFEAFEE9FDE8FC90009912033B9000B6
:10043D0099E0FCA3E0FDA3E0FEA3E0FF7808120322
:10044D001890009912033B900099E0F8A3E0F9A3EE
:10045D00E0FAA3E0FB9000CBE0FFEB4FFFEAFEE9F3
:10046D00FDE8FC90009912033B900099E0FCA3E09D
:10047D00FDA3E0FEA3E0FF78081203189000991287
:10048D00033B900099E0F8A3E0F9A3E0FAA3E0FBA9
:10049D009000CAE0FFEB4FFFEAFEE9FDE8FC90009B
:1004AD009912033B9000CA7401F0E4A3F0900095FB
:1004BD001203470000000012119C90009D7401F082
:0104CD00220C
:100ACE0090009DE024FE60060470600211159000F7
:100ADE0099E0FCA3E0FDA3E0FEA3E0FF900095E00B
:100AEE00F8A3E0F9A3E0FAA3E0FBC31202F470034B
:100AFE000211CA12117F9000C9EFF012117F9000FF
:100B0E00CAEFF0900095E0FCA3E0FDA3E0FEA3E0A9
:100B1E002402FFE43EFEE43DFDE43CFC9000951211
:0B0B2E00033B7B017A0079C91205E847
:010B39002299
:0112050022C6
:100BA400FB33000000000000000203020000030009
:100BB40000006401000000000000000000000000CC
:100BC4000000000000000000000000000000000021
:100BD400000063FB0F00000000000000020102009F
:100BE40000F1FB0F00000000000000020202000000
:100BF400F0FB0F000000000000000202040000EE01
:080C04000BD70BE60BF50BA466
:1010F30090004C7401F0A37400F0A37409F0900005
:10110300497401F0A37400F0A37429F0E49000057E
:02111300F022C8
:1007FE00E4FE900BA5E493FDEEC39D5015EE900B19
:10080E00A493FD744F2EF582E43400F583EDF00EC3
:10081E0080E090005D7401F0900061EFF0E4FFFE67
:10082E00900BA5E49314FDEEC39D5010744F2EF55E
:10083E0082E43400F583E02FFF0E80E4EFF4FF0F27
:10084E00744F2EF582E43400F583EFF090000274BD
:10085E0001F0A37400F0A3744FF0E4900008F09040
:10086E000002E0FBA3E0FAA3E0F9900008E0F582B5
:08087E0075830012018DF5994C
:01088600224F
:050B3A009000C0EFF087
:100B3F0078C17C007D017BFF7A0C79047E007F08F1
:100B4F0012014E9000C0E0FFD39403748094805044
:100B5F0043EF25E024C1F582E43400F583E0FEA3E2
:100B6F00E0AA06F990000274FFF0A3EAF0A3E9F0FF
:100B7F0090008F7401F0E4900008F0900002E0FB09
:100B8F00A3E0FAA3E0F9900008E0F5827583001264
:040B9F00018DF59936
:010BA300222F
:10088700900005E030E77C547FF0900049E0FBA33F
:10089700E0FAA3E0F990000112018DFFE4FEFDEDFF
:1008A700C39F5018900049E0FBA3E0FAA3E0F98D3D
:1008B7008275830012018D2EFE0D80E3EE70449049
:1008C7000049E0FBA3E0FAA3E0F990000912018DCB
:1008D70024FE702F90000A12018D64067025900087
:1008E7000B12018D24FE600E14600F146010240398
:1008F70070117F06800A7F0580067F0780027F08C8
:0309070012037860
:01090A0022CA
:100D890090008FE064017050900008E004F0640165
:100D9900701B900002E0FBA3E0FAA3E0F9900008C1
:100DA900E0F58275830012018D900000F09000003B
:100DB900E014FF900008E0FED39F400790008F7475
:100DC90080F022900002E0FBA3E0FAA3E0F98E8212
:080DD90075830012018DF599EC
:010DE10022EF
:10076F00AF99EF64FB7004900006F0900006E0FE76
:10077F0064017005900001EFF090004CE0FBA3E0E6
:10078F00FAA3E0F98E82758300EF1201CC90000678
:10079F00E004F0E0FF900001E06F7052900005E080
:1007AF0030E02154FEF090004C7401F0A37400F07F
:1007BF00A37409F09000497401F0A37400F0A374BE
:1007CF0029F08023900005E04401F090004C740163
:1007DF00F0A37400F0A37429F09000497401F0A302
:0E07EF007400F0A37409F0900005E04480F05F
:0107FD0022D9
:0311FD00D2972264
:1009F2003097279000D2E0FFD39402748094804015
:100A02000FEF94657480948050069000D47401F0C6
:100A1200E49000D3F09000D2F0229000D3E0146072
:100A2200170470399000D2E004F0D39402748094D9
:100A320080402AA37401F0229000D2E004F0E0FF8B
:100A42007E00646470069000D47402F0D3EF946464
:0D0A5200EE6480948040069000D27469F03C
:010A5F002274
:100F6E009000D4E0602C64017016A3E0640170055B
:100F7E007F0A1203789000D5E070057F0112037886
:100F8E009000D4E0640270057F02120378E49000B2
:030F9E00D4F0226A
:0911C100475056544700FF11C1CC
:0112060022C5
:1004CE0020F8030205E79000F7E59AF0C2F89000D5
:1004DE009EE014602814700302058914700302054F
:1004EE00A8240360030205E79000F7E0642460038C
:1004FE000205E790009EE004F0E4A3F0229000F7DE
:10050E00E0FF90009FE0FE04F074A12EF582E4342B
:10051E0000F583EFF090009FE0640560030205E7AD
:10052E00A3F090009FE0FFA3E0C39F50419011C73E
:10053E00E493FB740193FA740293F99000A0E0FF28
:10054E0075F002A4F58285F0831201EEFD74A12FE1
:10055E00F582E43400F583E06D7002E5F06007E4A7
:10056E0090009EF080089000A0E004F080B490000F
:10057E00A0E06405706390009F80159000F7E0B4D2
:10058E002C0690009FE004F090009FE064077049F5
:10059E00F0A3F090009EE004F0229000F7E0FF64DC
:1005AE002C702390009FE07008F0A3F090009EF056
:1005BE0022E49000A0F090009FE0FEA3E0C39E50C6
:1005CE0018E004F080F090009FE0FE04F074A12E7D
:0905DE00F582E43400F583EFF02E
:0105E70022F1
:031200007F5022FA
:0112070022C4
:100DE2009000D612033B538EF7438901D28CE4FF65
:100DF200FEFDFC9000D6E0F8A3E0F9A3E0FAA3E040
:100E0200FBC31202F4602F758A7E758CFF308DFD54
:100E1200C28D9000D6E0FCA3E0FDA3E0FEA3E02497
:100E2200FFFFEE34FFFEED34FFFDEC34FFFC9000DB
:090E3200D612033B80B8C28C22E9
:100E3B009000DA12033B538EF7438901D28CE4FF07
:100E4B00FEFDFC9000DAE0F8A3E0F9A3E0FAA3E0E2
:100E5B00FBC31202F4602F758ACA758CFA308DFDB4
:100E6B00C28D9000DAE0FCA3E0FDA3E0FEA3E0243A
:100E7B00FFFFEE34FFFEED34FFFDEC34FFFC900082
:090E8B00DA12033B80B8C28C228C
:100E94009000DE12033B538EEF438910D28EE4FFA1
:100EA400FEFDFC9000DEE0F8A3E0F9A3E0FAA3E085
:100EB400FBC31202F4602F758BEA758DCB308FFD66
:100EC400C28F9000DEE0FCA3E0FDA3E0FEA3E024DB
:100ED400FFFFEE34FFFEED34FFFDEC34FFFC900029
:090EE400DE12033B80B8C28E222D
:100D2D009000E212033B53C9BF53C9DF43C910D230
:100D3D00CAE4FFFEFDFC9000E2E0F8A3E0F9A3E0B9
:100D4D00FAA3E0FBC31202F4602F75CC3075CDF819
:100D5D0030CFFDC2CF9000E2E0FCA3E0FDA3E0FEAA
:100D6D00A3E024FFFFEE34FFFEED34FFFDEC34FF76
:0C0D7D00FC9000E212033B80B8C2CA22C6
:100C71009000E612033B75C40743C408E4FFFEFD80
:100C8100FC9000E6E0F8A3E0F9A3E0FAA3E0FBC3DF
:100C91001202F4603575C52C75C6CFE5C4541064D5
:100CA1001070F853C4EF9000E6E0FCA3E0FDA3E070
:100CB100FEA3E024FFFFEE34FFFEED34FFFDEC3434
:0E0CC100FFFC9000E612033B80B253C4F72202
:100CCF009000EA12033B75C40743C408E4FFFEFD1E
:100CDF00FC9000EAE0F8A3E0F9A3E0FAA3E0FBC37D
:100CEF001202F4603575C5D875C6FFE5C45410649B
:100CFF001070F853C4EF9000EAE0FCA3E0FDA3E00E
:100D0F00FEA3E024FFFFEE34FFFEED34FFFDEC34D5
:0E0D1F00FFFC9000EA12033B80B253C4F7229F
:100F350053B1BF53B2BF53B17F53B27F759850437E
:100F45008920438780438E1053C4DFAB07AA06A9C7
:100F550005A8047F407E427D0F7C00120262EF04EB
:090F6500F404F58DD28ED299221C
:10097F009000EE12033B53B1BF53B2BF53B17F533D
:10098F00B27F75985043878053C4F843C4209000BA
:10099F00EEE0F8A3E0F9A3E0FAA3E0FB7F407E428C
:1009AF007D0F7C00120262C374FF9FFF74FF9EFED7
:1009BF00E49DFDE49CFC78081203058FC69000EEC1
:1009CF00E0F8A3E0F9A3E0FAA3E0FB7F407E427DCD
:1009DF000F7C00120262C374FF9FFF8FC543C408D0
:0309EF00D2992278
:0711D2003098FDAF99C298AF
:0111D90022F3
:0811DA00C2998F993099FD22A2
:100A60009000C912033B53B1FB53B2FB53B3BF53C6
:100A7000B4BF75F85075C40853C4DF9000C9E0F8DE
:100A8000A3E0F9A3E0FAA3E0FB7F407E427D0F7C68
:100A900000120262C374FF9FFF74FF9EFEE49DFD7F
:100AA000E49CFC78081203058FC69000C9E0F8A307
:100AB000E0F9A3E0FAA3E0FB7F407E427D0F7C00DB
:0E0AC000120262C374FF9FFF8FC543C4082259
:0711E20030F8FDAF9AC2F8DE
:0111E90022E3
:0811EA00C2F98F9A30F9FD22D1
:030000000206C332
:1006C30075C7AA75C75575FD5A75C7AA75C75575F8
:1006D300FDA5787FE4F6D8FD9000007FFF7E03E45C
:0C06E300F0A3DFFCDEFA75812002072A7C
:1006EF00020FA1E493A3F8E493A34003F68001F271
:1006FF0008DFF48029E493A3F85407240CC8C3330C
:10070F00C4540F4420C8834004F456800146F6DFDA
:10071F00E4800B01020408102040809011F8E47E61
:10072F00019360BCA3FF543F30E509541FFEE493CF
:10073F00A360010ECF54C025E060A840B8E493A396
:10074F00FAE493A3F8E493A3C8C582C8CAC583CAC1
:10075F00F0A3C8C582C8CAC583CADFE9DEE780BE79
:0111FC0000F2
:10007E00E709F608DFFA8046E709F208DFFA803E64
:10008E0088828C83E709F0A3DFFA8032E309F60851
:10009E00DFFA8078E309F208DFFA807088828C83B9
:1000AE00E309F0A3DFFA806489828A83E0A3F6086D
:1000BE00DFFA805889828A83E0A3F208DFFA804C47
:1000CE0080D280FA80C680D4806980F2803380101E
:1000DE0080A680EA809A80A880DA80E280CA803387
:1000EE0089828A83ECFAE493A3C8C582C8CCC583FF
:1000FE00CCF0A3C8C582C8CCC583CCDFE9DEE780CF
:10010E000D89828A83E493A3F608DFF9ECFAA9F04D
:10011E00EDFB2289828A83ECFAE0A3C8C582C8CCA3
:10012E00C583CCF0A3C8C582C8CCC583CCDFEADEBC
:10013E00E880DB89828A83E493A3F208DFF980CC1E
:10014E0088F0EF60010E4E60C388F0ED2402B40417
:10015E000050B9F582EB2402B4040050AF232345BE
:06016E0082239000CE7315
:10017400BB010689828A83E0225002E722BBFE0289
:09018400E32289828A83E49322BC
:10018D00BB010CE58229F582E5833AF583E0225027
:10019D0006E92582F8E622BBFE06E92582F8E22271
:0D01AD00E58229F582E5833AF583E493228B
:1001BA00BB010689828A83F0225002F722BBFE0124
:0201CA00F3221E
:1001CC00F8BB010DE58229F582E5833AF583E8F069
:1001DC00225006E92582C8F622BBFE05E92582C815
:0201EC00F222FD
:1001EE00BB0110E58229F582E5833AF583E0F5F04F
:1001FE00A3E0225009E92582F886F008E622BBFE2C
:10020E000AE92582F8E2F5F008E222E5832AF58371
:08021E00E993F5F0A3E9932236
:1002260075F008758200EF2FFFEE33FECD33CDCC8F
:1002360033CCC58233C5829BED9AEC99E582984012
:100246000CF582EE9BFEED9AFDEC99FC0FD5F0D6EF
:10025600E4CEFBE4CDFAE4CCF9A88222B800C1B919
:100266000059BA002DEC8BF084CFCECDFCE5F0CB57
:10027600F97818EF2FFFEE33FEED33FDEC33FCEB90
:1002860033FB10D703994004EB99FB0FD8E5E4F94B
:10029600FA227818EF2FFFEE33FEED33FDEC33FC38
:1002A600C933C910D7059BE99A4007EC9BFCE99A2C
:1002B600F90FD8E0E4C9FAE4CCFB2275F010EF2F71
:1002C600FFEE33FEED33FDCC33CCC833C810D70771
:1002D6009BEC9AE899400AED9BFDEC9AFCE899F8AC
:0E02E6000FD5F0DAE4CDFBE4CCFAE4C8F9223F
:1002F400EB9FF5F0EA9E42F0E99D42F0E89C45F060
:0103040022D6
:10030500E8600FECC313FCED13FDEE13FEEF13FFD6
:03031500D8F122FA
:10031800E8600FEFC333FFEE33FEED33FDEC33FC43
:03032800D8F122E7
:10032B00E493FC740193FD740293FE740393FF2218
:0C033B00ECF0A3EDF0A3EEF0A3EFF02235
:10034700A8828583F0D083D08212035E12035E12E7
:10035700035E12035EE473E493A3C583C5F0C5830C
:10036700C8C582C8F0A3C583C5F0C583C8C582C800
:010377002263
:00000001FF
