:1010150012159E900129E0FF04F07E00D3EF94C8DD
:10102500EE648094804029900129E4F01217939092
:10103500012DEFF090012DE0FF7E00EF64FF4E7073
:10104500077F411208E7800890012DE0FF1208E7AD
:10105500120C9112141690012AE0FFEF7017121767
:101065002512004912004A1206CC1213381217A293
:0C10750012007780E190012AE4F08097DF
:01108100224C
:10159E0075B10075B20075B30075B40075AC007509
:1015AE00AD001215FA121777121768120EC2121624
:1015BE007212156312164A1217A112179E1217589D
:0315CE00D2AF2277
:0417990041011D0AE3
:1015FA005389F0438901438E0890011E74C1F0900B
:10160A00011F7480F090011EE0FF8F8C90011FE093
:08161A00FF8F8AD2A9D28C22B5
:03000B00021527B4
:0D152700C0E0C083C082C0D075D000C007F6
:1015340090011EE0FF8F8C90011FE0FF8F8A9001C5
:101544001DE014FFF0EF700C90011D740AF090017F
:041554002A74FFF006
:0B155800D007D0D0D082D083D0E0328A
:0E1777007F007EC27D017C0012145DD2AC2288
:030023000213873E
:10138700C0E0C0F0C083C082C0D075D000C000C02C
:1013970001C002C003C004C005C006C007309905DC
:1013A700120F38C2993098051209D2C298D007D0C7
:1013B70006D005D004D003D002D001D000D0D0D0C1
:0813C70082D083D0F0D0E032A7
:0F1768007F807E257D007C00120D29439C01228D
:03007B000213CF9E
:1013CF00C0E0C0F0C083C082C0D075D000C000C0E4
:1013DF0001C002C003C004C005C006C00730F90237
:1013EF00C2F930F807C2F8AF9A1214E6D007D00648
:1013FF00D005D004D003D002D001D000D0D0D082FD
:07140F00D083D0F0D0E032E1
:1016EA0090012EEFF0C2F990012EE0FF8F9A30F9A7
:0716FA00FD90012EE0FF222C
:100EC200A2AF9200C2AF75C7AA75C755439101433D
:100ED200C60875C7AA75C7555391FEA20092AF53B3
:100EE2008EBFA2AF920075C7AA75C75575910153FF
:100EF200B7F843B70375C7AA75C755759100A20025
:100F020092AFA2AF920075C7AA75C75575910143FA
:100F1200B71053D8DF75C7AA75C755759100A200DF
:100F220092AF75D10475D90075D50175DDFF539B5C
:060F3200F7C2DEC2DF225F
:03006B0002000E82
:10000E00C0E0C083C082C2DD90012F74FFF0D082A9
:05001E00D083D0E032A8
:0E17850075D50075DD01439B08D2DED2DF2250
:08000300539BF7C2DFC2DD22AE
:0B07EA009000E6EBF0A3EAF0A3E9F0BA
:1007F5009000E6E0FBA3E0FAA3E0F9120174FF9094
:1008050000EBEFF09000E97402F0A3E4F09000E64D
:10081500E0FBA3E0FAA3E0F9120174FFEF30E75122
:100825009000EBE0FFEFF4FF9000EBEFF09000EBB2
:10083500E004F09000E9E0FEA3E0FF9000EBE0FDAE
:100845007C00C3EF9DFFEE9CFE9000E9EEF0A3EF68
:10085500F09000E9E0FEA3E0FF9000EBE0FD7C00F6
:10086500C3EF9DFFEE9CFE9000E9EEF0A3EFF08054
:10087500269000EBE0FF7E009000EAE02FF090006C
:10088500E9E03EF09000EBE0FF7E009000EAE02F0B
:10089500F09000E9E03EF09000E9E0FEA3E0FFD330
:1008A500EF94FFEE9403400A9000E97403F0A374FB
:1008B500FFF09000E9E0FEA3E0FFEF4E7009900025
:1008C500E9E4F0A37401F09000E9E0FEA3E0FF8FF6
:1008D500DD9000E9E0FEA3E0FFEEFF7E008FD5D2BC
:0108E500DE34
:0108E60022EF
:1015D100AFDD7E00EF4E7012AFD57E00EF64024E9C
:1015E10070089000D17402F0800C05DDAFDD7E0043
:0915F100EF4E700205D5D2DE2296
:1017250090012FE0FFEF600890012FE4F0120E4BBF
:011735002291
:1016720043F40853F37F53F3DF53F3F753F3FB437E
:10168200F31053F3FE53F3FD539BBFD29553F3BFB5
:061692009000D4E4F022F8
:1016B400900130EFF0900130E0FF8FF5E5F45480B5
:0B16C400FF7E00EF4E60F553F47F2224
:1000260075F500E5F45480FF7E00EF4E60F5900113
:0C00360031E5F5F053F47F900131E0FF5C
:01004200229B
:03004B000216CFCB
:1016CF00C0E0C083C082E5F430E7099000DC74FF0E
:0B16DF00F053F47FD082D083D0E032C3
:100FA7009000F1120319D2959000F1E0FCA3E0FD47
:100FB700A3E0FEA3E0FF78101202E39000D8EFF061
:100FC7009000F1E0FCA3E0FDA3E0FEA3E0FF7808BA
:100FD7001202E39000D7EFF09000F1E0FCA3E0FDF0
:100FE700A3E0FEA3E0FF9000D6EFF0C29543F340E5
:100FF7007F031216B49000D8E0FF1216B49000D702
:0E100700E0FF1216B49000D6E0FF1216B422DD
:10004E0075F500E5F45480FF7E00EF4E60F59001EB
:0C005E0032E5F5F053F47F900132E0FF32
:01006A002273
:06004300C29553F3BF2239
:010049002294
:10156300900133E4F0900133E0FF7E00C3EF942059
:10157300EE648094805019900133E0FF74922FF54C
:1015830082E43400F583E4F0900133E004F080D585
:0A159300900091E4F0900090E4F065
:01159D00222B
:1014E600900134EFF0900090E0FFEF04FFEF541FFF
:1014F600FF900091E0FEEF6E6026900134E0FF90D1
:101506000090E0FE04F074922EF582E43400F58338
:10151600EFF0900090E0FFEF541FFF900090EFF087
:0115260022A2
:1012E500900120EBF0A3EAF0A3E9F0900090E0FF75
:1012F500900091E0FEEEB507037F0022900091E09B
:10130500FF04F074922FF582E43400F583E0FF903A
:101315000120E0FBA3E0FAA3E0F9EF1201BA900087
:1013250091E0FFEF541FFF900091EFF01214A4EF2E
:0313350004FF2290
:1014A400900090E0FF900091E0FEEEB507037F000E
:1014B40022900090E0FF900091E0FEEED39F401355
:1014C400900090E0FFEF2420FF900091E0FEC3EF36
:1014D4009EFF22900091E0FF900090E0FEC3EE9FFB
:0214E400FF22E5
:01004A002293
:10162200000004000000B0CE0001928A000246369B
:1016320000029BE20002F9D00003331E00034C4C6F
:081642000003D91A00041A4844
:0117A1002225
:10169800900135EFF0900135E0FFEF25E025E024DB
:0C16A80022F582E43416F58312030922B7
:05055D009000ECEFF03E
:100562001200039000ECE0FF1216989000C41203F0
:10057200199000C4E0FCA3E0FDA3E0FEA3E0FFEFBE
:10058200242AFFEE3400FEED3400FDEC3400FC12B0
:100592000FA712004E9000EDEFF012004E9000EE09
:1005A200EFF012004E9000EFEFF012004E9000F0CC
:1005B200EFF09000CD120325000000009000CDE086
:1005C200F8A3E0F9A3E0FAA3E0FB9000F0E0FFE477
:1005D200FCFDFEEB4FFFEA4EFEE94DFDE84CFC90C0
:1005E20000CD1203199000CDE0FCA3E0FDA3E0FED4
:1005F200A3E0FF78081202F69000CD1203199000D2
:10060200CDE0F8A3E0F9A3E0FAA3E0FB9000EFE06D
:10061200FFE4FCFDFEEB4FFFEA4EFEE94DFDE84C28
:10062200FC9000CD1203199000CDE0FCA3E0FDA3E5
:10063200E0FEA3E0FF78081202F69000CD12031943
:100642009000CDE0F8A3E0F9A3E0FAA3E0FB90006C
:10065200EEE0FFE4FCFDFEEB4FFFEA4EFEE94DFD4E
:10066200E84CFC9000CD1203199000CDE0FCA3E011
:10067200FDA3E0FEA3E0FF78081202F69000CD127F
:1006820003199000CDE0F8A3E0F9A3E0FAA3E0FBA0
:100692009000EDE0FFE4FCFDFEEB4FFFEA4EFEE9C9
:1006A2004DFDE84CFC9000CD1203199000ED740151
:1006B200F09000EEE4F09000C91203250000000063
:0906C2001217859000D17401F0BB
:0106CB00220C
:100E4B009000D1E0FFEF1203560E5E010E6202001E
:100E5B00000EC11215D1229000CDE0FCA3E0FDA342
:100E6B00E0FEA3E0FF9000C9E0F8A3E0F9A3E0FAED
:100E7B00A3E0FBC31202D270041200032212004E35
:100E8B0090012BEFF09000C9E0FCA3E0FDA3E0FE86
:100E9B00A3E0FF7B017A0079007800EF2BFFEE3A9D
:100EAB00FEED39FDEC38FC9000C91203197B017A79
:060EBB0001792B1207EA89
:010EC100220E
:0117A2002224
:100BF600FB330000000000000002030200000300B7
:100C06000000640100000000000000000000000079
:100C160000000000000000000000000000000000CE
:100C2600000063FB33000000000000000203020026
:100C360000010000000000000000000000000000AD
:100C4600000000000000000000000000000000009E
:100C5600000000000063FB0F00000000000000021F
:100C660001020000F1FB0F0000000000000002027C
:100C7600020000F0FB0F000000000000000202046A
:0B0C86000000EE0C5C0C6B0C7A0BF60F
:10164A007B017A00790990004CEBF0A3EAF0A3E958
:10165A00F07B017A007929900049EBF0A3EAF0A324
:08166A00E9F0900005E4F02214
:0508E700900123EFF079
:1008EC00900124E4F0900C2AE493FF900124E0FEA4
:1008FC00EEC39F5024900124E0FFEF900C2993FF4E
:10090C00900124E0FE744F2EF582E43400F583EF61
:10091C00F0900124E004F080CC90005D7401F09024
:10092C000123E0FF900061EFF0900125E4F09001CD
:10093C0024E4F0900C2AE493FFEF14FF900124E0E0
:10094C00FEEEC39F501F900124E0FF744F2FF582E1
:10095C00E43400F583E0FF900125E02FF0900124B2
:10096C00E004F080CE900125E0FFEFF4FF9001252C
:10097C00EFF0900125E004F0900125E0FF900124B8
:10098C00E0FE744F2EF582E43400F583EFF07B012A
:10099C007A00794F900002EBF0A3EAF0A3E9F09013
:1009AC00008F7401F0900008E4F0900002E0FBA3CB
:1009BC00E0FAA3E0F9900008E0FF8F827583001243
:0509CC00018DFF8F9971
:0109D1002203
:050DC1009000DDEFF0E1
:100DC6007BFF7A0C7989C003C002C0017B017A00DF
:100DD60079DEA801AC02AD03D001D002D0037E00BB
:100DE6007F0812014E9000DDE0FF7E00D3EF9403F2
:100DF600EE64809480504D9000DDE0FFEF25E02406
:100E0600DEF582E43400F583E0FEA3E0FFAA06A93E
:100E1600077BFF900002EBF0A3EAF0A3E9F0900055
:100E26008F7401F0900008E4F0900002E0FBA3E06C
:100E3600FAA3E0F9900008E0FF8F827583001201A3
:040E46008DFF8F99F4
:010E4A002285
:1006CC00900005E0FFEF20E7030207E9900005E04A
:1006DC00FFEF547FFF900005EFF0900049E0FBA383
:1006EC00E0FAA3E0F975820175830012018DFF9089
:1006FC000126EFF0900127E4F0900128E4F090013E
:10070C0026E0FF900128E0FEEEC39F5027900049A1
:10071C00E0FBA3E0FAA3E0F9900128E0FF8F8275DB
:10072C00830012018DFF900127E02FF0900128E04B
:10073C0004F080CA900127E0FFEF60030207E99004
:10074C000049E0FBA3E0FAA3E0F975820975830088
:10075C0012018DFFEF12035607E90107780207E932
:10076C000307E90907E912000007E922900049E0B4
:10077C00FBA3E0FAA3E0F975820A75830012018DE0
:10078C00FF7E00EF64064E7054900049E0FBA3E03E
:10079C00FAA3E0F975820E75830012018DFFEF123A
:1007AC00035607BE0107C90207D40307DF04000084
:1007BC0007E97F011216EA7F0612055D227F0212FD
:1007CC0016EA7F0512055D227F031216EA7F0712D7
:0D07DC00055D227F041216EA7F0812055DFC
:0107E90022ED
:100F380090008FE0FF7E00EF64014E706190000822
:100F4800E004FFF07E00EF64014E701E900002E0A6
:100F5800FBA3E0FAA3E0F9900008E0FF8F82758315
:100F68000012018DFF900000EFF0900000E0FFEF0D
:100F780014FF900008E0FEEED39F400790008F74A6
:100F880080F022900002E0FBA3E0FAA3E0F99000D1
:0E0F980008E0FF8F8275830012018DFF8F9994
:010FA6002228
:1009D200900136E599F0900136E0FF7E00EF64FB6E
:1009E2004E7005900006E4F0900006E0FF7E00EFF6
:1009F20064014E700A900136E0FF900001EFF09022
:100A02000136E0FF90004CE0FBA3E0FAA3E0F9908E
:100A12000006E0FE8E82758300EF1201CC90000684
:100A2200E004F0900006E0FF900001E0FEEE6F703F
:100A320079900005E0FFEF30E032900005E0FFEF33
:100A420054FEFF900005EFF07B017A0079099000D7
:100A52004CEBF0A3EAF0A3E9F07B017A007929904C
:100A62000049EBF0A3EAF0A3E9F08030900005E042
:100A7200FFEF4401FF900005EFF07B017A00792936
:100A820090004CEBF0A3EAF0A3E9F07B017A007945
:100A920009900049EBF0A3EAF0A3E9F0900005E029
:0A0AA200FFEF4480FF900005EFF025
:010AAC002227
:03179E00D29722BD
:100C91003097359000F5E0FF7E00D3EF9402EE64CB
:100CA10080948040189000F5E0FF7E00C3EF9465CA
:100CB100EE6480948050069000F77401F09000F685
:100CC100E4F09000F5E4F0229000F6E0FFEF12036B
:100CD100560CDC000CF70100000D289000F5E00433
:100CE100FFF07E00D3EF9402EE6480948040389050
:100CF10000F67401F0229000F5E004F09000F5E0B8
:100D0100FF7E00EF64644E70069000F77402F0906D
:100D110000F5E0FF7E00D3EF9464EE6480948040A0
:070D2100069000F57469F073
:010D280022A8
:101338009000F7E0FFEF60469000F7E0FF7E00EFD7
:1013480064014E70229000F8E0FF7E00EF64014EC9
:1013580070057F0A12055D9000F8E0FF7E00EF4EF1
:1013680070057F0112055D9000F7E0FF7E00EF64D5
:0F137800024E70057F0212055D9000F7E4F0222F
:09006E00475056544700FF006E94
:101758009000C3E4F09000C2E4F09000C1E4F022ED
:10037C007B017A0179371212E5EF700302055C906C
:10038C0000B2E0FFEF12035603A40003BD01045AB0
:10039C0002048A030000055C900137E0FFEF64243F
:1003AC00600302055C9000B2E004F09000B3E4F04E
:1003BC0022900137E0FF9000B3E0FE04F074B52EFC
:1003CC00F582E43400F583EFF09000B3E0FF7E009B
:1003DC00EF64054E600302055C9000B4E4F09000FD
:1003EC00B3E0FF9000B4E0FEEEC39F504090007469
:1003FC00E493FB740193FA740293F99000B4E0FF58
:10040C008F8275830012018DFF9000B4E0FE74B5ED
:10041C002EF582E43400F583E0FEEF6E6007900069
:10042C00B2E4F080089000B4E004F080B19000B425
:10043C00E0FF7E00EF64054E600302055C9000B3A4
:10044C00E4F09000B4E4F09000B2E004F0229001EB
:10045C0037E0FFEFB42C069000B3E004F09000B34B
:10046C00E0FF7E00EF64074E600302055C9000B372
:10047C00E4F09000B4E4F09000B2E004F0229001BB
:10048C0037E0FFEF642C600D900137E0FFEF642E36
:10049C0060030205409000B3E0FF7E00EF4E700356
:1004AC000205309000B3E0FF7E00EF64034E702C29
:1004BC009000B6E0FFEF75F00AA4FF9000B5E0FEE7
:1004CC00EE75F064A4FEEE2FFF9000B7E0FEEF2E69
:1004DC00FF9000C3EFF09000C274FFF09000B3E007
:1004EC00FF7E00EF64024E701E9000B5E0FFEF75CA
:1004FC00F00AA4FF9000B6E0FEEF2EFF9000C3EFD1
:10050C00F09000C274FFF09000B3E0FF7E00EF6447
:10051C00014E70109000B5E0FF9000C3EFF090001A
:10052C00C274FFF09000B3E4F09000B4E4F09000DB
:10053C00B2E4F022900137E0FFEF24D0FF9000B33B
:10054C00E0FE04F074B52EF582E43400F583EFF090
:01055C00227C
:061793009000C1E0FF22FE
:101416009000C2E0FFEF60189000C2E4F09000BFB9
:10142600E4F0A3E4F09000C3E0FF9000C1EFF022E7
:101436009000BFE475F0011201EEAFF0FED3EF9419
:10144600B8EE940B40109000BF740BF0A374C2F07A
:061456009000C174FFF0DC
:01145C00226D
:0400770012037C22D2
:1011BF009000F9120319538EF7438901D28C7F00E7
:1011CF007E007D007C009000F9E0F8A3E0F9A3E039
:1011DF00FAA3E0FBC31202D26035758A7E758CFFCD
:1011EF00308DFDC28D9000F9E0FCA3E0FDA3E0FE81
:1011FF00A3E0FF7BFF7AFF79FF78FFEF2BFFEE3A3B
:10120F00FEED39FDEC38FC9000F912031980AFC2E6
:02121F008C221F
:101221009000FD120319538EF7438901D28C7F0080
:101231007E007D007C009000FDE0F8A3E0F9A3E0D2
:10124100FAA3E0FBC31202D26035758ACA758CFA23
:10125100308DFDC28D9000FDE0FCA3E0FDA3E0FE1A
:10126100A3E0FF7BFF7AFF79FF78FFEF2BFFEE3AD8
:10127100FEED39FDEC38FC9000FD12031980AFC280
:021281008C22BD
:10128300900101120319538EEF438910D28E7F0010
:101293007E007D007C00900101E0F8A3E0F9A3E06B
:1012A300FAA3E0FBC31202D26035758BEA758DCBCE
:1012B300308FFDC28F900101E0FCA3E0FDA3E0FEAF
:1012C300A3E0FF7BFF7AFF79FF78FFEF2BFFEE3A76
:1012D300FEED39FDEC38FC90010112031980AFC219
:0212E3008E2259
:10115A0090010512031953C9BF53C9DF43C910D2FD
:10116A00CA7F007E007D007C00900105E0F8A3E0C4
:10117A00F9A3E0FAA3E0FBC31202D2603575CC30C2
:10118A0075CDF830CFFDC2CF900105E0FCA3E0FD9C
:10119A00A3E0FEA3E0FF7BFF7AFF79FF78FFEF2B46
:1011AA00FFEE3AFEED39FDEC38FC90010512031909
:0511BA0080AFC2CA2253
:1010820090010912031975C40743C4087F007E004A
:101092007D007C00900109E0F8A3E0F9A3E0FAA347
:1010A200E0FBC31202D2604075C52C75C6CFE5C401
:1010B2005410FF7E00EF64104E70F353C4EF9001A2
:1010C20009E0FCA3E0FDA3E0FEA3E0FF7BFF7AFFC3
:1010D20079FF78FFEF2BFFEE3AFEED39FDEC38FC9D
:0C10E20090010912031980A453C4F722E6
:1010EE0090010D12031975C40743C4087F007E00DA
:1010FE007D007C0090010DE0F8A3E0F9A3E0FAA3D7
:10110E00E0FBC31202D2604075C5D875C6FFE5C4B8
:10111E005410FF7E00EF64104E70F353C4EF900135
:10112E000DE0FCA3E0FDA3E0FEA3E0FF7BFF7AFF52
:10113E0079FF78FFEF2BFFEE3AFEED39FDEC38FC30
:0C114E0090010D12031980A453C4F72275
:10145D0090011112031953B1BF53B2BF53B17F5352
:10146D00B27F759850438920438780438E1053C4B3
:10147D00DF900111E0F8A3E0F9A3E0FAA3E0FB7F10
:10148D00407E427D0F7C00120240EF04FFEFF4041A
:07149D00F58DD28ED29922D9
:100B590090011512031953B1BF53B2BF53B17F535B
:100B6900B27F75985043878053C4F843C4209001DD
:100B790015E0F8A3E0F9A3E0FAA3E0FB7F407E4289
:100B89007D0F7C00120240A804A905AA06AB07C381
:100B990074FF9BFF74FF9AFEE499FDE498FC7808C2
:100BA9001202E38FC6900115E0F8A3E0F9A3E0FA79
:100BB900A3E0FB7F407E427D0F7C00120240A80427
:100BC900A905AA06AB07C374FF9BFF74FF9AFEE44D
:100BD90099FDE498FCEF54FFFFEE5400FEED54003C
:0D0BE900FDEC5400FC8FC543C408D29922D6
:101736003098FD900138E599F0C298900138E0FFA5
:011746002280
:10170100900139EFF0C299900139E0FF8F9930993A
:02171100FD22B7
:100D290090011912031953B1FB53B2FB53B3BF53CB
:100D3900B4BF75F85075C40853C4DF900119E0F8C1
:100D4900A3E0F9A3E0FAA3E0FB7F407E427D0F7C9C
:100D590000120240A804A905AA06AB07C374FF9BA9
:100D6900FF74FF9AFEE499FDE498FC78081202E307
:100D79008FC6900119E0F8A3E0F9A3E0FAA3E0FB1C
:100D89007F407E427D0F7C00120240A804A905AA7B
:100D990006AB07C374FF9BFF74FF9AFEE499FDE459
:100DA90098FCEF54FFFFEE5400FEED5400FDEC54A7
:080DB90000FC8FC543C40822B1
:1017470030F8FD90013AE59AF0C2F890013AE0FFCF
:01175700226F
:1017130090013BEFF0C2F990013BE0FF8F9A30F963
:02172300FD22A5
:03000000020AAD44
:100AAD0075C7AA75C75575FD5A75C7AA75C755750A
:100ABD00FDA5787FE4F6D8FD9000007FFF7E03E46E
:0C0ACD00F0A3DFFCDEFA758120020B14A0
:100AD900021015E493A3F8E493A34003F68001F20E
:100AE90008DFF48029E493A3F85407240CC8C3331E
:100AF900C4540F4420C8834004F456800146F6DFED
:100B0900E4800B0102040810204080901799E47ECC
:100B1900019360BCA3FF543F30E509541FFEE493E1
:100B2900A360010ECF54C025E060A840B8E493A3A8
:100B3900FAE493A3F8E493A3C8C582C8CAC583CAD3
:100B4900F0A3C8C582C8CAC583CADFE9DEE780BE8B
:01179D00004B
:10007E00E709F608DFFA8046E709F208DFFA803E64
:10008E0088828C83E709F0A3DFFA8032E309F60851
:10009E00DFFA8078E309F208DFFA807088828C83B9
:1000AE00E309F0A3DFFA806489828A83E0A3F6086D
:1000BE00DFFA805889828A83E0A3F208DFFA804C47
:1000CE0080D280FA80C680D4806980F2803380101E
:1000DE0080A680EA809A80A880DA80E280CA803387
:1000EE0089828A83ECFAE493A3C8C582C8CCC583FF
:1000FE00CCF0A3C8C582C8CCC583CCDFE9DEE780CF
:10010E000D89828A83E493A3F608DFF9ECFAA9F04D
:10011E00EDFB2289828A83ECFAE0A3C8C582C8CCA3
:10012E00C583CCF0A3C8C582C8CCC583CCDFEADEBC
:10013E00E880DB89828A83E493A3F208DFF980CC1E
:10014E0088F0EF60010E4E60C388F0ED2402B40417
:10015E000050B9F582EB2402B4040050AF232345BE
:06016E0082239000CE7315
:10017400BB010689828A83E0225002E722BBFE0289
:09018400E32289828A83E49322BC
:10018D00BB010CE58229F582E5833AF583E0225027
:10019D0006E92582F8E622BBFE06E92582F8E22271
:0D01AD00E58229F582E5833AF583E493228B
:1001BA00BB010689828A83F0225002F722BBFE0124
:0201CA00F3221E
:1001CC00F8BB010DE58229F582E5833AF583E8F069
:1001DC00225006E92582C8F622BBFE05E92582C815
:0201EC00F222FD
:1001EE00C5F0F8A3E028F0C5F0F8E582158270029C
:0601FE001583E038F02239
:1002040075F008758200EF2FFFEE33FECD33CDCCB1
:1002140033CCC58233C5829BED9AEC99E582984034
:100224000CF582EE9BFEED9AFDEC99FC0FD5F0D611
:10023400E4CEFBE4CDFAE4CCF9A88222B800C1B93B
:100244000059BA002DEC8BF084CFCECDFCE5F0CB79
:10025400F97818EF2FFFEE33FEED33FDEC33FCEBB2
:1002640033FB10D703994004EB99FB0FD8E5E4F96D
:10027400FA227818EF2FFFEE33FEED33FDEC33FC5A
:10028400C933C910D7059BE99A4007EC9BFCE99A4E
:10029400F90FD8E0E4C9FAE4CCFB2275F010EF2F93
:1002A400FFEE33FEED33FDCC33CCC833C810D70793
:1002B4009BEC9AE899400AED9BFDEC9AFCE899F8CE
:0E02C4000FD5F0DAE4CDFBE4CCFAE4C8F92261
:1002D200EB9FF5F0EA9E42F0E99D42F0E89C45F082
:0102E20022F9
:1002E300E8600FECC313FCED13FDEE13FEEF13FFF9
:0302F300D8F1221D
:1002F600E8600FEFC333FFEE33FEED33FDEC33FC66
:03030600D8F12209
:10030900E493FC740193FD740293FE740393FF223A
:0C031900ECF0A3EDF0A3EEF0A3EFF02257
:10032500A8828583F0D083D08212033C12033C124D
:10033500033C12033CE473E493A3C583C5F0C58372
:10034500C8C582C8F0A3C583C5F0C583C8C582C822
:010355002285
:10035600D083D082F8E4937012740193700DA3A336
:1003660093F8740193F5828883E47374029368604A
:06037600EFA3A3A380DF4A
:00000001FF
