:100921001217F57FC87E007D007C00121509120F99
:10093100897F011219E2900122E475F0011201EEA2
:10094100FED3E5F09458EE94024009E4900122F0C0
:10095100A3F0801E900126E0700E12006E12007A44
:1009610012190C1217B380EC1212A2E4900126F0B6
:1009710080C47F0412137E900122E475F0011201FC
:10098100EEFED3E5F094D0EE94074009E490012205
:10099100F0A3F08018900126E0700B12006E120097
:1009A1007A12190C80EFE4900126F080CA121B0D17
:1009B100E4FF12137EE4900125F0900122E475F02A
:1009C10001120204FED3E5F094C8EE94004061E404
:1009D100900122F0A3F0121BB19000F1EFF0F4703E
:1009E1002F121AF7EF64017014900125E004F0D37F
:1009F100940F7480948040387410F08033900124F7
:100A0100E0702D04F0FF121BABE4900125F0802073
:100A1100E4900124F09000F1E0D394047480948078
:100A2100E49001254005F07F018002F0FF121BAB2D
:100A3100900126E0701712006E12007A121BC91283
:100A4100066A1217B312190C121BC680E31212A206
:100A5100120EE71215651211B9120A65E49001260A
:040A6100F00209BBDB
:1017F500E4F5B1F5B2F5B3F5B4F5ACF5ADC285C216
:1018050094D292C29112004E121AFD121B1D121192
:1018150043121A0A12002612193C1218A9121B6447
:0E182500121AC943B21843B408D283D2AF22BC
:041BB7004101430A9B
:10004E005389F0438901438E0890014474C1F0A393
:0D005E007480F0758CC1F58AD2A9D28C2275
:03000B0002199245
:06199200C0E0C083C0822A
:10199800900144E0F58CA3E0F58A900143E014F04F
:0B19A8007009740AF090012674FFF033
:0719B300D082D083D0E032A6
:101AFD00C2AC7F007EC27D017C00121870D2AC2278
:101B0D00C2AC7F807E257D007C00121870D2AC2285
:030023000217249D
:10172400C0E0C0F0C083C082C0D075D000C000C08B
:1017340001C002C003C004C005C006C0073099053B
:101744001215C0C2993098051210B4C298D007D0AF
:1017540006D005D004D003D002D001D000D0D0D020
:0817640082D083D0F0D0E03206
:0F1B1D007F807E257D007C00121310439C0122E7
:03007B0002176CFD
:10176C00C0E0C0F0C083C082C0D075D000C000C043
:10177C0001C002C003C004C005C006C00730F90296
:10178C00C2F930F807C2F8AF9A1219BAD007D006CE
:10179C00D005D004D003D002D001D000D0D0D0825C
:0717AC00D083D0F0D0E03241
:08000300C2F98F9A30F9FD22C9
:10114300A2AF9200C2AF75C7AA75C75543910143B9
:10115300C60875C7AA75C7555391FEA20092AF433F
:10116300B210538EBFA2AF920075C7AA75C755754B
:10117300910153B7F843B70375C7AA75C755E4F58B
:1011830091A20092AFA2AF920075C7AA75C7557519
:10119300910143B71053D8DF75C7AA75C755F591A9
:1011A300A20092AF75D104F5D9F5D575DD01539B36
:0611B300F7C2DEC2DF22DC
:03006B0002000E82
:10000E00C0E0C083C082C2DD90014874FFF0D08290
:05001E00D083D0E032A8
:0E1B4A00E4F5D575DD01439B08D2DED2DF2223
:081B7700539BF7C2DFC2DD221F
:101A5300120174FF7E00D394FFEE940340047E03CF
:101A63007FFFEF4E7003FE7F018FDDEEF5D5D2DEF3
:011A73002250
:101A7400AFDDEF6480700DAFD5EF70089000C874CF
:101A840002F0800905DDAFDDEF700205D5D2DE225C
:0C006E00900148E06005E4F0120E402212
:101A0A0043F40853F37F53F3DF53F3F753F3FB43E2
:101A1A00F31053F3FE53F3FD539BBFD29553F3BF19
:061A2A00E4900106F02229
:0C1B58008FF5E5F4548060FA53F47F220E
:0E1B2C00E4F5F5E5F4548060FAAFF553F47F6C
:011B3A002288
:03004B00021A9402
:101A9400C0E0C083C082E5F430E70990010E74FF12
:0B1AA400F053F47FD082D083D0E032FA
:1013E800900100120335D295900100E0FCA3E0FDC6
:1013F800A3E0FEA3E0FF781012030F90010AEFF0BC
:10140800900100E0FCA3E0FDA3E0FEA3E0FF780864
:1014180012030F900109EFF0900100A3A3A3E0903D
:101428000108F0C29543F3407F03121B5890010A4C
:10143800E0FF121B58900109E0FF121B58900108A9
:05144800E0FF021B584B
:0E1B3B00E4F5F5E5F4548060FAAFF553F47F5D
:011B49002279
:061B9F00D29553F3BF22B2
:01007A002263
:10002600E4FFEFC3942074809480500F749A2FF5E8
:1000360082E43400F583E4F00F80E7E4900099F061
:04004600900098F09E
:01004A002293
:1019BA00900098E004541FFEA3E06E601A9000980D
:1019CA00E0FE04F0749A2EF582E43400F583EFF019
:0819DA00900098E0541FF02278
:1018DC00900098E0FFA3E0B507037F0022900099E9
:1018EC00E0FF04F0749A2FF582E43400F583E012E3
:1018FC0001BA900099E0541FF0121968EF04FF220E
:10196800900098E0FEA3E0FDB506037F0022EDD3CA
:101978009E400A900098E02420C39DFF2290009981
:0A198800E0FF900098E0C39FFF22EB
:011BC90022F9
:101ADB00EF64017004D2948002C2949000C3EFF0C3
:011AEB0022D8
:061BA5009000C3E0FF22E6
:1018A900E49000CAF09000CAE0FFC39408748094E1
:1018B90080501474CB2FF582E43400F583E4F09062
:1018C90000CAE004F080DEE49000C9F0A3F07F02D2
:0318D900021ADB15
:011BCA0022F8
:011BCB0022F7
:050372009000F7EFF020
:100377007E00D394007480948050030204F4EF94B9
:100387000E7480948040030204F49000FC12034131
:10039700000000009000FCE0F8A3E0F9A3E0FAA356
:1003A700E0FB9000F7E0FFEB4FFFEAFEE9FDE8FC1A
:1003B7009000FC1203359000FCE0FCA3E0FDA3E0F5
:1003C700FEA3E0FF78041203229000FC120335908D
:1003D70000FCE0FCA3E0FDA3E0FEA3E0FF1213E8AE
:1003E700121B3B9000F8EFF0121B3B9000F9EFF067
:1003F700121B3B9000FAEFF0121B3B9000FBEFF053
:10040700121B9F9000FC120341000000009000FCAB
:10041700E0F8A3E0F9A3E0FAA3E0FB9000FBE0FF1C
:10042700EB4FFFEAFEE9FDE8FCA31203359000FC61
:10043700E0FCA3E0FDA3E0FEA3E0FF78081203229F
:100447009000FC1203359000FCE0F8A3E0F9A3E06C
:10045700FAA3E0FB9000FAE0FFEB4FFFEAFEE9FDAD
:10046700E8FC9000FC1203359000FCE0FCA3E0FDE3
:10047700A3E0FEA3E0FF78081203229000FC12031A
:10048700359000FCE0F8A3E0F9A3E0FAA3E0FB90C5
:1004970000F9E0FFEB4FFFEAFEE9FDE8FC9000FC06
:1004A7001203359000FCE0FCA3E0FDA3E0FEA3E00F
:1004B700FF78081203229000FC1203359000FCE03D
:1004C700F8A3E0F9A3E0FAA3E0FB9000F8E0FFEB64
:1004D7004FFFEAFEE9FDE8FC9000FC1203359000AF
:1004E700FCE0FCA3E0FDA3E0FEA3E0FF22E4FFFEA7
:0204F700FDFC0A
:0104F90022E0
:1019E2009000CAE004540FFE9000C9E06E6018A394
:1019F200E0FE04F074CB2EF582E43400F583EFF0C0
:081A02009000CAE0540FF0222D
:0507D0009000F2EFF0C3
:1007D5007F01121ADB121B779000F2E0FF12037201
:1007E5009000BA1203359000BAE0FCA3E0FDA3E047
:1007F500FEA3E0242AFFE43EFEE43DFDE43CFC12BA
:1008050013E8121B3B9000F3EFF0121B3B9000F432
:10081500EFF0121B3B9000F5EFF0121B3B9000F63A
:10082500EFF09000C4120341000000009000C4E006
:10083500F8A3E0F9A3E0FAA3E0FB9000F6E0FFEBF4
:100845004FFFEAFEE9FDE8FC9000C4120335900075
:10085500C4E0FCA3E0FDA3E0FEA3E0FF78081203DB
:10086500229000C41203359000C4E0F8A3E0F9A378
:10087500E0FAA3E0FB9000F5E0FFEB4FFFEAFEE9AD
:10088500FDE8FC9000C41203359000C4E0FCA3E031
:10089500FDA3E0FEA3E0FF78081203229000C41236
:1008A50003359000C4E0F8A3E0F9A3E0FAA3E0FB68
:1008B5009000F4E0FFEB4FFFEAFEE9FDE8FC900055
:1008C500C41203359000C4E0FCA3E0FDA3E0FEA341
:1008D500E0FF78081203229000C41203359000C48B
:1008E500E0F8A3E0F9A3E0FAA3E0FB9000F3E0FF52
:1008F500EB4FFFEAFEE9FDE8FC9000C4120335E486
:100905009000F3F0A37402F09000BF1203410000C1
:0B0915000000121B4A9000C87401F0A3
:0109200022B4
:100E40009000C8E024FE601314606C147003020E5E
:100E5000D824036003020EE6021A749000C4E0FC7A
:100E6000A3E0FDA3E0FEA3E0FF9000BFE0F8A3E055
:100E7000F9A3E0FAA3E0FBC31202FE70079000C8DA
:100E80007403F022121BCB121B3B9000F2EFF09088
:100E900000BFE0FCA3E0FDA3E0FEA3E02401FFE42B
:100EA0003EFEE43DFDE43CFC9000BF1203357B01B7
:100EB0007A0079F2021A53AFDDEF6401700DAFD5FD
:100EC000EF70089000C87404F0800A15DDAFDDEF04
:100ED000F4700215D5D2DE227F02121ADB121BCA71
:060EE000121B9F121B779C
:010EE60022E9
:10190C009000C9E0FFA3E06F6025121BA5EF6402F5
:10191C00701D9000C9E0FF04F074CB2FF582E43405
:10192C0000F583E0FF1207D09000C9E0540FF022BD
:100CE400FB330000000000000002030200000300C8
:100CF400000064010000000000000000000000008B
:100D040000000000000000000000000000000000DF
:100D1400000063FB33000000000000000203020037
:100D240000010000000000000000000000000000BE
:100D340000000000000000000000000000000000AF
:100D4400000000000063FB0F000000000000000230
:100D540001020000F1FB0F0000000000000002028D
:100D6400020000F0FB0F000000000000000204027B
:100D74000000EEFB1300000000000000090509005C
:100D84000080250000360D4A0D590D680CE40D77DE
:061BAB00900007EFF0229C
:0B1AEC009000067401F0E4900002F08E
:061AF700900007E0FF2251
:10193C009000537401F0A37400F0A37410F09000A5
:10194C00507401F0A37400F0A37430F0E490000C18
:0C195C00F0C293900006F07F01021BAB6C
:10102500E4FE900D18E493FDEEC39D5015EE900D72
:101035001793FD74572EF582E43400F583EDF00E19
:1010450080E09000657401F0900069EFF0E4FFFE28
:10105500900D18E49314FDEEC39D501074572EF5B2
:1010650082E43400F583E02FFF0E80E4EFF4FF0FF8
:1010750074572EF582E43400F583EFF0900009747F
:1010850001F0A37400F0A37457F09000977401F079
:10109500E490000FF0900009E0FBA3E0FAA3E0F96B
:0E10A50090000FE0F58275830012018DF59921
:0110B300221A
:051BBC007F640210250A
:051BC1007F0302102566
:05137E009000F2EFF009
:1013830078F37C007D017BFF7A0D798A7E007F0AEA
:1013930012014E9000F2E0FFD394047480948050C5
:1013A30043EF25E024F3F582E43400F583E0FEA364
:1013B300E0AA06F990000974FFF0A3EAF0A3E9F0AC
:1013C3009000977401F0E490000FF0900009E0FBA7
:1013D300A3E0FAA3E0F990000FE0F5827583001211
:0413E300018DF599EA
:0113E70022E3
:10156500900056E06054900000E0B4010AA3E0B496
:1015750090057F0212137E900000E0B4010AA3E0FB
:10158500B4A905E4FF12137E900000E475F0011282
:1015950001EEFED3E5F094C2EE9401401DE4900007
:1015A50000F0A3F0900005E0600BE4900056F0C257
:0A15B500937F0480027F031219E205
:0115BF002209
:10066A0090000CE020E7030207CF547FF09000507F
:10067A00E0FBA3E0FAA3E0F990000112018DFFE488
:10068A00FEFDEDC39F5018900050E0FBA3E0FAA3D3
:10069A00E0F98D8275830012018D2EFE0D80E3EE46
:1006AA0060030207CF900050E0FBA3E0FAA3E0F951
:1006BA0090000912018D24F7700302078324F77052
:1006CA000302079E241060030207CF90000A12015A
:1006DA008D640660030207CF900056E060030207AC
:1006EA00CF90000E12018D24FE601C146028146045
:1006FA0064240360030207CF121AECEF640160035B
:10070A000207CF7F06806F121AECEF6401600302C2
:10071A0007CF7F0580609000067401F0121AF7EF88
:10072A00640160030207CF900002E01460131460B2
:10073A001414601114601A14601724056003020768
:10074A00CF7F0780027F091219E2900002E004F0CD
:10075A00227F0B80219000067401F0121AF7EF64D1
:10076A00017062900002E0D3940274809480400485
:10077A007F0B80027F080219E2900050E0FBA3E0A1
:10078A00FAA3E0F990000A12018D64017037900013
:10079A000804F022900050E0FBA3E0FAA3E0F990ED
:1007AA00000A12018D6404701C90000B12018D6402
:1007BA0002701290000D12018D700A90000E120143
:0507CA008D900005F018
:0107CF002207
:1015C000900097E06401705090000FE004F0640117
:1015D000701B900009E0FBA3E0FAA3E0F990000F74
:1015E000E0F58275830012018D900003F0900003F6
:1015F000E014FF90000FE0FED39F40079000977427
:1016000080F022900009E0FBA3E0FAA3E0F98E82CB
:0816100075830012018DF599AC
:0116180022AF
:1010B400AF99EF64FB700490000DF090000DE0FE1A
:1010C40064017005900004EFF0900053E0FBA3E08E
:1010D400FAA3E0F98E82758300EF1201CC90000D23
:1010E400E004F0E0FF900004E06F705290000CE028
:1010F40030E02154FEF09000537401F0A37400F02A
:10110400A37410F09000507401F0A37400F0A37461
:1011140030F0802390000CE04401F09000537401FF
:10112400F0A37400F0A37430F09000507401F0A3A5
:0E1134007400F0A37410F090000CE04480F002
:01114200228A
:0A1B6400D297900115E04401F02231
:1012A20030972790010FE0FFD3940574809480401B
:1012B2000FEF94DD7480948050069001147401F055
:1012C200E4900110F090010FF022900110E0146000
:1012D2001704703990010FE004F0D39405748094E0
:1012E20080402AA37401F02290010FE004F0E0FF95
:1012F2007E0064DC70069001147402F0D3EF94DC7B
:0D130200EE64809480400690010F74E1F0CD
:01130F0022BB
:1017B300900114E0603B64017017A3E064017003BF
:1017C3007480F0900115E070087481F07F011219A4
:1017D300E2900114E064027013A3E06401700D90C1
:1017E300005674FFF0D2937F021219E2E4900114C1
:0217F300F022E2
:1011B900900115E030E709547FF09001117401F0B6
:1011C900900111E0605F24FE601C14601C14603300
:1011D9002403704C900115E090011130E004740271
:1011E900F0227403F022021AAF90011374AAF012CC
:1011F90018A97F0A1219E27F0112137E9001117456
:1012090004F022900112E0FF04F0D3EF94FB748004
:1012190094804011E4F0C283C292C293C2948001C7
:05122900E4900111F04A
:01122E00229D
:091B6E00475056544700FF1B6E5E
:101AC900E49000F0F09000EFF09000EDF09000EC61
:021AD900F022F9
:1004FA007B017A0079F21218DCEF70030206699028
:10050A0000DBE01460281470030205AD14700302C6
:10051A0005CF240360030206699000F2E0642460B8
:10052A00030206699000DBE004F0E4A3F0229000E5
:10053A00F2E0FF9000DCE0FE04F074DE2EF582E4C7
:10054A003400F583EFF09000DCE0640560030206F6
:10055A0069A3F09000DCE0FFA3E0FEC39F50349053
:10056A001B74E493FB740193FA740293F98E8275F7
:10057A00830012018DFF74DE2EF582E43400F583C8
:10058A00E06F6007E49000DBF080089000DDE00493
:10059A00F080C09000DDE064056003020669900007
:1005AA00DC80189000F2E0B42C069000DCE004F045
:1005BA009000DCE064076003020669F0A3F0900093
:1005CA00DBE004F0229000F2E0FF642C6005EF64A7
:1005DA002E70729000DCE0FF605F9000EE7424F0F1
:1005EA00EF640370229000DFE075F00AA4FF900028
:1005FA00DEE075F064A42FFF9000E0E02F9000F099
:10060A00F09000EF74FFF09000DCE0FB64027016DB
:10061A009000DEE075F00AA4FEA3E02E9000F0F050
:10062A009000EF74FFF0EB6401700E9000DEE09032
:10063A0000F0F09000EF74FFF0E49000DCF0A3F01B
:10064A009000DBF0229000F2E024D0FF9000DCE082
:0F065A00FE04F074DE2EF582E43400F583EFF039
:01066900226E
:061BB1009000EDE0FF22B0
:101A30009000ECE06402701A900115E030E0139021
:101A400000E8E004F0D39464748094804004E4F0EF
:021A5000B29250
:011A52002271
:100EE7009000EFE06012E4F09000E9F0A3F09000CA
:100EF700F0E09000EDF080249000E9E475F0011235
:100F070001EEFED3E5F094A0EE9400400F9000E9C7
:100F1700E4F0A374AAF09000ED74FFF09000EBE00A
:100F270004F0D394A0748094804054E4F0A3E06468
:100F370001700D9000EEE0B42404E4F08041802FAE
:100F47009000ECE0640270109000EEE0B4240280A0
:100F57000EE49000EEF080279000EEE0B42410E459
:100F6700F09000EC04F07F0C1219E2D2928010E4AA
:100F77009000EEF09000EC7402F07F0D1219E2027F
:020F87001A301E
:031BC6000204FA1C
:101833001234000054686973206669726D776172AF
:1018430065207772697465206279204A75737469BB
:101853006E5A686F75203C6A757374696E2E7A6868
:0D1863006F7533304071712E636F6D3E0064
:100B500090011812034100000000E4900146F0A348
:100B6000F0900116F0A3F0901833E493FE74019313
:100B7000FFC3900117E09FEE6480F8900116E064D7
:100B80008098504D900118E0F8A3E0F9A3E0FAA393
:100B9000E0FB900116E0FEA3E0FF900146E0FCA31D
:100BA000E02FF582EC3EF583E493FFE4FCFDFEEBE1
:100BB0002FFFEE3AFEED39FDEC38FC9001181203E0
:100BC00035900117E004F0709E900116E004F0806B
:100BD00096900118E0FCA3E0FDA3E0FEA3E0FFC0B7
:100BE00006C007901835E493FE740193FBAA06EA49
:100BF0003395E0F9F8D007D006C3EF9BFFEE9AFEDD
:100C0000ED99FDEC98FC900118120335901835E42D
:100C100093FE740193FFEE3395E0FDFC900118E024
:100C2000F8A3E0F9A3E0FAA3E0FBC31202E8600234
:020C300080FE44
:010C3200229F
:100F89007F007E037D007C001213E8E49000F2F0FC
:100F99009000F2E0C39439748094805016121B3B80
:100FA9009000F2E090183793B507089000F2E0043A
:100FB900F080DD9000F2E0C394397480948050028F
:100FC90080FE7F807E037D007C001213E8E49000A0
:100FD900F2F09000F2E0C3941474809480500B12E4
:100FE9001B3B9000F2E004F080E8121B3BEF644FDA
:100FF900600280FEE49000F2F09000F2E0C39407F2
:1010090074809480500B121B3B9000F2E004F08036
:0B101900E8121B3BEF6454600280FEF5
:0110240022A9
:100A650090011CE475F0011201EEFED3E5F094C48B
:100A7500EE9409402DE490011CF0A3F0900113E0E1
:100A850064AA700590000804F0900008E06008E48E
:100A9500F0900121F0800B9001217401F0E49001A8
:100AA50020F0900121E07003020B4F900120E0B48B
:100AB50007004003020B4F900AC3F8282873020A67
:100AC500D8020AE6020AFD020B01020B18020B27E7
:100AD500020B44C283E490011EF0A3F0121AFD80BC
:100AE5005990011EE475F0011201EEFED3E5F09474
:100AF50064EE940040548042D283801C90011EE431
:100B050075F0011201EEFED3E5F094F4EE94014088
:100B15003980277F0412137EE490011EF0A3F0A311
:100B2500802590011EE475F0011201EEFED3E5F07B
:100B35009478EE94054013121B0D9001208008E473
:0A0B4500FF12137E900120E004F07F
:010B4F002283
:10161900900127120335538EF7438901D28CE4FFD9
:10162900FEFDFC900127E0F8A3E0F9A3E0FAA3E0AE
:10163900FBC31202FE602F758A7E758CFF308DFD0B
:10164900C28D900127E0FCA3E0FDA3E0FEA3E02406
:10165900FFFFEE34FFFEED34FFFDEC34FFFC90019B
:091669002712033580B8C28C225F
:1016720090012B120335538EF7438901D28CE4FF7C
:10168200FEFDFC90012BE0F8A3E0F9A3E0FAA3E051
:10169200FBC31202FE602F758ACA758CFA308DFD6B
:1016A200C28D90012BE0FCA3E0FDA3E0FEA3E024A9
:1016B200FFFFEE34FFFEED34FFFDEC34FFFC900142
:0916C2002B12033580B8C28C2202
:1016CB0090012F120335538EEF438910D28EE4FF16
:1016DB00FEFDFC90012FE0F8A3E0F9A3E0FAA3E0F4
:1016EB00FBC31202FE602F758BEA758DCB308FFD1D
:1016FB00C28F90012FE0FCA3E0FDA3E0FEA3E0244A
:10170B00FFFFEE34FFFEED34FFFDEC34FFFC9001E8
:09171B002F12033580B8C28E22A2
:101509009000F212033553C9BF53C9DF43C910D242
:10151900CAE4FFFEFDFC9000F2E0F8A3E0F9A3E0C5
:10152900FAA3E0FBC31202FE602F75CC3075CDF82B
:1015390030CFFDC2CF9000F2E0FCA3E0FDA3E0FEB6
:10154900A3E024FFFFEE34FFFEED34FFFDEC34FF92
:0C155900FC9000F212033580B8C2CA22D8
:10144D0090013312033575C40743C408E4FFFEFD54
:10145D00FC900133E0F8A3E0F9A3E0FAA3E0FBC3AD
:10146D001202FE603575C52C75C6CFE5C4541064E7
:10147D001070F853C4EF900133E0FCA3E0FDA3E03E
:10148D00FEA3E024FFFFEE34FFFEED34FFFDEC3450
:0E149D00FFFC90013312033580B253C4F722D6
:1014AB0090013712033575C40743C408E4FFFEFDF2
:1014BB00FC900137E0F8A3E0F9A3E0FAA3E0FBC34B
:1014CB001202FE603575C5D875C6FFE5C4541064AD
:1014DB001070F853C4EF900137E0FCA3E0FDA3E0DC
:1014EB00FEA3E024FFFFEE34FFFEED34FFFDEC34F2
:0E14FB00FFFC90013712033580B253C4F72274
:1018700053B1BF53B2BF53B17F53B27F759850433A
:101880008920438780438E1053C4DFAB07AA06A983
:1018900005A8047F407E427D0F7C00120256EF04B3
:0918A000F404F58DD28ED29922D8
:10122F0090013B12033553B1BF53B2BF53B17F533C
:10123F00B27F75985043878053C4F843C420900100
:10124F003BE0F8A3E0F9A3E0FAA3E0FB7F407E4286
:10125F007D0F7C00120256C374FF9FFF74FF9EFE2A
:10126F00E49DFDE49CFC780812030F8FC690013BB0
:10127F00E0F8A3E0F9A3E0FAA3E0FB7F407E427D14
:10128F000F7C00120256C374FF9FFF8FC543C40823
:03129F00D29922BF
:071B7F003098FDAF99C298F8
:011B8600223C
:081B8700C2998F993099FD22EB
:101310009000F212033553B1FB53B2FB53B3BF53EA
:10132000B4BF75F85075C40853C4DF9000F2E0F8FC
:10133000A3E0F9A3E0FAA3E0FB7F407E427D0F7CAF
:1013400000120256C374FF9FFF74FF9EFEE49DFDD2
:10135000E49CFC780812030F8FC69000F2E0F8A31B
:10136000E0F9A3E0FAA3E0FB7F407E427D0F7C0022
:0E137000120256C374FF9FFF8FC543C40822AC
:071B8F0030F8FDAF9AC2F827
:011B9600222C
:081B9700C2F98F9A30F9FD221A
:101AAF0075C7AA75C755A2AF9200C2AF75C7AA7501
:0A1ABF00C755439F80A20092AF229A
:100C3300A2AF9200C2AF75C7AA75C755439F01A261
:100C43000092AF75A630E4F5A775AF04A2AF92008A
:100C5300C2AF75C7AA75C75543A401A20092AF904E
:100C63000141E5AEF075A631E4F5A7A2AF9200C24B
:100C7300AF75C7AA75C75543A401A20092AFA3E5F8
:100C8300AEF0A2AF9200C2AF75C7AA75C755539F06
:100C9300FEA20092AF900141E025E0FFE433FEA302
:100CA300E054017C002FFFEC3E90013FF0A3EFF0F6
:100CB300E024F1F090013FE034FFF0E0FEA3E0FF19
:100CC3005401FD900142F0EEC313EF13900141F084
:100CD30075C7AA75C755F58475C7AA75C7558D8598
:010CE30022EE
:03000000020D945A
:100D940075C7AA75C75575FD5A75C7AA75C7557520
:100DA400FDA5787FE4F6D8FD9000007FFF7E03E484
:0C0DB400F0A3DFFCDEFA758120020DFBCD
:100DC000020921E493A3F8E493A34003F68001F21F
:100DD00008DFF48029E493A3F85407240CC8C33334
:100DE000C4540F4420C8834004F456800146F6DF03
:100DF000E4800B0102040810204080901BB7E47EC1
:100E0000019360BCA3FF543F30E509541FFEE493F7
:100E1000A360010ECF54C025E060A840B8E493A3BE
:100E2000FAE493A3F8E493A3C8C582C8CAC583CAE9
:100E3000F0A3C8C582C8CAC583CADFE9DEE780BEA1
:011BBB000029
:10007E00E709F608DFFA8046E709F208DFFA803E64
:10008E0088828C83E709F0A3DFFA8032E309F60851
:10009E00DFFA8078E309F208DFFA807088828C83B9
:1000AE00E309F0A3DFFA806489828A83E0A3F6086D
:1000BE00DFFA805889828A83E0A3F208DFFA804C47
:1000CE0080D280FA80C680D4806980F2803380101E
:1000DE0080A680EA809A80A880DA80E280CA803387
:1000EE0089828A83ECFAE493A3C8C582C8CCC583FF
:1000FE00CCF0A3C8C582C8CCC583CCDFE9DEE780CF
:10010E000D89828A83E493A3F608DFF9ECFAA9F04D
:10011E00EDFB2289828A83ECFAE0A3C8C582C8CCA3
:10012E00C583CCF0A3C8C582C8CCC583CCDFEADEBC
:10013E00E880DB89828A83E493A3F208DFF980CC1E
:10014E0088F0EF60010E4E60C388F0ED2402B40417
:10015E000050B9F582EB2402B4040050AF232345BE
:06016E0082239000CE7315
:10017400BB010689828A83E0225002E722BBFE0289
:09018400E32289828A83E49322BC
:10018D00BB010CE58229F582E5833AF583E0225027
:10019D0006E92582F8E622BBFE06E92582F8E22271
:0D01AD00E58229F582E5833AF583E493228B
:1001BA00BB010689828A83F0225002F722BBFE0124
:0201CA00F3221E
:1001CC00F8BB010DE58229F582E5833AF583E8F069
:1001DC00225006E92582C8F622BBFE05E92582C815
:0201EC00F222FD
:1001EE00C5F0F8A3E028F0C5F0F8E582158270029C
:0601FE001583E038F02239
:10020400A3F8E0C5F025F0F0E582158270021583AD
:06021400E0C838F0E8220A
:10021A0075F008758200EF2FFFEE33FECD33CDCC9B
:10022A0033CCC58233C5829BED9AEC99E58298401E
:10023A000CF582EE9BFEED9AFDEC99FC0FD5F0D6FB
:10024A00E4CEFBE4CDFAE4CCF9A88222B800C1B925
:10025A000059BA002DEC8BF084CFCECDFCE5F0CB63
:10026A00F97818EF2FFFEE33FEED33FDEC33FCEB9C
:10027A0033FB10D703994004EB99FB0FD8E5E4F957
:10028A00FA227818EF2FFFEE33FEED33FDEC33FC44
:10029A00C933C910D7059BE99A4007EC9BFCE99A38
:1002AA00F90FD8E0E4C9FAE4CCFB2275F010EF2F7D
:1002BA00FFEE33FEED33FDCC33CCC833C810D7077D
:1002CA009BEC9AE899400AED9BFDEC9AFCE899F8B8
:0E02DA000FD5F0DAE4CDFBE4CCFAE4C8F9224B
:1002E800EB9FF5F0EA9E42F0E99D42F0EC6480C88D
:0602F80064809845F0222D
:1002FE00EB9FF5F0EA9E42F0E99D42F0E89C45F056
:01030E0022CC
:10030F00E8600FECC313FCED13FDEE13FEEF13FFCC
:03031F00D8F122F0
:10032200E8600FEFC333FFEE33FEED33FDEC33FC39
:03033200D8F122DD
:0C033500ECF0A3EDF0A3EEF0A3EFF0223B
:10034100A8828583F0D083D08212035812035812F9
:100351000358120358E473E493A3C583C5F0C5831E
:10036100C8C582C8F0A3C583C5F0C583C8C582C806
:010371002269
:00000001FF
