:100932001214AE7FE87E037D007C0012121E7F013E
:1009420012165E900113E475F0011201EEFED3E57A
:10095200F09458EE94024009E4900113F0A3F08061
:1009620018900116E0700B12006E12007A121588B0
:1009720080EFE4900116F080CA7F0412102C9001DF
:1009820013E475F0011201EEFED3E5F09464EE94E7
:10099200004009E4900113F0A3F0800A900116E0F0
:1009A20060FAE4F080D8121780E4FF12102C900154
:1009B20013E475F001120204FED3E5F094C8EE943C
:1009C200004049E4900113F0A3F01217FB9000EFEE
:1009D200EFF0F4701D12173FEF64017015900115CE
:1009E200E004F0D3940F7480948040067410F0E415
:1009F20080169000EFE0D3940474809480E4400861
:100A0200900115F07F018001FF1217F5900116E0A9
:100A1200701712006E12007A12181312035C12146D
:100A22006D12158812181080E3120F50120C421228
:0D0A32000EE2121096E4900116F00209B0D9
:1014AE00E4F5B1F5B2F5B3F5B4F5ACF5ADC285C260
:1014BE0094D292C29112004E121772121745120D4B
:1014CE00F91216861200261215B81215251217A833
:0E14DE0012172243B21843B408D283D2AF22B1
:0418010041012F0A68
:10004E005389F0438901438E0890013074C1F0A3A7
:0D005E007480F0758CC1F58AD2A9D28C2275
:03000B0002160ECC
:06160E00C0E0C083C082B1
:10161400900130E0F58CA3E0F58A90012FE014F0FE
:0B1624007009740AF090011674FFF0CA
:07162F00D082D083D0E0322D
:0E1772007F007EC27D017C001214ECD2AC22FE
:0E1780007F807E257D007C001214ECD2AC220E
:030023000213DEE7
:1013DE00C0E0C0F0C083C082C0D075D000C000C0D5
:1013EE0001C002C003C004C005C006C00730990585
:1013FE0012127AC299309805120D6AC298D007D08F
:10140E0006D005D004D003D002D001D000D0D0D069
:08141E0082D083D0F0D0E0324F
:0F1745007F807E257D007C00120FBE439C012219
:03007B0002142646
:10142600C0E0C0F0C083C082C0D075D000C000C08C
:1014360001C002C003C004C005C006C00730F902DF
:10144600C2F930F807C2F8AF9A121636D007D0069E
:10145600D005D004D003D002D001D000D0D0D082A5
:07146600D083D0F0D0E0328A
:08000300C2F98F9A30F9FD22C9
:100DF900A2AF9200C2AF75C7AA75C7554391014307
:100E0900C60875C7AA75C7555391FEA20092AF438C
:100E1900B210538EBFA2AF920075C7AA75C7557598
:100E2900910153B7F843B70375C7AA75C755E4F5D8
:100E390091A20092AFA2AF920075C7AA75C7557566
:100E4900910143B71053D8DF75C7AA75C755F591F6
:100E5900A20092AF75D104F5D9F5D575DD01539B83
:060E6900F7C2DEC2DF2229
:03006B0002000E82
:10000E00C0E0C083C082C2DD90013274FFF0D082A6
:05001E00D083D0E032A8
:0E178E00E4F5D575DD01439B08D2DED2DF22E3
:0817BB00539BF7C2DFC2DD22DF
:1016AC00120174FF7E00D394FFEE940340047E037A
:1016BC007FFFEF4E7003FE7F018FDDEEF5D5D2DE9E
:0116CC0022FB
:1016CD00AFDDEF6480700DAFD5EF70089000C7747B
:1016DD0002F0800905DDAFDDEF700205D5D2DE2207
:0C006E00900132E06005E4F0120B9B22D0
:1016860043F40853F37F53F3DF53F3F753F3FB436A
:10169600F31053F3FE53F3FD539BBFD29553F3BFA1
:0616A600E4900104F022B3
:0C179C008FF5E5F4548060FA53F47F22CE
:0E175400E4F5F5E5F4548060FAAFF553F47F48
:011762002264
:03004B000216EDAD
:1016ED00C0E0C083C082E5F430E70990010C74FFBF
:0B16FD00F053F47FD082D083D0E032A5
:1010FD009000FE12031FD2959000FEE0FCA3E0FDD0
:10110D00A3E0FEA3E0FF78101202F9900108EFF0C2
:10111D009000FEE0FCA3E0FDA3E0FEA3E0FF780855
:10112D001202F9900107EFF09000FEA3A3A3E09047
:10113D000106F0C29543F3407F0312179C900108FE
:10114D00E0FF12179C900107E0FF12179C9001061B
:05115D00E0FF02179CF9
:0E176300E4F5F5E5F4548060FAAFF553F47F39
:011771002255
:0617E300D29553F3BF2272
:01007A002263
:10002600E4FFEFC3942074809480500F74992FF5E9
:1000360082E43400F583E4F00F80E7E4900098F062
:04004600900097F09F
:01004A002293
:10163600900097E004541FFEA3E06E601A90009796
:10164600E0FE04F074992EF582E43400F583EFF0A1
:08165600900097E0541FF02200
:10155800900097E0FFA3E0B507037F002290009872
:10156800E0FF04F074992FF582E43400F583E0126B
:1015780001BA900098E0541FF01215E4EF04FF221E
:1015E400900097E0FEA3E0FDB506037F0022EDD353
:1015F4009E400A900097E02420C39DFF229000980B
:0A160400E0FF900097E0C39FFF2273
:0118130022B2
:0617E9009000C2EFF022A7
:0617EF009000C2E0FF22A1
:10152500E49000C9F09000C9E0FFC394087480946A
:1015350080501474CA2FF582E43400F583E4F090EA
:1015450000C9E004F080DEE49000C8F0A3F07F025B
:031555000217E991
:0118140022B1
:0118150022B0
:0504EB009000F5EFF0A8
:1004F0007E00D3940074809480500302066DEF94C4
:100500000E74809480400302066D9000FA12032B53
:10051000000000009000FAE0F8A3E0F9A3E0FAA3DD
:10052000E0FB9000F5E0FFEB4FFFEAFEE9FDE8FCA1
:100530009000FA12031F9000FAE0FCA3E0FDA3E094
:10054000FEA3E0FF780412030C9000FA12031F9040
:1005500000FAE0FCA3E0FDA3E0FEA3E0FF1210FD23
:100560001217639000F6EFF01217639000F7EFF0A8
:100570001217639000F8EFF01217639000F9EFF094
:100580001217E39000FA12032B000000009000FA0B
:10059000E0F8A3E0F9A3E0FAA3E0FB9000F9E0FFA4
:1005A000EB4FFFEAFEE9FDE8FCA312031F9000FAFF
:1005B000E0FCA3E0FDA3E0FEA3E0FF780812030C3B
:1005C0009000FA12031F9000FAE0F8A3E0F9A3E00C
:1005D000FAA3E0FB9000F8E0FFEB4FFFEAFEE9FD35
:1005E000E8FC9000FA12031F9000FAE0FCA3E0FD83
:1005F000A3E0FEA3E0FF780812030C9000FA1203B8
:100600001F9000FAE0F8A3E0F9A3E0FAA3E0FB9062
:1006100000F7E0FFEB4FFFEAFEE9FDE8FC9000FA8F
:1006200012031F9000FAE0FCA3E0FDA3E0FEA3E0AC
:10063000FF780812030C9000FA12031F9000FAE0F2
:10064000F8A3E0F9A3E0FAA3E0FB9000F6E0FFEBEB
:100650004FFFEAFEE9FDE8FC9000FA12031F90004C
:10066000FAE0FCA3E0FDA3E0FEA3E0FF22E4FFFE2E
:02067000FDFC8F
:010672002265
:10165E009000C9E004540FFE9000C8E06E6018A31D
:10166E00E0FE04F074CA2EF582E43400F583EFF048
:08167E009000C9E0540FF022B6
:0507E1009000F0EFF0B4
:1007E6007F011217E91217BB9000F0E0FF1204EB2D
:1007F6009000B912031F9000B9E0FCA3E0FDA3E04E
:10080600FEA3E0242AFFE43EFEE43DFDE43CFC12A8
:1008160010FD1217639000F1EFF01217639000F2CB
:10082600EFF01217639000F3EFF01217639000F4E5
:10083600EFF09000C312032B000000009000C3E00D
:10084600F8A3E0F9A3E0FAA3E0FB9000F4E0FFEBE5
:100856004FFFEAFEE9FDE8FC9000C312031F90007B
:10086600C3E0FCA3E0FDA3E0FEA3E0FF78081203CB
:100876000C9000C312031F9000C3E0F8A3E0F9A395
:10088600E0FAA3E0FB9000F3E0FFEB4FFFEAFEE99E
:10089600FDE8FC9000C312031F9000C3E0FCA3E038
:1008A600FDA3E0FEA3E0FF780812030C9000C3123C
:1008B600031F9000C3E0F8A3E0F9A3E0FAA3E0FB6E
:1008C6009000F2E0FFEB4FFFEAFEE9FDE8FC900046
:1008D600C312031F9000C3E0FCA3E0FDA3E0FEA348
:1008E600E0FF780812030C9000C312031F9000C3A8
:1008F600E0F8A3E0F9A3E0FAA3E0FB9000F1E0FF43
:10090600EB4FFFEAFEE9FDE8FC9000C312031FE48B
:100916009000F1F0A37402F09000BE12032B0000C9
:0B092600000012178E9000C77401F053
:0109310022A3
:100B9B009000C7E024FE601314606C147003020C09
:100BAB003324036003020C410216CD9000C3E0FC1A
:100BBB00A3E0FDA3E0FEA3E0FF9000BEE0F8A3E0FE
:100BCB00F9A3E0FAA3E0FBC31202E870079000C799
:100BDB007403F0221218151217639000F0EFF090C7
:100BEB0000BEE0FCA3E0FDA3E0FEA3E02401FFE4D4
:100BFB003EFEE43DFDE43CFC9000BE12031F7B0176
:100C0B007A0079F00216ACAFDDEF6401700DAFD551
:100C1B00EF70089000C77404F0800A15DDAFDDEFAC
:100C2B00F4700215D5D2DE227F021217E9121814C6
:060C3B001217E31217BBC3
:010C41002290
:101588009000C8E0FFA3E06F60251217EFEF640238
:10159800701D9000C8E0FF04F074CA2FF582E4348F
:1015A80000F583E0FF1207E19000C8E0540FF02235
:100A3F00FB3300000000000000020302000003006F
:100A4F000000640100000000000000000000000032
:100A5F000000000000000000000000000000000087
:100A6F00000063FB330000000000000002030200DF
:100A7F000001000000000000000000000000000066
:100A8F000000000000000000000000000000000057
:100A9F00000000000063FB0F0000000000000002D8
:100AAF0001020000F1FB0F00000000000000020235
:100ABF00020000F0FB0F0000000000000002040223
:100ACF000000EEFB13000000000000000905090004
:100ADF000080250000360AA50AB40AC30A3F0AD2CD
:0617F500900007EFF02256
:0B1734009000067401F0E4900002F049
:06173F00900007E0FF220C
:1015B8009000527401F0A37400F0A3740FF090002F
:1015C8004F7401F0A37400F0A3742FF0E490000BA3
:0C15D800F0C293900006F07F010217F5AE
:100CDB00E4FE900A73E493FDEEC39D5015EE900A6B
:100CEB007293FD74562EF582E43400F583EDF00E0D
:100CFB0080E09000647401F0900068EFF0E4FFFE78
:100D0B00900A73E49314FDEEC39D501074562EF5A8
:100D1B0082E43400F583E02FFF0E80E4EFF4FF0F45
:100D2B0074562EF582E43400F583EFF090000874CE
:100D3B0001F0A37400F0A37456F09000967401F0C8
:100D4B00E490000EF0900008E0FBA3E0FAA3E0F9BA
:0E0D5B0090000EE0F58275830012018DF5996F
:010D69002267
:051806007F64020CDB11
:05180B007F03020CDB6D
:05102C009000F0EFF060
:1010310078F17C007D017BFF7A0A79E57E007F0AE9
:1010410012014E9000F0E0FFD3940474809480501C
:1010510043EF25E024F1F582E43400F583E0FEA3BB
:10106100E0AA06F990000874FFF0A3EAF0A3E9F002
:101071009000967401F0E490000EF0900008E0FBFF
:10108100A3E0FAA3E0F990000EE0F5827583001267
:04109100018DF5993F
:011095002238
:100EE200900055E06038900000E475F0011201EEC8
:100EF200FED3E5F094C2EE94014052E4900000F07B
:100F0200A3F0900005E0600CE4900055F0C2937FDE
:100F12000402165E7F0312165E7F0202102C9000FE
:100F220000E475F0011201EEFED3E5F0945EEE945A
:100F320001401AE4900000F0A3F0900006E0600384
:0D0F4200E4F022E4900115F07F011217F594
:010F4F00227F
:10035C0090000BE020E7030204EA547FF090004F7A
:10036C00E0FBA3E0FAA3E0F990000112018DFFE499
:10037C00FEFDEDC39F501890004FE0FBA3E0FAA3E5
:10038C00E0F98D8275830012018D2EFE0D80E3EE57
:10039C0060030204EA90004FE0FBA3E0FAA3E0F94B
:1003AC0090000912018D24EE70030204B924106030
:1003BC00030204EA90000A12018D64066003020431
:1003CC00EA900055E060030204EA90000E12018DE1
:1003DC0024FE602014602D14700302047224036048
:1003EC00030204EA121734EF640160030204EA7F8B
:1003FC00060204B6121734EF640160030204EA7FAC
:10040C00050204B69000067401F012173FEF640168
:10041C0060030204EA900002E014601314601414E8
:10042C00601114601A146017240560030204EA7F3B
:10043C000780027F0912165E900002E004F0227F12
:10044C000B12165E7F0B12165E7F0B12165E7F0B65
:10045C0012165E7F0B12165E7F0B12165E7F0B124E
:10046C00165E7F0B80449000067401F012173FEF6C
:10047C006401706A900002E0D3940274809480400E
:10048C00277F0B12165E7F0B12165E7F0B12165E09
:10049C007F0B12165E7F0B12165E7F0B12165E7FA1
:1004AC000B12165E7F0B80027F0802165E90004FC7
:1004BC00E0FBA3E0FAA3E0F990000A12018D6404BA
:1004CC00701C90000B12018D6402701290000D12C2
:0E04DC00018D700A90000E12018D900005F047
:0104EA0022EF
:10127A00900096E06401705090000EE004F0640162
:10128A00701B900008E0FBA3E0FAA3E0F990000EBF
:10129A00E0F58275830012018D900003F09000033F
:1012AA00E014FF90000EE0FED39F40079000967472
:1012BA0080F022900008E0FBA3E0FAA3E0F98E8216
:0812CA0075830012018DF599F6
:0112D20022F9
:100D6A00AF99EF64FB700490000CF090000CE0FE69
:100D7A0064017005900004EFF0900052E0FBA3E0DC
:100D8A00FAA3E0F98E82758300EF1201CC90000C71
:100D9A00E004F0E0FF900004E06F705290000BE076
:100DAA0030E02154FEF09000527401F0A37400F078
:100DBA00A3740FF090004F7401F0A37400F0A374B1
:100DCA002FF0802390000BE04401F0900052740150
:100DDA00F0A37400F0A3742FF090004F7401F0A3F5
:0E0DEA007400F0A3740FF090000BE04480F052
:010DF80022D8
:0A17A800D297900112E04401F022F4
:100F500030972790010DE0FFD39402748094804075
:100F60000FEF94DD7480948050069001117401F0AD
:100F7000E490010EF090010DF02290010EE014605B
:100F80001704703990010DE004F0D394027480943A
:100F900080402AA37401F02290010DE004F0E0FFEC
:100FA0007E0064DC70069001117402F0D3EF94DCD3
:0D0FB000EE64809480400690010D74E1F025
:010FBD002211
:10146D00900111E0603A64017017A3E0640170030C
:10147D007480F0900112E070087481F07F011216F3
:10148D005E900111E06402701290005574FFF0D26D
:10149D00937F0212102C7F0212165EE4900111F060
:0114AD00221C
:10109600900112E030E709547FF090010F7401F0DF
:1010A60090010FE0605024FE601C14601C14602A3E
:1010B6002403703D900112E090010F30E0047402A9
:1010C600F0227403F0220217087F0A12165E7F01CF
:1010D60012102C90010F7404F022900110E0FF040E
:1010E600F0D3EF94FB74809480400BC283C292804D
:0610F60000E490010FF080
:0110FC0022D1
:0917B200475056544700FF17B2DE
:10172200E49000EEF09000EDF09000EBF09000EA13
:02173200F022A3
:100673007B017A0079F0121558EF70030207E090BE
:1006830000DAE014602E14700302072C14700302C6
:10069300074E240360030207E09000F0E064246047
:1006A300030207E09000DAE004F0E4A3F09000EC2A
:1006B3007424F0229000F0E0FF9000DBE0FE04F0F1
:1006C30074DD2EF582E43400F583EFF09000DBE077
:1006D300640560030207E0A3F09000DBE0FFA3E002
:1006E300FEC39F50349017B8E493FB740193FA74DC
:1006F3000293F98E8275830012018DFF74DD2EF54E
:1007030082E43400F583E06F6007E49000DAF08060
:10071300089000DCE004F080C09000DCE064056039
:10072300030207E09000DB80189000F0E0B42C0691
:100733009000DBE004F09000DBE064076003020755
:10074300E0F0A3F09000DAE004F0229000F0E0FF84
:10075300642C6005EF642E706A9000DBE0605864DF
:100763000370229000DEE075F00AA4FF9000DDE044
:1007730075F064A42FFF9000DFE02F9000EEF0905F
:1007830000ED74FFF09000DBE0FB64027016900054
:10079300DDE075F00AA4FEA3E02E9000EEF09000D9
:1007A300ED74FFF0EB6401700E9000DDE09000EE5D
:1007B300F09000ED74FFF0E49000DBF0A3F0900004
:1007C300DAF0229000F0E024D0FF9000DBE0FE049A
:0D07D300F074DD2EF582E43400F583EFF0C4
:0107E00022F6
:0617FB009000EBE0FF226C
:100C42009000EDE06012E4F09000E7F0A3F0900075
:100C5200EEE09000EBF080249000E7E475F00112E2
:100C620001EEFED3E5F094A0EE9400400F9000E771
:100C7200E4F0A374AAF09000EB74FFF09000E9E0B6
:100C820004F0D394A074809480404DE4F0A3E06417
:100C920001700C9000ECE0B42403E4F0228029906F
:100CA20000EAE06402700F9000ECE0B42402800DD0
:100CB200E49000ECF0229000ECE0B4240BE4F0901D
:100CC20000EA04F07F0C800DE49000ECF09000EA62
:080CD2007402F07F0D12165EA2
:010CDA0022F7
:031810000206735A
:1012D30090011712031F538EF7438901D28CE4FF49
:1012E300FEFDFC900117E0F8A3E0F9A3E0FAA3E008
:1012F300FBC31202E8602F758A7E758CFF308DFD6B
:10130300C28D900117E0FCA3E0FDA3E0FEA3E0245F
:10131300FFFFEE34FFFEED34FFFDEC34FFFC9001E4
:091323001712031F80B8C28C22CE
:10132C0090011B12031F538EF7438901D28CE4FFEB
:10133C00FEFDFC90011BE0F8A3E0F9A3E0FAA3E0AA
:10134C00FBC31202E8602F758ACA758CFA308DFDCA
:10135C00C28D90011BE0FCA3E0FDA3E0FEA3E02402
:10136C00FFFFEE34FFFEED34FFFDEC34FFFC90018B
:09137C001B12031F80B8C28C2271
:1013850090011F12031F538EEF438910D28EE4FF85
:10139500FEFDFC90011FE0F8A3E0F9A3E0FAA3E04D
:1013A500FBC31202E8602F758BEA758DCB308FFD7C
:1013B500C28F90011FE0FCA3E0FDA3E0FEA3E024A3
:1013C500FFFFEE34FFFEED34FFFDEC34FFFC900132
:0913D5001F12031F80B8C28E2212
:10121E009000F012031F53C9BF53C9DF43C910D248
:10122E00CAE4FFFEFDFC9000F0E0F8A3E0F9A3E0B5
:10123E00FAA3E0FBC31202E8602F75CC3075CDF82F
:10124E0030CFFDC2CF9000F0E0FCA3E0FDA3E0FEA6
:10125E00A3E024FFFFEE34FFFEED34FFFDEC34FF80
:0C126E00FC9000F012031F80B8C2CA22DE
:1011620090012312031F75C40743C408E4FFFEFD68
:10117200FC900123E0F8A3E0F9A3E0FAA3E0FBC3AB
:101182001202E8603575C52C75C6CFE5C4541064EB
:101192001070F853C4EF900123E0FCA3E0FDA3E03C
:1011A200FEA3E024FFFFEE34FFFEED34FFFDEC343E
:0E11B200FFFC90012312031F80B253C4F722EA
:1011C00090012712031F75C40743C408E4FFFEFD06
:1011D000FC900127E0F8A3E0F9A3E0FAA3E0FBC349
:1011E0001202E8603575C5D875C6FFE5C4541064B1
:1011F0001070F853C4EF900127E0FCA3E0FDA3E0DA
:10120000FEA3E024FFFFEE34FFFEED34FFFDEC34DF
:0E121000FFFC90012712031F80B253C4F72287
:1014EC0053B1BF53B2BF53B17F53B27F75985043C2
:1014FC008920438780438E1053C4DFAB07AA06A90B
:10150C0005A8047F407E427D0F7C00120256EF043A
:09151C00F404F58DD28ED299225F
:100E6F0090012B12031F53B1BF53B2BF53B17F5326
:100E7F00B27F75985043878053C4F843C4209001C4
:100E8F002BE0F8A3E0F9A3E0FAA3E0FB7F407E425A
:100E9F007D0F7C00120256C374FF9FFF74FF9EFEEE
:100EAF00E49DFDE49CFC78081202F98FC690012B9B
:100EBF00E0F8A3E0F9A3E0FAA3E0FB7F407E427DD8
:100ECF000F7C00120256C374FF9FFF8FC543C408E7
:030EDF00D2992283
:0717C3003098FDAF99C298B8
:0117CA0022FC
:0817CB00C2998F993099FD22AB
:100FBE009000F012031F53B1FB53B2FB53B3BF5358
:100FCE00B4BF75F85075C40853C4DF9000F0E0F854
:100FDE00A3E0F9A3E0FAA3E0FB7F407E427D0F7C05
:100FEE0000120256C374FF9FFF74FF9EFEE49DFD28
:100FFE00E49CFC78081202F98FC69000F0E0F8A38A
:10100E00E0F9A3E0FAA3E0FB7F407E427D0F7C0077
:0E101E00120256C374FF9FFF8FC543C4082201
:0717D30030F8FDAF9AC2F8E7
:0117DA0022EC
:0817DB00C2F98F9A30F9FD22DA
:1017080075C7AA75C755A2AF9200C2AF75C7AA75AB
:0A171800C755439F80A20092AF2244
:03000000020AEF02
:100AEF0075C7AA75C75575FD5A75C7AA75C75575C8
:100AFF00FDA5787FE4F6D8FD9000007FFF7E03E42C
:0C0B0F00F0A3DFFCDEFA758120020B561B
:100B1B00020932E493A3F8E493A34003F68001F2B5
:100B2B0008DFF48029E493A3F85407240CC8C333DB
:100B3B00C4540F4420C8834004F456800146F6DFAA
:100B4B00E4800B0102040810204080901801E47E21
:100B5B00019360BCA3FF543F30E509541FFEE4939F
:100B6B00A360010ECF54C025E060A840B8E493A366
:100B7B00FAE493A3F8E493A3C8C582C8CAC583CA91
:100B8B00F0A3C8C582C8CAC583CADFE9DEE780BE49
:0118050000E2
:10007E00E709F608DFFA8046E709F208DFFA803E64
:10008E0088828C83E709F0A3DFFA8032E309F60851
:10009E00DFFA8078E309F208DFFA807088828C83B9
:1000AE00E309F0A3DFFA806489828A83E0A3F6086D
:1000BE00DFFA805889828A83E0A3F208DFFA804C47
:1000CE0080D280FA80C680D4806980F2803380101E
:1000DE0080A680EA809A80A880DA80E280CA803387
:1000EE0089828A83ECFAE493A3C8C582C8CCC583FF
:1000FE00CCF0A3C8C582C8CCC583CCDFE9DEE780CF
:10010E000D89828A83E493A3F608DFF9ECFAA9F04D
:10011E00EDFB2289828A83ECFAE0A3C8C582C8CCA3
:10012E00C583CCF0A3C8C582C8CCC583CCDFEADEBC
:10013E00E880DB89828A83E493A3F208DFF980CC1E
:10014E0088F0EF60010E4E60C388F0ED2402B40417
:10015E000050B9F582EB2402B4040050AF232345BE
:06016E0082239000CE7315
:10017400BB010689828A83E0225002E722BBFE0289
:09018400E32289828A83E49322BC
:10018D00BB010CE58229F582E5833AF583E0225027
:10019D0006E92582F8E622BBFE06E92582F8E22271
:0D01AD00E58229F582E5833AF583E493228B
:1001BA00BB010689828A83F0225002F722BBFE0124
:0201CA00F3221E
:1001CC00F8BB010DE58229F582E5833AF583E8F069
:1001DC00225006E92582C8F622BBFE05E92582C815
:0201EC00F222FD
:1001EE00C5F0F8A3E028F0C5F0F8E582158270029C
:0601FE001583E038F02239
:10020400A3F8E0C5F025F0F0E582158270021583AD
:06021400E0C838F0E8220A
:10021A0075F008758200EF2FFFEE33FECD33CDCC9B
:10022A0033CCC58233C5829BED9AEC99E58298401E
:10023A000CF582EE9BFEED9AFDEC99FC0FD5F0D6FB
:10024A00E4CEFBE4CDFAE4CCF9A88222B800C1B925
:10025A000059BA002DEC8BF084CFCECDFCE5F0CB63
:10026A00F97818EF2FFFEE33FEED33FDEC33FCEB9C
:10027A0033FB10D703994004EB99FB0FD8E5E4F957
:10028A00FA227818EF2FFFEE33FEED33FDEC33FC44
:10029A00C933C910D7059BE99A4007EC9BFCE99A38
:1002AA00F90FD8E0E4C9FAE4CCFB2275F010EF2F7D
:1002BA00FFEE33FEED33FDCC33CCC833C810D7077D
:1002CA009BEC9AE899400AED9BFDEC9AFCE899F8B8
:0E02DA000FD5F0DAE4CDFBE4CCFAE4C8F9224B
:1002E800EB9FF5F0EA9E42F0E99D42F0E89C45F06C
:0102F80022E3
:1002F900E8600FECC313FCED13FDEE13FEEF13FFE3
:03030900D8F12206
:10030C00E8600FEFC333FFEE33FEED33FDEC33FC4F
:03031C00D8F122F3
:0C031F00ECF0A3EDF0A3EEF0A3EFF02251
:10032B00A8828583F0D083D082120342120342123B
:10033B000342120342E473E493A3C583C5F0C58360
:10034B00C8C582C8F0A3C583C5F0C583C8C582C81C
:01035B00227F
:00000001FF
