:1007D4009000697432F0120026E4FF1204B790000E
:0607E40069E014F0701F33
:1007EA009000A1E0FF1208249000A1E004F0D39445
:0F07FA0003748094804002E4F090006974C8F0AA
:100809001206439000A2E0700B12006E1205D1127D
:0B0819000B2380EFE49000A2F080BEF3
:10002600E4F5B1F5B2F5B3F5B4F5ACF5AD12004EA5
:10003600120DD3120DA6120782120C81120D341264
:050046000E11D2AF22F3
:040E480041009E0ABD
:10004E005389F0438901438E0890009F74C1F0A339
:0D005E007480F0758CC1F58AD2A9D28C2275
:03000B00020C31B3
:060C3100C0E0C083C08298
:100C370090009FE0F58CA3E0F58A90009EE014F009
:0B0C47007009740AF09000A274FFF026
:070C5200D082D083D0E03214
:0E0DD3007F007EC27D017C00120B86D2AC2216
:03002300020907C8
:10090700C0E0C0F0C083C082C0D075D000C000C0B6
:1009170001C002C003C004C005C006C00730990566
:100927001209D4C2993098051206B1C298D007D0DF
:1009370006D005D004D003D002D001D000D0D0D04B
:0809470082D083D0F0D0E03231
:0F0DA6007F807E257D007C00120B56439C01222E
:03007B00020DFB78
:0B0DFB0030F902C2F930F802C2F832F1
:08000300C2998F993099FD228A
:10000E00A2AF920075C7AA75C7552290006FE0FE89
:03001E00A3E0223A
:10078200A2AF9200C2AF12001243910143C60812F7
:1007920000125391FEA20092AF538EBF12000E754B
:1007A200910153B7F843B703120012E4F591A20086
:1007B20092AF12000E75910143B71053D8DF1200A9
:1007C20012F591A20092AF75D104F5D9539BF7C2ED
:0207D200DF2224
:03006B00020D6D16
:100D6D00C0E0C083C082C2DDB2929000A374FFF0D8
:070D7D00D082D083D0E032E8
:0E0DE100E4F5D575DD01439B08D2DED2DF229A
:080E1A00539BF7C2DFC2DD2289
:10034000E490006FF0A3F090000112018DFFE490A3
:10035000006FF0EFA3F0E0F8E4F0E890006FF01227
:100360000174FF1200194FFF90006FEEF0FEA3EF33
:10037000F0EE30E71F120019F4FFEEF490006FF07A
:10038000A3EFF0E004F0700690006FE004F090003E
:100390007374FFF01200197805CEC313CE13D8F989
:1003A000F0EE90006FF0900073E06014120019FFFF
:1003B000C3E49F900072F074029E900071F080146C
:1003C000900070E02400FE90006FE0340290007115
:1003D000F0A3CEF0D3900072E094FF900071E0940F
:1003E0000340077403F0A374E8F0900071E070021A
:1003F000A3E07008900071F0A37419F0900071E010
:0A040000FEA3E0F5DDEEF5D5D2DE37
:01040A0022CF
:100D1400AFDDEF700FAFD5EF6402700890005D7423
:100D240002F0800905DDAFDDEF700205D5D2DE22C9
:0C006E009000A3E06005E4F0120872228C
:100D840090006FE0FCA3E0FDA3E0FEA3E0FF0202FD
:010D9400CD91
:100C810043F40853F37F53F3DF53F3F753F3FB4379
:100C9100F31053F3FE53F3FD539BBFD29553F3BFB0
:060CA100E4900060F02267
:0C0DEF008FF5E5F4548060FA53F47F2285
:0E0DB500E4F5F5E5F4548060FAAFF553F47FF1
:010DC300220D
:03004B00020D5251
:100D5200C0E0C083C082E5F430E70990006874FF08
:0B0D6200F053F47FD082D083D0E03249
:1008BE0090006F120303D2957810120D849000648D
:1008CE00EFF07808120D84900063EFF090006FA3A4
:1008DE00A3A3E0900062F0C29543F3407F03120D94
:1008EE00EF900064E0FF120DEF900063E0FF120D39
:0908FE00EF900062E0FF020DEF33
:0E0DC400E4F5F5E5F4548060FAAFF553F47FE2
:010DD20022FE
:060E4200C29553F3BF222C
:0B0E060074762FF582E43400F583229F
:100D3400E4FFEFC39408748094805008120E06E414
:0D0D4400F00F80EEE4900075F0900074F068
:010D5100227F
:100CCD00900074E0045407FEA3E06E60169000746B
:100CDD00E0FE04F074762E120E09EFF0900074E031
:040CED005407F02296
:100CA700900074E0FFA3E0B507037F002290007572
:100CB700E0FF04F0120E06E01201BA900075E0544E
:060CC70007F0120BB3223E
:100BB300900074E0FEA3E0FDB506037F0022EDD3B1
:100BC3009E400A900074E02408C39DFF22900075A4
:0A0BD300E0FF900074E0C39FFF22D2
:100C5900000000000000000000000000000000008B
:100C6900000000000000000000000000000000007B
:080C7900000000000000000073
:10055F00FBE0FFEB4FFFEAFEE9FDE8FC90005912CC
:10056F000303900059E0FCA3E0FDA3E0FEA3E0FF2E
:10057F0078081202E0900059120303900059E0F836
:10058F00A3E0F9A3E0FAA3E0FB22900059E0FCA35B
:10059F00E0FDA3E0FEA3E022E0FFEB4FFFEAFEE960
:1005AF00FDE8FC900059020303900059E0F8A3E026
:1005BF00F9A3E0FAA3E022FFE43EFEE43DFDE43CB4
:0205CF00FC220C
:100D9500EF25E025E02459F582E4340CF5830202C1
:010DA500F35A
:0504B70090006AEFF067
:1004BC00120E1A90006AE0FF120D95900050120374
:1004CC000390005012059C242A1205C61208BE90F7
:1004DC00005912030F00000000120DC490006BEFC6
:1004EC00F0120DC490006CEFF0120DC490006DEF83
:1004FC00F0120DC490006EEFF090005912030F0033
:10050C000000001205B890006E12055F90006D128D
:10051C0005A7120599FF78081202E01205B2120520
:10052C00B890006C12055F90006B1205A790006BE1
:10053C007401F0E4A3F090005512030F00000000CA
:10054C007B017A00796B120340120DE190005D740F
:02055C0001F0AC
:01055E00227A
:1008720090005DE024FE6006047040020D14120533
:1008820099FF90005512058DC31202BC7003020E2F
:100892001A120DC490006AEFF0120DC490006BEFB3
:1008A200F090005512059C24021205C690005512C4
:0B08B20003037B017A00796A12034007
:0108BD002218
:10071A00FB33000000000000000203020000030097
:10072A00000064010000000000000000000000005A
:10073A0000000000000000000000000000000000AF
:10074A00000063FB0F00000000000000020102002D
:10075A0000F1FB0F0000000000000002020200008E
:10076A00F0FB0F000000000000000202040000EE8F
:08077A00074D075C076B071A2D
:100AEE00900002E0FBA3E0FAA3E0F92290004C7420
:100AFE0001F0A37400F0A37409F09000497401F0A2
:100B0E00A37400F0A37429F022900008E0F582751A
:050B1E00830002018DBF
:090E1100120AFAE4900005F02237
:0508240090006AEFF0F6
:10082900786B7C007D017BFF7A07797A7E007F08EF
:1008390012014E90006AE025E0246BF582E4340051
:10084900F583E0FEA3E0AA06F990000274FFF0A385
:10085900EAF0A3E9F090004F7401F0E4900008F089
:08086900120AEE120B17F599BB
:010871002264
:1005D100900005E030E76A547FF0900049120AF17B
:1005E10090000112018DFFE4FEFDEDC39F501090BC
:1005F1000049120AF18D82120B1D2EFE0D80EBEEC9
:10060100703F900049120AF190000912018D24FEF9
:10061100702F90000A12018D6406702590000B1254
:10062100018D24FE600E14600F14601024037011FC
:100631007F06800A7F0580067F0780027F081204FB
:01064100B701
:010642002295
:1009D40090004FE064017034900008E004F064017A
:1009E400700A120AEE120B17900000F0900000E05B
:1009F40014FF900008E0FED39F400790004F7480DE
:0C0A0400F022120AEE8E82120B1DF599F2
:010A100022C3
:1006B100AF99EF64FB7004900006F0900006E0FE35
:1006C10064017005900001EFF090004C120AF18E68
:1006D10082758300EF1201CC900006E004F0E0FF88
:1006E100900001E06F7031900005E030E00854FEA9
:1006F100F0120AFA801B900005E04401F090004CD2
:10070100120B0B9000497401F0A37400F0A374095B
:08071100F0900005E04480F0C7
:0107190022BD
:030E4D00D2972217
:1006430030972790007EE0FFD3940274809480401B
:100653000FEF94657480948050069000807401F0CD
:10066300E490007FF090007EF02290007FE0146021
:100673001704703990007EE004F0D39402748094E0
:1006830080402AA37401F02290007EE004F0E0FF92
:100693007E00646470069000807402F0D3EF94646B
:0D06A300EE64809480400690007E7469F043
:0106B0002227
:100B2300900080E0602C64017016A3E064017005FE
:100B33007F0A1204B7900081E070057F011204B7A9
:100B4300900080E0640270057F021204B7E4900015
:030B530080F0220D
:10094F00E0FCA3E0FDA3E0FEA3E024FFFFEE34FFF5
:10095F00FEED34FFFDEC34FFFC22E4FFFEFDFCE076
:10096F00F8A3E0F9A3E0FAA3E0FBC30202BC120371
:10097F0003538EF7438901D28C2212030375C407E8
:04098F0043C4082233
:100BDD0090008212097D9000821209696019758A50
:100BED007E758CFF308DFDC28D90008212094F9065
:0A0BFD00008212030380DFC28C2285
:100C070090008612097D9000861209696019758A1D
:100C1700CA758CFA308DFDC28D90008612094F90EF
:0A0C2700008612030380DFC28C2256
:100A4B0090008A120303538EEF438910D28EE4FF7A
:100A5B00FEFDFC90008A12096E6019758BEA758D8C
:100A6B00CB308FFDC28F90008A12094F90008A12F3
:070A7B00030380DAC28E22A2
:100A110090008E12030353C9BF53C9DF43C910D2DB
:100A2100CAE4FFFEFDFC90008E12096E601975CCC0
:100A31003075CDF830CFFDC2CF90008E12094F90A6
:0A0A4100008E12030380DAC2CA22FD
:100A8200900092120989E4FFFEFDFC900092120987
:100A92006E601F75C52C75C6CFE5C4541064107006
:100AA200F853C4EF90009212094F90009212030380
:060AB20080D453C4F722BA
:100AB800900096120989E4FFFEFDFC900096120949
:100AC8006E601F75C5D875C6FFE5C45410641070F4
:100AD800F853C4EF90009612094F90009612030342
:060AE80080D453C4F72284
:1009930090009AE0F8A3E0F9A3E0FAA3E0FB7F401C
:1009A3007E427D0F7C0012022AC374FF9FFF2274D4
:1009B300FF9EFEE49DFDE49CFC78081202CD8FC6E9
:1009C3002253B1BF53B2BF53B17F53B27F75985017
:0109D3002201
:100B86001209C4438920438780438E1053C4DFABC8
:100B960007AA06A905A8047F407E427D0F7C0012A5
:0D0BA600022AEF04F404F58DD28ED29922BC
:100CF10090009A1203031209C443878053C4F84336
:100D0100C4201209931209B21209938FC543C40872
:030D1100D2992252
:070E22003098FDAF99C29862
:010E290022A6
:080E2A00C2998F993099FD2255
:100B560090006A12030353B1FB53B2FB53B3BF5366
:100B6600B4BF75F85075C40853C4DF90006A120903
:100B7600961209B290006A1209968FC543C40822DC
:070E320030F8FDAF9AC2F891
:010E39002296
:080E3A00C2F98F9A30F9FD2284
:0300000002040BEC
:10040B0075C7AA75C75575FD5A75C7AA75C75575B2
:10041B00FDA5787FE4F6D8FD9000007FFF7E03E416
:0C042B00F0A3DFFCDEFA758120020472F1
:100437000207D4E493A3F8E493A34003F68001F200
:1004470008DFF48029E493A3F85407240CC8C333C6
:10045700C4540F4420C8834004F456800146F6DF95
:10046700E4800B0102040810204080900E48E47ECF
:10047700019360BCA3FF543F30E509541FFEE4938A
:10048700A360010ECF54C025E060A840B8E493A351
:10049700FAE493A3F8E493A3C8C582C8CAC583CA7C
:1004A700F0A3C8C582C8CAC583CADFE9DEE780BE34
:010E4C0000A5
:10007E00E709F608DFFA8046E709F208DFFA803E64
:10008E0088828C83E709F0A3DFFA8032E309F60851
:10009E00DFFA8078E309F208DFFA807088828C83B9
:1000AE00E309F0A3DFFA806489828A83E0A3F6086D
:1000BE00DFFA805889828A83E0A3F208DFFA804C47
:1000CE0080D280FA80C680D4806980F2803380101E
:1000DE0080A680EA809A80A880DA80E280CA803387
:1000EE0089828A83ECFAE493A3C8C582C8CCC583FF
:1000FE00CCF0A3C8C582C8CCC583CCDFE9DEE780CF
:10010E000D89828A83E493A3F608DFF9ECFAA9F04D
:10011E00EDFB2289828A83ECFAE0A3C8C582C8CCA3
:10012E00C583CCF0A3C8C582C8CCC583CCDFEADEBC
:10013E00E880DB89828A83E493A3F208DFF980CC1E
:10014E0088F0EF60010E4E60C388F0ED2402B40417
:10015E000050B9F582EB2402B4040050AF232345BE
:06016E0082239000CE7315
:10017400BB010689828A83E0225002E722BBFE0289
:09018400E32289828A83E49322BC
:10018D00BB010CE58229F582E5833AF583E0225027
:10019D0006E92582F8E622BBFE06E92582F8E22271
:0D01AD00E58229F582E5833AF583E493228B
:1001BA00BB010689828A83F0225002F722BBFE0124
:0201CA00F3221E
:1001CC00F8BB010DE58229F582E5833AF583E8F069
:1001DC00225006E92582C8F622BBFE05E92582C815
:0201EC00F222FD
:1001EE0075F008758200EF2FFFEE33FECD33CDCCC8
:1001FE0033CCC58233C5829BED9AEC99E58298404B
:10020E000CF582EE9BFEED9AFDEC99FC0FD5F0D627
:10021E00E4CEFBE4CDFAE4CCF9A88222B800C1B951
:10022E000059BA002DEC8BF084CFCECDFCE5F0CB8F
:10023E00F97818EF2FFFEE33FEED33FDEC33FCEBC8
:10024E0033FB10D703994004EB99FB0FD8E5E4F983
:10025E00FA227818EF2FFFEE33FEED33FDEC33FC70
:10026E00C933C910D7059BE99A4007EC9BFCE99A64
:10027E00F90FD8E0E4C9FAE4CCFB2275F010EF2FA9
:10028E00FFEE33FEED33FDCC33CCC833C810D707A9
:10029E009BEC9AE899400AED9BFDEC9AFCE899F8E4
:0E02AE000FD5F0DAE4CDFBE4CCFAE4C8F92277
:1002BC00EB9FF5F0EA9E42F0E99D42F0E89C45F098
:0102CC00220F
:1002CD00E8600FECC313FCED13FDEE13FEEF13FF0F
:0302DD00D8F12233
:1002E000E8600FEFC333FFEE33FEED33FDEC33FC7C
:0302F000D8F12220
:1002F300E493FC740193FD740293FE740393FF2251
:0C030300ECF0A3EDF0A3EEF0A3EFF0226D
:10030F00A8828583F0D083D082120326120326128F
:10031F000326120326E473E493A3C583C5F0C583B4
:10032F00C8C582C8F0A3C583C5F0C583C8C582C838
:01033F00229B
:00000001FF
