:10000E00750864120599D50803750864E52F60FC20
:05001E00E4F52F80F164
:10059900E4F5B1F5B2F5B3F5B4F5ACF5AD1205B5C1
:0C05A9001205EE1205DF12021CD2AF2278
:03061400011D0ABB
:1005B5005389F0438901438E08751EC1751F8085D7
:0A05C5001E8C851F8AD2A9D28C2259
:03000B000205CF1C
:0F05CF00851E8C851F8AD51D06751D0A752FFF89
:0105DE0032EA
:0E05EE007F007EC27D017C00120026D2AC226E
:0300230002005F79
:0B005F00309902C299309802C298321A
:0F05DF007F807E257D007C00120366439C0122F5
:03007B0002006E12
:0B006E0030F902C2F930F802C2F8328B
:10021C00A2AF9200C2AF75C7AA75C75543910143EF
:10022C00C60875C7AA75C7555391FEA20092AF5365
:10023C008EBFA2AF920075C7AA75C75575910153B1
:10024C00B7F843B70375C7AA75C755E4F591A20073
:10025C0092AFA2AF920075C7AA75C75575910143AD
:10026C00B73075C7AA75C755F591A20092AF75D175
:10027C000375D9E875D50175DDF4439B08D2DED240
:02028C00DF226F
:03006B0002028E00
:10028E00C0E0C0F0C083C082C0D075D000C000C036
:0D029E0001C002C003C004C005C006C007B7
:1002AB00C2DD05DDAFDDEF64E7700E75DD0105D551
:1002BB00AFD5EF64047002F5D5D2DE052EE52E70B6
:1002CB0002052DFFAE2DBE3E0EBF800B7F341205F7
:0702DB00FC752D00752E00DB
:1002E200D007D006D005D004D003D002D001D00070
:0B02F200D0D0D082D083D0F0D0E0321A
:1004B8008F108E0F8D0E8C0D538EF7438901D28CC1
:1004C800E4FFFEFDFCAB10AA0FA90EA80DC3120194
:1004D8004C6025758A7E758CFF308DFDC28DE510C8
:1004E80024FFF510E50F34FFF50FE50E34FFF50E88
:0B04F800E50D34FFF50D80C8C28C221A
:100503008F148E138D128C11538EF7438901D28C65
:10051300E4FFFEFDFCAB14AA13A912A811C3120138
:100523004C6025758ACA758CFA308DFDC28DE51431
:1005330024FFF514E51334FFF513E51234FFF51228
:0B054300E51134FFF51180C8C28C22C6
:10054E008F188E178D168C15538EEF438910D28E01
:10055E00E4FFFEFDFCAB18AA17A916A815C31201DD
:10056E004C6025758BEA758DCB308FFDC28FE518EB
:10057E0024FFF518E51734FFF517E51634FFF516C9
:0B058E00E51534FFF51580C8C28E2271
:10046A008F1C8E1B8D1A8C1953C9BF53C9DF43C900
:10047A0010D2CAE4FFFEFDFCAB1CAA1BA91AA819DC
:10048A00C312014C602575CC3075CDF830CFFDC252
:10049A00CFE51C24FFF51CE51B34FFF51BE51A34D8
:0E04AA00FFF51AE51934FFF51980C8C2CA2201
:1003CA008F248E238D228C2175C40743C408E4FF31
:1003DA00FEFDFCAB24AA23A922A821C312014C606A
:1003EA002B75C52C75C6CFE5C45410641070F8532C
:1003FA00C4EFE52424FFF524E52334FFF523E522A1
:10040A0034FFF522E52134FFF52180C253C4F722D7
:10041A008F288E278D268C2575C40743C408E4FFD0
:10042A00FEFDFCAB28AA27A926A825C312014C6009
:10043A002B75C5D875C6FFE5C45410641070F853FF
:10044A00C4EFE52824FFF528E52734FFF527E5263C
:10045A0034FFF526E52534FFF52580C253C4F7227B
:1000260053B1BF53B2BF53B17F53B27F759850439C
:100036008920438780438E1053C4DFAB07AA06A9E5
:1000460005A8047F407E427D0F7C001200BAEF04B3
:09005600F404F58DD28ED299223A
:1002FD008F2C8E2B8D2A8C2953B1BF53B2BF53B186
:10030D007F53B27F75985043878053C4F843C42000
:10031D00AB2CAA2BA92AA8297F407E427D0F7C00F9
:10032D001200BAC374FF9FFF74FF9EFEE49DFDE4AF
:10033D009CFC780812015D8FC6AB2CAA2BA92AA8AC
:10034D00297F407E427D0F7C001200BAC374FF9F4F
:09035D00FF8FC543C408D29922A8
:070003003098FDAF99C2988F
:01000A0022D3
:0805FC00C2998F993099FD228C
:100366008F0C8E0B8D0A8C0953B1FB53B2FB53B322
:10037600BF53B4BF75F85075C40853C4DFAB0CAA9D
:100386000BA90AA8097F407E427D0F7C001200BAA5
:10039600C374FF9FFF74FF9EFEE49DFDE49CFC7802
:1003A6000812015D8FC6AB0CAA0BA90AA8097F40EB
:1003B6007E427D0F7C001200BAC374FF9FFF8FC57B
:0403C60043C4082202
:0706040030F8FDAF9AC2F8C7
:01060B0022CC
:08060C00C2F98F9A30F9FD22BA
:030000000201708A
:1001700075C7AA75C75575FD5A75C7AA75C7557550
:10018000FDA5787FE4F6D8FD9000007FFF7E03E4B4
:0C019000F0A3DFFCDEFA75812F0201D71E
:10019C0002000EE493A3F8E493A34003F68001F26B
:1001AC0008DFF48029E493A3F85407240CC8C33364
:1001BC00C4540F4420C8834004F456800146F6DF33
:1001CC00E4800B0102040810204080900614E47EA9
:1001DC00019360BCA3FF543F30E509541FFEE49328
:1001EC00A360010ECF54C025E060A840B8E493A3EF
:1001FC00FAE493A3F8E493A3C8C582C8CAC583CA1A
:10020C00F0A3C8C582C8CAC583CADFE9DEE780BED1
:0106170000E2
:10007E0075F008758200EF2FFFEE33FECD33CDCC39
:10008E0033CCC58233C5829BED9AEC99E5829840BC
:10009E000CF582EE9BFEED9AFDEC99FC0FD5F0D699
:1000AE00E4CEFBE4CDFAE4CCF9A88222B800C1B9C3
:1000BE000059BA002DEC8BF084CFCECDFCE5F0CB01
:1000CE00F97818EF2FFFEE33FEED33FDEC33FCEB3A
:1000DE0033FB10D703994004EB99FB0FD8E5E4F9F5
:1000EE00FA227818EF2FFFEE33FEED33FDEC33FCE2
:1000FE00C933C910D7059BE99A4007EC9BFCE99AD6
:10010E00F90FD8E0E4C9FAE4CCFB2275F010EF2F1A
:10011E00FFEE33FEED33FDCC33CCC833C810D7071A
:10012E009BEC9AE899400AED9BFDEC9AFCE899F855
:0E013E000FD5F0DAE4CDFBE4CCFAE4C8F922E8
:10014C00EB9FF5F0EA9E42F0E99D42F0E89C45F009
:01015C002280
:10015D00E8600FECC313FCED13FDEE13FEEF13FF80
:03016D00D8F122A4
:00000001FF
