:10079D001213507FE87E037D007C001210BB7F0199
:1007AD0012153C900107E475F0011201EEFED3E540
:1007BD00F09458EE94024009E4900107F0A3F08004
:1007CD001890010AE0700B12006E12007A12146676
:1007DD0080EFE490010AF080CA7F04120EC99001E7
:1007ED0007E475F0011201EEFED3E5F09464EE948A
:1007FD00004009E4900107F0A3F0800A90010AE09F
:10080D0060FAE4F080D812163BE4FF120EC9900195
:10081D0007E475F001120204FED3E5F094C8EE94DE
:10082D00004060E4900107F0A3F01216D09000D1C3
:10083D00EFF0F47019121677EF640170469001090C
:10084D00E004F0D3940F748094804037802D900095
:10085D00D1E0D39404748094804009E4900109F0B0
:10086D007F01801C121677EF64017017900109E06B
:10087D0004F0D3940F7480948040087410F0E4FF5A
:10088D001216CA120DED121390120D7F120F339026
:10089D00010AE0701712006E12007A1216E81208A3
:1008AD00C112130A1214661216E580E3E490010AD0
:0408BD00F002081B22
:10135000E4F5B1F5B2F5B3F5B4F5ACF5ADC285C2BF
:1013600096C294D292C29112004E12162D121600FD
:10137000120C231215641200261214961214031272
:10138000167D12165743B21843B408D283D2AF2247
:0416D6004101230AA1
:10004E005389F0438901438E0890012474C1F0A3B3
:0D005E007480F0758CC1F58AD2A9D28C2275
:03000B000214ECF0
:0614EC00C0E0C083C082D5
:1014F200900124E0F58CA3E0F58A900123E014F03A
:0B1502007009740AF090010A74FFF0F9
:07150D00D082D083D0E03250
:0E162D007F007EC27D017C001213CAD2AC2267
:0E163B007F807E257D007C001213CAD2AC2277
:0300230002127B4B
:10127B00C0E0C0F0C083C082C0D075D000C000C039
:10128B0001C002C003C004C005C006C007309905E9
:10129B00121117C299309805120B94C298D007D02F
:1012AB0006D005D004D003D002D001D000D0D0D0CE
:0812BB0082D083D0F0D0E032B4
:0F1600007F807E257D007C00120E5B439C0122C3
:03007B000212C3AB
:1012C300C0E0C0F0C083C082C0D075D000C000C0F1
:1012D30001C002C003C004C005C006C00730F90244
:1012E300C2F930F807C2F8AF9A121514D007D00626
:1012F300D005D004D003D002D001D000D0D0D0820A
:07130300D083D0F0D0E032EE
:08000300C2F98F9A30F9FD22C9
:100C2300A2AF9200C2AF75C7AA75C75543910143DE
:100C3300C60875C7AA75C7555391FEA20092AF4364
:100C4300B210538EBFA2AF920075C7AA75C7557570
:100C5300910153B7F843B70375C7AA75C755E4F5B0
:100C630091A20092AFA2AF920075C7AA75C755753E
:100C7300910143B71053D8DF75C7AA75C755F591CE
:100C8300A20092AF75D104F5D975D50175DDFF5377
:070C93009BF7C2DEC2DF2265
:03006B0002000E82
:10000E00C0E0C083C082C2DD90012674FFF0D082B2
:05001E00D083D0E032A8
:0E164900E4F5D575DD01439B08D2DED2DF2229
:08169000539BF7C2DFC2DD220B
:10158A00120174FF7E00D394FFEE940340047E039D
:10159A007FFFEF4E7003FE7F018FDDEEF5D5D2DEC1
:0115AA00221E
:1015AB00AFDDEF700FAFD5EF640270089000C6741B
:1015BB0002F0800905DDAFDDEF700205D5D2DE222A
:0C006E00900126E06005E4F0120D0D2268
:1015640043F40853F37F53F3DF53F3F753F3FB438D
:10157400F31053F3FE53F3FD539BBFD29553F3BFC4
:06158400E49000F8F022E3
:0C1665008FF5E5F4548060FA53F47F2206
:0E160F00E4F5F5E5F4548060FAAFF553F47F8E
:01161D0022AA
:03004B000215CBD0
:1015CB00C0E0C083C082E5F430E70990010074FFEE
:0B15DB00F053F47FD082D083D0E032C8
:100F9A009000E012031FD2959000E0E0FCA3E0FD70
:100FAA00A3E0FEA3E0FF78101202F99000FCEFF034
:100FBA009000E0E0FCA3E0FDA3E0FEA3E0FF7808D8
:100FCA001202F99000FBEFF09000E0A3A3A3E090D7
:100FDA0000FAF0C29543F3407F031216659000FCB5
:100FEA00E0FF1216659000FBE0FF1216659000FA0A
:050FFA00E0FF02166596
:0E161E00E4F5F5E5F4548060FAAFF553F47F7F
:01162C00229B
:0616B800D29553F3BF229E
:01007A002263
:10002600E4FFEFC3942074809480500F74982FF5EA
:1000360082E43400F583E4F00F80E7E4900097F063
:04004600900096F0A0
:01004A002293
:10151400900096E004541FFEA3E06E601A900096BB
:10152400E0FE04F074982EF582E43400F583EFF0C5
:08153400900096E0541FF02224
:10143600900096E0FFA3E0B507037F002290009797
:10144600E0FF04F074982FF582E43400F583E0128F
:1014560001BA900097E0541FF01214C2EF04FF2265
:1014C200900096E0FEA3E0FDB506037F0022EDD377
:1014D2009E400A900096E02420C39DFF2290009730
:0A14E200E0FF900096E0C39FFF2298
:0116E80022DF
:0616BE009000C1EFF022D4
:0616C4009000C1E0FF22CE
:10140300E49000C8F09000C8E0FFC394087480948F
:1014130080501474C92FF582E43400F583E4F0900E
:1014230000C8E004F080DEE49000C7F0A3F07F0280
:031433000216BEE0
:0116E90022DE
:0116EA0022DD
:05035C009000D7EFF056
:100361007E00D394007480948050030204DEEF94E5
:100371000B7480948040030204DE9000DC12032B96
:10038100000000009000DCE0F8A3E0F9A3E0FAA38C
:10039100E0FB9000D7E0FFEB4FFFEAFEE9FDE8FC50
:1003A1009000DC12031F9000DCE0FCA3E0FDA3E061
:1003B100FEA3E0FF780412030C9000DC12031F90EF
:1003C10000DCE0FCA3E0FDA3E0FEA3E0FF120F9A36
:1003D10012161E9000D8EFF012161E9000D9EFF001
:1003E10012161E9000DAEFF012161E9000DBEFF0ED
:1003F1001216B89000DC12032B000000009000DC04
:10040100E0F8A3E0F9A3E0FAA3E0FB9000DBE0FF52
:10041100EB4FFFEAFEE9FDE8FCA312031F9000DCAD
:10042100E0FCA3E0FDA3E0FEA3E0FF780812030CCB
:100431009000DC12031F9000DCE0F8A3E0F9A3E0D8
:10044100FAA3E0FB9000DAE0FFEB4FFFEAFEE9FDE3
:10045100E8FC9000DC12031F9000DCE0FCA3E0FD4F
:10046100A3E0FEA3E0FF780812030C9000DC120366
:100471001F9000DCE0F8A3E0F9A3E0FAA3E0FB9011
:1004810000D9E0FFEB4FFFEAFEE9FDE8FC9000DC5C
:1004910012031F9000DCE0FCA3E0FDA3E0FEA3E05B
:1004A100FF780812030C9000DC12031F9000DCE0BF
:1004B100F8A3E0F9A3E0FAA3E0FB9000D8E0FFEB9A
:1004C1004FFFEAFEE9FDE8FC9000DC12031F9000FB
:1004D100DCE0FCA3E0FDA3E0FEA3E0FF22E4FFFEDD
:0204E100FDFC20
:0104E30022F6
:10153C009000C8E0045407FE9000C7E06E6018A34A
:10154C00E0FE04F074C92EF582E43400F583EFF06C
:08155C009000C8E05407F022E2
:05064C009000D2EFF068
:100651007F011216BE1216909000D2E0FF12035CC9
:100661009000B812031F9000B8E0FCA3E0FDA3E0E6
:10067100FEA3E0242AFFE43EFEE43DFDE43CFC123F
:100681000F9A12161E9000D3EFF012161E9000D48E
:10069100EFF012161E9000D5EFF012161E9000D644
:1006A100EFF09000C212032B000000009000C2E0A6
:1006B100F8A3E0F9A3E0FAA3E0FB9000D6E0FFEB9A
:1006C1004FFFEAFEE9FDE8FC9000C212031F900013
:1006D100C2E0FCA3E0FDA3E0FEA3E0FF7808120363
:1006E1000C9000C212031F9000C2E0F8A3E0F9A32E
:1006F100E0FAA3E0FB9000D5E0FFEB4FFFEAFEE953
:10070100FDE8FC9000C212031F9000C2E0FCA3E0D0
:10071100FDA3E0FEA3E0FF780812030C9000C212D3
:10072100031F9000C2E0F8A3E0F9A3E0FAA3E0FB05
:100731009000D4E0FFEB4FFFEAFEE9FDE8FC9000FA
:10074100C212031F9000C2E0FCA3E0FDA3E0FEA3E0
:10075100E0FF780812030C9000C212031F9000C240
:10076100E0F8A3E0F9A3E0FAA3E0FB9000D3E0FFF7
:10077100EB4FFFEAFEE9FDE8FC9000C212031FE423
:100781009000D3F0A37402F09000BD12032B00007F
:0B07910000001216499000C67402F030
:01079C00223A
:100D0D009000C6E024FE60060470660215AB9000EC
:100D1D00C2E0FCA3E0FDA3E0FEA3E0FF9000BDE078
:100D2D00F8A3E0F9A3E0FAA3E0FBC31202E8700E0A
:100D3D007F021216BE1216E91216B802169012167E
:100D4D00EA12161E9000D2EFF09000BDE0FCA3E079
:100D5D00FDA3E0FEA3E02401FFE43EFEE43DFDE43F
:100D6D003CFC9000BD12031F7B017A0079D2121555
:010D7D008AEB
:010D7E002252
:101466009000C7E0FFA3E06F60251216C4EF640288
:10147600701D9000C7E0FF04F074C92FF582E434B4
:1014860000F583E0FF12064C9000C7E05407F022F7
:1009A900FB33000000000000000203020000030006
:1009B90000006401000000000000000000000000C9
:1009C900000000000000000000000000000000001E
:1009D900000063FB33000000000000000203020076
:1009E90000010000000000000000000000000000FD
:1009F90000000000000000000000000000000000EE
:100A0900000000000063FB0F00000000000000026E
:100A190001020000F1FB0F000000000000000202CB
:100A2900020000F0FB0F00000000000000020402B9
:100A39000000EEFB1300000000000000090509009A
:100A49000080250000360A0F0A1E0A2D09A90A3C52
:0616CA00900006EFF02283
:061671009000057401F079
:06167700900006E0FF22D6
:101496009000517401F0A37400F0A3740EF0900054
:1014A6004E7401F0A37400F0A3742EF0E490000AC9
:0C14B600F0C293900005F07F010216CAFE
:100B0500E4FE9009DDE493FDEEC39D5015EE9009DA
:100B1500DC93FD74552EF582E43400F583EDF00E7B
:100B250080E09000637401F0900067EFF0E4FFFE51
:100B35009009DDE49314FDEEC39D501074552EF518
:100B450082E43400F583E02FFF0E80E4EFF4FF0F1D
:100B550074552EF582E43400F583EFF090000774A8
:100B650001F0A37400F0A37455F09000957401F0A2
:100B7500E490000DF0900007E0FBA3E0FAA3E0F994
:0E0B850090000DE0F58275830012018DF59948
:010B9300223F
:0516DB007F64020B0515
:0516E0007F03020B0571
:050EC9009000D2EFF0E3
:100ECE0078D37C007D017BFF7A0A794F7E007F0A02
:100EDE0012014E9000D2E0FFD3940474809480509F
:100EEE0043EF25E024D3F582E43400F583E0FEA33E
:100EFE00E0AA06F990000774FFF0A3EAF0A3E9F068
:100F0E009000957401F0E490000DF0900007E0FB66
:100F1E00A3E0FAA3E0F990000DE0F58275830012CC
:040F2E00018DF599A3
:010F3200229C
:100D7F00900054E06038900000E475F0011201EE2D
:100D8F00FED3E5F094C2EE94014052E4900000F0DF
:100D9F00A3F0900004E0600CE4900054F0C2937F45
:100DAF000402153C7F0312153C7F02020EC990000E
:100DBF0000E475F0011201EEFED3E5F0945EEE94BF
:100DCF0001401AE4900000F0A3F0900005E06003EA
:0D0DDF00E4F022E4900109F07F011216CA31
:010DEC0022E4
:1008C10090000AE020E7030209A8547FF090004E4F
:1008D100E0FBA3E0FAA3E0F990000112018DFFE42F
:1008E100FEFDEDC39F501890004EE0FBA3E0FAA37C
:1008F100E0F98D8275830012018D2EFE0D80E3EEED
:1009010060030209A890004EE0FBA3E0FAA3E0F91E
:1009110090000912018D24EE605C2410600302092D
:10092100A890000A12018D6406707C900054E0705A
:100931007690000E12018D24FE601614601F146063
:100941002824037062121671EF6401705A7F0680C9
:1009510022121671EF6401704E7F05801612167116
:10096100EF640170427F07800A121671EF64017013
:10097100367F0802153C90004EE0FBA3E0FAA3E0AD
:10098100F990000A12018D6404701C90000B120191
:100991008D6402701290000D12018D700A90000E8C
:0709A10012018D900004F02B
:0109A800222C
:10111700900095E06401705090000DE004F06401C8
:10112700701B900007E0FBA3E0FAA3E0F990000D25
:10113700E0F58275830012018D900002F0900002A5
:10114700E014FF90000DE0FED39F400790009574D8
:1011570080F022900007E0FBA3E0FAA3E0F98E827B
:0811670075830012018DF5995A
:01116F00225D
:100B9400AF99EF64FB700490000BF090000BE0FE43
:100BA40064017005900003EFF0900051E0FBA3E0B6
:100BB400FAA3E0F98E82758300EF1201CC90000B4A
:100BC400E004F0E0FF900003E06F705290000AE050
:100BD40030E02154FEF09000517401F0A37400F051
:100BE400A3740EF090004E7401F0A37400F0A3748B
:100BF4002EF0802390000AE04401F090005174012B
:100C0400F0A37400F0A3742EF090004E7401F0A3CE
:0E0C14007400F0A3740EF090000AE04480F02B
:010C220022AF
:0A167D00D297900106E04401F0222C
:100DED00309727900101E0FFD394027480948040E6
:100DFD000FEF94DD7480948050069001057401F01E
:100E0D00E4900102F0900101F022900102E01460E3
:100E1D0017047039900101E004F0D39402748094AA
:100E2D0080402AA37401F022900101E004F0E0FF5C
:100E3D007E0064DC70069001057402F0D3EF94DC43
:0D0E4D00EE64809480400690010174E1F095
:010E5A002275
:10130A00900105E0603F6401701CA3E0640170086D
:10131A007480F07F0A12153C900106E0700874810F
:10132A00F07F0112153C900105E0640270129000F2
:10133A005474FFF0D2937F02120EC97F0212153C39
:06134A00E4900105F02211
:100F3300900106E030E709547FF09001037401F05B
:100F4300900103E0605024FE601C14601C14602AAE
:100F53002403703D900106E090010330E004740225
:100F6300F0227403F0220215E67F0A12153C7F017A
:100F7300120EC99001037404F022900104E0FF04EF
:100F8300F0D3EF94FB74809480400BC283C29280B1
:060F930000E4900103F0F0
:010F99002235
:09168700475056544700FF168736
:0E165700E49000F5F09000F4F09000F3F02223
:1004E4007B017A0079D2121436EF700302064B9026
:1004F40000E4E014602814700302059714700302EA
:1005040005B92403600302064B9000D2E064246022
:100514000302064B9000E4E004F0E4A3F022900010
:10052400D2E0FF9000E5E0FE04F074E72EF582E4EB
:100534003400F583EFF09000E5E064056003020603
:100544004BA3F09000E5E0FFA3E0FEC39F5034907E
:10055400168DE493FB740193FA740293F98E8275F9
:10056400830012018DFF74E72EF582E43400F583D5
:10057400E06F6007E49000E4F080089000E6E00497
:10058400F080C09000E6E06405600302064B900032
:10059400E580189000D2E0B42C069000E5E004F069
:1005A4009000E5E06407600302064BF0A3F09000BE
:1005B400E4E004F0229000D2E0FF642C6005EF64D4
:1005C4002E706A9000E5E06058640370229000E8A1
:1005D400E075F00AA4FF9000E7E075F064A42FFF33
:1005E4009000E9E02F9000F5F09000F474FFF09093
:1005F40000E5E0FB640270169000E7E075F00AA4E1
:10060400FEA3E02E9000F5F09000F474FFF0EB648C
:1006140001700E9000E7E09000F5F09000F474FF94
:10062400F0E49000E5F0A3F09000E4F0229000D212
:10063400E024D0FF9000E5E0FE04F074E72EF5829C
:07064400E43400F583EFF040
:01064B00228C
:0616D0009000F3E0FF2290
:101390009000F4E06011E4F09000F1F0A3F0900010
:1013A000F5E09000F3F0229000F1E475F0011201F5
:1013B000EEFED3E5F09405EE9400400D9000F1E4CC
:0913C000F0A3740FF0A374FFF018
:0113C9002201
:0316E5000204E418
:1011700090010B12031F538EF7438901D28CE4FFB9
:10118000FEFDFC90010BE0F8A3E0F9A3E0FAA3E078
:10119000FBC31202E8602F758A7E758CFF308DFDCF
:1011A000C28D90010BE0FCA3E0FDA3E0FEA3E024D0
:1011B000FFFFEE34FFFEED34FFFDEC34FFFC900149
:0911C0000B12031F80B8C28C223F
:1011C90090010F12031F538EF7438901D28CE4FF5C
:1011D900FEFDFC90010FE0F8A3E0F9A3E0FAA3E01B
:1011E900FBC31202E8602F758ACA758CFA308DFD2F
:1011F900C28D90010FE0FCA3E0FDA3E0FEA3E02473
:10120900FFFFEE34FFFEED34FFFDEC34FFFC9001EF
:091219000F12031F80B8C28C22E1
:1012220090011312031F538EEF438910D28EE4FFF5
:10123200FEFDFC900113E0F8A3E0F9A3E0FAA3E0BD
:10124200FBC31202E8602F758BEA758DCB308FFDE0
:10125200C28F900113E0FCA3E0FDA3E0FEA3E02413
:10126200FFFFEE34FFFEED34FFFDEC34FFFC900196
:091272001312031F80B8C28E2282
:1010BB009000D212031F53C9BF53C9DF43C910D2CB
:1010CB00CAE4FFFEFDFC9000D2E0F8A3E0F9A3E038
:1010DB00FAA3E0FBC31202E8602F75CC3075CDF894
:1010EB0030CFFDC2CF9000D2E0FCA3E0FDA3E0FE29
:1010FB00A3E024FFFFEE34FFFEED34FFFDEC34FFE5
:0C110B00FC9000D212031F80B8C2CA2260
:100FFF0090011712031F75C40743C408E4FFFEFDD9
:10100F00FC900117E0F8A3E0F9A3E0FAA3E0FBC31B
:10101F001202E8603575C52C75C6CFE5C45410644F
:10102F001070F853C4EF900117E0FCA3E0FDA3E0AC
:10103F00FEA3E024FFFFEE34FFFEED34FFFDEC34A2
:0E104F00FFFC90011712031F80B253C4F7225A
:10105D0090011B12031F75C40743C408E4FFFEFD76
:10106D00FC90011BE0F8A3E0F9A3E0FAA3E0FBC3B9
:10107D001202E8603575C5D875C6FFE5C454106415
:10108D001070F853C4EF90011BE0FCA3E0FDA3E04A
:10109D00FEA3E024FFFFEE34FFFEED34FFFDEC3444
:0E10AD00FFFC90011B12031F80B253C4F722F8
:1013CA0053B1BF53B2BF53B17F53B27F75985043E5
:1013DA008920438780438E1053C4DFAB07AA06A92E
:1013EA0005A8047F407E427D0F7C00120256EF045E
:0913FA00F404F58DD28ED2992283
:100C9A0090011F12031F53B1BF53B2BF53B17F5309
:100CAA00B27F75985043878053C4F843C42090019B
:100CBA001FE0F8A3E0F9A3E0FAA3E0FB7F407E423D
:100CCA007D0F7C00120256C374FF9FFF74FF9EFEC5
:100CDA00E49DFDE49CFC78081202F98FC690011F7E
:100CEA00E0F8A3E0F9A3E0FAA3E0FB7F407E427DAF
:100CFA000F7C00120256C374FF9FFF8FC543C408BE
:030D0A00D2992259
:071698003098FDAF99C298E4
:01169F002228
:0816A000C2998F993099FD22D7
:100E5B009000D212031F53B1FB53B2FB53B3BF53DA
:100E6B00B4BF75F85075C40853C4DF9000D2E0F8D6
:100E7B00A3E0F9A3E0FAA3E0FB7F407E427D0F7C69
:100E8B0000120256C374FF9FFF74FF9EFEE49DFD8C
:100E9B00E49CFC78081202F98FC69000D2E0F8A30C
:100EAB00E0F9A3E0FAA3E0FB7F407E427D0F7C00DC
:0E0EBB00120256C374FF9FFF8FC543C4082266
:0716A80030F8FDAF9AC2F813
:0116AF002218
:0816B000C2F98F9A30F9FD2206
:1015E60075C7AA75C755A2AF9200C2AF75C7AA75CF
:0A15F600C755439F80A20092AF2268
:03000000020A5998
:100A590075C7AA75C75575FD5A75C7AA75C755755E
:100A6900FDA5787FE4F6D8FD9000007FFF7E03E4C2
:0C0A7900F0A3DFFCDEFA758120020AC049
:100A850002079DE493A3F8E493A34003F68001F2E3
:100A950008DFF48029E493A3F85407240CC8C33372
:100AA500C4540F4420C8834004F456800146F6DF41
:100AB500E4800B01020408102040809016D6E47EE5
:100AC500019360BCA3FF543F30E509541FFEE49336
:100AD500A360010ECF54C025E060A840B8E493A3FD
:100AE500FAE493A3F8E493A3C8C582C8CAC583CA28
:100AF500F0A3C8C582C8CAC583CADFE9DEE780BEE0
:0116DA00000F
:10007E00E709F608DFFA8046E709F208DFFA803E64
:10008E0088828C83E709F0A3DFFA8032E309F60851
:10009E00DFFA8078E309F208DFFA807088828C83B9
:1000AE00E309F0A3DFFA806489828A83E0A3F6086D
:1000BE00DFFA805889828A83E0A3F208DFFA804C47
:1000CE0080D280FA80C680D4806980F2803380101E
:1000DE0080A680EA809A80A880DA80E280CA803387
:1000EE0089828A83ECFAE493A3C8C582C8CCC583FF
:1000FE00CCF0A3C8C582C8CCC583CCDFE9DEE780CF
:10010E000D89828A83E493A3F608DFF9ECFAA9F04D
:10011E00EDFB2289828A83ECFAE0A3C8C582C8CCA3
:10012E00C583CCF0A3C8C582C8CCC583CCDFEADEBC
:10013E00E880DB89828A83E493A3F208DFF980CC1E
:10014E0088F0EF60010E4E60C388F0ED2402B40417
:10015E000050B9F582EB2402B4040050AF232345BE
:06016E0082239000CE7315
:10017400BB010689828A83E0225002E722BBFE0289
:09018400E32289828A83E49322BC
:10018D00BB010CE58229F582E5833AF583E0225027
:10019D0006E92582F8E622BBFE06E92582F8E22271
:0D01AD00E58229F582E5833AF583E493228B
:1001BA00BB010689828A83F0225002F722BBFE0124
:0201CA00F3221E
:1001CC00F8BB010DE58229F582E5833AF583E8F069
:1001DC00225006E92582C8F622BBFE05E92582C815
:0201EC00F222FD
:1001EE00C5F0F8A3E028F0C5F0F8E582158270029C
:0601FE001583E038F02239
:10020400A3F8E0C5F025F0F0E582158270021583AD
:06021400E0C838F0E8220A
:10021A0075F008758200EF2FFFEE33FECD33CDCC9B
:10022A0033CCC58233C5829BED9AEC99E58298401E
:10023A000CF582EE9BFEED9AFDEC99FC0FD5F0D6FB
:10024A00E4CEFBE4CDFAE4CCF9A88222B800C1B925
:10025A000059BA002DEC8BF084CFCECDFCE5F0CB63
:10026A00F97818EF2FFFEE33FEED33FDEC33FCEB9C
:10027A0033FB10D703994004EB99FB0FD8E5E4F957
:10028A00FA227818EF2FFFEE33FEED33FDEC33FC44
:10029A00C933C910D7059BE99A4007EC9BFCE99A38
:1002AA00F90FD8E0E4C9FAE4CCFB2275F010EF2F7D
:1002BA00FFEE33FEED33FDCC33CCC833C810D7077D
:1002CA009BEC9AE899400AED9BFDEC9AFCE899F8B8
:0E02DA000FD5F0DAE4CDFBE4CCFAE4C8F9224B
:1002E800EB9FF5F0EA9E42F0E99D42F0E89C45F06C
:0102F80022E3
:1002F900E8600FECC313FCED13FDEE13FEEF13FFE3
:03030900D8F12206
:10030C00E8600FEFC333FFEE33FEED33FDEC33FC4F
:03031C00D8F122F3
:0C031F00ECF0A3EDF0A3EEF0A3EFF02251
:10032B00A8828583F0D083D082120342120342123B
:10033B000342120342E473E493A3C583C5F0C58360
:10034B00C8C582C8F0A3C583C5F0C583C8C582C81C
:01035B00227F
:00000001FF
