:100933001218707FC87E007D007C00121584120F90
:10094300A47F01121A64900124E475F0011201EEF0
:10095300FED3E5F09458EE94024009E4900124F0AC
:10096300A3F0801E900128E0700E12006E12007A30
:1009730012198E12182E80EC1212BDE4900128F089
:1009830080C47F04121399900124E475F0011201CD
:10099300EEFED3E5F094D0EE94074009E4900124F1
:1009A300F0A3F08018900128E0700B12006E120083
:1009B3007A12198E80EFE4900128F080CA121B8FFF
:1009C300E4FF121399E4900127F0900124E475F0F9
:1009D30001120204FED3E5F094C8EE94004061E4F2
:1009E300900124F0A3F0121C339000F3EFF0F470A5
:1009F3002F121B79EF64017014900127E004F0D3E8
:100A0300940F7480948040387410F08033900126E2
:100A1300E0702D04F0FF121C2DE4900127F08020DC
:100A2300E4900126F09000F3E0D394047480948062
:100A3300E49001274005F07F018002F0FF121C2D96
:100A4300900128E0701712006E12007A121C5112E6
:100A5300066A12182E12198E121C4E80E31212BD52
:100A6300120F021215E01211D4120A7A121468E45A
:070A7300900128F00209CDFB
:10187000E4F5B1F5B2F5B3F5B4F5ACF5ADC285C29A
:1018800094D292C29112004E121B7F121B9F121112
:101890005E121A8C1200261219BE1218EB121BE6E9
:0E18A000121B4B43B21843B408D283D2AF22BE
:041C39004101450A16
:10004E005389F0438901438E0890014674C1F0A391
:0D005E007480F0758CC1F58AD2A9D28C2275
:03000B00021A14C2
:061A1400C0E0C083C082A7
:101A1A00900146E0F58CA3E0F58A900145E014F0C8
:0B1A2A007009740AF090012874FFF0AE
:071A3500D082D083D0E03223
:101B7F00C2AC7F007EC27D017C00121925D2AC223F
:101B8F00C2AC7F807E257D007C00121925D2AC224D
:0300230002179F22
:10179F00C0E0C0F0C083C082C0D075D000C000C010
:1017AF0001C002C003C004C005C006C007309905C0
:1017BF0012163BC2993098051210CFC298D007D09D
:1017CF0006D005D004D003D002D001D000D0D0D0A5
:0817DF0082D083D0F0D0E0328B
:0F1B9F007F807E257D007C0012132B439C01224A
:03007B000217E782
:1017E700C0E0C0F0C083C082C0D075D000C000C0C8
:1017F70001C002C003C004C005C006C00730F9021B
:10180700C2F930F807C2F8AF9A121A3CD007D006CF
:10181700D005D004D003D002D001D000D0D0D082E0
:07182700D083D0F0D0E032C5
:08000300C2F98F9A30F9FD22C9
:10115E00A2AF9200C2AF75C7AA75C755439101439E
:10116E00C60875C7AA75C7555391FEA20092AF4324
:10117E00B210538EBFA2AF920075C7AA75C7557530
:10118E00910153B7F843B70375C7AA75C755E4F570
:10119E0091A20092AFA2AF920075C7AA75C75575FE
:1011AE00910143B71053D8DF75C7AA75C755F5918E
:1011BE00A20092AF75D104F5D9F5D575DD01539B1B
:0611CE00F7C2DEC2DF22C1
:03006B0002000E82
:10000E00C0E0C083C082C2DD90014A74FFF0D0828E
:05001E00D083D0E032A8
:0E1BCC00E4F5D575DD01439B08D2DED2DF22A1
:081BF900539BF7C2DFC2DD229D
:101AD500120174FF7E00D394FFEE940340047E034D
:101AE5007FFFEF4E7003FE7F018FDDEEF5D5D2DE71
:011AF50022CE
:101AF600AFDDEF6480700DAFD5EF70089000A7746E
:101B060002F0800905DDAFDDEF700205D5D2DE22D9
:0C006E0090014AE06005E4F0120DA922A8
:101A8C0043F40853F37F53F3DF53F3F753F3FB4360
:101A9C00F31053F3FE53F3FD539BBFD29553F3BF97
:061AAC00E4900108F022A5
:0C1BDA008FF5E5F4548060FA53F47F228C
:0E1BAE00E4F5F5E5F4548060FAAFF553F47FEA
:011BBC002206
:03004B00021B167F
:101B1600C0E0C083C082E5F430E70990011074FF8D
:0B1B2600F053F47FD082D083D0E03277
:10140300900102120335D295900102E0FCA3E0FDA6
:10141300A3E0FEA3E0FF781012030F90010CEFF09E
:10142300900102E0FCA3E0FDA3E0FEA3E0FF780847
:1014330012030F90010BEFF0900102A3A3A3E0901E
:10144300010AF0C29543F3407F03121BDA90010CAB
:10145300E0FF121BDA90010BE0FF121BDA90010A86
:05146300E0FF021BDAAE
:0E1BBD00E4F5F5E5F4548060FAAFF553F47FDB
:011BCB0022F7
:061C2100D29553F3BF222F
:01007A002263
:10002600E4FFEFC3942074809480500F74BD2FF5C5
:1000360082E43400F583E4F00F80E7E49000BCF03E
:040046009000BBF07B
:01004A002293
:101A3C009000BBE004541FFEA3E06E601A9000BB44
:101A4C00E0FE04F074BD2EF582E43400F583EFF073
:081A5C009000BBE0541FF022D2
:10195E009000BBE0FFA3E0B507037F00229000BC20
:10196E00E0FF04F074BD2FF582E43400F583E0123D
:10197E0001BA9000BCE0541FF01219EAEF04FF22E6
:1019EA009000BBE0FEA3E0FDB506037F0022EDD325
:1019FA009E400A9000BBE02420C39DFF229000BCB9
:0A1A0A00E0FF9000BBE0C39FFF2245
:011C51002270
:101B5D00EF64017004D2948002C2949000A2EFF061
:011B6D002255
:061C27009000A2E0FF2284
:1018EB00E49000A9F09000A9E0FFC39408748094E1
:1018FB0080501474AB2FF582E43400F583E4F09040
:10190B0000A9E004F080DEE49000A8F0A3F07F02D1
:0A191B00121B5D9000AA7409F0226F
:031C4800C2912224
:031C4B00D2912211
:050372009000F9EFF01E
:100377007E00D394007480948050030204F4EF94B9
:100387000E7480948040030204F49000FE1203412F
:10039700000000009000FEE0F8A3E0F9A3E0FAA354
:1003A700E0FB9000F9E0FFEB4FFFEAFEE9FDE8FC18
:1003B7009000FE1203359000FEE0FCA3E0FDA3E0F1
:1003C700FEA3E0FF78041203229000FE120335908B
:1003D70000FEE0FCA3E0FDA3E0FEA3E0FF12140390
:1003E700121BBD9000FAEFF0121BBD9000FBEFF05F
:1003F700121BBD9000FCEFF0121BBD9000FDEFF04B
:10040700121C219000FE120341000000009000FE24
:10041700E0F8A3E0F9A3E0FAA3E0FB9000FDE0FF1A
:10042700EB4FFFEAFEE9FDE8FCA31203359000FE5F
:10043700E0FCA3E0FDA3E0FEA3E0FF78081203229F
:100447009000FE1203359000FEE0F8A3E0F9A3E068
:10045700FAA3E0FB9000FCE0FFEB4FFFEAFEE9FDAB
:10046700E8FC9000FE1203359000FEE0FCA3E0FDDF
:10047700A3E0FEA3E0FF78081203229000FE120318
:10048700359000FEE0F8A3E0F9A3E0FAA3E0FB90C3
:1004970000FBE0FFEB4FFFEAFEE9FDE8FC9000FE02
:1004A7001203359000FEE0FCA3E0FDA3E0FEA3E00D
:1004B700FF78081203229000FE1203359000FEE039
:1004C700F8A3E0F9A3E0FAA3E0FB9000FAE0FFEB62
:1004D7004FFFEAFEE9FDE8FC9000FE1203359000AD
:1004E700FEE0FCA3E0FDA3E0FEA3E0FF22E4FFFEA5
:0204F700FDFC0A
:0104F90022E0
:101A64009000A9E004540FFE9000A8E06E6018A353
:101A7400E0FE04F074AB2EF582E43400F583EFF05D
:081A84009000A9E0540FF022CC
:0507D5009000F4EFF0BC
:1007DA007F01121B5D121BF99000F4E0FF120372F5
:1007EA00900099120335900099E0FCA3E0FDA3E084
:1007FA00FEA3E0242AFFE43EFEE43DFDE43CFC12B5
:10080A001403121BBD9000F5EFF0121BBD9000F609
:10081A00EFF0121BBD9000F7EFF0121BBD9000F82D
:10082A00EFF09000A3120341000000009000A3E043
:10083A00F8A3E0F9A3E0FAA3E0FB9000F8E0FFEBED
:10084A004FFFEAFEE9FDE8FC9000A3120335900091
:10085A00A3E0FCA3E0FDA3E0FEA3E0FF78081203F7
:10086A00229000A31203359000A3E0F8A3E0F9A3B5
:10087A00E0FAA3E0FB9000F7E0FFEB4FFFEAFEE9A6
:10088A00FDE8FC9000A31203359000A3E0FCA3E06E
:10089A00FDA3E0FEA3E0FF78081203229000A31252
:1008AA0003359000A3E0F8A3E0F9A3E0FAA3E0FB84
:1008BA009000F6E0FFEB4FFFEAFEE9FDE8FC90004E
:1008CA00A31203359000A3E0FCA3E0FDA3E0FEA37E
:1008DA00E0FF78081203229000A31203359000A3C8
:1008EA00E0F8A3E0F9A3E0FAA3E0FB9000F5E0FF4B
:1008FA00EB4FFFEAFEE9FDE8FC9000A3120335E4A2
:10090A009000F5F0A37402F090009E1203410000DB
:10091A000000121BCC9000A77401F09000F4E06470
:08092A000B70059000AA04F017
:0109320022A2
:100DA9009000A7E024FE601614606C147003020E14
:100DB9004124036003020E55121C4B021AF69000DF
:100DC900A3E0FCA3E0FDA3E0FEA3E0FF90009EE00A
:100DD900F8A3E0F9A3E0FAA3E0FBC31202FE70074F
:100DE9009000A77403F022121BBD9000F4EFF0905D
:100DF900009EE0FCA3E0FDA3E0FEA3E02401FFE4E4
:100E09003EFEE43DFDE43CFC90009E1203357B016F
:100E19007A0079F4021AD5AFDDEF6401700DAFD510
:100E2900EF70089000A77404F0800A15DDAFDDEFBC
:100E3900F4700215D5D2DE227F02121B5D121C212D
:0C0E4900121BF9121C489000A7E004F0F6
:010E5500227A
:10198E009000A8E0FFA3E06F6025121C27EF640211
:10199E00701D9000A8E0FF04F074AB2FF582E434C4
:1019AE0000F583E0FF1207D59000A8E0540FF02257
:101468009000AAE014B40900505590148075F00358
:10147800A4C58325F0C5837302149B0214AB021420
:101488009B0214AB02149B0214AB02149B0214AB14
:101498000214BB900098E014F070247407F0121C3A
:1014A800488016900098E014F070147411F0121C23
:0F14B8004B80069000987411F09000AAE004F0A9
:0114C7002202
:100CF900FB330000000000000002030200000300B3
:100D09000000640100000000000000000000000075
:100D190000000000000000000000000000000000CA
:100D2900000063FB33000000000000000203020022
:100D390000010000000000000000000000000000A9
:100D4900000000000000000000000000000000009A
:100D5900000000000063FB0F00000000000000021B
:100D690001020000F1FB0F00000000000000020278
:100D7900020000F0FB0F0000000000000002040266
:100D89000000EEFB13000000000000000905090047
:100D99000080250000360D5F0D6E0D7D0CF90D8C60
:061C2D00900007EFF02219
:0B1B6E009000067401F0E4900002F00B
:061B7900900007E0FF22CE
:1019BE009000537401F0A37400F0A37410F0900023
:1019CE00507401F0A37400F0A37430F0E490000C96
:0C19DE00F0C293900006F07F01021C2D67
:10104000E4FE900D2DE493FDEEC39D5015EE900D42
:101050002C93FD74572EF582E43400F583EDF00EE9
:1010600080E09000657401F0900069EFF0E4FFFE0D
:10107000900D2DE49314FDEEC39D501074572EF582
:1010800082E43400F583E02FFF0E80E4EFF4FF0FDD
:1010900074572EF582E43400F583EFF09000097464
:1010A00001F0A37400F0A37457F09000977401F05E
:1010B000E490000FF0900009E0FBA3E0FAA3E0F950
:0E10C00090000FE0F58275830012018DF59906
:0110CE0022FF
:051C3E007F640210406C
:051C43007F03021040C8
:051399009000F4EFF0EC
:10139E0078F57C007D017BFF7A0D799F7E007F0AB8
:1013AE0012014E9000F4E0FFD394047480948050A8
:1013BE0043EF25E024F5F582E43400F583E0FEA347
:1013CE00E0AA06F990000974FFF0A3EAF0A3E9F091
:1013DE009000977401F0E490000FF0900009E0FB8C
:1013EE00A3E0FAA3E0F990000FE0F58275830012F6
:0413FE00018DF599CF
:0114020022C7
:1015E000900056E06054900000E0B4010AA3E0B41B
:1015F00090057F02121399900000E0B4010AA3E065
:10160000B4A905E4FF121399900000E475F00112EB
:1016100001EEFED3E5F094C2EE9401401DE490008B
:1016200000F0A3F0900005E0600BE4900056F0C2DB
:0A163000937F0480027F03121A6406
:01163A00228D
:10066A0090000CE020E7030207D4547FF09000507A
:10067A00E0FBA3E0FAA3E0F990000112018DFFE488
:10068A00FEFDEDC39F5018900050E0FBA3E0FAA3D3
:10069A00E0F98D8275830012018D2EFE0D80E3EE46
:1006AA0060030207D4900050E0FBA3E0FAA3E0F94C
:1006BA0090000912018D24F7700302078824F7704D
:1006CA00030207A3241060030207D490000A120150
:1006DA008D640660030207D4900056E060030207A7
:1006EA00D490000E12018D24FE602114602D146036
:1006FA0069240360030207D4121B6EEF64016003CE
:10070A000207D47F0B121A647F06806F121B6EEFEA
:10071A00640160030207D47F0580609000067401BB
:10072A00F0121B79EF640160030207D4900002E023
:10073A0014601314601414601114601A14601724DE
:10074A000560030207D47F0780027F09121A6490AA
:10075A000002E004F0227F0B80219000067401F071
:10076A00121B79EF64017062900002E0D394027464
:10077A0080948040047F0B80027F08021A649000F4
:10078A0050E0FBA3E0FAA3E0F990000A12018D649D
:10079A0001703790000804F022900050E0FBA3E0BB
:1007AA00FAA3E0F990000A12018D6404701C90000B
:1007BA000B12018D6402701290000D12018D700AE5
:0A07CA0090000E12018D900005F062
:0107D4002202
:10163B00900097E06401705090000FE004F064019B
:10164B00701B900009E0FBA3E0FAA3E0F990000FF8
:10165B00E0F58275830012018D900003F09000037A
:10166B00E014FF90000FE0FED39F400790009774AB
:10167B0080F022900009E0FBA3E0FAA3E0F98E8250
:08168B0075830012018DF59931
:011693002234
:1010CF00AF99EF64FB700490000DF090000DE0FEFF
:1010DF0064017005900004EFF0900053E0FBA3E073
:1010EF00FAA3E0F98E82758300EF1201CC90000D08
:1010FF00E004F0E0FF900004E06F705290000CE00D
:10110F0030E02154FEF09000537401F0A37400F00E
:10111F00A37410F09000507401F0A37400F0A37446
:10112F0030F0802390000CE04401F09000537401E4
:10113F00F0A37400F0A37430F09000507401F0A38A
:0E114F007400F0A37410F090000CE04480F0E7
:01115D00226F
:0A1BE600D297900117E04401F022AD
:1012BD00309727900111E0FFD394057480948040FE
:1012CD000FEF94DD7480948050069001167401F038
:1012DD00E4900112F0900111F022900112E01460DF
:1012ED0017047039900111E004F0D39405748094C3
:1012FD0080402AA37401F022900111E004F0E0FF78
:10130D007E0064DC70069001167402F0D3EF94DC5D
:0D131D00EE64809480400690011174E1F0B0
:01132A0022A0
:10182E00900116E0603B64017017A3E06401700341
:10183E007480F0900117E070087481F07F01121A25
:10184E0064900116E064027013A3E06401700D90C1
:10185E00005674FFF0D2937F02121A64E4900116C0
:02186E00F02266
:1011D400900117E030E709547FF09001137401F097
:1011E400900113E0605F24FE601C14601C146033E3
:1011F4002403704C900117E090011330E004740252
:10120400F0227403F022021B3190011574AAF0122B
:1012140018EB7F0A121A647F011213999001137458
:1012240004F022900114E0FF04F0D3EF94FB7480E7
:1012340094804011E4F0C283C292C293C2948001AC
:05124400E4900113F02D
:011249002282
:091BF000475056544700FF1BF05A
:101B4B00E49000F2F09000F1F09000EFF09000EED6
:021B5B00F02276
:1004FA007B017A0079F412195EEF700302066990A3
:10050A0000DDE01460281470030205AD14700302C4
:10051A0005CF240360030206699000F4E0642460B6
:10052A00030206699000DDE004F0E4A3F0229000E3
:10053A00F4E0FF9000DEE0FE04F074E02EF582E4C1
:10054A003400F583EFF09000DEE0640560030206F4
:10055A0069A3F09000DEE0FFA3E0FEC39F50349051
:10056A001BF6E493FB740193FA740293F98E827575
:10057A00830012018DFF74E02EF582E43400F583C6
:10058A00E06F6007E49000DDF080089000DFE0048F
:10059A00F080C09000DFE064056003020669900005
:1005AA00DE80189000F4E0B42C069000DEE004F03F
:1005BA009000DEE064076003020669F0A3F0900091
:1005CA00DDE004F0229000F4E0FF642C6005EF64A3
:1005DA002E70729000DEE0FF605F9000F07424F0ED
:1005EA00EF640370229000E1E075F00AA4FF900026
:1005FA00E0E075F064A42FFF9000E2E02F9000F293
:10060A00F09000F174FFF09000DEE0FB64027016D7
:10061A009000E0E075F00AA4FEA3E02E9000F2F04C
:10062A009000F174FFF0EB6401700E9000E0E0902E
:10063A0000F2F09000F174FFF0E49000DEF0A3F015
:10064A009000DDF0229000F4E024D0FF9000DEE07C
:0F065A00FE04F074E02EF582E43400F583EFF037
:01066900226E
:061C33009000EFE0FF222B
:101AB2009000EEE06402701A900117E030E013909B
:101AC20000EAE004F0D39464748094804004E4F06B
:021AD200B292CE
:011AD40022EF
:100F02009000F1E06012E4F09000EBF0A3F09000AA
:100F1200F2E09000EFF080249000EBE475F0011213
:100F220001EEFED3E5F094A0EE9400400F9000EBAA
:100F3200E4F0A374AAF09000EF74FFF09000EDE0EB
:100F420004F0D394A0748094804054E4F0A3E0644D
:100F520001700D9000F0E0B42404E4F08041802F91
:100F62009000EEE0640270109000F0E0B424028081
:100F72000EE49000F0F080279000F0E0B42410E43A
:100F8200F09000EE04F07F0C121A64D2928010E40A
:100F92009000F0F09000EE7402F07F0D121A6402DD
:020FA2001AB281
:031C4E000204FA93
:1018AE001234000054686973206669726D77617234
:1018BE0065207772697465206279204A7573746940
:1018CE006E5A686F75203C6A757374696E2E7A68ED
:0D18DE006F7533304071712E636F6D3E00E9
:100B650090011A12034100000000E4900148F0A32F
:100B7500F0900118F0A3F09018AEE493FE74019381
:100B8500FFC3900119E09FEE6480F8900118E064BE
:100B95008098504D90011AE0F8A3E0F9A3E0FAA37C
:100BA500E0FB900118E0FEA3E0FF900148E0FCA304
:100BB500E02FF582EC3EF583E493FFE4FCFDFEEBCC
:100BC5002FFFEE3AFEED39FDEC38FC90011A1203C9
:100BD50035900119E004F0709E900118E004F08052
:100BE5009690011AE0FCA3E0FDA3E0FEA3E0FFC0A0
:100BF50006C0079018B0E493FE740193FBAA06EAB9
:100C05003395E0F9F8D007D006C3EF9BFFEE9AFEC7
:100C1500ED99FDEC98FC90011A1203359018B0E49B
:100C250093FE740193FFEE3395E0FDFC90011AE00D
:100C3500F8A3E0F9A3E0FAA3E0FBC31202E860021F
:020C450080FE2F
:010C4700228A
:100FA4007F007E037D007C00121403E49000F4F0C3
:100FB4009000F4E0C39439748094805016121BBDE1
:100FC4009000F4E09018B293B507089000F4E004A0
:100FD400F080DD9000F4E0C3943974809480500272
:100FE40080FE7F807E037D007C00121403E4900069
:100FF400F4F09000F4E0C3941474809480500B12C5
:101004001BBD9000F4E004F080E8121BBDEF644FB8
:10101400600280FEE49000F4F09000F4E0C39407D2
:1010240074809480500B121BBD9000F4E004F08097
:0B103400E8121BBDEF6454600280FE58
:01103F00228E
:100A7A0090011EE475F0011201EEFED3E5F094C474
:100A8A00EE9409402DE490011EF0A3F0900115E0C8
:100A9A0064AA700590000804F0900008E06008E479
:100AAA00F0900123F0800B9001237401F0E490018F
:100ABA0022F0900123E07003020B64900122E0B45B
:100ACA0007004003020B64900AD8F8282873020A28
:100ADA00ED020AFB020B12020B16020B2D020B3C53
:100AEA00020B59C283E4900120F0A3F0121B7F800D
:100AFA0059900120E475F0011201EEFED3E5F0945D
:100B0A0064EE940040548042D283801C900120E419
:100B1A0075F0011201EEFED3E5F094F4EE94014073
:100B2A003980277F04121399E4900120F0A3F0A3DF
:100B3A008025900120E475F0011201EEFED3E5F064
:100B4A009478EE94054013121B8F9001228008E4DA
:0A0B5A00FF121399900122E004F04D
:010B6400226E
:10169400900129120335538EF7438901D28CE4FF5C
:1016A400FEFDFC900129E0F8A3E0F9A3E0FAA3E031
:1016B400FBC31202FE602F758A7E758CFF308DFD90
:1016C400C28D900129E0FCA3E0FDA3E0FEA3E02489
:1016D400FFFFEE34FFFEED34FFFDEC34FFFC900120
:0916E4002912033580B8C28C22E2
:1016ED0090012D120335538EF7438901D28CE4FFFF
:1016FD00FEFDFC90012DE0F8A3E0F9A3E0FAA3E0D4
:10170D00FBC31202FE602F758ACA758CFA308DFDEF
:10171D00C28D90012DE0FCA3E0FDA3E0FEA3E0242B
:10172D00FFFFEE34FFFEED34FFFDEC34FFFC9001C6
:09173D002D12033580B8C28C2284
:10174600900131120335538EEF438910D28EE4FF98
:10175600FEFDFC900131E0F8A3E0F9A3E0FAA3E076
:10176600FBC31202FE602F758BEA758DCB308FFDA1
:10177600C28F900131E0FCA3E0FDA3E0FEA3E024CC
:10178600FFFFEE34FFFEED34FFFDEC34FFFC90016D
:091796003112033580B8C28E2225
:101584009000F412033553C9BF53C9DF43C910D2C5
:10159400CAE4FFFEFDFC9000F4E0F8A3E0F9A3E048
:1015A400FAA3E0FBC31202FE602F75CC3075CDF8B0
:1015B40030CFFDC2CF9000F4E0FCA3E0FDA3E0FE39
:1015C400A3E024FFFFEE34FFFEED34FFFDEC34FF17
:0C15D400FC9000F412033580B8C2CA225B
:1014C80090013512033575C40743C408E4FFFEFDD7
:1014D800FC900135E0F8A3E0F9A3E0FAA3E0FBC330
:1014E8001202FE603575C52C75C6CFE5C45410646C
:1014F8001070F853C4EF900135E0FCA3E0FDA3E0C1
:10150800FEA3E024FFFFEE34FFFEED34FFFDEC34D4
:0E151800FFFC90013512033580B253C4F72258
:1015260090013912033575C40743C408E4FFFEFD74
:10153600FC900139E0F8A3E0F9A3E0FAA3E0FBC3CD
:101546001202FE603575C5D875C6FFE5C454106431
:101556001070F853C4EF900139E0FCA3E0FDA3E05E
:10156600FEA3E024FFFFEE34FFFEED34FFFDEC3476
:0E157600FFFC90013912033580B253C4F722F6
:1019250053B1BF53B2BF53B17F53B27F7598504384
:101935008920438780438E1053C4DFAB07AA06A9CD
:1019450005A8047F407E427D0F7C00120256EF04FD
:09195500F404F58DD28ED2992222
:10124A0090013D12033553B1BF53B2BF53B17F531F
:10125A00B27F75985043878053C4F843C4209001E5
:10126A003DE0F8A3E0F9A3E0FAA3E0FB7F407E4269
:10127A007D0F7C00120256C374FF9FFF74FF9EFE0F
:10128A00E49DFDE49CFC780812030F8FC690013D93
:10129A00E0F8A3E0F9A3E0FAA3E0FB7F407E427DF9
:1012AA000F7C00120256C374FF9FFF8FC543C40808
:0312BA00D29922A4
:071C01003098FDAF99C29875
:011C080022B9
:081C0900C2998F993099FD2268
:10132B009000F412033553B1FB53B2FB53B3BF53CD
:10133B00B4BF75F85075C40853C4DF9000F4E0F8DF
:10134B00A3E0F9A3E0FAA3E0FB7F407E427D0F7C94
:10135B0000120256C374FF9FFF74FF9EFEE49DFDB7
:10136B00E49CFC780812030F8FC69000F4E0F8A3FE
:10137B00E0F9A3E0FAA3E0FB7F407E427D0F7C0007
:0E138B00120256C374FF9FFF8FC543C4082291
:071C110030F8FDAF9AC2F8A4
:011C180022A9
:081C1900C2F98F9A30F9FD2297
:101B310075C7AA75C755A2AF9200C2AF75C7AA757E
:0A1B4100C755439F80A20092AF2217
:100C4800A2AF9200C2AF75C7AA75C755439F01A24C
:100C58000092AF75A630E4F5A775AF04A2AF920075
:100C6800C2AF75C7AA75C75543A401A20092AF9039
:100C78000143E5AEF075A631E4F5A7A2AF9200C234
:100C8800AF75C7AA75C75543A401A20092AFA3E5E3
:100C9800AEF0A2AF9200C2AF75C7AA75C755539FF1
:100CA800FEA20092AF900143E025E0FFE433FEA3EB
:100CB800E054017C002FFFEC3E900141F0A3EFF0DF
:100CC800E024F1F0900141E034FFF0E0FEA3E0FF02
:100CD8005401FD900144F0EEC313EF13900143F06B
:100CE80075C7AA75C755F58475C7AA75C7558D8583
:010CF80022D9
:03000000020E5697
:100E560075C7AA75C75575FD5A75C7AA75C755755D
:100E6600FDA5787FE4F6D8FD9000007FFF7E03E4C1
:0C0E7600F0A3DFFCDEFA758120020EBD47
:100E8200020933E493A3F8E493A34003F68001F24A
:100E920008DFF48029E493A3F85407240CC8C33371
:100EA200C4540F4420C8834004F456800146F6DF40
:100EB200E4800B0102040810204080901C39E47E7B
:100EC200019360BCA3FF543F30E509541FFEE49335
:100ED200A360010ECF54C025E060A840B8E493A3FC
:100EE200FAE493A3F8E493A3C8C582C8CAC583CA27
:100EF200F0A3C8C582C8CAC583CADFE9DEE780BEDF
:011C3D0000A6
:10007E00E709F608DFFA8046E709F208DFFA803E64
:10008E0088828C83E709F0A3DFFA8032E309F60851
:10009E00DFFA8078E309F208DFFA807088828C83B9
:1000AE00E309F0A3DFFA806489828A83E0A3F6086D
:1000BE00DFFA805889828A83E0A3F208DFFA804C47
:1000CE0080D280FA80C680D4806980F2803380101E
:1000DE0080A680EA809A80A880DA80E280CA803387
:1000EE0089828A83ECFAE493A3C8C582C8CCC583FF
:1000FE00CCF0A3C8C582C8CCC583CCDFE9DEE780CF
:10010E000D89828A83E493A3F608DFF9ECFAA9F04D
:10011E00EDFB2289828A83ECFAE0A3C8C582C8CCA3
:10012E00C583CCF0A3C8C582C8CCC583CCDFEADEBC
:10013E00E880DB89828A83E493A3F208DFF980CC1E
:10014E0088F0EF60010E4E60C388F0ED2402B40417
:10015E000050B9F582EB2402B4040050AF232345BE
:06016E0082239000CE7315
:10017400BB010689828A83E0225002E722BBFE0289
:09018400E32289828A83E49322BC
:10018D00BB010CE58229F582E5833AF583E0225027
:10019D0006E92582F8E622BBFE06E92582F8E22271
:0D01AD00E58229F582E5833AF583E493228B
:1001BA00BB010689828A83F0225002F722BBFE0124
:0201CA00F3221E
:1001CC00F8BB010DE58229F582E5833AF583E8F069
:1001DC00225006E92582C8F622BBFE05E92582C815
:0201EC00F222FD
:1001EE00C5F0F8A3E028F0C5F0F8E582158270029C
:0601FE001583E038F02239
:10020400A3F8E0C5F025F0F0E582158270021583AD
:06021400E0C838F0E8220A
:10021A0075F008758200EF2FFFEE33FECD33CDCC9B
:10022A0033CCC58233C5829BED9AEC99E58298401E
:10023A000CF582EE9BFEED9AFDEC99FC0FD5F0D6FB
:10024A00E4CEFBE4CDFAE4CCF9A88222B800C1B925
:10025A000059BA002DEC8BF084CFCECDFCE5F0CB63
:10026A00F97818EF2FFFEE33FEED33FDEC33FCEB9C
:10027A0033FB10D703994004EB99FB0FD8E5E4F957
:10028A00FA227818EF2FFFEE33FEED33FDEC33FC44
:10029A00C933C910D7059BE99A4007EC9BFCE99A38
:1002AA00F90FD8E0E4C9FAE4CCFB2275F010EF2F7D
:1002BA00FFEE33FEED33FDCC33CCC833C810D7077D
:1002CA009BEC9AE899400AED9BFDEC9AFCE899F8B8
:0E02DA000FD5F0DAE4CDFBE4CCFAE4C8F9224B
:1002E800EB9FF5F0EA9E42F0E99D42F0EC6480C88D
:0602F80064809845F0222D
:1002FE00EB9FF5F0EA9E42F0E99D42F0E89C45F056
:01030E0022CC
:10030F00E8600FECC313FCED13FDEE13FEEF13FFCC
:03031F00D8F122F0
:10032200E8600FEFC333FFEE33FEED33FDEC33FC39
:03033200D8F122DD
:0C033500ECF0A3EDF0A3EEF0A3EFF0223B
:10034100A8828583F0D083D08212035812035812F9
:100351000358120358E473E493A3C583C5F0C5831E
:10036100C8C582C8F0A3C583C5F0C583C8C582C806
:010371002269
:00000001FF
