:100EB90012170E7FB87E0B7D007C001212D37F00C3
:100EC900120E2F7F011206E990012DE0FF04F07E3A
:100ED90000D3EF94C8EE64809480402990012DE4FA
:100EE900F0121934900133EFF0900133E0FF7E00E6
:100EF900EF64FF4E70077F41120955800890013356
:100F0900E0FF120955120CFF1215401215CE120FEF
:100F19004190012EE0FFEF70171218B51200491227
:100F2900004A12055D12126B12194012007780E116
:070F390090012EE4F080910D
:010F4000228E
:10170E0075B10075B20075B30075B40075AC007597
:10171E00AD001217C0121918121909121040121723
:10172E00E81216D312176D12193F1218C61218F9B5
:03173E00D2AF2205
:04193A004101210A3C
:1017C0005389F0438901438E0890012274C1F0903F
:1017D00001237480F0900122E0FF8F8C900123E0C0
:0817E000FF8F8AD2A9D28C22EE
:03000B0002169743
:0D169700C0E0C083C082C0D075D000C00785
:1016A400900122E0FF8F8C900123E0FF8F8A90014C
:1016B40021E014FFF0EF700C900121740AF0900106
:0416C4002E74FFF091
:0B16C800D007D0D0D082D083D0E03219
:0E1918007F007EC27D017C00121587D2AC22BA
:030023000214B113
:1014B100C0E0C0F0C083C082C0D075D000C000C001
:1014C10001C002C003C004C005C006C007309905B1
:1014D1001210B6C299309805120A40C298D007D0AE
:1014E10006D005D004D003D002D001D000D0D0D096
:0814F10082D083D0F0D0E0327C
:0F1909007F807E257D007C00120D97439C01227C
:03007B000214F973
:1014F900C0E0C0F0C083C082C0D075D000C000C0B9
:1015090001C002C003C004C005C006C00730F9020B
:10151900C2F930F807C2F8AF9A121656D007D006AA
:10152900D005D004D003D002D001D000D0D0D082D1
:07153900D083D0F0D0E032B6
:10187A00900134EFF0C2F9900134E0FF8F9A30F909
:07188A00FD900134E0FF2294
:10104000A2AF9200C2AF75C7AA75C75543910143BD
:10105000C60875C7AA75C7555391FEA20092AF5333
:101060008EBFA2AF920075C7AA75C755759101537F
:10107000B7F843B70375C7AA75C755759100A200A5
:1010800092AFA2AF920075C7AA75C755759101437B
:10109000B71053D8DF75C7AA75C755759100A20060
:1010A00092AF75D10475D90075D50175DDFF539BDD
:0610B000F7C2DEC2DF22E0
:03006B0002000E82
:10000E00C0E0C083C082C2DD90013574FFF0D082A3
:05001E00D083D0E032A8
:0E19260075D50075DD01439B08D2DED2DF22AD
:08000300539BF7C2DFC2DD22AE
:0B0858009000E8EBF0A3EAF0A3E9F049
:100863009000E8E0FBA3E0FAA3E0F9120174FF9023
:1008730000EDEFF09000EB7402F0A3E4F09000E8D9
:10088300E0FBA3E0FAA3E0F9120174FFEF30E751B4
:100893009000EDE0FFEFF4FF9000EDEFF09000ED3E
:1008A300E004F09000EBE0FEA3E0FF9000EDE0FD3C
:1008B3007C00C3EF9DFFEE9CFE9000EBEEF0A3EFF8
:1008C300F09000EBE0FEA3E0FF9000EDE0FD7C0084
:1008D300C3EF9DFFEE9CFE9000EBEEF0A3EFF080E4
:1008E300269000EDE0FF7E009000ECE02FF09000FA
:1008F300EBE03EF09000EDE0FF7E009000ECE02F97
:10090300F09000EBE03EF09000EBE0FEA3E0FFD3BD
:10091300EF94FFEE9403400A9000EB7403F0A3748A
:10092300FFF09000EBE0FEA3E0FFEF4E70099000B4
:10093300EBE4F0A37401F09000EBE0FEA3E0FF8F83
:10094300DD9000EBE0FEA3E0FFEEFF7E008FD5D24B
:01095300DEC5
:010954002280
:10179700AFDD7E00EF4E7012AFD57E00EF64024ED4
:1017A70070089000D37402F0800C05DDAFDD7E0079
:0917B700EF4E700205D5D2DE22CE
:1018B500900135E0FFEF6008900135E4F0120FC9A3
:0118C5002200
:1017E80043F40853F37F53F3DF53F3F753F3FB4307
:1017F800F31053F3FE53F3FD539BBFD29553F3BF3E
:061808009000D6E4F0227E
:10182A00900136EFF0900136E0FF8FF5E5F4548031
:0B183A00FF7E00EF4E60F553F47F22AC
:1000260075F500E5F45480FF7E00EF4E60F5900113
:0C00360037E5F5F053F47F900137E0FF50
:01004200229B
:03004B0002184553
:10184500C0E0C083C082E5F430E7099000DE74FF94
:0B185500F053F47FD082D083D0E0324B
:101125009000F9120319D2959000F9E0FCA3E0FDB7
:10113500A3E0FEA3E0FF78101202E39000DAEFF0DF
:101145009000F9E0FCA3E0FDA3E0FEA3E0FF780832
:101155001202E39000D9EFF09000F9E0FCA3E0FD66
:10116500A3E0FEA3E0FF9000D8EFF0C29543F34063
:101175007F0312182A9000DAE0FF12182A9000D98E
:0E118500E0FF12182A9000D8E0FF12182A226C
:10004E0075F500E5F45480FF7E00EF4E60F59001EB
:0C005E0038E5F5F053F47F900138E0FF26
:01006A002273
:06004300C29553F3BF2239
:010049002294
:1016D300900139E4F0900139E0FF7E00C3EF9420DC
:1016E300EE648094805019900139E0FF74942FF5D3
:1016F30082E43400F583E4F0900139E004F080D50E
:0A170300900093E4F0900092E4F0EF
:01170D0022B9
:1016560090013AEFF0900092E0FFEF04FFEF541F85
:10166600FF900093E0FEEF6E602690013AE0FF9057
:101676000092E0FE04F074942EF582E43400F583C3
:10168600EFF0900092E0FFEF541FFF900092EFF012
:011696002231
:10145E00900124EBF0A3EAF0A3E9F0900092E0FFF4
:10146E00900093E0FEEEB507037F0022900093E01C
:10147E00FF04F074942FF582E43400F583E0FF90BE
:10148E000124E0FBA3E0FAA3E0F9EF1201BA900009
:10149E0093E0FFEF541FFF900093EFF0121614EF3E
:0314AE0004FF2216
:10161400900092E0FF900093E0FEEEB507037F0098
:1016240022900092E0FF900093E0FEEED39F4013DF
:10163400900092E0FFEF2420FF900093E0FEC3EFC0
:101644009EFF22900093E0FF900092E0FEC3EE9F85
:02165400FF2273
:01004A002293
:1017410000000000000004000000B0CE0001928AF9
:101751000002463600029BE20002F9D00003331E6C
:0C17610000034C4C0003D91A00041A4885
:01193F002285
:10180E0090013BEFF090013BE0FFEF25E025E02457
:0C181E0041F582E43417F583120309221F
:0506E9009000F4EFF0A9
:1006EE001200039000F4E0FF12180E9000C61203E1
:1006FE00199000C6E0FCA3E0FDA3E0FEA3E0FFEF2F
:10070E00242AFFEE3400FEED3400FDEC3400FC1222
:10071E00112512004E9000F5EFF012004E9000F6EB
:10072E00EFF012004E9000F7EFF012004E9000F82E
:10073E00EFF09000CF120325000000009000CFE0F4
:10074E00F8A3E0F9A3E0FAA3E0FB9000F8E0FFE4E1
:10075E00FCFDFEEB4FFFEA4EFEE94DFDE84CFC9032
:10076E0000CF1203199000CFE0FCA3E0FDA3E0FE42
:10077E00A3E0FF78081202F69000CF120319900042
:10078E00CFE0F8A3E0F9A3E0FAA3E0FB9000F7E0D6
:10079E00FFE4FCFDFEEB4FFFEA4EFEE94DFDE84C9B
:1007AE00FC9000CF1203199000CFE0FCA3E0FDA354
:1007BE00E0FEA3E0FF78081202F69000CF120319B4
:1007CE009000CFE0F8A3E0F9A3E0FAA3E0FB9000DD
:1007DE00F6E0FFE4FCFDFEEB4FFFEA4EFEE94DFDB9
:1007EE00E84CFC9000CF1203199000CFE0FCA3E080
:1007FE00FDA3E0FEA3E0FF78081202F69000CF12F0
:10080E0003199000CFE0F8A3E0F9A3E0FAA3E0FB10
:10081E009000F5E0FFE4FCFDFEEB4FFFEA4EFEE933
:10082E004DFDE84CFC9000CF1203199000F57401B9
:10083E00F09000F6E4F09000CB12032500000000CB
:09084E001219269000D37401F088
:01085700227E
:100FC9009000D3E0FFEF1203560FDC010FE002009F
:100FD90000103F121797229000CFE0FCA3E0FDA379
:100FE900E0FEA3E0FF9000CBE0F8A3E0F9A3E0FA6C
:100FF900A3E0FBC31202D270041200032212004EB6
:1010090090012FEFF09000CBE0FCA3E0FDA3E0FE00
:10101900A3E0FF7B017A0079007800EF2BFFEE3A1D
:10102900FEED39FDEC38FC9000CB1203197B017AF7
:0610390001792F12085896
:01103F00228E
:011940002284
:100C6400FB33000000000000000203020000030048
:100C7400000064010000000000000000000000000B
:100C84000000000000000000000000000000000060
:100C9400000063FB330000000000000002030200B8
:100CA400000100000000000000000000000000003F
:100CB4000000000000000000000000000000000030
:100CC400000000000063FB0F0000000000000002B1
:100CD40001020000F1FB0F0000000000000002020E
:100CE400020000F0FB0F00000000000000020402FC
:0B0CF4000000EE0CCA0CD90CE80C64E8
:10176D007B017A00790A90004DEBF0A3EAF0A3E932
:10177D00F07B017A00792A90004AEBF0A3EAF0A3FE
:0A178D00E9F0900006E4F0C2932298
:05095500900127EFF006
:10095A00900128E4F0900C98E493FF900128E0FEBF
:10096A00EEC39F5024900128E0FFEF900C9793FF6D
:10097A00900128E0FE74512EF582E43400F583EFED
:10098A00F0900128E004F080CC90005F7401F090B0
:10099A000127E0FF900063EFF0900129E4F0900155
:1009AA0028E4F0900C98E493FFEF14FF900128E0FC
:1009BA00FEEEC39F501F900128E0FF74512FF5826D
:1009CA00E43400F583E0FF900129E02FF09001283C
:1009DA00E004F080CE900129E0FFEFF4FF900129B6
:1009EA00EFF0900129E004F0900129E0FF9001283E
:1009FA00E0FE74512EF582E43400F583EFF07B01BA
:100A0A007A007951900003EBF0A3EAF0A3E9F090A1
:100A1A0000917401F0900009E4F0900003E0FBA358
:100A2A00E0FAA3E0F9900009E0FF8F8275830012D3
:050A3A00018DFF8F9902
:010A3F002294
:050E2F009000DFEFF070
:100E34007BFF7A0C79F7C003C002C0017B017A0002
:100E440079E0A801AC02AD03D001D002D0037E004A
:100E54007F0812014E9000DFE0FF7E00D3EF940381
:100E6400EE64809480504D9000DFE0FFEF25E02495
:100E7400E0F582E43400F583E0FEA3E0FFAA06A9CE
:100E8400077BFF900003EBF0A3EAF0A3E9F09000E6
:100E9400917401F0900009E4F0900003E0FBA3E0FA
:100EA400FAA3E0F9900009E0FF8F82758300120134
:040EB4008DFF8F9986
:010EB8002217
:1015CE00900050E0FFEF603D900131E475F00112A4
:1015DE0001EEAFF0FED3EF94C2EE940140279001DE
:1015EE0031E4F0A3E4F0900002E0FFEF600D900014
:1015FE0050E4F0C2937F041206E9227F031206E93B
:05160E007F02120E2F07
:0116130022B4
:10055D00900006E0FFEF20E7030206E8900006E0BA
:10056D00FFEF547FFF900006EFF090004AE0FBA3F1
:10057D00E0FAA3E0F975820175830012018DFF90F9
:10058D00012AEFF090012BE4F090012CE4F09001A2
:10059D002AE0FF90012CE0FEEEC39F502790004A09
:1005AD00E0FBA3E0FAA3E0F990012CE0FF8F827548
:1005BD00830012018DFF90012BE02FF090012CE0B4
:1005CD0004F080CA90012BE0FFEF60030206E89073
:1005DD00004AE0FBA3E0FAA3E0F9758209758300F8
:1005ED0012018DFFEF12035606E80106090206E817
:1005FD000306E809067912000006E82290004AE099
:10060D00FBA3E0FAA3E0F975820A75830012018D50
:10061D00FF7E00EF64064E60030206E8900050E096
:10062D00FFEF60030206E890004AE0FBA3E0FAA3A7
:10063D00E0F975820E75830012018DFFEF120356DE
:10064D00065D01066302066903066F04000006E8F5
:10065D007F061206E9227F051206E9227F071206A0
:10066D00E9227F081206E9222222222290004AE086
:10067D00FBA3E0FAA3E0F975820A75830012018DE0
:10068D00FF7E00EF64044E705290004AE0FBA3E041
:10069D00FAA3E0F975820B75830012018DFF7E00C0
:1006AD00EF64024E703590004AE0FBA3E0FAA3E040
:1006BD00F975820D75830012018DFF7E00EF4E706E
:1006CD001A90004AE0FBA3E0FAA3E0F975820E75DB
:0B06DD00830012018DFF900002EFF07F
:0106E80022EF
:1010B600900091E0FF7E00EF64014E7061900009A0
:1010C600E004FFF07E00EF64014E701E900003E026
:1010D600FBA3E0FAA3E0F9900009E0FF8F82758395
:1010E6000012018DFF900000EFF0900000E0FFEF8E
:1010F60014FF900009E0FEEED39F40079000917424
:1011060080F022900003E0FBA3E0FAA3E0F9900050
:0E11160009E0FF8F8275830012018DFF8F9913
:0111240022A8
:100A400090013CE599F090013CE0FF7E00EF64FBF3
:100A50004E7005900007E4F0900007E0FF7E00EF85
:100A600064014E700A90013CE0FF900001EFF090AD
:100A7000013CE0FF90004DE0FBA3E0FAA3E0F99019
:100A80000007E0FE8E82758300EF1201CC90000714
:100A9000E004F0900007E0FF900001E0FEEE6F70D0
:100AA00079900006E0FFEF30E032900006E0FFEFC3
:100AB00054FEFF900006EFF07B017A00790A900067
:100AC0004DEBF0A3EAF0A3E9F07B017A00792A90DC
:100AD000004AEBF0A3EAF0A3E9F08030900006E0D2
:100AE000FFEF4401FF900006EFF07B017A00792AC6
:100AF00090004DEBF0A3EAF0A3E9F07B017A0079D6
:100B00000A90004AEBF0A3EAF0A3E9F0900006E0B7
:0A0B1000FFEF4480FF900006EFF0B5
:010B1A0022B8
:1018C600D2979000F3E0FFEF4401FF9000F3EFF0B2
:0118D60022EF
:100CFF003097359000EEE0FF7E00D3EF9402EE6464
:100D0F0080948040189000EEE0FF7E00C3EF946562
:100D1F00EE6480948050069000F27401F09000EF22
:100D2F00E4F09000EEE4F0229000EFE0FFEF12030A
:100D3F00560D4A000D650100000D969000EEE0047F
:100D4F00FFF07E00D3EF9402EE64809480403890E1
:100D5F0000EF7401F0229000EEE004F09000EEE05E
:100D6F00FF7E00EF64644E70069000F27402F09004
:100D7F0000EEE0FF7E00D3EF9464EE648094804039
:070D8F00069000EE7469F00C
:010D9600223A
:10126B009000F2E0FFEF605F9000F2E0FF7E00EF96
:10127B0064014E702E9000F3E0FF7E00EF64014E90
:10128B00700B9000F37480F07F0A1206E99000F364
:10129B00E0FF7E00EF4E700B9000F37481F07F0146
:1012AB001206E99000F2E0FF7E00EF64024E70122E
:1012BB0090005074FFF0D2937F02120E2F7F021218
:0812CB0006E99000F2E4F022B4
:100F41009000F3E0FFEF30E7149000F3E0FFEF547F
:100F51007FFF9000F3EFF09000F07401F09000F04B
:100F6100E0FFEF1203560FC8000F7B010F92020F33
:100F710096030FA70400000FC3229000F3E0FFEFD8
:100F810030E0079000F07402F0229000F07403F05A
:100F910022121860227F0A1206E97F01120E2F9099
:100FA10000F07404F0229000F1E0FF04F07E00D321
:100FB100EF94FBEE64809480400DC2839000F0E4D6
:070FC100F0229000F0E4F0C3
:010FC8002206
:09006E00475056544700FF006E94
:1018F9009000C5E4F09000C4E4F09000C3E4F02245
:10037C007B017A01793D12145EEF700302055C90EB
:10038C0000B4E0FFEF12035603A40003BD01045AAE
:10039C0002048A030000055C90013DE0FFEF642439
:1003AC00600302055C9000B4E004F09000B5E4F04A
:1003BC002290013DE0FF9000B5E0FE04F074B72EF2
:1003CC00F582E43400F583EFF09000B5E0FF7E0099
:1003DC00EF64054E600302055C9000B6E4F09000FB
:1003EC00B5E0FF9000B6E0FEEEC39F504090007465
:1003FC00E493FB740193FA740293F99000B6E0FF56
:10040C008F8275830012018DFF9000B6E0FE74B7E9
:10041C002EF582E43400F583E0FEEF6E6007900069
:10042C00B4E4F080089000B6E004F080B19000B61F
:10043C00E0FF7E00EF64054E600302055C9000B5A2
:10044C00E4F09000B6E4F09000B4E004F0229001E7
:10045C003DE0FFEFB42C069000B5E004F09000B541
:10046C00E0FF7E00EF64074E600302055C9000B570
:10047C00E4F09000B6E4F09000B4E004F0229001B7
:10048C003DE0FFEF642C600D90013DE0FFEF642E2A
:10049C0060030205409000B5E0FF7E00EF4E700354
:1004AC000205309000B5E0FF7E00EF64034E702C27
:1004BC009000B8E0FFEF75F00AA4FF9000B7E0FEE3
:1004CC00EE75F064A4FEEE2FFF9000B9E0FEEF2E67
:1004DC00FF9000C5EFF09000C474FFF09000B5E001
:1004EC00FF7E00EF64024E701E9000B7E0FFEF75C8
:1004FC00F00AA4FF9000B8E0FEEF2EFF9000C5EFCD
:10050C00F09000C474FFF09000B5E0FF7E00EF6443
:10051C00014E70109000B7E0FF9000C5EFF0900016
:10052C00C474FFF09000B5E4F09000B6E4F09000D5
:10053C00B4E4F02290013DE0FFEF24D0FF9000B531
:10054C00E0FE04F074B72EF582E43400F583EFF08E
:01055C00227C
:061934009000C3E0FF2259
:101540009000C4E0FFEF60189000C4E4F09000C188
:10155000E4F0A3E4F09000C5E0FF9000C3EFF022B8
:101560009000C1E475F0011201EEAFF0FED3EF94EC
:10157000B8EE940B40109000C1740BF0A374C2F04D
:061580009000C374FFF0AF
:011586002242
:0400770012037C22D2
:101338009000FD120319538EF7438901D28C7F0068
:101348007E007D007C009000FDE0F8A3E0F9A3E0BA
:10135800FAA3E0FBC31202D26035758A7E758CFF52
:10136800308DFDC28D9000FDE0FCA3E0FDA3E0FE02
:10137800A3E0FF7BFF7AFF79FF78FFEF2BFFEE3AC0
:10138800FEED39FDEC38FC9000FD12031980AFC268
:021398008C22A5
:10139A00900101120319538EF7438901D28C7F0001
:1013AA007E007D007C00900101E0F8A3E0F9A3E053
:1013BA00FAA3E0FBC31202D26035758ACA758CFAA9
:1013CA00308DFDC28D900101E0FCA3E0FDA3E0FE9B
:1013DA00A3E0FF7BFF7AFF79FF78FFEF2BFFEE3A5E
:1013EA00FEED39FDEC38FC90010112031980AFC201
:0213FA008C2243
:1013FC00900105120319538EEF438910D28E7F0092
:10140C007E007D007C00900105E0F8A3E0F9A3E0EC
:10141C00FAA3E0FBC31202D26035758BEA758DCB53
:10142C00308FFDC28F900105E0FCA3E0FDA3E0FE30
:10143C00A3E0FF7BFF7AFF79FF78FFEF2BFFEE3AFB
:10144C00FEED39FDEC38FC90010512031980AFC29A
:02145C008E22DE
:1012D30090010912031953C9BF53C9DF43C910D27F
:1012E300CA7F007E007D007C00900109E0F8A3E046
:1012F300F9A3E0FAA3E0FBC31202D2603575CC3048
:1013030075CDF830CFFDC2CF900109E0FCA3E0FD1D
:10131300A3E0FEA3E0FF7BFF7AFF79FF78FFEF2BCB
:10132300FFEE3AFEED39FDEC38FC9001091203198A
:0513330080AFC2CA22D8
:1011930090010D12031975C40743C4087F007E0034
:1011A3007D007C0090010DE0F8A3E0F9A3E0FAA331
:1011B300E0FBC31202D2604075C52C75C6CFE5C4EF
:1011C3005410FF7E00EF64104E70F353C4EF900190
:1011D3000DE0FCA3E0FDA3E0FEA3E0FF7BFF7AFFAD
:1011E30079FF78FFEF2BFFEE3AFEED39FDEC38FC8B
:0C11F30090010D12031980A453C4F722D0
:1011FF0090011112031975C40743C4087F007E00C4
:10120F007D007C00900111E0F8A3E0F9A3E0FAA3C0
:10121F00E0FBC31202D2604075C5D875C6FFE5C4A6
:10122F005410FF7E00EF64104E70F353C4EF900123
:10123F0011E0FCA3E0FDA3E0FEA3E0FF7BFF7AFF3C
:10124F0079FF78FFEF2BFFEE3AFEED39FDEC38FC1E
:0C125F0090011112031980A453C4F7225F
:1015870090011512031953B1BF53B2BF53B17F5323
:10159700B27F759850438920438780438E1053C488
:1015A700DF900115E0F8A3E0F9A3E0FAA3E0FB7FE1
:1015B700407E427D0F7C00120240EF04FFEFF404EF
:0715C700F58DD28ED29922AE
:100BC70090011912031953B1BF53B2BF53B17F53E9
:100BD700B27F75985043878053C4F843C42090016F
:100BE70019E0F8A3E0F9A3E0FAA3E0FB7F407E4217
:100BF7007D0F7C00120240A804A905AA06AB07C313
:100C070074FF9BFF74FF9AFEE499FDE498FC780853
:100C17001202E38FC6900119E0F8A3E0F9A3E0FA06
:100C2700A3E0FB7F407E427D0F7C00120240A804B8
:100C3700A905AA06AB07C374FF9BFF74FF9AFEE4DE
:100C470099FDE498FCEF54FFFFEE5400FEED5400CD
:0D0C5700FDEC5400FC8FC543C408D2992267
:1018D7003098FD90013EE599F0C29890013EE0FFF7
:0118E70022DE
:1018910090013FEFF0C29990013FE0FF8F9930999D
:0218A100FD2226
:100D970090011D12031953B1FB53B2FB53B3BF5359
:100DA700B4BF75F85075C40853C4DF90011DE0F84F
:100DB700A3E0F9A3E0FAA3E0FB7F407E427D0F7C2E
:100DC70000120240A804A905AA06AB07C374FF9B3B
:100DD700FF74FF9AFEE499FDE498FC78081202E399
:100DE7008FC690011DE0F8A3E0F9A3E0FAA3E0FBAA
:100DF7007F407E427D0F7C00120240A804A905AA0D
:100E070006AB07C374FF9BFF74FF9AFEE499FDE4EA
:100E170098FCEF54FFFFEE5400FEED5400FDEC5438
:080E270000FC8FC543C4082242
:1018E80030F8FD900140E59AF0C2F8900140E0FF21
:0118F80022CD
:1018A300900141EFF0C2F9900141E0FF8F9A30F9C6
:0218B300FD2214
:1018600075C7AA75C755A2AF9200C2AF75C7AA7552
:0A187000C755439F80A20092AF22EB
:03000000020B1BD5
:100B1B0075C7AA75C75575FD5A75C7AA75C755759B
:100B2B00FDA5787FE4F6D8FD9000007FFF7E03E4FF
:0C0B3B00F0A3DFFCDEFA758120020B82C3
:100B4700020EB9E493A3F8E493A34003F68001F2FD
:100B570008DFF48029E493A3F85407240CC8C333AF
:100B6700C4540F4420C8834004F456800146F6DF7E
:100B7700E4800B010204081020408090193AE47EBB
:100B8700019360BCA3FF543F30E509541FFEE49373
:100B9700A360010ECF54C025E060A840B8E493A33A
:100BA700FAE493A3F8E493A3C8C582C8CAC583CA65
:100BB700F0A3C8C582C8CAC583CADFE9DEE780BE1D
:01193E0000A8
:10007E00E709F608DFFA8046E709F208DFFA803E64
:10008E0088828C83E709F0A3DFFA8032E309F60851
:10009E00DFFA8078E309F208DFFA807088828C83B9
:1000AE00E309F0A3DFFA806489828A83E0A3F6086D
:1000BE00DFFA805889828A83E0A3F208DFFA804C47
:1000CE0080D280FA80C680D4806980F2803380101E
:1000DE0080A680EA809A80A880DA80E280CA803387
:1000EE0089828A83ECFAE493A3C8C582C8CCC583FF
:1000FE00CCF0A3C8C582C8CCC583CCDFE9DEE780CF
:10010E000D89828A83E493A3F608DFF9ECFAA9F04D
:10011E00EDFB2289828A83ECFAE0A3C8C582C8CCA3
:10012E00C583CCF0A3C8C582C8CCC583CCDFEADEBC
:10013E00E880DB89828A83E493A3F208DFF980CC1E
:10014E0088F0EF60010E4E60C388F0ED2402B40417
:10015E000050B9F582EB2402B4040050AF232345BE
:06016E0082239000CE7315
:10017400BB010689828A83E0225002E722BBFE0289
:09018400E32289828A83E49322BC
:10018D00BB010CE58229F582E5833AF583E0225027
:10019D0006E92582F8E622BBFE06E92582F8E22271
:0D01AD00E58229F582E5833AF583E493228B
:1001BA00BB010689828A83F0225002F722BBFE0124
:0201CA00F3221E
:1001CC00F8BB010DE58229F582E5833AF583E8F069
:1001DC00225006E92582C8F622BBFE05E92582C815
:0201EC00F222FD
:1001EE00C5F0F8A3E028F0C5F0F8E582158270029C
:0601FE001583E038F02239
:1002040075F008758200EF2FFFEE33FECD33CDCCB1
:1002140033CCC58233C5829BED9AEC99E582984034
:100224000CF582EE9BFEED9AFDEC99FC0FD5F0D611
:10023400E4CEFBE4CDFAE4CCF9A88222B800C1B93B
:100244000059BA002DEC8BF084CFCECDFCE5F0CB79
:10025400F97818EF2FFFEE33FEED33FDEC33FCEBB2
:1002640033FB10D703994004EB99FB0FD8E5E4F96D
:10027400FA227818EF2FFFEE33FEED33FDEC33FC5A
:10028400C933C910D7059BE99A4007EC9BFCE99A4E
:10029400F90FD8E0E4C9FAE4CCFB2275F010EF2F93
:1002A400FFEE33FEED33FDCC33CCC833C810D70793
:1002B4009BEC9AE899400AED9BFDEC9AFCE899F8CE
:0E02C4000FD5F0DAE4CDFBE4CCFAE4C8F92261
:1002D200EB9FF5F0EA9E42F0E99D42F0E89C45F082
:0102E20022F9
:1002E300E8600FECC313FCED13FDEE13FEEF13FFF9
:0302F300D8F1221D
:1002F600E8600FEFC333FFEE33FEED33FDEC33FC66
:03030600D8F12209
:10030900E493FC740193FD740293FE740393FF223A
:0C031900ECF0A3EDF0A3EEF0A3EFF02257
:10032500A8828583F0D083D08212033C12033C124D
:10033500033C12033CE473E493A3C583C5F0C58372
:10034500C8C582C8F0A3C583C5F0C583C8C582C822
:010355002285
:10035600D083D082F8E4937012740193700DA3A336
:1003660093F8740193F5828883E47374029368604A
:06037600EFA3A3A380DF4A
:00000001FF
